{
  "_format": "hh-sol-artifact-1",
  "contractName": "Data",
  "sourceName": "contracts/Data.sol",
  "abi": [
    {
      "inputs": [
        {
          "internalType": "address",
          "name": "userContractAddress",
          "type": "address"
        }
      ],
      "stateMutability": "nonpayable",
      "type": "constructor"
    },
    {
      "anonymous": false,
      "inputs": [
        {
          "indexed": false,
          "internalType": "string",
          "name": "dataid",
          "type": "string"
        },
        {
          "indexed": true,
          "internalType": "address",
          "name": "ownerAddress",
          "type": "address"
        },
        {
          "indexed": true,
          "internalType": "address",
          "name": "requesterAddress",
          "type": "address"
        },
        {
          "indexed": false,
          "internalType": "bytes",
          "name": "key",
          "type": "bytes"
        }
      ],
      "name": "ApproveKeyRequest",
      "type": "event"
    },
    {
      "anonymous": false,
      "inputs": [
        {
          "indexed": false,
          "internalType": "string",
          "name": "id",
          "type": "string"
        },
        {
          "indexed": false,
          "internalType": "bytes32",
          "name": "name",
          "type": "bytes32"
        },
        {
          "indexed": false,
          "internalType": "bytes",
          "name": "value",
          "type": "bytes"
        },
        {
          "indexed": false,
          "internalType": "bytes32",
          "name": "category",
          "type": "bytes32"
        },
        {
          "indexed": false,
          "internalType": "address",
          "name": "ownerAddress",
          "type": "address"
        }
      ],
      "name": "DatasetAdded",
      "type": "event"
    },
    {
      "anonymous": false,
      "inputs": [
        {
          "indexed": false,
          "internalType": "string",
          "name": "dataid",
          "type": "string"
        },
        {
          "indexed": true,
          "internalType": "address",
          "name": "ownerAddress",
          "type": "address"
        },
        {
          "indexed": true,
          "internalType": "address",
          "name": "requesterAddress",
          "type": "address"
        },
        {
          "indexed": false,
          "internalType": "bytes32",
          "name": "accessType",
          "type": "bytes32"
        }
      ],
      "name": "KeyRequested",
      "type": "event"
    },
    {
      "anonymous": false,
      "inputs": [
        {
          "indexed": false,
          "internalType": "address",
          "name": "userAddress",
          "type": "address"
        },
        {
          "indexed": false,
          "internalType": "uint256",
          "name": "userType",
          "type": "uint256"
        },
        {
          "indexed": false,
          "internalType": "bool",
          "name": "approved",
          "type": "bool"
        }
      ],
      "name": "UserUpdated",
      "type": "event"
    },
    {
      "inputs": [
        {
          "internalType": "bytes32",
          "name": "category",
          "type": "bytes32"
        }
      ],
      "name": "addCategory",
      "outputs": [],
      "stateMutability": "nonpayable",
      "type": "function"
    },
    {
      "inputs": [
        {
          "internalType": "string",
          "name": "id",
          "type": "string"
        },
        {
          "internalType": "bytes32",
          "name": "name",
          "type": "bytes32"
        },
        {
          "internalType": "bytes",
          "name": "value",
          "type": "bytes"
        },
        {
          "internalType": "bytes32",
          "name": "category",
          "type": "bytes32"
        }
      ],
      "name": "addData",
      "outputs": [],
      "stateMutability": "nonpayable",
      "type": "function"
    },
    {
      "inputs": [
        {
          "internalType": "address",
          "name": "ownerAddress",
          "type": "address"
        },
        {
          "internalType": "bytes32",
          "name": "profession",
          "type": "bytes32"
        },
        {
          "internalType": "bytes32",
          "name": "location",
          "type": "bytes32"
        }
      ],
      "name": "addDataOwner",
      "outputs": [],
      "stateMutability": "nonpayable",
      "type": "function"
    },
    {
      "inputs": [
        {
          "internalType": "address",
          "name": "requesterAddress",
          "type": "address"
        },
        {
          "internalType": "bytes32",
          "name": "organisation",
          "type": "bytes32"
        },
        {
          "internalType": "bytes32",
          "name": "department",
          "type": "bytes32"
        },
        {
          "internalType": "bytes32",
          "name": "designation",
          "type": "bytes32"
        },
        {
          "internalType": "bytes",
          "name": "publicKey",
          "type": "bytes"
        }
      ],
      "name": "addDataRequester",
      "outputs": [],
      "stateMutability": "nonpayable",
      "type": "function"
    },
    {
      "inputs": [
        {
          "internalType": "string",
          "name": "dataid",
          "type": "string"
        },
        {
          "internalType": "address",
          "name": "requesterAddress",
          "type": "address"
        },
        {
          "internalType": "bytes",
          "name": "key",
          "type": "bytes"
        }
      ],
      "name": "approveKeyRequest",
      "outputs": [],
      "stateMutability": "nonpayable",
      "type": "function"
    },
    {
      "inputs": [
        {
          "internalType": "address",
          "name": "ownerAddress",
          "type": "address"
        }
      ],
      "name": "approveOwner",
      "outputs": [],
      "stateMutability": "nonpayable",
      "type": "function"
    },
    {
      "inputs": [
        {
          "internalType": "address",
          "name": "requesterAddress",
          "type": "address"
        }
      ],
      "name": "approveRequester",
      "outputs": [],
      "stateMutability": "nonpayable",
      "type": "function"
    },
    {
      "inputs": [],
      "name": "getAllCategories",
      "outputs": [
        {
          "internalType": "bytes32[]",
          "name": "",
          "type": "bytes32[]"
        }
      ],
      "stateMutability": "view",
      "type": "function"
    },
    {
      "inputs": [],
      "name": "getAllUsers",
      "outputs": [
        {
          "components": [
            {
              "internalType": "address",
              "name": "userAddress",
              "type": "address"
            },
            {
              "internalType": "uint256",
              "name": "userType",
              "type": "uint256"
            },
            {
              "internalType": "bool",
              "name": "approved",
              "type": "bool"
            }
          ],
          "internalType": "struct Users.UsersMinimal[]",
          "name": "",
          "type": "tuple[]"
        }
      ],
      "stateMutability": "view",
      "type": "function"
    },
    {
      "inputs": [
        {
          "internalType": "address",
          "name": "ownerAddress",
          "type": "address"
        }
      ],
      "name": "getDataOwner",
      "outputs": [
        {
          "components": [
            {
              "internalType": "address",
              "name": "ownerAddress",
              "type": "address"
            },
            {
              "internalType": "bytes32",
              "name": "profession",
              "type": "bytes32"
            },
            {
              "internalType": "bytes32",
              "name": "location",
              "type": "bytes32"
            },
            {
              "internalType": "bool",
              "name": "approved",
              "type": "bool"
            }
          ],
          "internalType": "struct Users.Owner",
          "name": "",
          "type": "tuple"
        }
      ],
      "stateMutability": "view",
      "type": "function"
    },
    {
      "inputs": [
        {
          "internalType": "address",
          "name": "requesterAddress",
          "type": "address"
        }
      ],
      "name": "getDataRequester",
      "outputs": [
        {
          "components": [
            {
              "internalType": "address",
              "name": "requesterAddress",
              "type": "address"
            },
            {
              "internalType": "bytes32",
              "name": "organisation",
              "type": "bytes32"
            },
            {
              "internalType": "bytes32",
              "name": "department",
              "type": "bytes32"
            },
            {
              "internalType": "bytes32",
              "name": "designation",
              "type": "bytes32"
            },
            {
              "internalType": "bool",
              "name": "approved",
              "type": "bool"
            }
          ],
          "internalType": "struct Users.Requester",
          "name": "",
          "type": "tuple"
        }
      ],
      "stateMutability": "view",
      "type": "function"
    },
    {
      "inputs": [
        {
          "internalType": "string",
          "name": "dataid",
          "type": "string"
        }
      ],
      "name": "getDatasetOwner",
      "outputs": [
        {
          "internalType": "address",
          "name": "",
          "type": "address"
        }
      ],
      "stateMutability": "view",
      "type": "function"
    },
    {
      "inputs": [
        {
          "internalType": "address",
          "name": "requesterAddress",
          "type": "address"
        }
      ],
      "name": "getPublicKey",
      "outputs": [
        {
          "internalType": "bytes",
          "name": "",
          "type": "bytes"
        }
      ],
      "stateMutability": "view",
      "type": "function"
    },
    {
      "inputs": [],
      "name": "getSuperAdmin",
      "outputs": [
        {
          "internalType": "address",
          "name": "",
          "type": "address"
        }
      ],
      "stateMutability": "view",
      "type": "function"
    },
    {
      "inputs": [],
      "name": "getUserData",
      "outputs": [
        {
          "components": [
            {
              "internalType": "string",
              "name": "id",
              "type": "string"
            },
            {
              "internalType": "address",
              "name": "ownerAddress",
              "type": "address"
            },
            {
              "internalType": "bytes32",
              "name": "name",
              "type": "bytes32"
            },
            {
              "internalType": "bytes",
              "name": "value",
              "type": "bytes"
            },
            {
              "internalType": "bytes32",
              "name": "category",
              "type": "bytes32"
            }
          ],
          "internalType": "struct Data.Dataset[]",
          "name": "",
          "type": "tuple[]"
        }
      ],
      "stateMutability": "view",
      "type": "function"
    },
    {
      "inputs": [
        {
          "internalType": "address",
          "name": "userAddress",
          "type": "address"
        }
      ],
      "name": "getUserRole",
      "outputs": [
        {
          "internalType": "uint256",
          "name": "",
          "type": "uint256"
        }
      ],
      "stateMutability": "view",
      "type": "function"
    },
    {
      "inputs": [
        {
          "internalType": "address",
          "name": "",
          "type": "address"
        }
      ],
      "name": "owners",
      "outputs": [
        {
          "internalType": "address",
          "name": "ownerAddress",
          "type": "address"
        },
        {
          "internalType": "bytes32",
          "name": "profession",
          "type": "bytes32"
        },
        {
          "internalType": "bytes32",
          "name": "location",
          "type": "bytes32"
        },
        {
          "internalType": "bool",
          "name": "approved",
          "type": "bool"
        }
      ],
      "stateMutability": "view",
      "type": "function"
    },
    {
      "inputs": [
        {
          "internalType": "string",
          "name": "dataid",
          "type": "string"
        },
        {
          "internalType": "address",
          "name": "ownerAddress",
          "type": "address"
        },
        {
          "internalType": "bytes32",
          "name": "accessType",
          "type": "bytes32"
        }
      ],
      "name": "requestKey",
      "outputs": [],
      "stateMutability": "nonpayable",
      "type": "function"
    },
    {
      "inputs": [
        {
          "internalType": "address",
          "name": "",
          "type": "address"
        }
      ],
      "name": "requesterToPublicKey",
      "outputs": [
        {
          "internalType": "bytes",
          "name": "",
          "type": "bytes"
        }
      ],
      "stateMutability": "view",
      "type": "function"
    },
    {
      "inputs": [
        {
          "internalType": "address",
          "name": "",
          "type": "address"
        }
      ],
      "name": "requesters",
      "outputs": [
        {
          "internalType": "address",
          "name": "requesterAddress",
          "type": "address"
        },
        {
          "internalType": "bytes32",
          "name": "organisation",
          "type": "bytes32"
        },
        {
          "internalType": "bytes32",
          "name": "department",
          "type": "bytes32"
        },
        {
          "internalType": "bytes32",
          "name": "designation",
          "type": "bytes32"
        },
        {
          "internalType": "bool",
          "name": "approved",
          "type": "bool"
        }
      ],
      "stateMutability": "view",
      "type": "function"
    },
    {
      "inputs": [],
      "name": "superadmin",
      "outputs": [
        {
          "internalType": "address",
          "name": "",
          "type": "address"
        }
      ],
      "stateMutability": "view",
      "type": "function"
    },
    {
      "inputs": [
        {
          "internalType": "string",
          "name": "id",
          "type": "string"
        },
        {
          "internalType": "bytes32",
          "name": "name",
          "type": "bytes32"
        },
        {
          "internalType": "bytes",
          "name": "value",
          "type": "bytes"
        },
        {
          "internalType": "bytes32",
          "name": "category",
          "type": "bytes32"
        }
      ],
      "name": "updateData",
      "outputs": [],
      "stateMutability": "nonpayable",
      "type": "function"
    },
    {
      "inputs": [
        {
          "internalType": "address",
          "name": "ownerAddress",
          "type": "address"
        },
        {
          "internalType": "bytes32",
          "name": "profession",
          "type": "bytes32"
        },
        {
          "internalType": "bytes32",
          "name": "location",
          "type": "bytes32"
        }
      ],
      "name": "updateDataOwner",
      "outputs": [],
      "stateMutability": "nonpayable",
      "type": "function"
    },
    {
      "inputs": [
        {
          "internalType": "address",
          "name": "requesterAddress",
          "type": "address"
        },
        {
          "internalType": "bytes32",
          "name": "organisation",
          "type": "bytes32"
        },
        {
          "internalType": "bytes32",
          "name": "department",
          "type": "bytes32"
        },
        {
          "internalType": "bytes32",
          "name": "designation",
          "type": "bytes32"
        }
      ],
      "name": "updateDataRequester",
      "outputs": [],
      "stateMutability": "nonpayable",
      "type": "function"
    },
    {
      "inputs": [
        {
          "internalType": "address",
          "name": "",
          "type": "address"
        }
      ],
      "name": "userIndexToUpdate",
      "outputs": [
        {
          "internalType": "uint256",
          "name": "",
          "type": "uint256"
        }
      ],
      "stateMutability": "view",
      "type": "function"
    },
    {
      "inputs": [
        {
          "internalType": "address",
          "name": "",
          "type": "address"
        }
      ],
      "name": "userToRole",
      "outputs": [
        {
          "internalType": "uint256",
          "name": "",
          "type": "uint256"
        }
      ],
      "stateMutability": "view",
      "type": "function"
    }
  ],
  "bytecode": "0x60806040523480156200001157600080fd5b506040516200455b3803806200455b83398181016040528101906200003791906200011b565b336000806101000a81548173ffffffffffffffffffffffffffffffffffffffff021916908373ffffffffffffffffffffffffffffffffffffffff1602179055506003600560003373ffffffffffffffffffffffffffffffffffffffff1673ffffffffffffffffffffffffffffffffffffffff1681526020019081526020016000208190555080600860006101000a81548173ffffffffffffffffffffffffffffffffffffffff021916908373ffffffffffffffffffffffffffffffffffffffff16021790555050620001a0565b600081519050620001158162000186565b92915050565b60006020828403121562000134576200013362000181565b5b6000620001448482850162000104565b91505092915050565b60006200015a8262000161565b9050919050565b600073ffffffffffffffffffffffffffffffffffffffff82169050919050565b600080fd5b62000191816200014d565b81146200019d57600080fd5b50565b6143ab80620001b06000396000f3fe608060405234801561001057600080fd5b506004361061018e5760003560e01c80635c06c902116100de57806394231a0111610097578063dadd0a5711610071578063dadd0a57146104bc578063dbe4d565146104da578063e2842d79146104f6578063f565d7b0146105145761018e565b806394231a0114610450578063b648ee2d1461046c578063d6f8307f146104885761018e565b80635c06c9021461037c57806363d48aba146103ac5780638204c326146103ca57806385099f6e146103e8578063857cdbb81461040457806394146f32146104345761018e565b8063278208511161014b5780633cabc73e116101255780633cabc73e146102f85780633cbca9d4146103145780635669c058146103305780635baeef1e146103605761018e565b806327820851146102905780633185d5af146102c057806332397503146102dc5761018e565b8063022914a7146101935780630cd12a2f146101c65780631a70b681146101f65780631d4ff14e146102125780631e2b7e261461024257806322e8c87d14610272575b600080fd5b6101ad60048036038101906101a8919061305b565b610544565b6040516101bd9493929190613a78565b60405180910390f35b6101e060048036038101906101db919061305b565b6105a1565b6040516101ed9190613dc4565b60405180910390f35b610210600480360381019061020b91906131d9565b6105b9565b005b61022c6004803603810190610227919061305b565b610675565b6040516102399190613dc4565b60405180910390f35b61025c6004803603810190610257919061305b565b61068d565b6040516102699190613be4565b60405180910390f35b61027a61072d565b6040516102879190613ba0565b60405180910390f35b6102aa60048036038101906102a5919061305b565b610957565b6040516102b79190613dc4565b60405180910390f35b6102da60048036038101906102d59190613088565b6109a0565b005b6102f660048036038101906102f1919061324f565b610e78565b005b610312600480360381019061030d9190613142565b611002565b005b61032e600480360381019061032991906130db565b611540565b005b61034a6004803603810190610345919061305b565b61186a565b6040516103579190613da9565b60405180910390f35b61037a60048036038101906103759190613349565b611952565b005b61039660048036038101906103919190613206565b611c62565b6040516103a39190613a5d565b60405180910390f35b6103b4611caa565b6040516103c19190613a5d565b60405180910390f35b6103d2611cce565b6040516103df9190613a5d565b60405180910390f35b61040260048036038101906103fd919061305b565b611cf7565b005b61041e6004803603810190610419919061305b565b611f32565b60405161042b9190613be4565b60405180910390f35b61044e600480360381019061044991906132be565b612003565b005b61046a60048036038101906104659190613088565b61218d565b005b6104866004803603810190610481919061305b565b6124a6565b005b6104a2600480360381019061049d919061305b565b6126e0565b6040516104b3959493929190613abd565b60405180910390f35b6104c4612743565b6040516104d19190613b7e565b60405180910390f35b6104f460048036038101906104ef9190613349565b61279b565b005b6104fe612a97565b60405161050b9190613bc2565b60405180910390f35b61052e6004803603810190610529919061305b565b612b71565b60405161053b9190613d8e565b60405180910390f35b60036020528060005260406000206000915090508060000160009054906101000a900473ffffffffffffffffffffffffffffffffffffffff16908060010154908060020154908060030160009054906101000a900460ff16905084565b60056020528060005260406000206000915090505481565b3360008054906101000a900473ffffffffffffffffffffffffffffffffffffffff1673ffffffffffffffffffffffffffffffffffffffff168173ffffffffffffffffffffffffffffffffffffffff1614610648576040517f08c379a000000000000000000000000000000000000000000000000000000000815260040161063f90613d2e565b60405180910390fd5b60028290806001815401808255809150506001900390600052602060002001600090919091909150555050565b60076020528060005260406000206000915090505481565b600660205280600052604060002060009150905080546106ac90614082565b80601f01602080910402602001604051908101604052809291908181526020018280546106d890614082565b80156107255780601f106106fa57610100808354040283529160200191610725565b820191906000526020600020905b81548152906001019060200180831161070857829003601f168201915b505050505081565b6060600a60003373ffffffffffffffffffffffffffffffffffffffff1673ffffffffffffffffffffffffffffffffffffffff168152602001908152602001600020805480602002602001604051908101604052809291908181526020016000905b8282101561094e57838290600052602060002090600502016040518060a00160405290816000820180546107c190614082565b80601f01602080910402602001604051908101604052809291908181526020018280546107ed90614082565b801561083a5780601f1061080f5761010080835404028352916020019161083a565b820191906000526020600020905b81548152906001019060200180831161081d57829003601f168201915b505050505081526020016001820160009054906101000a900473ffffffffffffffffffffffffffffffffffffffff1673ffffffffffffffffffffffffffffffffffffffff1673ffffffffffffffffffffffffffffffffffffffff168152602001600282015481526020016003820180546108b390614082565b80601f01602080910402602001604051908101604052809291908181526020018280546108df90614082565b801561092c5780601f106109015761010080835404028352916020019161092c565b820191906000526020600020905b81548152906001019060200180831161090f57829003601f168201915b505050505081526020016004820154815250508152602001906001019061078e565b50505050905090565b6000600560008373ffffffffffffffffffffffffffffffffffffffff1673ffffffffffffffffffffffffffffffffffffffff168152602001908152602001600020549050919050565b82600073ffffffffffffffffffffffffffffffffffffffff16600360008373ffffffffffffffffffffffffffffffffffffffff1673ffffffffffffffffffffffffffffffffffffffff16815260200190815260200160002060000160009054906101000a900473ffffffffffffffffffffffffffffffffffffffff1673ffffffffffffffffffffffffffffffffffffffff1614610a72576040517f08c379a0000000000000000000000000000000000000000000000000000000008152600401610a6990613cee565b60405180910390fd5b600073ffffffffffffffffffffffffffffffffffffffff16600460008373ffffffffffffffffffffffffffffffffffffffff1673ffffffffffffffffffffffffffffffffffffffff16815260200190815260200160002060000160009054906101000a900473ffffffffffffffffffffffffffffffffffffffff1673ffffffffffffffffffffffffffffffffffffffff1614610b43576040517f08c379a0000000000000000000000000000000000000000000000000000000008152600401610b3a90613cee565b60405180910390fd5b60008054906101000a900473ffffffffffffffffffffffffffffffffffffffff1673ffffffffffffffffffffffffffffffffffffffff168173ffffffffffffffffffffffffffffffffffffffff161415610bd2576040517f08c379a0000000000000000000000000000000000000000000000000000000008152600401610bc990613d4e565b60405180910390fd5b60405180608001604052808573ffffffffffffffffffffffffffffffffffffffff16815260200184815260200183815260200160001515815250600360008673ffffffffffffffffffffffffffffffffffffffff1673ffffffffffffffffffffffffffffffffffffffff16815260200190815260200160002060008201518160000160006101000a81548173ffffffffffffffffffffffffffffffffffffffff021916908373ffffffffffffffffffffffffffffffffffffffff160217905550602082015181600101556040820151816002015560608201518160030160006101000a81548160ff0219169083151502179055509050506001600560008673ffffffffffffffffffffffffffffffffffffffff1673ffffffffffffffffffffffffffffffffffffffff16815260200190815260200160002081905550600160405180606001604052808673ffffffffffffffffffffffffffffffffffffffff1681526020016001815260200160001515815250908060018154018082558091505060019003906000526020600020906003020160009091909190915060008201518160000160006101000a81548173ffffffffffffffffffffffffffffffffffffffff021916908373ffffffffffffffffffffffffffffffffffffffff1602179055506020820151816001015560408201518160020160006101000a81548160ff021916908315150217905550505060018080549050610df29190613f96565b600760008673ffffffffffffffffffffffffffffffffffffffff1673ffffffffffffffffffffffffffffffffffffffff168152602001908152602001600020819055507fe1391f1b21fd22d5c006ee81fe95aa900304333bd7a829642d9042a2395c27f88460016000604051610e6a93929190613b10565b60405180910390a150505050565b338073ffffffffffffffffffffffffffffffffffffffff16600860009054906101000a900473ffffffffffffffffffffffffffffffffffffffff1673ffffffffffffffffffffffffffffffffffffffff16635669c058836040518263ffffffff1660e01b8152600401610eeb9190613a5d565b60a06040518083038186803b158015610f0357600080fd5b505afa158015610f17573d6000803e3d6000fd5b505050506040513d601f19601f82011682018060405250810190610f3b9190613415565b6000015173ffffffffffffffffffffffffffffffffffffffff1614610f95576040517f08c379a0000000000000000000000000000000000000000000000000000000008152600401610f8c90613cce565b60405180910390fd5b3373ffffffffffffffffffffffffffffffffffffffff168373ffffffffffffffffffffffffffffffffffffffff167fe3f725d392082db4ed5aacf04a5570ccb3406ca516957b77276f37bbd6e6261b8685604051610ff4929190613c06565b60405180910390a350505050565b84600073ffffffffffffffffffffffffffffffffffffffff16600360008373ffffffffffffffffffffffffffffffffffffffff1673ffffffffffffffffffffffffffffffffffffffff16815260200190815260200160002060000160009054906101000a900473ffffffffffffffffffffffffffffffffffffffff1673ffffffffffffffffffffffffffffffffffffffff16146110d4576040517f08c379a00000000000000000000000000000000000000000000000000000000081526004016110cb90613cee565b60405180910390fd5b600073ffffffffffffffffffffffffffffffffffffffff16600460008373ffffffffffffffffffffffffffffffffffffffff1673ffffffffffffffffffffffffffffffffffffffff16815260200190815260200160002060000160009054906101000a900473ffffffffffffffffffffffffffffffffffffffff1673ffffffffffffffffffffffffffffffffffffffff16146111a5576040517f08c379a000000000000000000000000000000000000000000000000000000000815260040161119c90613cee565b60405180910390fd5b60008054906101000a900473ffffffffffffffffffffffffffffffffffffffff1673ffffffffffffffffffffffffffffffffffffffff168173ffffffffffffffffffffffffffffffffffffffff161415611234576040517f08c379a000000000000000000000000000000000000000000000000000000000815260040161122b90613d4e565b60405180910390fd5b6040518060a001604052808773ffffffffffffffffffffffffffffffffffffffff16815260200186815260200185815260200184815260200160001515815250600460008873ffffffffffffffffffffffffffffffffffffffff1673ffffffffffffffffffffffffffffffffffffffff16815260200190815260200160002060008201518160000160006101000a81548173ffffffffffffffffffffffffffffffffffffffff021916908373ffffffffffffffffffffffffffffffffffffffff16021790555060208201518160010155604082015181600201556060820151816003015560808201518160040160006101000a81548160ff0219169083151502179055509050506002600560008873ffffffffffffffffffffffffffffffffffffffff1673ffffffffffffffffffffffffffffffffffffffff1681526020019081526020016000208190555081600660008873ffffffffffffffffffffffffffffffffffffffff1673ffffffffffffffffffffffffffffffffffffffff16815260200190815260200160002090805190602001906113d3929190612c4f565b50600160405180606001604052808873ffffffffffffffffffffffffffffffffffffffff1681526020016002815260200160001515815250908060018154018082558091505060019003906000526020600020906003020160009091909190915060008201518160000160006101000a81548173ffffffffffffffffffffffffffffffffffffffff021916908373ffffffffffffffffffffffffffffffffffffffff1602179055506020820151816001015560408201518160020160006101000a81548160ff0219169083151502179055505050600180805490506114b89190613f96565b600760008873ffffffffffffffffffffffffffffffffffffffff1673ffffffffffffffffffffffffffffffffffffffff168152602001908152602001600020819055507fe1391f1b21fd22d5c006ee81fe95aa900304333bd7a829642d9042a2395c27f8866002600060405161153093929190613b47565b60405180910390a1505050505050565b3373ffffffffffffffffffffffffffffffffffffffff16600460008673ffffffffffffffffffffffffffffffffffffffff1673ffffffffffffffffffffffffffffffffffffffff16815260200190815260200160002060000160009054906101000a900473ffffffffffffffffffffffffffffffffffffffff1673ffffffffffffffffffffffffffffffffffffffff1614611610576040517f08c379a000000000000000000000000000000000000000000000000000000000815260040161160790613d6e565b60405180910390fd5b6040518060a001604052808573ffffffffffffffffffffffffffffffffffffffff16815260200184815260200183815260200182815260200160001515815250600460008673ffffffffffffffffffffffffffffffffffffffff1673ffffffffffffffffffffffffffffffffffffffff16815260200190815260200160002060008201518160000160006101000a81548173ffffffffffffffffffffffffffffffffffffffff021916908373ffffffffffffffffffffffffffffffffffffffff16021790555060208201518160010155604082015181600201556060820151816003015560808201518160040160006101000a81548160ff0219169083151502179055509050506000600760008673ffffffffffffffffffffffffffffffffffffffff1673ffffffffffffffffffffffffffffffffffffffff16815260200190815260200160002054905060405180606001604052808673ffffffffffffffffffffffffffffffffffffffff1681526020016002815260200160001515815250600182815481106117a4576117a361418c565b5b906000526020600020906003020160008201518160000160006101000a81548173ffffffffffffffffffffffffffffffffffffffff021916908373ffffffffffffffffffffffffffffffffffffffff1602179055506020820151816001015560408201518160020160006101000a81548160ff0219169083151502179055509050507fe1391f1b21fd22d5c006ee81fe95aa900304333bd7a829642d9042a2395c27f8856002600060405161185b93929190613b47565b60405180910390a15050505050565b611872612cd5565b600460008373ffffffffffffffffffffffffffffffffffffffff1673ffffffffffffffffffffffffffffffffffffffff1681526020019081526020016000206040518060a00160405290816000820160009054906101000a900473ffffffffffffffffffffffffffffffffffffffff1673ffffffffffffffffffffffffffffffffffffffff1673ffffffffffffffffffffffffffffffffffffffff1681526020016001820154815260200160028201548152602001600382015481526020016004820160009054906101000a900460ff1615151515815250509050919050565b33848173ffffffffffffffffffffffffffffffffffffffff1660098260405161197b9190613a46565b908152602001604051809103902060009054906101000a900473ffffffffffffffffffffffffffffffffffffffff1673ffffffffffffffffffffffffffffffffffffffff1614611a00576040517f08c379a00000000000000000000000000000000000000000000000000000000081526004016119f790613d0e565b60405180910390fd5b60005b600a60003373ffffffffffffffffffffffffffffffffffffffff1673ffffffffffffffffffffffffffffffffffffffff16815260200190815260200160002080549050811015611c1a578680519060200120600a60003373ffffffffffffffffffffffffffffffffffffffff1673ffffffffffffffffffffffffffffffffffffffff1681526020019081526020016000208281548110611aa657611aa561418c565b5b9060005260206000209060050201600001604051611ac49190613a2f565b60405180910390201415611c07576040518060a001604052808881526020013373ffffffffffffffffffffffffffffffffffffffff16815260200187815260200186815260200185815250600a60003373ffffffffffffffffffffffffffffffffffffffff1673ffffffffffffffffffffffffffffffffffffffff1681526020019081526020016000208281548110611b6057611b5f61418c565b5b90600052602060002090600502016000820151816000019080519060200190611b8a929190612d25565b5060208201518160010160006101000a81548173ffffffffffffffffffffffffffffffffffffffff021916908373ffffffffffffffffffffffffffffffffffffffff160217905550604082015181600201556060820151816003019080519060200190611bf8929190612c4f565b50608082015181600401559050505b8080611c12906140e5565b915050611a03565b507f9882a1045a8aaa4c2394b2ed864f628259f47465a5c53fbe62f8b494c4983b1f8686868633604051611c52959493929190613c36565b60405180910390a1505050505050565b6000600982604051611c749190613a46565b908152602001604051809103902060009054906101000a900473ffffffffffffffffffffffffffffffffffffffff169050919050565b60008054906101000a900473ffffffffffffffffffffffffffffffffffffffff1681565b60008060009054906101000a900473ffffffffffffffffffffffffffffffffffffffff16905090565b3360008054906101000a900473ffffffffffffffffffffffffffffffffffffffff1673ffffffffffffffffffffffffffffffffffffffff168173ffffffffffffffffffffffffffffffffffffffff1614611d86576040517f08c379a0000000000000000000000000000000000000000000000000000000008152600401611d7d90613d2e565b60405180910390fd5b6001600460008473ffffffffffffffffffffffffffffffffffffffff1673ffffffffffffffffffffffffffffffffffffffff16815260200190815260200160002060040160006101000a81548160ff0219169083151502179055506000600760008473ffffffffffffffffffffffffffffffffffffffff1673ffffffffffffffffffffffffffffffffffffffff16815260200190815260200160002054905060405180606001604052808473ffffffffffffffffffffffffffffffffffffffff168152602001600281526020016001151581525060018281548110611e6e57611e6d61418c565b5b906000526020600020906003020160008201518160000160006101000a81548173ffffffffffffffffffffffffffffffffffffffff021916908373ffffffffffffffffffffffffffffffffffffffff1602179055506020820151816001015560408201518160020160006101000a81548160ff0219169083151502179055509050507fe1391f1b21fd22d5c006ee81fe95aa900304333bd7a829642d9042a2395c27f88360026001604051611f2593929190613b47565b60405180910390a1505050565b6060600660008373ffffffffffffffffffffffffffffffffffffffff1673ffffffffffffffffffffffffffffffffffffffff1681526020019081526020016000208054611f7e90614082565b80601f0160208091040260200160405190810160405280929190818152602001828054611faa90614082565b8015611ff75780601f10611fcc57610100808354040283529160200191611ff7565b820191906000526020600020905b815481529060010190602001808311611fda57829003601f168201915b50505050509050919050565b338073ffffffffffffffffffffffffffffffffffffffff16600860009054906101000a900473ffffffffffffffffffffffffffffffffffffffff1673ffffffffffffffffffffffffffffffffffffffff1663f565d7b0836040518263ffffffff1660e01b81526004016120769190613a5d565b60806040518083038186803b15801561208e57600080fd5b505afa1580156120a2573d6000803e3d6000fd5b505050506040513d601f19601f820116820180604052508101906120c691906133e8565b6000015173ffffffffffffffffffffffffffffffffffffffff1614612120576040517f08c379a000000000000000000000000000000000000000000000000000000000815260040161211790613cce565b60405180910390fd5b8273ffffffffffffffffffffffffffffffffffffffff163373ffffffffffffffffffffffffffffffffffffffff167ffcfffe71601de5c5f8f2c21bc8b0d10b8c6075e398412fe11eaee402d95a4a64868560405161217f929190613c97565b60405180910390a350505050565b3373ffffffffffffffffffffffffffffffffffffffff16600360008573ffffffffffffffffffffffffffffffffffffffff1673ffffffffffffffffffffffffffffffffffffffff16815260200190815260200160002060000160009054906101000a900473ffffffffffffffffffffffffffffffffffffffff1673ffffffffffffffffffffffffffffffffffffffff161461225d576040517f08c379a000000000000000000000000000000000000000000000000000000000815260040161225490613d6e565b60405180910390fd5b60405180608001604052808473ffffffffffffffffffffffffffffffffffffffff16815260200183815260200182815260200160001515815250600360008573ffffffffffffffffffffffffffffffffffffffff1673ffffffffffffffffffffffffffffffffffffffff16815260200190815260200160002060008201518160000160006101000a81548173ffffffffffffffffffffffffffffffffffffffff021916908373ffffffffffffffffffffffffffffffffffffffff160217905550602082015181600101556040820151816002015560608201518160030160006101000a81548160ff0219169083151502179055509050506000600760008573ffffffffffffffffffffffffffffffffffffffff1673ffffffffffffffffffffffffffffffffffffffff16815260200190815260200160002054905060405180606001604052808573ffffffffffffffffffffffffffffffffffffffff1681526020016001815260200160001515815250600182815481106123e1576123e061418c565b5b906000526020600020906003020160008201518160000160006101000a81548173ffffffffffffffffffffffffffffffffffffffff021916908373ffffffffffffffffffffffffffffffffffffffff1602179055506020820151816001015560408201518160020160006101000a81548160ff0219169083151502179055509050507fe1391f1b21fd22d5c006ee81fe95aa900304333bd7a829642d9042a2395c27f8846001600060405161249893929190613b10565b60405180910390a150505050565b3360008054906101000a900473ffffffffffffffffffffffffffffffffffffffff1673ffffffffffffffffffffffffffffffffffffffff168173ffffffffffffffffffffffffffffffffffffffff1614612535576040517f08c379a000000000000000000000000000000000000000000000000000000000815260040161252c90613d2e565b60405180910390fd5b6001600360008473ffffffffffffffffffffffffffffffffffffffff1673ffffffffffffffffffffffffffffffffffffffff16815260200190815260200160002060030160006101000a81548160ff0219169083151502179055506000600760008473ffffffffffffffffffffffffffffffffffffffff1673ffffffffffffffffffffffffffffffffffffffff16815260200190815260200160002054905060405180606001604052808473ffffffffffffffffffffffffffffffffffffffff16815260200160018152602001600115158152506001828154811061261d5761261c61418c565b5b906000526020600020906003020160008201518160000160006101000a81548173ffffffffffffffffffffffffffffffffffffffff021916908373ffffffffffffffffffffffffffffffffffffffff1602179055506020820151816001015560408201518160020160006101000a81548160ff0219169083151502179055509050507fe1391f1b21fd22d5c006ee81fe95aa900304333bd7a829642d9042a2395c27f8836001806040516126d393929190613b10565b60405180910390a1505050565b60046020528060005260406000206000915090508060000160009054906101000a900473ffffffffffffffffffffffffffffffffffffffff16908060010154908060020154908060030154908060040160009054906101000a900460ff16905085565b6060600280548060200260200160405190810160405280929190818152602001828054801561279157602002820191906000526020600020905b81548152602001906001019080831161277d575b5050505050905090565b338073ffffffffffffffffffffffffffffffffffffffff16600860009054906101000a900473ffffffffffffffffffffffffffffffffffffffff1673ffffffffffffffffffffffffffffffffffffffff1663f565d7b0836040518263ffffffff1660e01b815260040161280e9190613a5d565b60806040518083038186803b15801561282657600080fd5b505afa15801561283a573d6000803e3d6000fd5b505050506040513d601f19601f8201168201806040525081019061285e91906133e8565b6000015173ffffffffffffffffffffffffffffffffffffffff16146128b8576040517f08c379a00000000000000000000000000000000000000000000000000000000081526004016128af90613cce565b60405180910390fd5b336009866040516128c99190613a46565b908152602001604051809103902060006101000a81548173ffffffffffffffffffffffffffffffffffffffff021916908373ffffffffffffffffffffffffffffffffffffffff160217905550600a60003373ffffffffffffffffffffffffffffffffffffffff1673ffffffffffffffffffffffffffffffffffffffff1681526020019081526020016000206040518060a001604052808781526020013373ffffffffffffffffffffffffffffffffffffffff16815260200186815260200185815260200184815250908060018154018082558091505060019003906000526020600020906005020160009091909190915060008201518160000190805190602001906129d6929190612d25565b5060208201518160010160006101000a81548173ffffffffffffffffffffffffffffffffffffffff021916908373ffffffffffffffffffffffffffffffffffffffff160217905550604082015181600201556060820151816003019080519060200190612a44929190612c4f565b506080820151816004015550507f9882a1045a8aaa4c2394b2ed864f628259f47465a5c53fbe62f8b494c4983b1f8585858533604051612a88959493929190613c36565b60405180910390a15050505050565b60606001805480602002602001604051908101604052809291908181526020016000905b82821015612b6857838290600052602060002090600302016040518060600160405290816000820160009054906101000a900473ffffffffffffffffffffffffffffffffffffffff1673ffffffffffffffffffffffffffffffffffffffff1673ffffffffffffffffffffffffffffffffffffffff168152602001600182015481526020016002820160009054906101000a900460ff16151515158152505081526020019060010190612abb565b50505050905090565b612b79612dab565b600360008373ffffffffffffffffffffffffffffffffffffffff1673ffffffffffffffffffffffffffffffffffffffff1681526020019081526020016000206040518060800160405290816000820160009054906101000a900473ffffffffffffffffffffffffffffffffffffffff1673ffffffffffffffffffffffffffffffffffffffff1673ffffffffffffffffffffffffffffffffffffffff16815260200160018201548152602001600282015481526020016003820160009054906101000a900460ff1615151515815250509050919050565b828054612c5b90614082565b90600052602060002090601f016020900481019282612c7d5760008555612cc4565b82601f10612c9657805160ff1916838001178555612cc4565b82800160010185558215612cc4579182015b82811115612cc3578251825591602001919060010190612ca8565b5b509050612cd19190612df1565b5090565b6040518060a00160405280600073ffffffffffffffffffffffffffffffffffffffff1681526020016000801916815260200160008019168152602001600080191681526020016000151581525090565b828054612d3190614082565b90600052602060002090601f016020900481019282612d535760008555612d9a565b82601f10612d6c57805160ff1916838001178555612d9a565b82800160010185558215612d9a579182015b82811115612d99578251825591602001919060010190612d7e565b5b509050612da79190612df1565b5090565b6040518060800160405280600073ffffffffffffffffffffffffffffffffffffffff16815260200160008019168152602001600080191681526020016000151581525090565b5b80821115612e0a576000816000905550600101612df2565b5090565b6000612e21612e1c84613e04565b613ddf565b905082815260208101848484011115612e3d57612e3c6141f4565b5b612e48848285614040565b509392505050565b6000612e63612e5e84613e35565b613ddf565b905082815260208101848484011115612e7f57612e7e6141f4565b5b612e8a848285614040565b509392505050565b600081359050612ea181614330565b92915050565b600081519050612eb681614330565b92915050565b600081519050612ecb81614347565b92915050565b600081359050612ee08161435e565b92915050565b600081519050612ef58161435e565b92915050565b600082601f830112612f1057612f0f6141ea565b5b8135612f20848260208601612e0e565b91505092915050565b600082601f830112612f3e57612f3d6141ea565b5b8135612f4e848260208601612e50565b91505092915050565b600060808284031215612f6d57612f6c6141ef565b5b612f776080613ddf565b90506000612f8784828501612ea7565b6000830152506020612f9b84828501612ee6565b6020830152506040612faf84828501612ee6565b6040830152506060612fc384828501612ebc565b60608301525092915050565b600060a08284031215612fe557612fe46141ef565b5b612fef60a0613ddf565b90506000612fff84828501612ea7565b600083015250602061301384828501612ee6565b602083015250604061302784828501612ee6565b604083015250606061303b84828501612ee6565b606083015250608061304f84828501612ebc565b60808301525092915050565b600060208284031215613071576130706141fe565b5b600061307f84828501612e92565b91505092915050565b6000806000606084860312156130a1576130a06141fe565b5b60006130af86828701612e92565b93505060206130c086828701612ed1565b92505060406130d186828701612ed1565b9150509250925092565b600080600080608085870312156130f5576130f46141fe565b5b600061310387828801612e92565b945050602061311487828801612ed1565b935050604061312587828801612ed1565b925050606061313687828801612ed1565b91505092959194509250565b600080600080600060a0868803121561315e5761315d6141fe565b5b600061316c88828901612e92565b955050602061317d88828901612ed1565b945050604061318e88828901612ed1565b935050606061319f88828901612ed1565b925050608086013567ffffffffffffffff8111156131c0576131bf6141f9565b5b6131cc88828901612efb565b9150509295509295909350565b6000602082840312156131ef576131ee6141fe565b5b60006131fd84828501612ed1565b91505092915050565b60006020828403121561321c5761321b6141fe565b5b600082013567ffffffffffffffff81111561323a576132396141f9565b5b61324684828501612f29565b91505092915050565b600080600060608486031215613268576132676141fe565b5b600084013567ffffffffffffffff811115613286576132856141f9565b5b61329286828701612f29565b93505060206132a386828701612e92565b92505060406132b486828701612ed1565b9150509250925092565b6000806000606084860312156132d7576132d66141fe565b5b600084013567ffffffffffffffff8111156132f5576132f46141f9565b5b61330186828701612f29565b935050602061331286828701612e92565b925050604084013567ffffffffffffffff811115613333576133326141f9565b5b61333f86828701612efb565b9150509250925092565b60008060008060808587031215613363576133626141fe565b5b600085013567ffffffffffffffff811115613381576133806141f9565b5b61338d87828801612f29565b945050602061339e87828801612ed1565b935050604085013567ffffffffffffffff8111156133bf576133be6141f9565b5b6133cb87828801612efb565b92505060606133dc87828801612ed1565b91505092959194509250565b6000608082840312156133fe576133fd6141fe565b5b600061340c84828501612f57565b91505092915050565b600060a0828403121561342b5761342a6141fe565b5b600061343984828501612fcf565b91505092915050565b600061344e83836135f3565b60208301905092915050565b60006134668383613895565b905092915050565b600061347a83836139cf565b60608301905092915050565b61348f81613fca565b82525050565b61349e81613fca565b82525050565b60006134af82613eab565b6134b98185613f09565b93506134c483613e66565b8060005b838110156134f55781516134dc8882613442565b97506134e783613ee2565b9250506001810190506134c8565b5085935050505092915050565b600061350d82613eb6565b6135178185613f1a565b93508360208202850161352985613e76565b8060005b858110156135655784840389528151613546858261345a565b945061355183613eef565b925060208a0199505060018101905061352d565b50829750879550505050505092915050565b600061358282613ec1565b61358c8185613f2b565b935061359783613e86565b8060005b838110156135c85781516135af888261346e565b97506135ba83613efc565b92505060018101905061359b565b5085935050505092915050565b6135de81613fdc565b82525050565b6135ed81613fdc565b82525050565b6135fc81613fe8565b82525050565b61360b81613fe8565b82525050565b600061361c82613ecc565b6136268185613f3c565b935061363681856020860161404f565b61363f81614203565b840191505092915050565b600061365582613ecc565b61365f8185613f4d565b935061366f81856020860161404f565b61367881614203565b840191505092915050565b6000815461369081614082565b61369a8186613f5e565b945060018216600081146136b557600181146136c6576136f9565b60ff198316865281860193506136f9565b6136cf85613e96565b60005b838110156136f1578154818901526001820191506020810190506136d2565b838801955050505b50505092915050565b61370b8161401c565b82525050565b61371a8161402e565b82525050565b600061372b82613ed7565b6137358185613f69565b935061374581856020860161404f565b61374e81614203565b840191505092915050565b600061376482613ed7565b61376e8185613f7a565b935061377e81856020860161404f565b61378781614203565b840191505092915050565b600061379d82613ed7565b6137a78185613f8b565b93506137b781856020860161404f565b80840191505092915050565b60006137d0600e83613f7a565b91506137db82614214565b602082019050919050565b60006137f3601383613f7a565b91506137fe8261423d565b602082019050919050565b6000613816601183613f7a565b915061382182614266565b602082019050919050565b6000613839602283613f7a565b91506138448261428f565b604082019050919050565b600061385c600c83613f7a565b9150613867826142de565b602082019050919050565b600061387f601683613f7a565b915061388a82614307565b602082019050919050565b600060a08301600083015184820360008601526138b28282613720565b91505060208301516138c76020860182613486565b5060408301516138da60408601826135f3565b50606083015184820360608601526138f28282613611565b915050608083015161390760808601826135f3565b508091505092915050565b6080820160008201516139286000850182613486565b50602082015161393b60208501826135f3565b50604082015161394e60408501826135f3565b50606082015161396160608501826135d5565b50505050565b60a08201600082015161397d6000850182613486565b50602082015161399060208501826135f3565b5060408201516139a360408501826135f3565b5060608201516139b660608501826135f3565b5060808201516139c960808501826135d5565b50505050565b6060820160008201516139e56000850182613486565b5060208201516139f86020850182613a11565b506040820151613a0b60408501826135d5565b50505050565b613a1a81614012565b82525050565b613a2981614012565b82525050565b6000613a3b8284613683565b915081905092915050565b6000613a528284613792565b915081905092915050565b6000602082019050613a726000830184613495565b92915050565b6000608082019050613a8d6000830187613495565b613a9a6020830186613602565b613aa76040830185613602565b613ab460608301846135e4565b95945050505050565b600060a082019050613ad26000830188613495565b613adf6020830187613602565b613aec6040830186613602565b613af96060830185613602565b613b0660808301846135e4565b9695505050505050565b6000606082019050613b256000830186613495565b613b326020830185613702565b613b3f60408301846135e4565b949350505050565b6000606082019050613b5c6000830186613495565b613b696020830185613711565b613b7660408301846135e4565b949350505050565b60006020820190508181036000830152613b9881846134a4565b905092915050565b60006020820190508181036000830152613bba8184613502565b905092915050565b60006020820190508181036000830152613bdc8184613577565b905092915050565b60006020820190508181036000830152613bfe818461364a565b905092915050565b60006040820190508181036000830152613c208185613759565b9050613c2f6020830184613602565b9392505050565b600060a0820190508181036000830152613c508188613759565b9050613c5f6020830187613602565b8181036040830152613c71818661364a565b9050613c806060830185613602565b613c8d6080830184613495565b9695505050505050565b60006040820190508181036000830152613cb18185613759565b90508181036020830152613cc5818461364a565b90509392505050565b60006020820190508181036000830152613ce7816137c3565b9050919050565b60006020820190508181036000830152613d07816137e6565b9050919050565b60006020820190508181036000830152613d2781613809565b9050919050565b60006020820190508181036000830152613d478161382c565b9050919050565b60006020820190508181036000830152613d678161384f565b9050919050565b60006020820190508181036000830152613d8781613872565b9050919050565b6000608082019050613da36000830184613912565b92915050565b600060a082019050613dbe6000830184613967565b92915050565b6000602082019050613dd96000830184613a20565b92915050565b6000613de9613dfa565b9050613df582826140b4565b919050565b6000604051905090565b600067ffffffffffffffff821115613e1f57613e1e6141bb565b5b613e2882614203565b9050602081019050919050565b600067ffffffffffffffff821115613e5057613e4f6141bb565b5b613e5982614203565b9050602081019050919050565b6000819050602082019050919050565b6000819050602082019050919050565b6000819050602082019050919050565b60008190508160005260206000209050919050565b600081519050919050565b600081519050919050565b600081519050919050565b600081519050919050565b600081519050919050565b6000602082019050919050565b6000602082019050919050565b6000602082019050919050565b600082825260208201905092915050565b600082825260208201905092915050565b600082825260208201905092915050565b600082825260208201905092915050565b600082825260208201905092915050565b600081905092915050565b600082825260208201905092915050565b600082825260208201905092915050565b600081905092915050565b6000613fa182614012565b9150613fac83614012565b925082821015613fbf57613fbe61412e565b5b828203905092915050565b6000613fd582613ff2565b9050919050565b60008115159050919050565b6000819050919050565b600073ffffffffffffffffffffffffffffffffffffffff82169050919050565b6000819050919050565b600061402782614012565b9050919050565b600061403982614012565b9050919050565b82818337600083830152505050565b60005b8381101561406d578082015181840152602081019050614052565b8381111561407c576000848401525b50505050565b6000600282049050600182168061409a57607f821691505b602082108114156140ae576140ad61415d565b5b50919050565b6140bd82614203565b810181811067ffffffffffffffff821117156140dc576140db6141bb565b5b80604052505050565b60006140f082614012565b91507fffffffffffffffffffffffffffffffffffffffffffffffffffffffffffffffff8214156141235761412261412e565b5b600182019050919050565b7f4e487b7100000000000000000000000000000000000000000000000000000000600052601160045260246000fd5b7f4e487b7100000000000000000000000000000000000000000000000000000000600052602260045260246000fd5b7f4e487b7100000000000000000000000000000000000000000000000000000000600052603260045260246000fd5b7f4e487b7100000000000000000000000000000000000000000000000000000000600052604160045260246000fd5b600080fd5b600080fd5b600080fd5b600080fd5b600080fd5b6000601f19601f8301169050919050565b7f496e76616c696420616374696f6e000000000000000000000000000000000000600082015250565b7f5573657220616c72656164792065786973747300000000000000000000000000600082015250565b7f496e76616c6964206f7065726174696f6e000000000000000000000000000000600082015250565b7f4f6e6c792073757065722061646d696e2063616e20617070726f76652075736560008201527f7273000000000000000000000000000000000000000000000000000000000000602082015250565b7f496e76616c696420757365720000000000000000000000000000000000000000600082015250565b7f496e76616c69642075736572206f7065726174696f6e00000000000000000000600082015250565b61433981613fca565b811461434457600080fd5b50565b61435081613fdc565b811461435b57600080fd5b50565b61436781613fe8565b811461437257600080fd5b5056fea26469706673582212205c5df10775c7e681459bf993455469ec5b54d1e8014ac7e43cbec909201faa4b64736f6c63430008070033",
  "linkReferences": {},
  "deployedLinkReferences": {}
}