{
  "_format": "hh-sol-artifact-1",
  "contractName": "Data",
  "sourceName": "contracts/Data.sol",
  "abi": [
    {
      "inputs": [
        {
          "internalType": "address",
          "name": "userContractAddress",
          "type": "address"
        }
      ],
      "stateMutability": "nonpayable",
      "type": "constructor"
    },
    {
      "anonymous": false,
      "inputs": [
        {
          "indexed": false,
          "internalType": "string",
          "name": "id",
          "type": "string"
        },
        {
          "indexed": false,
          "internalType": "bytes32",
          "name": "name",
          "type": "bytes32"
        },
        {
          "indexed": false,
          "internalType": "bytes32",
          "name": "category",
          "type": "bytes32"
        }
      ],
      "name": "DatasetAdded",
      "type": "event"
    },
    {
      "anonymous": false,
      "inputs": [
        {
          "indexed": false,
          "internalType": "address",
          "name": "ownerAddress",
          "type": "address"
        },
        {
          "indexed": false,
          "internalType": "bytes32",
          "name": "profession",
          "type": "bytes32"
        },
        {
          "indexed": false,
          "internalType": "bytes32",
          "name": "location",
          "type": "bytes32"
        },
        {
          "indexed": false,
          "internalType": "bool",
          "name": "approved",
          "type": "bool"
        }
      ],
      "name": "NewOwnerCreated",
      "type": "event"
    },
    {
      "anonymous": false,
      "inputs": [
        {
          "indexed": false,
          "internalType": "address",
          "name": "requesterAddress",
          "type": "address"
        },
        {
          "indexed": false,
          "internalType": "bytes32",
          "name": "organisation",
          "type": "bytes32"
        },
        {
          "indexed": false,
          "internalType": "bytes32",
          "name": "department",
          "type": "bytes32"
        },
        {
          "indexed": false,
          "internalType": "bytes32",
          "name": "designation",
          "type": "bytes32"
        },
        {
          "indexed": false,
          "internalType": "bool",
          "name": "approved",
          "type": "bool"
        }
      ],
      "name": "NewRequesterCreated",
      "type": "event"
    },
    {
      "anonymous": false,
      "inputs": [
        {
          "indexed": false,
          "internalType": "address",
          "name": "ownerAddress",
          "type": "address"
        },
        {
          "indexed": false,
          "internalType": "bytes32",
          "name": "profession",
          "type": "bytes32"
        },
        {
          "indexed": false,
          "internalType": "bytes32",
          "name": "location",
          "type": "bytes32"
        },
        {
          "indexed": false,
          "internalType": "bool",
          "name": "approved",
          "type": "bool"
        }
      ],
      "name": "UpdateDataOwner",
      "type": "event"
    },
    {
      "anonymous": false,
      "inputs": [
        {
          "indexed": false,
          "internalType": "address",
          "name": "requesterAddress",
          "type": "address"
        },
        {
          "indexed": false,
          "internalType": "bytes32",
          "name": "organisation",
          "type": "bytes32"
        },
        {
          "indexed": false,
          "internalType": "bytes32",
          "name": "department",
          "type": "bytes32"
        },
        {
          "indexed": false,
          "internalType": "bytes32",
          "name": "designation",
          "type": "bytes32"
        },
        {
          "indexed": false,
          "internalType": "bool",
          "name": "approved",
          "type": "bool"
        }
      ],
      "name": "UpdateDataRequester",
      "type": "event"
    },
    {
      "inputs": [
        {
          "internalType": "string",
          "name": "id",
          "type": "string"
        },
        {
          "internalType": "bytes32",
          "name": "name",
          "type": "bytes32"
        },
        {
          "internalType": "bytes",
          "name": "value",
          "type": "bytes"
        },
        {
          "internalType": "bytes32",
          "name": "category",
          "type": "bytes32"
        }
      ],
      "name": "addData",
      "outputs": [],
      "stateMutability": "nonpayable",
      "type": "function"
    },
    {
      "inputs": [
        {
          "internalType": "address",
          "name": "ownerAddress",
          "type": "address"
        },
        {
          "internalType": "bytes32",
          "name": "profession",
          "type": "bytes32"
        },
        {
          "internalType": "bytes32",
          "name": "location",
          "type": "bytes32"
        }
      ],
      "name": "addDataOwner",
      "outputs": [],
      "stateMutability": "nonpayable",
      "type": "function"
    },
    {
      "inputs": [
        {
          "internalType": "address",
          "name": "requesterAddress",
          "type": "address"
        },
        {
          "internalType": "bytes32",
          "name": "organisation",
          "type": "bytes32"
        },
        {
          "internalType": "bytes32",
          "name": "department",
          "type": "bytes32"
        },
        {
          "internalType": "bytes32",
          "name": "designation",
          "type": "bytes32"
        }
      ],
      "name": "addDataRequester",
      "outputs": [],
      "stateMutability": "nonpayable",
      "type": "function"
    },
    {
      "inputs": [
        {
          "internalType": "address",
          "name": "ownerAddress",
          "type": "address"
        }
      ],
      "name": "approveOwner",
      "outputs": [],
      "stateMutability": "nonpayable",
      "type": "function"
    },
    {
      "inputs": [
        {
          "internalType": "address",
          "name": "requesterAddress",
          "type": "address"
        }
      ],
      "name": "approveRequester",
      "outputs": [],
      "stateMutability": "nonpayable",
      "type": "function"
    },
    {
      "inputs": [],
      "name": "getAllUsers",
      "outputs": [
        {
          "components": [
            {
              "internalType": "address",
              "name": "userAddress",
              "type": "address"
            },
            {
              "internalType": "uint256",
              "name": "role",
              "type": "uint256"
            }
          ],
          "internalType": "struct Users.User[]",
          "name": "",
          "type": "tuple[]"
        }
      ],
      "stateMutability": "view",
      "type": "function"
    },
    {
      "inputs": [
        {
          "internalType": "address",
          "name": "ownerAddress",
          "type": "address"
        }
      ],
      "name": "getDataOwner",
      "outputs": [
        {
          "components": [
            {
              "internalType": "address",
              "name": "ownerAddress",
              "type": "address"
            },
            {
              "internalType": "bytes32",
              "name": "profession",
              "type": "bytes32"
            },
            {
              "internalType": "bytes32",
              "name": "location",
              "type": "bytes32"
            },
            {
              "internalType": "bool",
              "name": "approved",
              "type": "bool"
            }
          ],
          "internalType": "struct Users.Owner",
          "name": "",
          "type": "tuple"
        }
      ],
      "stateMutability": "view",
      "type": "function"
    },
    {
      "inputs": [
        {
          "internalType": "address",
          "name": "requesterAddress",
          "type": "address"
        }
      ],
      "name": "getDataRequester",
      "outputs": [
        {
          "components": [
            {
              "internalType": "address",
              "name": "requesterAddress",
              "type": "address"
            },
            {
              "internalType": "bytes32",
              "name": "organisation",
              "type": "bytes32"
            },
            {
              "internalType": "bytes32",
              "name": "department",
              "type": "bytes32"
            },
            {
              "internalType": "bytes32",
              "name": "designation",
              "type": "bytes32"
            },
            {
              "internalType": "bool",
              "name": "approved",
              "type": "bool"
            }
          ],
          "internalType": "struct Users.Requester",
          "name": "",
          "type": "tuple"
        }
      ],
      "stateMutability": "view",
      "type": "function"
    },
    {
      "inputs": [
        {
          "internalType": "string",
          "name": "id",
          "type": "string"
        }
      ],
      "name": "getSingleDataItem",
      "outputs": [
        {
          "components": [
            {
              "internalType": "string",
              "name": "id",
              "type": "string"
            },
            {
              "internalType": "address",
              "name": "ownerAddress",
              "type": "address"
            },
            {
              "internalType": "bytes32",
              "name": "name",
              "type": "bytes32"
            },
            {
              "internalType": "bytes",
              "name": "value",
              "type": "bytes"
            },
            {
              "internalType": "bytes32",
              "name": "category",
              "type": "bytes32"
            }
          ],
          "internalType": "struct Data.Dataset",
          "name": "",
          "type": "tuple"
        }
      ],
      "stateMutability": "view",
      "type": "function"
    },
    {
      "inputs": [],
      "name": "getSuperAdmin",
      "outputs": [
        {
          "internalType": "address",
          "name": "",
          "type": "address"
        }
      ],
      "stateMutability": "view",
      "type": "function"
    },
    {
      "inputs": [],
      "name": "getUserData",
      "outputs": [
        {
          "components": [
            {
              "internalType": "string",
              "name": "id",
              "type": "string"
            },
            {
              "internalType": "address",
              "name": "ownerAddress",
              "type": "address"
            },
            {
              "internalType": "bytes32",
              "name": "name",
              "type": "bytes32"
            },
            {
              "internalType": "bytes",
              "name": "value",
              "type": "bytes"
            },
            {
              "internalType": "bytes32",
              "name": "category",
              "type": "bytes32"
            }
          ],
          "internalType": "struct Data.Dataset[]",
          "name": "",
          "type": "tuple[]"
        }
      ],
      "stateMutability": "view",
      "type": "function"
    },
    {
      "inputs": [],
      "name": "superadmin",
      "outputs": [
        {
          "internalType": "address",
          "name": "",
          "type": "address"
        }
      ],
      "stateMutability": "view",
      "type": "function"
    },
    {
      "inputs": [
        {
          "internalType": "string",
          "name": "id",
          "type": "string"
        },
        {
          "internalType": "bytes32",
          "name": "name",
          "type": "bytes32"
        },
        {
          "internalType": "bytes",
          "name": "value",
          "type": "bytes"
        },
        {
          "internalType": "bytes32",
          "name": "category",
          "type": "bytes32"
        }
      ],
      "name": "updateData",
      "outputs": [],
      "stateMutability": "nonpayable",
      "type": "function"
    },
    {
      "inputs": [
        {
          "internalType": "address",
          "name": "ownerAddress",
          "type": "address"
        },
        {
          "internalType": "bytes32",
          "name": "profession",
          "type": "bytes32"
        },
        {
          "internalType": "bytes32",
          "name": "location",
          "type": "bytes32"
        }
      ],
      "name": "updateDataOwner",
      "outputs": [],
      "stateMutability": "nonpayable",
      "type": "function"
    },
    {
      "inputs": [
        {
          "internalType": "address",
          "name": "requesterAddress",
          "type": "address"
        },
        {
          "internalType": "bytes32",
          "name": "organisation",
          "type": "bytes32"
        },
        {
          "internalType": "bytes32",
          "name": "department",
          "type": "bytes32"
        },
        {
          "internalType": "bytes32",
          "name": "designation",
          "type": "bytes32"
        }
      ],
      "name": "updateDataRequester",
      "outputs": [],
      "stateMutability": "nonpayable",
      "type": "function"
    }
  ],
  "bytecode": "0x60806040523480156200001157600080fd5b50604051620035ce380380620035ce8339818101604052810190620000379190620001a0565b336000806101000a81548173ffffffffffffffffffffffffffffffffffffffff021916908373ffffffffffffffffffffffffffffffffffffffff1602179055506001604051806040016040528060008054906101000a900473ffffffffffffffffffffffffffffffffffffffff1673ffffffffffffffffffffffffffffffffffffffff1681526020016003815250908060018154018082558091505060019003906000526020600020906002020160009091909190915060008201518160000160006101000a81548173ffffffffffffffffffffffffffffffffffffffff021916908373ffffffffffffffffffffffffffffffffffffffff16021790555060208201518160010155505080600460006101000a81548173ffffffffffffffffffffffffffffffffffffffff021916908373ffffffffffffffffffffffffffffffffffffffff1602179055505062000225565b6000815190506200019a816200020b565b92915050565b600060208284031215620001b957620001b862000206565b5b6000620001c98482850162000189565b91505092915050565b6000620001df82620001e6565b9050919050565b600073ffffffffffffffffffffffffffffffffffffffff82169050919050565b600080fd5b6200021681620001d2565b81146200022257600080fd5b50565b61339980620002356000396000f3fe608060405234801561001057600080fd5b50600436106100f55760003560e01c80638204c32611610097578063b648ee2d11610066578063b648ee2d1461025c578063dbe4d56514610278578063e2842d7914610294578063f565d7b0146102b2576100f5565b80638204c326146101d657806385099f6e146101f457806394231a0114610210578063a3ac66b41461022c576100f5565b80635669c058116100d35780635669c058146101505780635baeef1e1461018057806363d48aba1461019c57806369146dea146101ba576100f5565b806322e8c87d146100fa5780633185d5af146101185780633cbca9d414610134575b600080fd5b6101026102e2565b60405161010f9190612cd5565b60405180910390f35b610132600480360381019061012d91906124aa565b61050c565b005b61014e600480360381019061014991906124fd565b610923565b005b61016a6004803603810190610165919061247d565b610b69565b6040516101779190612e54565b60405180910390f35b61019a600480360381019061019591906125ad565b610c51565b005b6101a461108d565b6040516101b19190612c22565b60405180910390f35b6101d460048036038101906101cf91906124fd565b6110b1565b005b6101de6114db565b6040516101eb9190612c22565b60405180910390f35b61020e6004803603810190610209919061247d565b611504565b005b61022a600480360381019061022591906124aa565b6115f2565b005b61024660048036038101906102419190612564565b6117fc565b6040516102539190612e17565b60405180910390f35b6102766004803603810190610271919061247d565b6119ff565b005b610292600480360381019061028d91906125ad565b611aed565b005b61029c611f15565b6040516102a99190612cf7565b60405180910390f35b6102cc60048036038101906102c7919061247d565b611fd4565b6040516102d99190612e39565b60405180910390f35b6060600760003373ffffffffffffffffffffffffffffffffffffffff1673ffffffffffffffffffffffffffffffffffffffff168152602001908152602001600020805480602002602001604051908101604052809291908181526020016000905b8282101561050357838290600052602060002090600502016040518060a001604052908160008201805461037690613070565b80601f01602080910402602001604051908101604052809291908181526020018280546103a290613070565b80156103ef5780601f106103c4576101008083540402835291602001916103ef565b820191906000526020600020905b8154815290600101906020018083116103d257829003601f168201915b505050505081526020016001820160009054906101000a900473ffffffffffffffffffffffffffffffffffffffff1673ffffffffffffffffffffffffffffffffffffffff1673ffffffffffffffffffffffffffffffffffffffff1681526020016002820154815260200160038201805461046890613070565b80601f016020809104026020016040519081016040528092919081815260200182805461049490613070565b80156104e15780601f106104b6576101008083540402835291602001916104e1565b820191906000526020600020905b8154815290600101906020018083116104c457829003601f168201915b5050505050815260200160048201548152505081526020019060010190610343565b50505050905090565b82600073ffffffffffffffffffffffffffffffffffffffff16600260008373ffffffffffffffffffffffffffffffffffffffff1673ffffffffffffffffffffffffffffffffffffffff16815260200190815260200160002060000160009054906101000a900473ffffffffffffffffffffffffffffffffffffffff1673ffffffffffffffffffffffffffffffffffffffff16146105de576040517f08c379a00000000000000000000000000000000000000000000000000000000081526004016105d590612d77565b60405180910390fd5b600073ffffffffffffffffffffffffffffffffffffffff16600360008373ffffffffffffffffffffffffffffffffffffffff1673ffffffffffffffffffffffffffffffffffffffff16815260200190815260200160002060000160009054906101000a900473ffffffffffffffffffffffffffffffffffffffff1673ffffffffffffffffffffffffffffffffffffffff16146106af576040517f08c379a00000000000000000000000000000000000000000000000000000000081526004016106a690612d77565b60405180910390fd5b60008054906101000a900473ffffffffffffffffffffffffffffffffffffffff1673ffffffffffffffffffffffffffffffffffffffff168173ffffffffffffffffffffffffffffffffffffffff16141561073e576040517f08c379a000000000000000000000000000000000000000000000000000000000815260040161073590612dd7565b60405180910390fd5b60405180608001604052808573ffffffffffffffffffffffffffffffffffffffff16815260200184815260200183815260200160001515815250600260008673ffffffffffffffffffffffffffffffffffffffff1673ffffffffffffffffffffffffffffffffffffffff16815260200190815260200160002060008201518160000160006101000a81548173ffffffffffffffffffffffffffffffffffffffff021916908373ffffffffffffffffffffffffffffffffffffffff160217905550602082015181600101556040820151816002015560608201518160030160006101000a81548160ff021916908315150217905550905050600160405180604001604052808673ffffffffffffffffffffffffffffffffffffffff1681526020016001815250908060018154018082558091505060019003906000526020600020906002020160009091909190915060008201518160000160006101000a81548173ffffffffffffffffffffffffffffffffffffffff021916908373ffffffffffffffffffffffffffffffffffffffff1602179055506020820151816001015550507f9a5c03ed86a31061c8fb061b17872c118b5d9a2bc06ae9c21010519f2b46271684848460006040516109159493929190612c3d565b60405180910390a150505050565b3373ffffffffffffffffffffffffffffffffffffffff16600360008673ffffffffffffffffffffffffffffffffffffffff1673ffffffffffffffffffffffffffffffffffffffff16815260200190815260200160002060000160009054906101000a900473ffffffffffffffffffffffffffffffffffffffff1673ffffffffffffffffffffffffffffffffffffffff16146109f3576040517f08c379a00000000000000000000000000000000000000000000000000000000081526004016109ea90612df7565b60405180910390fd5b82600360008673ffffffffffffffffffffffffffffffffffffffff1673ffffffffffffffffffffffffffffffffffffffff1681526020019081526020016000206001018190555081600360008673ffffffffffffffffffffffffffffffffffffffff1673ffffffffffffffffffffffffffffffffffffffff1681526020019081526020016000206002018190555080600360008673ffffffffffffffffffffffffffffffffffffffff1673ffffffffffffffffffffffffffffffffffffffff168152602001908152602001600020600301819055506000600360008673ffffffffffffffffffffffffffffffffffffffff1673ffffffffffffffffffffffffffffffffffffffff16815260200190815260200160002060040160006101000a81548160ff0219169083151502179055507f01a7125faedbb1c78d014d708a9503a9c7c19c7ea7dfc67d7edaa9bdd15f897c848484846000604051610b5b959493929190612c82565b60405180910390a150505050565b610b716120b2565b600360008373ffffffffffffffffffffffffffffffffffffffff1673ffffffffffffffffffffffffffffffffffffffff1681526020019081526020016000206040518060a00160405290816000820160009054906101000a900473ffffffffffffffffffffffffffffffffffffffff1673ffffffffffffffffffffffffffffffffffffffff1673ffffffffffffffffffffffffffffffffffffffff1681526020016001820154815260200160028201548152602001600382015481526020016004820160009054906101000a900460ff1615151515815250509050919050565b33848173ffffffffffffffffffffffffffffffffffffffff16600682604051610c7a9190612c0b565b908152602001604051809103902060009054906101000a900473ffffffffffffffffffffffffffffffffffffffff1673ffffffffffffffffffffffffffffffffffffffff1614610cff576040517f08c379a0000000000000000000000000000000000000000000000000000000008152600401610cf690612d97565b60405180910390fd5b6040518060a001604052808781526020013373ffffffffffffffffffffffffffffffffffffffff16815260200186815260200185815260200184815250600560003373ffffffffffffffffffffffffffffffffffffffff1673ffffffffffffffffffffffffffffffffffffffff16815260200190815260200160002087604051610d899190612c0b565b90815260200160405180910390206000820151816000019080519060200190610db3929190612102565b5060208201518160010160006101000a81548173ffffffffffffffffffffffffffffffffffffffff021916908373ffffffffffffffffffffffffffffffffffffffff160217905550604082015181600201556060820151816003019080519060200190610e21929190612188565b506080820151816004015590505060005b600760003373ffffffffffffffffffffffffffffffffffffffff1673ffffffffffffffffffffffffffffffffffffffff16815260200190815260200160002080549050811015611049578680519060200120600760003373ffffffffffffffffffffffffffffffffffffffff1673ffffffffffffffffffffffffffffffffffffffff1681526020019081526020016000208281548110610ed557610ed461317a565b5b9060005260206000209060050201600001604051610ef39190612bf4565b60405180910390201415611036576040518060a001604052808881526020013373ffffffffffffffffffffffffffffffffffffffff16815260200187815260200186815260200185815250600760003373ffffffffffffffffffffffffffffffffffffffff1673ffffffffffffffffffffffffffffffffffffffff1681526020019081526020016000208281548110610f8f57610f8e61317a565b5b90600052602060002090600502016000820151816000019080519060200190610fb9929190612102565b5060208201518160010160006101000a81548173ffffffffffffffffffffffffffffffffffffffff021916908373ffffffffffffffffffffffffffffffffffffffff160217905550604082015181600201556060820151816003019080519060200190611027929190612188565b50608082015181600401559050505b8080611041906130d3565b915050610e32565b507fbe8965f06e2e40fe0ba560b6f6bf573827386345cab1552ac2d56f81077ac68e86868560405161107d93929190612d19565b60405180910390a1505050505050565b60008054906101000a900473ffffffffffffffffffffffffffffffffffffffff1681565b83600073ffffffffffffffffffffffffffffffffffffffff16600260008373ffffffffffffffffffffffffffffffffffffffff1673ffffffffffffffffffffffffffffffffffffffff16815260200190815260200160002060000160009054906101000a900473ffffffffffffffffffffffffffffffffffffffff1673ffffffffffffffffffffffffffffffffffffffff1614611183576040517f08c379a000000000000000000000000000000000000000000000000000000000815260040161117a90612d77565b60405180910390fd5b600073ffffffffffffffffffffffffffffffffffffffff16600360008373ffffffffffffffffffffffffffffffffffffffff1673ffffffffffffffffffffffffffffffffffffffff16815260200190815260200160002060000160009054906101000a900473ffffffffffffffffffffffffffffffffffffffff1673ffffffffffffffffffffffffffffffffffffffff1614611254576040517f08c379a000000000000000000000000000000000000000000000000000000000815260040161124b90612d77565b60405180910390fd5b60008054906101000a900473ffffffffffffffffffffffffffffffffffffffff1673ffffffffffffffffffffffffffffffffffffffff168173ffffffffffffffffffffffffffffffffffffffff1614156112e3576040517f08c379a00000000000000000000000000000000000000000000000000000000081526004016112da90612dd7565b60405180910390fd5b6040518060a001604052808673ffffffffffffffffffffffffffffffffffffffff16815260200185815260200184815260200183815260200160001515815250600360008773ffffffffffffffffffffffffffffffffffffffff1673ffffffffffffffffffffffffffffffffffffffff16815260200190815260200160002060008201518160000160006101000a81548173ffffffffffffffffffffffffffffffffffffffff021916908373ffffffffffffffffffffffffffffffffffffffff16021790555060208201518160010155604082015181600201556060820151816003015560808201518160040160006101000a81548160ff021916908315150217905550905050600160405180604001604052808773ffffffffffffffffffffffffffffffffffffffff1681526020016002815250908060018154018082558091505060019003906000526020600020906002020160009091909190915060008201518160000160006101000a81548173ffffffffffffffffffffffffffffffffffffffff021916908373ffffffffffffffffffffffffffffffffffffffff1602179055506020820151816001015550507f64a3b601a8956496945ec082053c49dacb526b26466a0848e0db79d3760b4fa38585858560006040516114cc959493929190612c82565b60405180910390a15050505050565b60008060009054906101000a900473ffffffffffffffffffffffffffffffffffffffff16905090565b3360008054906101000a900473ffffffffffffffffffffffffffffffffffffffff1673ffffffffffffffffffffffffffffffffffffffff168173ffffffffffffffffffffffffffffffffffffffff1614611593576040517f08c379a000000000000000000000000000000000000000000000000000000000815260040161158a90612db7565b60405180910390fd5b6001600360008473ffffffffffffffffffffffffffffffffffffffff1673ffffffffffffffffffffffffffffffffffffffff16815260200190815260200160002060040160006101000a81548160ff0219169083151502179055505050565b3373ffffffffffffffffffffffffffffffffffffffff16600260008573ffffffffffffffffffffffffffffffffffffffff1673ffffffffffffffffffffffffffffffffffffffff16815260200190815260200160002060000160009054906101000a900473ffffffffffffffffffffffffffffffffffffffff1673ffffffffffffffffffffffffffffffffffffffff16146116c2576040517f08c379a00000000000000000000000000000000000000000000000000000000081526004016116b990612df7565b60405180910390fd5b60405180608001604052808473ffffffffffffffffffffffffffffffffffffffff16815260200183815260200182815260200160001515815250600260008573ffffffffffffffffffffffffffffffffffffffff1673ffffffffffffffffffffffffffffffffffffffff16815260200190815260200160002060008201518160000160006101000a81548173ffffffffffffffffffffffffffffffffffffffff021916908373ffffffffffffffffffffffffffffffffffffffff160217905550602082015181600101556040820151816002015560608201518160030160006101000a81548160ff0219169083151502179055509050507fabc0938dcc8823bebe7fccc24a381077379cad909e1f06bf32a384a8d7c8d2d083838360006040516117ef9493929190612c3d565b60405180910390a1505050565b61180461220e565b600560003373ffffffffffffffffffffffffffffffffffffffff1673ffffffffffffffffffffffffffffffffffffffff168152602001908152602001600020826040516118519190612c0b565b90815260200160405180910390206040518060a001604052908160008201805461187a90613070565b80601f01602080910402602001604051908101604052809291908181526020018280546118a690613070565b80156118f35780601f106118c8576101008083540402835291602001916118f3565b820191906000526020600020905b8154815290600101906020018083116118d657829003601f168201915b505050505081526020016001820160009054906101000a900473ffffffffffffffffffffffffffffffffffffffff1673ffffffffffffffffffffffffffffffffffffffff1673ffffffffffffffffffffffffffffffffffffffff1681526020016002820154815260200160038201805461196c90613070565b80601f016020809104026020016040519081016040528092919081815260200182805461199890613070565b80156119e55780601f106119ba576101008083540402835291602001916119e5565b820191906000526020600020905b8154815290600101906020018083116119c857829003601f168201915b505050505081526020016004820154815250509050919050565b3360008054906101000a900473ffffffffffffffffffffffffffffffffffffffff1673ffffffffffffffffffffffffffffffffffffffff168173ffffffffffffffffffffffffffffffffffffffff1614611a8e576040517f08c379a0000000000000000000000000000000000000000000000000000000008152600401611a8590612db7565b60405180910390fd5b6001600260008473ffffffffffffffffffffffffffffffffffffffff1673ffffffffffffffffffffffffffffffffffffffff16815260200190815260200160002060030160006101000a81548160ff0219169083151502179055505050565b338073ffffffffffffffffffffffffffffffffffffffff16600460009054906101000a900473ffffffffffffffffffffffffffffffffffffffff1673ffffffffffffffffffffffffffffffffffffffff1663f565d7b0836040518263ffffffff1660e01b8152600401611b609190612c22565b60806040518083038186803b158015611b7857600080fd5b505afa158015611b8c573d6000803e3d6000fd5b505050506040513d601f19601f82011682018060405250810190611bb0919061264c565b6000015173ffffffffffffffffffffffffffffffffffffffff1614611c0a576040517f08c379a0000000000000000000000000000000000000000000000000000000008152600401611c0190612d57565b60405180910390fd5b6040518060a001604052808681526020013373ffffffffffffffffffffffffffffffffffffffff16815260200185815260200184815260200183815250600560003373ffffffffffffffffffffffffffffffffffffffff1673ffffffffffffffffffffffffffffffffffffffff16815260200190815260200160002086604051611c949190612c0b565b90815260200160405180910390206000820151816000019080519060200190611cbe929190612102565b5060208201518160010160006101000a81548173ffffffffffffffffffffffffffffffffffffffff021916908373ffffffffffffffffffffffffffffffffffffffff160217905550604082015181600201556060820151816003019080519060200190611d2c929190612188565b506080820151816004015590505033600686604051611d4b9190612c0b565b908152602001604051809103902060006101000a81548173ffffffffffffffffffffffffffffffffffffffff021916908373ffffffffffffffffffffffffffffffffffffffff160217905550600760003373ffffffffffffffffffffffffffffffffffffffff1673ffffffffffffffffffffffffffffffffffffffff1681526020019081526020016000206040518060a001604052808781526020013373ffffffffffffffffffffffffffffffffffffffff1681526020018681526020018581526020018481525090806001815401808255809150506001900390600052602060002090600502016000909190919091506000820151816000019080519060200190611e58929190612102565b5060208201518160010160006101000a81548173ffffffffffffffffffffffffffffffffffffffff021916908373ffffffffffffffffffffffffffffffffffffffff160217905550604082015181600201556060820151816003019080519060200190611ec6929190612188565b506080820151816004015550507fbe8965f06e2e40fe0ba560b6f6bf573827386345cab1552ac2d56f81077ac68e858584604051611f0693929190612d19565b60405180910390a15050505050565b60606001805480602002602001604051908101604052809291908181526020016000905b82821015611fcb57838290600052602060002090600202016040518060400160405290816000820160009054906101000a900473ffffffffffffffffffffffffffffffffffffffff1673ffffffffffffffffffffffffffffffffffffffff1673ffffffffffffffffffffffffffffffffffffffff16815260200160018201548152505081526020019060010190611f39565b50505050905090565b611fdc612259565b600260008373ffffffffffffffffffffffffffffffffffffffff1673ffffffffffffffffffffffffffffffffffffffff1681526020019081526020016000206040518060800160405290816000820160009054906101000a900473ffffffffffffffffffffffffffffffffffffffff1673ffffffffffffffffffffffffffffffffffffffff1673ffffffffffffffffffffffffffffffffffffffff16815260200160018201548152602001600282015481526020016003820160009054906101000a900460ff1615151515815250509050919050565b6040518060a00160405280600073ffffffffffffffffffffffffffffffffffffffff1681526020016000801916815260200160008019168152602001600080191681526020016000151581525090565b82805461210e90613070565b90600052602060002090601f0160209004810192826121305760008555612177565b82601f1061214957805160ff1916838001178555612177565b82800160010185558215612177579182015b8281111561217657825182559160200191906001019061215b565b5b509050612184919061229f565b5090565b82805461219490613070565b90600052602060002090601f0160209004810192826121b657600085556121fd565b82601f106121cf57805160ff19168380011785556121fd565b828001600101855582156121fd579182015b828111156121fc5782518255916020019190600101906121e1565b5b50905061220a919061229f565b5090565b6040518060a0016040528060608152602001600073ffffffffffffffffffffffffffffffffffffffff1681526020016000801916815260200160608152602001600080191681525090565b6040518060800160405280600073ffffffffffffffffffffffffffffffffffffffff16815260200160008019168152602001600080191681526020016000151581525090565b5b808211156122b85760008160009055506001016122a0565b5090565b60006122cf6122ca84612e94565b612e6f565b9050828152602081018484840111156122eb576122ea6131e2565b5b6122f684828561302e565b509392505050565b600061231161230c84612ec5565b612e6f565b90508281526020810184848401111561232d5761232c6131e2565b5b61233884828561302e565b509392505050565b60008135905061234f8161331e565b92915050565b6000815190506123648161331e565b92915050565b60008151905061237981613335565b92915050565b60008135905061238e8161334c565b92915050565b6000815190506123a38161334c565b92915050565b600082601f8301126123be576123bd6131d8565b5b81356123ce8482602086016122bc565b91505092915050565b600082601f8301126123ec576123eb6131d8565b5b81356123fc8482602086016122fe565b91505092915050565b60006080828403121561241b5761241a6131dd565b5b6124256080612e6f565b9050600061243584828501612355565b600083015250602061244984828501612394565b602083015250604061245d84828501612394565b60408301525060606124718482850161236a565b60608301525092915050565b600060208284031215612493576124926131ec565b5b60006124a184828501612340565b91505092915050565b6000806000606084860312156124c3576124c26131ec565b5b60006124d186828701612340565b93505060206124e28682870161237f565b92505060406124f38682870161237f565b9150509250925092565b60008060008060808587031215612517576125166131ec565b5b600061252587828801612340565b94505060206125368782880161237f565b93505060406125478782880161237f565b92505060606125588782880161237f565b91505092959194509250565b60006020828403121561257a576125796131ec565b5b600082013567ffffffffffffffff811115612598576125976131e7565b5b6125a4848285016123d7565b91505092915050565b600080600080608085870312156125c7576125c66131ec565b5b600085013567ffffffffffffffff8111156125e5576125e46131e7565b5b6125f1878288016123d7565b94505060206126028782880161237f565b935050604085013567ffffffffffffffff811115612623576126226131e7565b5b61262f878288016123a9565b92505060606126408782880161237f565b91505092959194509250565b600060808284031215612662576126616131ec565b5b600061267084828501612405565b91505092915050565b600061268583836129ff565b905092915050565b60006126998383612bb6565b60408301905092915050565b6126ae81612fdc565b82525050565b6126bd81612fdc565b82525050565b60006126ce82612f2b565b6126d88185612f71565b9350836020820285016126ea85612ef6565b8060005b8581101561272657848403895281516127078582612679565b945061271283612f57565b925060208a019950506001810190506126ee565b50829750879550505050505092915050565b600061274382612f36565b61274d8185612f82565b935061275883612f06565b8060005b83811015612789578151612770888261268d565b975061277b83612f64565b92505060018101905061275c565b5085935050505092915050565b61279f81612fee565b82525050565b6127ae81612fee565b82525050565b6127bd81612ffa565b82525050565b6127cc81612ffa565b82525050565b60006127dd82612f41565b6127e78185612f93565b93506127f781856020860161303d565b612800816131f1565b840191505092915050565b6000815461281881613070565b6128228186612fa4565b9450600182166000811461283d576001811461284e57612881565b60ff19831686528186019350612881565b61285785612f16565b60005b838110156128795781548189015260018201915060208101905061285a565b838801955050505b50505092915050565b600061289582612f4c565b61289f8185612faf565b93506128af81856020860161303d565b6128b8816131f1565b840191505092915050565b60006128ce82612f4c565b6128d88185612fc0565b93506128e881856020860161303d565b6128f1816131f1565b840191505092915050565b600061290782612f4c565b6129118185612fd1565b935061292181856020860161303d565b80840191505092915050565b600061293a600e83612fc0565b915061294582613202565b602082019050919050565b600061295d601383612fc0565b91506129688261322b565b602082019050919050565b6000612980601183612fc0565b915061298b82613254565b602082019050919050565b60006129a3602283612fc0565b91506129ae8261327d565b604082019050919050565b60006129c6600c83612fc0565b91506129d1826132cc565b602082019050919050565b60006129e9601683612fc0565b91506129f4826132f5565b602082019050919050565b600060a0830160008301518482036000860152612a1c828261288a565b9150506020830151612a3160208601826126a5565b506040830151612a4460408601826127b4565b5060608301518482036060860152612a5c82826127d2565b9150506080830151612a7160808601826127b4565b508091505092915050565b600060a0830160008301518482036000860152612a99828261288a565b9150506020830151612aae60208601826126a5565b506040830151612ac160408601826127b4565b5060608301518482036060860152612ad982826127d2565b9150506080830151612aee60808601826127b4565b508091505092915050565b608082016000820151612b0f60008501826126a5565b506020820151612b2260208501826127b4565b506040820151612b3560408501826127b4565b506060820151612b486060850182612796565b50505050565b60a082016000820151612b6460008501826126a5565b506020820151612b7760208501826127b4565b506040820151612b8a60408501826127b4565b506060820151612b9d60608501826127b4565b506080820151612bb06080850182612796565b50505050565b604082016000820151612bcc60008501826126a5565b506020820151612bdf6020850182612be5565b50505050565b612bee81613024565b82525050565b6000612c00828461280b565b915081905092915050565b6000612c1782846128fc565b915081905092915050565b6000602082019050612c3760008301846126b4565b92915050565b6000608082019050612c5260008301876126b4565b612c5f60208301866127c3565b612c6c60408301856127c3565b612c7960608301846127a5565b95945050505050565b600060a082019050612c9760008301886126b4565b612ca460208301876127c3565b612cb160408301866127c3565b612cbe60608301856127c3565b612ccb60808301846127a5565b9695505050505050565b60006020820190508181036000830152612cef81846126c3565b905092915050565b60006020820190508181036000830152612d118184612738565b905092915050565b60006060820190508181036000830152612d3381866128c3565b9050612d4260208301856127c3565b612d4f60408301846127c3565b949350505050565b60006020820190508181036000830152612d708161292d565b9050919050565b60006020820190508181036000830152612d9081612950565b9050919050565b60006020820190508181036000830152612db081612973565b9050919050565b60006020820190508181036000830152612dd081612996565b9050919050565b60006020820190508181036000830152612df0816129b9565b9050919050565b60006020820190508181036000830152612e10816129dc565b9050919050565b60006020820190508181036000830152612e318184612a7c565b905092915050565b6000608082019050612e4e6000830184612af9565b92915050565b600060a082019050612e696000830184612b4e565b92915050565b6000612e79612e8a565b9050612e8582826130a2565b919050565b6000604051905090565b600067ffffffffffffffff821115612eaf57612eae6131a9565b5b612eb8826131f1565b9050602081019050919050565b600067ffffffffffffffff821115612ee057612edf6131a9565b5b612ee9826131f1565b9050602081019050919050565b6000819050602082019050919050565b6000819050602082019050919050565b60008190508160005260206000209050919050565b600081519050919050565b600081519050919050565b600081519050919050565b600081519050919050565b6000602082019050919050565b6000602082019050919050565b600082825260208201905092915050565b600082825260208201905092915050565b600082825260208201905092915050565b600081905092915050565b600082825260208201905092915050565b600082825260208201905092915050565b600081905092915050565b6000612fe782613004565b9050919050565b60008115159050919050565b6000819050919050565b600073ffffffffffffffffffffffffffffffffffffffff82169050919050565b6000819050919050565b82818337600083830152505050565b60005b8381101561305b578082015181840152602081019050613040565b8381111561306a576000848401525b50505050565b6000600282049050600182168061308857607f821691505b6020821081141561309c5761309b61314b565b5b50919050565b6130ab826131f1565b810181811067ffffffffffffffff821117156130ca576130c96131a9565b5b80604052505050565b60006130de82613024565b91507fffffffffffffffffffffffffffffffffffffffffffffffffffffffffffffffff8214156131115761311061311c565b5b600182019050919050565b7f4e487b7100000000000000000000000000000000000000000000000000000000600052601160045260246000fd5b7f4e487b7100000000000000000000000000000000000000000000000000000000600052602260045260246000fd5b7f4e487b7100000000000000000000000000000000000000000000000000000000600052603260045260246000fd5b7f4e487b7100000000000000000000000000000000000000000000000000000000600052604160045260246000fd5b600080fd5b600080fd5b600080fd5b600080fd5b600080fd5b6000601f19601f8301169050919050565b7f496e76616c696420616374696f6e000000000000000000000000000000000000600082015250565b7f5573657220616c72656164792065786973747300000000000000000000000000600082015250565b7f496e76616c6964206f7065726174696f6e000000000000000000000000000000600082015250565b7f4f6e6c792073757065722061646d696e2063616e20617070726f76652075736560008201527f7273000000000000000000000000000000000000000000000000000000000000602082015250565b7f496e76616c696420757365720000000000000000000000000000000000000000600082015250565b7f496e76616c69642075736572206f7065726174696f6e00000000000000000000600082015250565b61332781612fdc565b811461333257600080fd5b50565b61333e81612fee565b811461334957600080fd5b50565b61335581612ffa565b811461336057600080fd5b5056fea26469706673582212204995095dbcdb262995afb8f9ed907a702357257cbaa3e3ecdac66e8793217daa64736f6c63430008060033",
  "linkReferences": {},
  "deployedLinkReferences": {}
}