{
  "_format": "hh-sol-artifact-1",
  "contractName": "Data",
  "sourceName": "contracts/Data.sol",
  "abi": [
    {
      "inputs": [
        {
          "internalType": "address",
          "name": "userContractAddress",
          "type": "address"
        }
      ],
      "stateMutability": "nonpayable",
      "type": "constructor"
    },
    {
      "anonymous": false,
      "inputs": [
        {
          "indexed": false,
          "internalType": "string",
          "name": "dataid",
          "type": "string"
        },
        {
          "indexed": true,
          "internalType": "address",
          "name": "requesterAddress",
          "type": "address"
        },
        {
          "indexed": false,
          "internalType": "bytes",
          "name": "key",
          "type": "bytes"
        }
      ],
      "name": "ApproveKeyRequest",
      "type": "event"
    },
    {
      "anonymous": false,
      "inputs": [
        {
          "indexed": false,
          "internalType": "string",
          "name": "id",
          "type": "string"
        },
        {
          "indexed": false,
          "internalType": "bytes32",
          "name": "name",
          "type": "bytes32"
        },
        {
          "indexed": false,
          "internalType": "bytes32",
          "name": "category",
          "type": "bytes32"
        },
        {
          "indexed": false,
          "internalType": "address",
          "name": "ownerAddress",
          "type": "address"
        }
      ],
      "name": "DatasetAdded",
      "type": "event"
    },
    {
      "anonymous": false,
      "inputs": [
        {
          "indexed": false,
          "internalType": "string",
          "name": "dataid",
          "type": "string"
        },
        {
          "indexed": true,
          "internalType": "address",
          "name": "ownerAddress",
          "type": "address"
        },
        {
          "indexed": true,
          "internalType": "address",
          "name": "requesterAddress",
          "type": "address"
        },
        {
          "indexed": false,
          "internalType": "bytes32",
          "name": "accessType",
          "type": "bytes32"
        },
        {
          "indexed": false,
          "internalType": "bytes",
          "name": "publicKey",
          "type": "bytes"
        }
      ],
      "name": "KeyRequested",
      "type": "event"
    },
    {
      "anonymous": false,
      "inputs": [
        {
          "indexed": false,
          "internalType": "address",
          "name": "ownerAddress",
          "type": "address"
        },
        {
          "indexed": false,
          "internalType": "bytes32",
          "name": "profession",
          "type": "bytes32"
        },
        {
          "indexed": false,
          "internalType": "bytes32",
          "name": "location",
          "type": "bytes32"
        },
        {
          "indexed": false,
          "internalType": "bool",
          "name": "approved",
          "type": "bool"
        }
      ],
      "name": "NewOwnerCreated",
      "type": "event"
    },
    {
      "anonymous": false,
      "inputs": [
        {
          "indexed": false,
          "internalType": "address",
          "name": "requesterAddress",
          "type": "address"
        },
        {
          "indexed": false,
          "internalType": "bytes32",
          "name": "organisation",
          "type": "bytes32"
        },
        {
          "indexed": false,
          "internalType": "bytes32",
          "name": "department",
          "type": "bytes32"
        },
        {
          "indexed": false,
          "internalType": "bytes32",
          "name": "designation",
          "type": "bytes32"
        },
        {
          "indexed": false,
          "internalType": "bool",
          "name": "approved",
          "type": "bool"
        }
      ],
      "name": "NewRequesterCreated",
      "type": "event"
    },
    {
      "anonymous": false,
      "inputs": [
        {
          "indexed": false,
          "internalType": "address",
          "name": "ownerAddress",
          "type": "address"
        },
        {
          "indexed": false,
          "internalType": "bytes32",
          "name": "profession",
          "type": "bytes32"
        },
        {
          "indexed": false,
          "internalType": "bytes32",
          "name": "location",
          "type": "bytes32"
        },
        {
          "indexed": false,
          "internalType": "bool",
          "name": "approved",
          "type": "bool"
        }
      ],
      "name": "UpdateDataOwner",
      "type": "event"
    },
    {
      "anonymous": false,
      "inputs": [
        {
          "indexed": false,
          "internalType": "address",
          "name": "requesterAddress",
          "type": "address"
        },
        {
          "indexed": false,
          "internalType": "bytes32",
          "name": "organisation",
          "type": "bytes32"
        },
        {
          "indexed": false,
          "internalType": "bytes32",
          "name": "department",
          "type": "bytes32"
        },
        {
          "indexed": false,
          "internalType": "bytes32",
          "name": "designation",
          "type": "bytes32"
        },
        {
          "indexed": false,
          "internalType": "bool",
          "name": "approved",
          "type": "bool"
        }
      ],
      "name": "UpdateDataRequester",
      "type": "event"
    },
    {
      "inputs": [
        {
          "internalType": "string",
          "name": "id",
          "type": "string"
        },
        {
          "internalType": "bytes32",
          "name": "name",
          "type": "bytes32"
        },
        {
          "internalType": "bytes",
          "name": "value",
          "type": "bytes"
        },
        {
          "internalType": "bytes32",
          "name": "category",
          "type": "bytes32"
        }
      ],
      "name": "addData",
      "outputs": [],
      "stateMutability": "nonpayable",
      "type": "function"
    },
    {
      "inputs": [
        {
          "internalType": "address",
          "name": "ownerAddress",
          "type": "address"
        },
        {
          "internalType": "bytes32",
          "name": "profession",
          "type": "bytes32"
        },
        {
          "internalType": "bytes32",
          "name": "location",
          "type": "bytes32"
        }
      ],
      "name": "addDataOwner",
      "outputs": [],
      "stateMutability": "nonpayable",
      "type": "function"
    },
    {
      "inputs": [
        {
          "internalType": "address",
          "name": "requesterAddress",
          "type": "address"
        },
        {
          "internalType": "bytes32",
          "name": "organisation",
          "type": "bytes32"
        },
        {
          "internalType": "bytes32",
          "name": "department",
          "type": "bytes32"
        },
        {
          "internalType": "bytes32",
          "name": "designation",
          "type": "bytes32"
        }
      ],
      "name": "addDataRequester",
      "outputs": [],
      "stateMutability": "nonpayable",
      "type": "function"
    },
    {
      "inputs": [
        {
          "internalType": "string",
          "name": "dataid",
          "type": "string"
        },
        {
          "internalType": "address",
          "name": "requesterAddress",
          "type": "address"
        },
        {
          "internalType": "bytes",
          "name": "key",
          "type": "bytes"
        }
      ],
      "name": "approveKeyRequest",
      "outputs": [],
      "stateMutability": "nonpayable",
      "type": "function"
    },
    {
      "inputs": [
        {
          "internalType": "address",
          "name": "ownerAddress",
          "type": "address"
        }
      ],
      "name": "approveOwner",
      "outputs": [],
      "stateMutability": "nonpayable",
      "type": "function"
    },
    {
      "inputs": [
        {
          "internalType": "address",
          "name": "requesterAddress",
          "type": "address"
        }
      ],
      "name": "approveRequester",
      "outputs": [],
      "stateMutability": "nonpayable",
      "type": "function"
    },
    {
      "inputs": [],
      "name": "getAllUsers",
      "outputs": [
        {
          "components": [
            {
              "internalType": "address",
              "name": "userAddress",
              "type": "address"
            },
            {
              "internalType": "uint256",
              "name": "role",
              "type": "uint256"
            }
          ],
          "internalType": "struct Users.User[]",
          "name": "",
          "type": "tuple[]"
        }
      ],
      "stateMutability": "view",
      "type": "function"
    },
    {
      "inputs": [
        {
          "internalType": "address",
          "name": "ownerAddress",
          "type": "address"
        }
      ],
      "name": "getDataOwner",
      "outputs": [
        {
          "components": [
            {
              "internalType": "address",
              "name": "ownerAddress",
              "type": "address"
            },
            {
              "internalType": "bytes32",
              "name": "profession",
              "type": "bytes32"
            },
            {
              "internalType": "bytes32",
              "name": "location",
              "type": "bytes32"
            },
            {
              "internalType": "bool",
              "name": "approved",
              "type": "bool"
            }
          ],
          "internalType": "struct Users.Owner",
          "name": "",
          "type": "tuple"
        }
      ],
      "stateMutability": "view",
      "type": "function"
    },
    {
      "inputs": [
        {
          "internalType": "address",
          "name": "requesterAddress",
          "type": "address"
        }
      ],
      "name": "getDataRequester",
      "outputs": [
        {
          "components": [
            {
              "internalType": "address",
              "name": "requesterAddress",
              "type": "address"
            },
            {
              "internalType": "bytes32",
              "name": "organisation",
              "type": "bytes32"
            },
            {
              "internalType": "bytes32",
              "name": "department",
              "type": "bytes32"
            },
            {
              "internalType": "bytes32",
              "name": "designation",
              "type": "bytes32"
            },
            {
              "internalType": "bool",
              "name": "approved",
              "type": "bool"
            }
          ],
          "internalType": "struct Users.Requester",
          "name": "",
          "type": "tuple"
        }
      ],
      "stateMutability": "view",
      "type": "function"
    },
    {
      "inputs": [
        {
          "internalType": "string",
          "name": "id",
          "type": "string"
        }
      ],
      "name": "getSingleDataItem",
      "outputs": [
        {
          "components": [
            {
              "internalType": "string",
              "name": "id",
              "type": "string"
            },
            {
              "internalType": "address",
              "name": "ownerAddress",
              "type": "address"
            },
            {
              "internalType": "bytes32",
              "name": "name",
              "type": "bytes32"
            },
            {
              "internalType": "bytes",
              "name": "value",
              "type": "bytes"
            },
            {
              "internalType": "bytes32",
              "name": "category",
              "type": "bytes32"
            }
          ],
          "internalType": "struct Data.Dataset",
          "name": "",
          "type": "tuple"
        }
      ],
      "stateMutability": "view",
      "type": "function"
    },
    {
      "inputs": [],
      "name": "getSuperAdmin",
      "outputs": [
        {
          "internalType": "address",
          "name": "",
          "type": "address"
        }
      ],
      "stateMutability": "view",
      "type": "function"
    },
    {
      "inputs": [],
      "name": "getUserData",
      "outputs": [
        {
          "components": [
            {
              "internalType": "string",
              "name": "id",
              "type": "string"
            },
            {
              "internalType": "address",
              "name": "ownerAddress",
              "type": "address"
            },
            {
              "internalType": "bytes32",
              "name": "name",
              "type": "bytes32"
            },
            {
              "internalType": "bytes",
              "name": "value",
              "type": "bytes"
            },
            {
              "internalType": "bytes32",
              "name": "category",
              "type": "bytes32"
            }
          ],
          "internalType": "struct Data.Dataset[]",
          "name": "",
          "type": "tuple[]"
        }
      ],
      "stateMutability": "view",
      "type": "function"
    },
    {
      "inputs": [
        {
          "internalType": "string",
          "name": "dataid",
          "type": "string"
        },
        {
          "internalType": "address",
          "name": "ownerAddress",
          "type": "address"
        },
        {
          "internalType": "bytes32",
          "name": "accessType",
          "type": "bytes32"
        },
        {
          "internalType": "bytes",
          "name": "publicKey",
          "type": "bytes"
        }
      ],
      "name": "requestKey",
      "outputs": [],
      "stateMutability": "nonpayable",
      "type": "function"
    },
    {
      "inputs": [],
      "name": "superadmin",
      "outputs": [
        {
          "internalType": "address",
          "name": "",
          "type": "address"
        }
      ],
      "stateMutability": "view",
      "type": "function"
    },
    {
      "inputs": [
        {
          "internalType": "string",
          "name": "id",
          "type": "string"
        },
        {
          "internalType": "bytes32",
          "name": "name",
          "type": "bytes32"
        },
        {
          "internalType": "bytes",
          "name": "value",
          "type": "bytes"
        },
        {
          "internalType": "bytes32",
          "name": "category",
          "type": "bytes32"
        }
      ],
      "name": "updateData",
      "outputs": [],
      "stateMutability": "nonpayable",
      "type": "function"
    },
    {
      "inputs": [
        {
          "internalType": "address",
          "name": "ownerAddress",
          "type": "address"
        },
        {
          "internalType": "bytes32",
          "name": "profession",
          "type": "bytes32"
        },
        {
          "internalType": "bytes32",
          "name": "location",
          "type": "bytes32"
        }
      ],
      "name": "updateDataOwner",
      "outputs": [],
      "stateMutability": "nonpayable",
      "type": "function"
    },
    {
      "inputs": [
        {
          "internalType": "address",
          "name": "requesterAddress",
          "type": "address"
        },
        {
          "internalType": "bytes32",
          "name": "organisation",
          "type": "bytes32"
        },
        {
          "internalType": "bytes32",
          "name": "department",
          "type": "bytes32"
        },
        {
          "internalType": "bytes32",
          "name": "designation",
          "type": "bytes32"
        }
      ],
      "name": "updateDataRequester",
      "outputs": [],
      "stateMutability": "nonpayable",
      "type": "function"
    }
  ],
  "bytecode": "0x60806040523480156200001157600080fd5b5060405162003c8738038062003c878339818101604052810190620000379190620001a0565b336000806101000a81548173ffffffffffffffffffffffffffffffffffffffff021916908373ffffffffffffffffffffffffffffffffffffffff1602179055506001604051806040016040528060008054906101000a900473ffffffffffffffffffffffffffffffffffffffff1673ffffffffffffffffffffffffffffffffffffffff1681526020016003815250908060018154018082558091505060019003906000526020600020906002020160009091909190915060008201518160000160006101000a81548173ffffffffffffffffffffffffffffffffffffffff021916908373ffffffffffffffffffffffffffffffffffffffff16021790555060208201518160010155505080600460006101000a81548173ffffffffffffffffffffffffffffffffffffffff021916908373ffffffffffffffffffffffffffffffffffffffff1602179055505062000225565b6000815190506200019a816200020b565b92915050565b600060208284031215620001b957620001b862000206565b5b6000620001c98482850162000189565b91505092915050565b6000620001df82620001e6565b9050919050565b600073ffffffffffffffffffffffffffffffffffffffff82169050919050565b600080fd5b6200021681620001d2565b81146200022257600080fd5b50565b613a5280620002356000396000f3fe608060405234801561001057600080fd5b506004361061010b5760003560e01c80638204c326116100a2578063a3ac66b411610071578063a3ac66b41461027a578063b648ee2d146102aa578063dbe4d565146102c6578063e2842d79146102e2578063f565d7b0146103005761010b565b80638204c3261461020857806385099f6e1461022657806394146f321461024257806394231a011461025e5761010b565b80635669c058116100de5780635669c058146101825780635baeef1e146101b257806363d48aba146101ce57806369146dea146101ec5761010b565b8063104c2a8e1461011057806322e8c87d1461012c5780633185d5af1461014a5780633cbca9d414610166575b600080fd5b61012a60048036038101906101259190612a3b565b610330565b005b6101346104bd565b60405161014191906132f3565b60405180910390f35b610164600480360381019061015f9190612938565b6106e7565b005b610180600480360381019061017b919061298b565b610afe565b005b61019c6004803603810190610197919061290b565b610d44565b6040516101a991906134fc565b60405180910390f35b6101cc60048036038101906101c79190612b65565b610e2c565b005b6101d661126a565b6040516101e39190613240565b60405180910390f35b6102066004803603810190610201919061298b565b61128e565b005b6102106116b8565b60405161021d9190613240565b60405180910390f35b610240600480360381019061023b919061290b565b6116e1565b005b61025c60048036038101906102579190612ada565b6117cf565b005b61027860048036038101906102739190612938565b611942565b005b610294600480360381019061028f91906129f2565b611b4c565b6040516102a191906134bf565b60405180910390f35b6102c460048036038101906102bf919061290b565b611dff565b005b6102e060048036038101906102db9190612b65565b611eed565b005b6102ea612317565b6040516102f79190613315565b60405180910390f35b61031a6004803603810190610315919061290b565b6123d6565b60405161032791906134e1565b60405180910390f35b338073ffffffffffffffffffffffffffffffffffffffff16600460009054906101000a900473ffffffffffffffffffffffffffffffffffffffff1673ffffffffffffffffffffffffffffffffffffffff16635669c058836040518263ffffffff1660e01b81526004016103a39190613240565b60a06040518083038186803b1580156103bb57600080fd5b505afa1580156103cf573d6000803e3d6000fd5b505050506040513d601f19601f820116820180604052508101906103f39190612c31565b6000015173ffffffffffffffffffffffffffffffffffffffff161461044d576040517f08c379a0000000000000000000000000000000000000000000000000000000008152600401610444906133ff565b60405180910390fd5b3373ffffffffffffffffffffffffffffffffffffffff168473ffffffffffffffffffffffffffffffffffffffff167ffe33aacc1dd2fef0e5bf702a089937cba6a119cbca5a0bd132ea3f46204ceea88786866040516104ae93929190613383565b60405180910390a35050505050565b6060600760003373ffffffffffffffffffffffffffffffffffffffff1673ffffffffffffffffffffffffffffffffffffffff168152602001908152602001600020805480602002602001604051908101604052809291908181526020016000905b828210156106de57838290600052602060002090600502016040518060a001604052908160008201805461055190613729565b80601f016020809104026020016040519081016040528092919081815260200182805461057d90613729565b80156105ca5780601f1061059f576101008083540402835291602001916105ca565b820191906000526020600020905b8154815290600101906020018083116105ad57829003601f168201915b505050505081526020016001820160009054906101000a900473ffffffffffffffffffffffffffffffffffffffff1673ffffffffffffffffffffffffffffffffffffffff1673ffffffffffffffffffffffffffffffffffffffff1681526020016002820154815260200160038201805461064390613729565b80601f016020809104026020016040519081016040528092919081815260200182805461066f90613729565b80156106bc5780601f10610691576101008083540402835291602001916106bc565b820191906000526020600020905b81548152906001019060200180831161069f57829003601f168201915b505050505081526020016004820154815250508152602001906001019061051e565b50505050905090565b82600073ffffffffffffffffffffffffffffffffffffffff16600260008373ffffffffffffffffffffffffffffffffffffffff1673ffffffffffffffffffffffffffffffffffffffff16815260200190815260200160002060000160009054906101000a900473ffffffffffffffffffffffffffffffffffffffff1673ffffffffffffffffffffffffffffffffffffffff16146107b9576040517f08c379a00000000000000000000000000000000000000000000000000000000081526004016107b09061341f565b60405180910390fd5b600073ffffffffffffffffffffffffffffffffffffffff16600360008373ffffffffffffffffffffffffffffffffffffffff1673ffffffffffffffffffffffffffffffffffffffff16815260200190815260200160002060000160009054906101000a900473ffffffffffffffffffffffffffffffffffffffff1673ffffffffffffffffffffffffffffffffffffffff161461088a576040517f08c379a00000000000000000000000000000000000000000000000000000000081526004016108819061341f565b60405180910390fd5b60008054906101000a900473ffffffffffffffffffffffffffffffffffffffff1673ffffffffffffffffffffffffffffffffffffffff168173ffffffffffffffffffffffffffffffffffffffff161415610919576040517f08c379a00000000000000000000000000000000000000000000000000000000081526004016109109061347f565b60405180910390fd5b60405180608001604052808573ffffffffffffffffffffffffffffffffffffffff16815260200184815260200183815260200160001515815250600260008673ffffffffffffffffffffffffffffffffffffffff1673ffffffffffffffffffffffffffffffffffffffff16815260200190815260200160002060008201518160000160006101000a81548173ffffffffffffffffffffffffffffffffffffffff021916908373ffffffffffffffffffffffffffffffffffffffff160217905550602082015181600101556040820151816002015560608201518160030160006101000a81548160ff021916908315150217905550905050600160405180604001604052808673ffffffffffffffffffffffffffffffffffffffff1681526020016001815250908060018154018082558091505060019003906000526020600020906002020160009091909190915060008201518160000160006101000a81548173ffffffffffffffffffffffffffffffffffffffff021916908373ffffffffffffffffffffffffffffffffffffffff1602179055506020820151816001015550507f9a5c03ed86a31061c8fb061b17872c118b5d9a2bc06ae9c21010519f2b4627168484846000604051610af0949392919061325b565b60405180910390a150505050565b3373ffffffffffffffffffffffffffffffffffffffff16600360008673ffffffffffffffffffffffffffffffffffffffff1673ffffffffffffffffffffffffffffffffffffffff16815260200190815260200160002060000160009054906101000a900473ffffffffffffffffffffffffffffffffffffffff1673ffffffffffffffffffffffffffffffffffffffff1614610bce576040517f08c379a0000000000000000000000000000000000000000000000000000000008152600401610bc59061349f565b60405180910390fd5b82600360008673ffffffffffffffffffffffffffffffffffffffff1673ffffffffffffffffffffffffffffffffffffffff1681526020019081526020016000206001018190555081600360008673ffffffffffffffffffffffffffffffffffffffff1673ffffffffffffffffffffffffffffffffffffffff1681526020019081526020016000206002018190555080600360008673ffffffffffffffffffffffffffffffffffffffff1673ffffffffffffffffffffffffffffffffffffffff168152602001908152602001600020600301819055506000600360008673ffffffffffffffffffffffffffffffffffffffff1673ffffffffffffffffffffffffffffffffffffffff16815260200190815260200160002060040160006101000a81548160ff0219169083151502179055507f01a7125faedbb1c78d014d708a9503a9c7c19c7ea7dfc67d7edaa9bdd15f897c848484846000604051610d369594939291906132a0565b60405180910390a150505050565b610d4c6124b4565b600360008373ffffffffffffffffffffffffffffffffffffffff1673ffffffffffffffffffffffffffffffffffffffff1681526020019081526020016000206040518060a00160405290816000820160009054906101000a900473ffffffffffffffffffffffffffffffffffffffff1673ffffffffffffffffffffffffffffffffffffffff1673ffffffffffffffffffffffffffffffffffffffff1681526020016001820154815260200160028201548152602001600382015481526020016004820160009054906101000a900460ff1615151515815250509050919050565b33848173ffffffffffffffffffffffffffffffffffffffff16600682604051610e559190613229565b908152602001604051809103902060009054906101000a900473ffffffffffffffffffffffffffffffffffffffff1673ffffffffffffffffffffffffffffffffffffffff1614610eda576040517f08c379a0000000000000000000000000000000000000000000000000000000008152600401610ed19061343f565b60405180910390fd5b6040518060a001604052808781526020013373ffffffffffffffffffffffffffffffffffffffff16815260200186815260200185815260200184815250600560003373ffffffffffffffffffffffffffffffffffffffff1673ffffffffffffffffffffffffffffffffffffffff16815260200190815260200160002087604051610f649190613229565b90815260200160405180910390206000820151816000019080519060200190610f8e929190612504565b5060208201518160010160006101000a81548173ffffffffffffffffffffffffffffffffffffffff021916908373ffffffffffffffffffffffffffffffffffffffff160217905550604082015181600201556060820151816003019080519060200190610ffc92919061258a565b506080820151816004015590505060005b600760003373ffffffffffffffffffffffffffffffffffffffff1673ffffffffffffffffffffffffffffffffffffffff16815260200190815260200160002080549050811015611224578680519060200120600760003373ffffffffffffffffffffffffffffffffffffffff1673ffffffffffffffffffffffffffffffffffffffff16815260200190815260200160002082815481106110b0576110af613833565b5b90600052602060002090600502016000016040516110ce9190613212565b60405180910390201415611211576040518060a001604052808881526020013373ffffffffffffffffffffffffffffffffffffffff16815260200187815260200186815260200185815250600760003373ffffffffffffffffffffffffffffffffffffffff1673ffffffffffffffffffffffffffffffffffffffff168152602001908152602001600020828154811061116a57611169613833565b5b90600052602060002090600502016000820151816000019080519060200190611194929190612504565b5060208201518160010160006101000a81548173ffffffffffffffffffffffffffffffffffffffff021916908373ffffffffffffffffffffffffffffffffffffffff16021790555060408201518160020155606082015181600301908051906020019061120292919061258a565b50608082015181600401559050505b808061121c9061378c565b91505061100d565b507ff0ba5c3c93fc255f28ec41316028c43860964382fb9b7814413b6b56182776ab8686853360405161125a9493929190613337565b60405180910390a1505050505050565b60008054906101000a900473ffffffffffffffffffffffffffffffffffffffff1681565b83600073ffffffffffffffffffffffffffffffffffffffff16600260008373ffffffffffffffffffffffffffffffffffffffff1673ffffffffffffffffffffffffffffffffffffffff16815260200190815260200160002060000160009054906101000a900473ffffffffffffffffffffffffffffffffffffffff1673ffffffffffffffffffffffffffffffffffffffff1614611360576040517f08c379a00000000000000000000000000000000000000000000000000000000081526004016113579061341f565b60405180910390fd5b600073ffffffffffffffffffffffffffffffffffffffff16600360008373ffffffffffffffffffffffffffffffffffffffff1673ffffffffffffffffffffffffffffffffffffffff16815260200190815260200160002060000160009054906101000a900473ffffffffffffffffffffffffffffffffffffffff1673ffffffffffffffffffffffffffffffffffffffff1614611431576040517f08c379a00000000000000000000000000000000000000000000000000000000081526004016114289061341f565b60405180910390fd5b60008054906101000a900473ffffffffffffffffffffffffffffffffffffffff1673ffffffffffffffffffffffffffffffffffffffff168173ffffffffffffffffffffffffffffffffffffffff1614156114c0576040517f08c379a00000000000000000000000000000000000000000000000000000000081526004016114b79061347f565b60405180910390fd5b6040518060a001604052808673ffffffffffffffffffffffffffffffffffffffff16815260200185815260200184815260200183815260200160001515815250600360008773ffffffffffffffffffffffffffffffffffffffff1673ffffffffffffffffffffffffffffffffffffffff16815260200190815260200160002060008201518160000160006101000a81548173ffffffffffffffffffffffffffffffffffffffff021916908373ffffffffffffffffffffffffffffffffffffffff16021790555060208201518160010155604082015181600201556060820151816003015560808201518160040160006101000a81548160ff021916908315150217905550905050600160405180604001604052808773ffffffffffffffffffffffffffffffffffffffff1681526020016002815250908060018154018082558091505060019003906000526020600020906002020160009091909190915060008201518160000160006101000a81548173ffffffffffffffffffffffffffffffffffffffff021916908373ffffffffffffffffffffffffffffffffffffffff1602179055506020820151816001015550507f64a3b601a8956496945ec082053c49dacb526b26466a0848e0db79d3760b4fa38585858560006040516116a99594939291906132a0565b60405180910390a15050505050565b60008060009054906101000a900473ffffffffffffffffffffffffffffffffffffffff16905090565b3360008054906101000a900473ffffffffffffffffffffffffffffffffffffffff1673ffffffffffffffffffffffffffffffffffffffff168173ffffffffffffffffffffffffffffffffffffffff1614611770576040517f08c379a00000000000000000000000000000000000000000000000000000000081526004016117679061345f565b60405180910390fd5b6001600360008473ffffffffffffffffffffffffffffffffffffffff1673ffffffffffffffffffffffffffffffffffffffff16815260200190815260200160002060040160006101000a81548160ff0219169083151502179055505050565b338073ffffffffffffffffffffffffffffffffffffffff16600460009054906101000a900473ffffffffffffffffffffffffffffffffffffffff1673ffffffffffffffffffffffffffffffffffffffff1663f565d7b0836040518263ffffffff1660e01b81526004016118429190613240565b60806040518083038186803b15801561185a57600080fd5b505afa15801561186e573d6000803e3d6000fd5b505050506040513d601f19601f820116820180604052508101906118929190612c04565b6000015173ffffffffffffffffffffffffffffffffffffffff16146118ec576040517f08c379a00000000000000000000000000000000000000000000000000000000081526004016118e3906133ff565b60405180910390fd5b8273ffffffffffffffffffffffffffffffffffffffff167f4bf26a09ff08cc1e9b7edfea6a7027e4990231d7e2503648d388ed9a9900e27085846040516119349291906133c8565b60405180910390a250505050565b3373ffffffffffffffffffffffffffffffffffffffff16600260008573ffffffffffffffffffffffffffffffffffffffff1673ffffffffffffffffffffffffffffffffffffffff16815260200190815260200160002060000160009054906101000a900473ffffffffffffffffffffffffffffffffffffffff1673ffffffffffffffffffffffffffffffffffffffff1614611a12576040517f08c379a0000000000000000000000000000000000000000000000000000000008152600401611a099061349f565b60405180910390fd5b60405180608001604052808473ffffffffffffffffffffffffffffffffffffffff16815260200183815260200182815260200160001515815250600260008573ffffffffffffffffffffffffffffffffffffffff1673ffffffffffffffffffffffffffffffffffffffff16815260200190815260200160002060008201518160000160006101000a81548173ffffffffffffffffffffffffffffffffffffffff021916908373ffffffffffffffffffffffffffffffffffffffff160217905550602082015181600101556040820151816002015560608201518160030160006101000a81548160ff0219169083151502179055509050507fabc0938dcc8823bebe7fccc24a381077379cad909e1f06bf32a384a8d7c8d2d08383836000604051611b3f949392919061325b565b60405180910390a1505050565b611b54612610565b33828173ffffffffffffffffffffffffffffffffffffffff16600682604051611b7d9190613229565b908152602001604051809103902060009054906101000a900473ffffffffffffffffffffffffffffffffffffffff1673ffffffffffffffffffffffffffffffffffffffff1614611c02576040517f08c379a0000000000000000000000000000000000000000000000000000000008152600401611bf99061343f565b60405180910390fd5b600560003373ffffffffffffffffffffffffffffffffffffffff1673ffffffffffffffffffffffffffffffffffffffff16815260200190815260200160002084604051611c4f9190613229565b90815260200160405180910390206040518060a0016040529081600082018054611c7890613729565b80601f0160208091040260200160405190810160405280929190818152602001828054611ca490613729565b8015611cf15780601f10611cc657610100808354040283529160200191611cf1565b820191906000526020600020905b815481529060010190602001808311611cd457829003601f168201915b505050505081526020016001820160009054906101000a900473ffffffffffffffffffffffffffffffffffffffff1673ffffffffffffffffffffffffffffffffffffffff1673ffffffffffffffffffffffffffffffffffffffff16815260200160028201548152602001600382018054611d6a90613729565b80601f0160208091040260200160405190810160405280929190818152602001828054611d9690613729565b8015611de35780601f10611db857610100808354040283529160200191611de3565b820191906000526020600020905b815481529060010190602001808311611dc657829003601f168201915b5050505050815260200160048201548152505092505050919050565b3360008054906101000a900473ffffffffffffffffffffffffffffffffffffffff1673ffffffffffffffffffffffffffffffffffffffff168173ffffffffffffffffffffffffffffffffffffffff1614611e8e576040517f08c379a0000000000000000000000000000000000000000000000000000000008152600401611e859061345f565b60405180910390fd5b6001600260008473ffffffffffffffffffffffffffffffffffffffff1673ffffffffffffffffffffffffffffffffffffffff16815260200190815260200160002060030160006101000a81548160ff0219169083151502179055505050565b338073ffffffffffffffffffffffffffffffffffffffff16600460009054906101000a900473ffffffffffffffffffffffffffffffffffffffff1673ffffffffffffffffffffffffffffffffffffffff1663f565d7b0836040518263ffffffff1660e01b8152600401611f609190613240565b60806040518083038186803b158015611f7857600080fd5b505afa158015611f8c573d6000803e3d6000fd5b505050506040513d601f19601f82011682018060405250810190611fb09190612c04565b6000015173ffffffffffffffffffffffffffffffffffffffff161461200a576040517f08c379a0000000000000000000000000000000000000000000000000000000008152600401612001906133ff565b60405180910390fd5b6040518060a001604052808681526020013373ffffffffffffffffffffffffffffffffffffffff16815260200185815260200184815260200183815250600560003373ffffffffffffffffffffffffffffffffffffffff1673ffffffffffffffffffffffffffffffffffffffff168152602001908152602001600020866040516120949190613229565b908152602001604051809103902060008201518160000190805190602001906120be929190612504565b5060208201518160010160006101000a81548173ffffffffffffffffffffffffffffffffffffffff021916908373ffffffffffffffffffffffffffffffffffffffff16021790555060408201518160020155606082015181600301908051906020019061212c92919061258a565b50608082015181600401559050503360068660405161214b9190613229565b908152602001604051809103902060006101000a81548173ffffffffffffffffffffffffffffffffffffffff021916908373ffffffffffffffffffffffffffffffffffffffff160217905550600760003373ffffffffffffffffffffffffffffffffffffffff1673ffffffffffffffffffffffffffffffffffffffff1681526020019081526020016000206040518060a001604052808781526020013373ffffffffffffffffffffffffffffffffffffffff1681526020018681526020018581526020018481525090806001815401808255809150506001900390600052602060002090600502016000909190919091506000820151816000019080519060200190612258929190612504565b5060208201518160010160006101000a81548173ffffffffffffffffffffffffffffffffffffffff021916908373ffffffffffffffffffffffffffffffffffffffff1602179055506040820151816002015560608201518160030190805190602001906122c692919061258a565b506080820151816004015550507ff0ba5c3c93fc255f28ec41316028c43860964382fb9b7814413b6b56182776ab858584336040516123089493929190613337565b60405180910390a15050505050565b60606001805480602002602001604051908101604052809291908181526020016000905b828210156123cd57838290600052602060002090600202016040518060400160405290816000820160009054906101000a900473ffffffffffffffffffffffffffffffffffffffff1673ffffffffffffffffffffffffffffffffffffffff1673ffffffffffffffffffffffffffffffffffffffff1681526020016001820154815250508152602001906001019061233b565b50505050905090565b6123de61265b565b600260008373ffffffffffffffffffffffffffffffffffffffff1673ffffffffffffffffffffffffffffffffffffffff1681526020019081526020016000206040518060800160405290816000820160009054906101000a900473ffffffffffffffffffffffffffffffffffffffff1673ffffffffffffffffffffffffffffffffffffffff1673ffffffffffffffffffffffffffffffffffffffff16815260200160018201548152602001600282015481526020016003820160009054906101000a900460ff1615151515815250509050919050565b6040518060a00160405280600073ffffffffffffffffffffffffffffffffffffffff1681526020016000801916815260200160008019168152602001600080191681526020016000151581525090565b82805461251090613729565b90600052602060002090601f0160209004810192826125325760008555612579565b82601f1061254b57805160ff1916838001178555612579565b82800160010185558215612579579182015b8281111561257857825182559160200191906001019061255d565b5b50905061258691906126a1565b5090565b82805461259690613729565b90600052602060002090601f0160209004810192826125b857600085556125ff565b82601f106125d157805160ff19168380011785556125ff565b828001600101855582156125ff579182015b828111156125fe5782518255916020019190600101906125e3565b5b50905061260c91906126a1565b5090565b6040518060a0016040528060608152602001600073ffffffffffffffffffffffffffffffffffffffff1681526020016000801916815260200160608152602001600080191681525090565b6040518060800160405280600073ffffffffffffffffffffffffffffffffffffffff16815260200160008019168152602001600080191681526020016000151581525090565b5b808211156126ba5760008160009055506001016126a2565b5090565b60006126d16126cc8461353c565b613517565b9050828152602081018484840111156126ed576126ec61389b565b5b6126f88482856136e7565b509392505050565b600061271361270e8461356d565b613517565b90508281526020810184848401111561272f5761272e61389b565b5b61273a8482856136e7565b509392505050565b600081359050612751816139d7565b92915050565b600081519050612766816139d7565b92915050565b60008151905061277b816139ee565b92915050565b60008135905061279081613a05565b92915050565b6000815190506127a581613a05565b92915050565b600082601f8301126127c0576127bf613891565b5b81356127d08482602086016126be565b91505092915050565b600082601f8301126127ee576127ed613891565b5b81356127fe848260208601612700565b91505092915050565b60006080828403121561281d5761281c613896565b5b6128276080613517565b9050600061283784828501612757565b600083015250602061284b84828501612796565b602083015250604061285f84828501612796565b60408301525060606128738482850161276c565b60608301525092915050565b600060a0828403121561289557612894613896565b5b61289f60a0613517565b905060006128af84828501612757565b60008301525060206128c384828501612796565b60208301525060406128d784828501612796565b60408301525060606128eb84828501612796565b60608301525060806128ff8482850161276c565b60808301525092915050565b600060208284031215612921576129206138a5565b5b600061292f84828501612742565b91505092915050565b600080600060608486031215612951576129506138a5565b5b600061295f86828701612742565b935050602061297086828701612781565b925050604061298186828701612781565b9150509250925092565b600080600080608085870312156129a5576129a46138a5565b5b60006129b387828801612742565b94505060206129c487828801612781565b93505060406129d587828801612781565b92505060606129e687828801612781565b91505092959194509250565b600060208284031215612a0857612a076138a5565b5b600082013567ffffffffffffffff811115612a2657612a256138a0565b5b612a32848285016127d9565b91505092915050565b60008060008060808587031215612a5557612a546138a5565b5b600085013567ffffffffffffffff811115612a7357612a726138a0565b5b612a7f878288016127d9565b9450506020612a9087828801612742565b9350506040612aa187828801612781565b925050606085013567ffffffffffffffff811115612ac257612ac16138a0565b5b612ace878288016127ab565b91505092959194509250565b600080600060608486031215612af357612af26138a5565b5b600084013567ffffffffffffffff811115612b1157612b106138a0565b5b612b1d868287016127d9565b9350506020612b2e86828701612742565b925050604084013567ffffffffffffffff811115612b4f57612b4e6138a0565b5b612b5b868287016127ab565b9150509250925092565b60008060008060808587031215612b7f57612b7e6138a5565b5b600085013567ffffffffffffffff811115612b9d57612b9c6138a0565b5b612ba9878288016127d9565b9450506020612bba87828801612781565b935050604085013567ffffffffffffffff811115612bdb57612bda6138a0565b5b612be7878288016127ab565b9250506060612bf887828801612781565b91505092959194509250565b600060808284031215612c1a57612c196138a5565b5b6000612c2884828501612807565b91505092915050565b600060a08284031215612c4757612c466138a5565b5b6000612c558482850161287f565b91505092915050565b6000612c6a838361301d565b905092915050565b6000612c7e83836131d4565b60408301905092915050565b612c9381613695565b82525050565b612ca281613695565b82525050565b6000612cb3826135d3565b612cbd8185613619565b935083602082028501612ccf8561359e565b8060005b85811015612d0b5784840389528151612cec8582612c5e565b9450612cf7836135ff565b925060208a01995050600181019050612cd3565b50829750879550505050505092915050565b6000612d28826135de565b612d32818561362a565b9350612d3d836135ae565b8060005b83811015612d6e578151612d558882612c72565b9750612d608361360c565b925050600181019050612d41565b5085935050505092915050565b612d84816136a7565b82525050565b612d93816136a7565b82525050565b612da2816136b3565b82525050565b612db1816136b3565b82525050565b6000612dc2826135e9565b612dcc818561363b565b9350612ddc8185602086016136f6565b612de5816138aa565b840191505092915050565b6000612dfb826135e9565b612e05818561364c565b9350612e158185602086016136f6565b612e1e816138aa565b840191505092915050565b60008154612e3681613729565b612e40818661365d565b94506001821660008114612e5b5760018114612e6c57612e9f565b60ff19831686528186019350612e9f565b612e75856135be565b60005b83811015612e9757815481890152600182019150602081019050612e78565b838801955050505b50505092915050565b6000612eb3826135f4565b612ebd8185613668565b9350612ecd8185602086016136f6565b612ed6816138aa565b840191505092915050565b6000612eec826135f4565b612ef68185613679565b9350612f068185602086016136f6565b612f0f816138aa565b840191505092915050565b6000612f25826135f4565b612f2f818561368a565b9350612f3f8185602086016136f6565b80840191505092915050565b6000612f58600e83613679565b9150612f63826138bb565b602082019050919050565b6000612f7b601383613679565b9150612f86826138e4565b602082019050919050565b6000612f9e601183613679565b9150612fa98261390d565b602082019050919050565b6000612fc1602283613679565b9150612fcc82613936565b604082019050919050565b6000612fe4600c83613679565b9150612fef82613985565b602082019050919050565b6000613007601683613679565b9150613012826139ae565b602082019050919050565b600060a083016000830151848203600086015261303a8282612ea8565b915050602083015161304f6020860182612c8a565b5060408301516130626040860182612d99565b506060830151848203606086015261307a8282612db7565b915050608083015161308f6080860182612d99565b508091505092915050565b600060a08301600083015184820360008601526130b78282612ea8565b91505060208301516130cc6020860182612c8a565b5060408301516130df6040860182612d99565b50606083015184820360608601526130f78282612db7565b915050608083015161310c6080860182612d99565b508091505092915050565b60808201600082015161312d6000850182612c8a565b5060208201516131406020850182612d99565b5060408201516131536040850182612d99565b5060608201516131666060850182612d7b565b50505050565b60a0820160008201516131826000850182612c8a565b5060208201516131956020850182612d99565b5060408201516131a86040850182612d99565b5060608201516131bb6060850182612d99565b5060808201516131ce6080850182612d7b565b50505050565b6040820160008201516131ea6000850182612c8a565b5060208201516131fd6020850182613203565b50505050565b61320c816136dd565b82525050565b600061321e8284612e29565b915081905092915050565b60006132358284612f1a565b915081905092915050565b60006020820190506132556000830184612c99565b92915050565b60006080820190506132706000830187612c99565b61327d6020830186612da8565b61328a6040830185612da8565b6132976060830184612d8a565b95945050505050565b600060a0820190506132b56000830188612c99565b6132c26020830187612da8565b6132cf6040830186612da8565b6132dc6060830185612da8565b6132e96080830184612d8a565b9695505050505050565b6000602082019050818103600083015261330d8184612ca8565b905092915050565b6000602082019050818103600083015261332f8184612d1d565b905092915050565b600060808201905081810360008301526133518187612ee1565b90506133606020830186612da8565b61336d6040830185612da8565b61337a6060830184612c99565b95945050505050565b6000606082019050818103600083015261339d8186612ee1565b90506133ac6020830185612da8565b81810360408301526133be8184612df0565b9050949350505050565b600060408201905081810360008301526133e28185612ee1565b905081810360208301526133f68184612df0565b90509392505050565b6000602082019050818103600083015261341881612f4b565b9050919050565b6000602082019050818103600083015261343881612f6e565b9050919050565b6000602082019050818103600083015261345881612f91565b9050919050565b6000602082019050818103600083015261347881612fb4565b9050919050565b6000602082019050818103600083015261349881612fd7565b9050919050565b600060208201905081810360008301526134b881612ffa565b9050919050565b600060208201905081810360008301526134d9818461309a565b905092915050565b60006080820190506134f66000830184613117565b92915050565b600060a082019050613511600083018461316c565b92915050565b6000613521613532565b905061352d828261375b565b919050565b6000604051905090565b600067ffffffffffffffff82111561355757613556613862565b5b613560826138aa565b9050602081019050919050565b600067ffffffffffffffff82111561358857613587613862565b5b613591826138aa565b9050602081019050919050565b6000819050602082019050919050565b6000819050602082019050919050565b60008190508160005260206000209050919050565b600081519050919050565b600081519050919050565b600081519050919050565b600081519050919050565b6000602082019050919050565b6000602082019050919050565b600082825260208201905092915050565b600082825260208201905092915050565b600082825260208201905092915050565b600082825260208201905092915050565b600081905092915050565b600082825260208201905092915050565b600082825260208201905092915050565b600081905092915050565b60006136a0826136bd565b9050919050565b60008115159050919050565b6000819050919050565b600073ffffffffffffffffffffffffffffffffffffffff82169050919050565b6000819050919050565b82818337600083830152505050565b60005b838110156137145780820151818401526020810190506136f9565b83811115613723576000848401525b50505050565b6000600282049050600182168061374157607f821691505b6020821081141561375557613754613804565b5b50919050565b613764826138aa565b810181811067ffffffffffffffff8211171561378357613782613862565b5b80604052505050565b6000613797826136dd565b91507fffffffffffffffffffffffffffffffffffffffffffffffffffffffffffffffff8214156137ca576137c96137d5565b5b600182019050919050565b7f4e487b7100000000000000000000000000000000000000000000000000000000600052601160045260246000fd5b7f4e487b7100000000000000000000000000000000000000000000000000000000600052602260045260246000fd5b7f4e487b7100000000000000000000000000000000000000000000000000000000600052603260045260246000fd5b7f4e487b7100000000000000000000000000000000000000000000000000000000600052604160045260246000fd5b600080fd5b600080fd5b600080fd5b600080fd5b600080fd5b6000601f19601f8301169050919050565b7f496e76616c696420616374696f6e000000000000000000000000000000000000600082015250565b7f5573657220616c72656164792065786973747300000000000000000000000000600082015250565b7f496e76616c6964206f7065726174696f6e000000000000000000000000000000600082015250565b7f4f6e6c792073757065722061646d696e2063616e20617070726f76652075736560008201527f7273000000000000000000000000000000000000000000000000000000000000602082015250565b7f496e76616c696420757365720000000000000000000000000000000000000000600082015250565b7f496e76616c69642075736572206f7065726174696f6e00000000000000000000600082015250565b6139e081613695565b81146139eb57600080fd5b50565b6139f7816136a7565b8114613a0257600080fd5b50565b613a0e816136b3565b8114613a1957600080fd5b5056fea2646970667358221220c2539c84cde4a85d2c811f01716e6f80fffc5bf69ff8f3a936668225b9d2d87664736f6c63430008060033",
  "linkReferences": {},
  "deployedLinkReferences": {}
}