{
  "_format": "hh-sol-artifact-1",
  "contractName": "Organisations",
  "sourceName": "contracts/Organisations.sol",
  "abi": [
    {
      "inputs": [
        {
          "internalType": "address",
          "name": "userContractAddress",
          "type": "address"
        }
      ],
      "stateMutability": "nonpayable",
      "type": "constructor"
    },
    {
      "anonymous": false,
      "inputs": [
        {
          "indexed": false,
          "internalType": "address",
          "name": "userAddress",
          "type": "address"
        },
        {
          "indexed": false,
          "internalType": "uint256",
          "name": "userType",
          "type": "uint256"
        },
        {
          "indexed": false,
          "internalType": "bool",
          "name": "approved",
          "type": "bool"
        }
      ],
      "name": "UserUpdated",
      "type": "event"
    },
    {
      "inputs": [
        {
          "internalType": "bytes32",
          "name": "category",
          "type": "bytes32"
        }
      ],
      "name": "addCategory",
      "outputs": [],
      "stateMutability": "nonpayable",
      "type": "function"
    },
    {
      "inputs": [
        {
          "internalType": "address",
          "name": "ownerAddress",
          "type": "address"
        },
        {
          "internalType": "bytes32",
          "name": "profession",
          "type": "bytes32"
        },
        {
          "internalType": "bytes32",
          "name": "location",
          "type": "bytes32"
        }
      ],
      "name": "addDataOwner",
      "outputs": [],
      "stateMutability": "nonpayable",
      "type": "function"
    },
    {
      "inputs": [
        {
          "internalType": "address",
          "name": "requesterAddress",
          "type": "address"
        },
        {
          "internalType": "bytes32",
          "name": "organisation",
          "type": "bytes32"
        },
        {
          "internalType": "bytes32",
          "name": "department",
          "type": "bytes32"
        },
        {
          "internalType": "bytes32",
          "name": "designation",
          "type": "bytes32"
        },
        {
          "internalType": "bytes",
          "name": "publicKey",
          "type": "bytes"
        }
      ],
      "name": "addDataRequester",
      "outputs": [],
      "stateMutability": "nonpayable",
      "type": "function"
    },
    {
      "inputs": [
        {
          "internalType": "string",
          "name": "orgid",
          "type": "string"
        },
        {
          "internalType": "bytes32",
          "name": "departmentName",
          "type": "bytes32"
        },
        {
          "internalType": "bytes32",
          "name": "designation",
          "type": "bytes32"
        },
        {
          "internalType": "bool",
          "name": "isAddDesignation",
          "type": "bool"
        }
      ],
      "name": "addDepartmentToOrg",
      "outputs": [],
      "stateMutability": "nonpayable",
      "type": "function"
    },
    {
      "inputs": [
        {
          "internalType": "string",
          "name": "depid",
          "type": "string"
        },
        {
          "internalType": "bytes32",
          "name": "designation",
          "type": "bytes32"
        },
        {
          "internalType": "bool",
          "name": "isAddDesignation",
          "type": "bool"
        }
      ],
      "name": "addDesignationToDepartment",
      "outputs": [],
      "stateMutability": "nonpayable",
      "type": "function"
    },
    {
      "inputs": [
        {
          "internalType": "uint256",
          "name": "",
          "type": "uint256"
        }
      ],
      "name": "allDepartments",
      "outputs": [
        {
          "internalType": "string",
          "name": "depid",
          "type": "string"
        },
        {
          "internalType": "bytes32",
          "name": "depname",
          "type": "bytes32"
        }
      ],
      "stateMutability": "view",
      "type": "function"
    },
    {
      "inputs": [
        {
          "internalType": "uint256",
          "name": "",
          "type": "uint256"
        }
      ],
      "name": "allOrganisations",
      "outputs": [
        {
          "internalType": "string",
          "name": "orgid",
          "type": "string"
        },
        {
          "internalType": "bytes32",
          "name": "orgname",
          "type": "bytes32"
        }
      ],
      "stateMutability": "view",
      "type": "function"
    },
    {
      "inputs": [
        {
          "internalType": "uint256",
          "name": "",
          "type": "uint256"
        }
      ],
      "name": "alldesignations",
      "outputs": [
        {
          "internalType": "bytes32",
          "name": "",
          "type": "bytes32"
        }
      ],
      "stateMutability": "view",
      "type": "function"
    },
    {
      "inputs": [
        {
          "internalType": "address",
          "name": "ownerAddress",
          "type": "address"
        }
      ],
      "name": "approveOwner",
      "outputs": [],
      "stateMutability": "nonpayable",
      "type": "function"
    },
    {
      "inputs": [
        {
          "internalType": "address",
          "name": "requesterAddress",
          "type": "address"
        }
      ],
      "name": "approveRequester",
      "outputs": [],
      "stateMutability": "nonpayable",
      "type": "function"
    },
    {
      "inputs": [
        {
          "internalType": "bytes32",
          "name": "name",
          "type": "bytes32"
        },
        {
          "internalType": "bytes32",
          "name": "departmentName",
          "type": "bytes32"
        },
        {
          "internalType": "bytes32",
          "name": "designation",
          "type": "bytes32"
        },
        {
          "internalType": "bool",
          "name": "isAddDesignation",
          "type": "bool"
        }
      ],
      "name": "createOrganisation",
      "outputs": [],
      "stateMutability": "nonpayable",
      "type": "function"
    },
    {
      "inputs": [],
      "name": "getAllCategories",
      "outputs": [
        {
          "internalType": "bytes32[]",
          "name": "",
          "type": "bytes32[]"
        }
      ],
      "stateMutability": "view",
      "type": "function"
    },
    {
      "inputs": [],
      "name": "getAllDepartments",
      "outputs": [
        {
          "components": [
            {
              "internalType": "string",
              "name": "depid",
              "type": "string"
            },
            {
              "internalType": "bytes32",
              "name": "depname",
              "type": "bytes32"
            }
          ],
          "internalType": "struct Organisations.DepartmentMinimal[]",
          "name": "",
          "type": "tuple[]"
        }
      ],
      "stateMutability": "view",
      "type": "function"
    },
    {
      "inputs": [],
      "name": "getAllDesignations",
      "outputs": [
        {
          "internalType": "bytes32[]",
          "name": "",
          "type": "bytes32[]"
        }
      ],
      "stateMutability": "view",
      "type": "function"
    },
    {
      "inputs": [],
      "name": "getAllOrganisations",
      "outputs": [
        {
          "components": [
            {
              "internalType": "string",
              "name": "orgid",
              "type": "string"
            },
            {
              "internalType": "bytes32",
              "name": "orgname",
              "type": "bytes32"
            }
          ],
          "internalType": "struct Organisations.OrganisationMinimal[]",
          "name": "",
          "type": "tuple[]"
        }
      ],
      "stateMutability": "view",
      "type": "function"
    },
    {
      "inputs": [],
      "name": "getAllUsers",
      "outputs": [
        {
          "components": [
            {
              "internalType": "address",
              "name": "userAddress",
              "type": "address"
            },
            {
              "internalType": "uint256",
              "name": "userType",
              "type": "uint256"
            },
            {
              "internalType": "bool",
              "name": "approved",
              "type": "bool"
            }
          ],
          "internalType": "struct Users.UsersMinimal[]",
          "name": "",
          "type": "tuple[]"
        }
      ],
      "stateMutability": "view",
      "type": "function"
    },
    {
      "inputs": [
        {
          "internalType": "address",
          "name": "ownerAddress",
          "type": "address"
        }
      ],
      "name": "getDataOwner",
      "outputs": [
        {
          "components": [
            {
              "internalType": "address",
              "name": "ownerAddress",
              "type": "address"
            },
            {
              "internalType": "bytes32",
              "name": "profession",
              "type": "bytes32"
            },
            {
              "internalType": "bytes32",
              "name": "location",
              "type": "bytes32"
            },
            {
              "internalType": "bool",
              "name": "approved",
              "type": "bool"
            }
          ],
          "internalType": "struct Users.Owner",
          "name": "",
          "type": "tuple"
        }
      ],
      "stateMutability": "view",
      "type": "function"
    },
    {
      "inputs": [
        {
          "internalType": "address",
          "name": "requesterAddress",
          "type": "address"
        }
      ],
      "name": "getDataRequester",
      "outputs": [
        {
          "components": [
            {
              "internalType": "address",
              "name": "requesterAddress",
              "type": "address"
            },
            {
              "internalType": "bytes32",
              "name": "organisation",
              "type": "bytes32"
            },
            {
              "internalType": "bytes32",
              "name": "department",
              "type": "bytes32"
            },
            {
              "internalType": "bytes32",
              "name": "designation",
              "type": "bytes32"
            },
            {
              "internalType": "bool",
              "name": "approved",
              "type": "bool"
            }
          ],
          "internalType": "struct Users.Requester",
          "name": "",
          "type": "tuple"
        }
      ],
      "stateMutability": "view",
      "type": "function"
    },
    {
      "inputs": [
        {
          "internalType": "string",
          "name": "depid",
          "type": "string"
        }
      ],
      "name": "getDepartment",
      "outputs": [
        {
          "components": [
            {
              "internalType": "string",
              "name": "depid",
              "type": "string"
            },
            {
              "internalType": "bytes32",
              "name": "depname",
              "type": "bytes32"
            },
            {
              "internalType": "bytes32[]",
              "name": "designations",
              "type": "bytes32[]"
            }
          ],
          "internalType": "struct Organisations.Department",
          "name": "",
          "type": "tuple"
        }
      ],
      "stateMutability": "view",
      "type": "function"
    },
    {
      "inputs": [
        {
          "internalType": "string",
          "name": "orgid",
          "type": "string"
        }
      ],
      "name": "getOrganisation",
      "outputs": [
        {
          "components": [
            {
              "internalType": "string",
              "name": "orgid",
              "type": "string"
            },
            {
              "internalType": "bytes32",
              "name": "orgname",
              "type": "bytes32"
            },
            {
              "internalType": "uint256",
              "name": "totalDepartments",
              "type": "uint256"
            },
            {
              "internalType": "string[]",
              "name": "departmentids",
              "type": "string[]"
            }
          ],
          "internalType": "struct Organisations.Organisation",
          "name": "",
          "type": "tuple"
        }
      ],
      "stateMutability": "view",
      "type": "function"
    },
    {
      "inputs": [
        {
          "internalType": "address",
          "name": "requesterAddress",
          "type": "address"
        }
      ],
      "name": "getPublicKey",
      "outputs": [
        {
          "internalType": "bytes",
          "name": "",
          "type": "bytes"
        }
      ],
      "stateMutability": "view",
      "type": "function"
    },
    {
      "inputs": [],
      "name": "getSuperAdmin",
      "outputs": [
        {
          "internalType": "address",
          "name": "",
          "type": "address"
        }
      ],
      "stateMutability": "view",
      "type": "function"
    },
    {
      "inputs": [
        {
          "internalType": "address",
          "name": "userAddress",
          "type": "address"
        }
      ],
      "name": "getUserRole",
      "outputs": [
        {
          "internalType": "uint256",
          "name": "",
          "type": "uint256"
        }
      ],
      "stateMutability": "view",
      "type": "function"
    },
    {
      "inputs": [
        {
          "internalType": "uint256",
          "name": "id",
          "type": "uint256"
        },
        {
          "internalType": "string",
          "name": "val",
          "type": "string"
        }
      ],
      "name": "makeId",
      "outputs": [
        {
          "internalType": "string",
          "name": "",
          "type": "string"
        }
      ],
      "stateMutability": "pure",
      "type": "function"
    },
    {
      "inputs": [],
      "name": "organisationCounter",
      "outputs": [
        {
          "internalType": "uint256",
          "name": "",
          "type": "uint256"
        }
      ],
      "stateMutability": "view",
      "type": "function"
    },
    {
      "inputs": [
        {
          "internalType": "address",
          "name": "",
          "type": "address"
        }
      ],
      "name": "owners",
      "outputs": [
        {
          "internalType": "address",
          "name": "ownerAddress",
          "type": "address"
        },
        {
          "internalType": "bytes32",
          "name": "profession",
          "type": "bytes32"
        },
        {
          "internalType": "bytes32",
          "name": "location",
          "type": "bytes32"
        },
        {
          "internalType": "bool",
          "name": "approved",
          "type": "bool"
        }
      ],
      "stateMutability": "view",
      "type": "function"
    },
    {
      "inputs": [
        {
          "internalType": "address",
          "name": "",
          "type": "address"
        }
      ],
      "name": "requesterToPublicKey",
      "outputs": [
        {
          "internalType": "bytes",
          "name": "",
          "type": "bytes"
        }
      ],
      "stateMutability": "view",
      "type": "function"
    },
    {
      "inputs": [
        {
          "internalType": "address",
          "name": "",
          "type": "address"
        }
      ],
      "name": "requesters",
      "outputs": [
        {
          "internalType": "address",
          "name": "requesterAddress",
          "type": "address"
        },
        {
          "internalType": "bytes32",
          "name": "organisation",
          "type": "bytes32"
        },
        {
          "internalType": "bytes32",
          "name": "department",
          "type": "bytes32"
        },
        {
          "internalType": "bytes32",
          "name": "designation",
          "type": "bytes32"
        },
        {
          "internalType": "bool",
          "name": "approved",
          "type": "bool"
        }
      ],
      "stateMutability": "view",
      "type": "function"
    },
    {
      "inputs": [],
      "name": "superadmin",
      "outputs": [
        {
          "internalType": "address",
          "name": "",
          "type": "address"
        }
      ],
      "stateMutability": "view",
      "type": "function"
    },
    {
      "inputs": [
        {
          "internalType": "address",
          "name": "ownerAddress",
          "type": "address"
        },
        {
          "internalType": "bytes32",
          "name": "profession",
          "type": "bytes32"
        },
        {
          "internalType": "bytes32",
          "name": "location",
          "type": "bytes32"
        }
      ],
      "name": "updateDataOwner",
      "outputs": [],
      "stateMutability": "nonpayable",
      "type": "function"
    },
    {
      "inputs": [
        {
          "internalType": "address",
          "name": "requesterAddress",
          "type": "address"
        },
        {
          "internalType": "bytes32",
          "name": "organisation",
          "type": "bytes32"
        },
        {
          "internalType": "bytes32",
          "name": "department",
          "type": "bytes32"
        },
        {
          "internalType": "bytes32",
          "name": "designation",
          "type": "bytes32"
        }
      ],
      "name": "updateDataRequester",
      "outputs": [],
      "stateMutability": "nonpayable",
      "type": "function"
    },
    {
      "inputs": [
        {
          "internalType": "address",
          "name": "",
          "type": "address"
        }
      ],
      "name": "userIndexToUpdate",
      "outputs": [
        {
          "internalType": "uint256",
          "name": "",
          "type": "uint256"
        }
      ],
      "stateMutability": "view",
      "type": "function"
    },
    {
      "inputs": [
        {
          "internalType": "address",
          "name": "",
          "type": "address"
        }
      ],
      "name": "userToRole",
      "outputs": [
        {
          "internalType": "uint256",
          "name": "",
          "type": "uint256"
        }
      ],
      "stateMutability": "view",
      "type": "function"
    },
    {
      "inputs": [],
      "name": "usersContractInstance",
      "outputs": [
        {
          "internalType": "contract Users",
          "name": "",
          "type": "address"
        }
      ],
      "stateMutability": "view",
      "type": "function"
    }
  ],
  "bytecode": "0x60806040526000600c553480156200001657600080fd5b50604051620052133803806200521383398181016040528101906200003c919062000120565b336000806101000a81548173ffffffffffffffffffffffffffffffffffffffff021916908373ffffffffffffffffffffffffffffffffffffffff1602179055506003600560003373ffffffffffffffffffffffffffffffffffffffff1673ffffffffffffffffffffffffffffffffffffffff1681526020019081526020016000208190555080600860006101000a81548173ffffffffffffffffffffffffffffffffffffffff021916908373ffffffffffffffffffffffffffffffffffffffff16021790555050620001a5565b6000815190506200011a816200018b565b92915050565b60006020828403121562000139576200013862000186565b5b6000620001498482850162000109565b91505092915050565b60006200015f8262000166565b9050919050565b600073ffffffffffffffffffffffffffffffffffffffff82169050919050565b600080fd5b620001968162000152565b8114620001a257600080fd5b50565b61505e80620001b56000396000f3fe608060405234801561001057600080fd5b50600436106102065760003560e01c80638204c3261161011a578063b4d5b1ff116100ad578063d6f8307f1161007c578063d6f8307f1461064e578063dadd0a5714610682578063e2842d79146106a0578063f565d7b0146106be578063fce59441146106ee57610206565b8063b4d5b1ff146105c7578063b648ee2d146105e3578063ce37ede0146105ff578063d11b5d161461063057610206565b80639420d020116100e95780639420d0201461054057806394231a011461055c57806399e48f9a14610578578063b163e03d146105a957610206565b80638204c326146104b857806385099f6e146104d6578063857cdbb8146104f257806386c3a49c1461052257610206565b80633185d5af1161019d57806344713f791161016c57806344713f79146103da57806350a387441461040a5780635669c0581461043a57806360d8c5ec1461046a57806363d48aba1461049a57610206565b80633185d5af146103685780633ad332a0146103845780633cabc73e146103a25780633cbca9d4146103be57610206565b80631d4ff14e116101d95780631d4ff14e146102a85780631e2b7e26146102d857806327820851146103085780632d777e0f1461033857610206565b8063022914a71461020b5780630cd12a2f1461023e5780631113d5711461026e5780631a70b6811461028c575b600080fd5b61022560048036038101906102209190613895565b61070a565b604051610235949392919061453b565b60405180910390f35b61025860048036038101906102539190613895565b610767565b60405161026591906148ad565b60405180910390f35b61027661077f565b6040516102839190614641565b60405180910390f35b6102a660048036038101906102a19190613a40565b6107d7565b005b6102c260048036038101906102bd9190613895565b610893565b6040516102cf91906148ad565b60405180910390f35b6102f260048036038101906102ed9190613895565b6108ab565b6040516102ff91906146e4565b60405180910390f35b610322600480360381019061031d9190613895565b61094b565b60405161032f91906148ad565b60405180910390f35b610352600480360381019061034d9190613c0f565b610994565b60405161035f91906146c9565b60405180910390f35b610382600480360381019061037d91906138ef565b6109b8565b005b61038c610e90565b60405161039991906148ad565b60405180910390f35b6103bc60048036038101906103b791906139a9565b610e96565b005b6103d860048036038101906103d39190613942565b6113d4565b005b6103f460048036038101906103ef9190613c3c565b6116fe565b6040516104019190614721565b60405180910390f35b610424600480360381019061041f9190613ad4565b611738565b6040516104319190614855565b60405180910390f35b610454600480360381019061044f9190613895565b6118ef565b6040516104619190614892565b60405180910390f35b610484600480360381019061047f9190613ad4565b6119d7565b6040516104919190614833565b60405180910390f35b6104a2611b03565b6040516104af9190614520565b60405180910390f35b6104c0611b27565b6040516104cd9190614520565b60405180910390f35b6104f060048036038101906104eb9190613895565b611b50565b005b61050c60048036038101906105079190613895565b611d8b565b60405161051991906146e4565b60405180910390f35b61052a611e5c565b6040516105379190614663565b60405180910390f35b61055a60048036038101906105559190613a6d565b611f57565b005b610576600480360381019061057191906138ef565b6123c2565b005b610592600480360381019061058d9190613c0f565b6126db565b6040516105a0929190614743565b60405180910390f35b6105b1612797565b6040516105be9190614685565b60405180910390f35b6105e160048036038101906105dc9190613b1d565b612892565b005b6105fd60048036038101906105f89190613895565b612a85565b005b61061960048036038101906106149190613c0f565b612cbf565b604051610627929190614743565b60405180910390f35b610638612d7b565b6040516106459190614706565b60405180910390f35b61066860048036038101906106639190613895565b612da1565b604051610679959493929190614580565b60405180910390f35b61068a612e04565b6040516106979190614641565b60405180910390f35b6106a8612e5c565b6040516106b591906146a7565b60405180910390f35b6106d860048036038101906106d39190613895565b612f36565b6040516106e59190614877565b60405180910390f35b61070860048036038101906107039190613b8c565b613014565b005b60036020528060005260406000206000915090508060000160009054906101000a900473ffffffffffffffffffffffffffffffffffffffff16908060010154908060020154908060030160009054906101000a900460ff16905084565b60056020528060005260406000206000915090505481565b606060098054806020026020016040519081016040528092919081815260200182805480156107cd57602002820191906000526020600020905b8154815260200190600101908083116107b9575b5050505050905090565b3360008054906101000a900473ffffffffffffffffffffffffffffffffffffffff1673ffffffffffffffffffffffffffffffffffffffff168173ffffffffffffffffffffffffffffffffffffffff1614610866576040517f08c379a000000000000000000000000000000000000000000000000000000000815260040161085d90614793565b60405180910390fd5b60028290806001815401808255809150506001900390600052602060002001600090919091909150555050565b60076020528060005260406000206000915090505481565b600660205280600052604060002060009150905080546108ca90614c9a565b80601f01602080910402602001604051908101604052809291908181526020018280546108f690614c9a565b80156109435780601f1061091857610100808354040283529160200191610943565b820191906000526020600020905b81548152906001019060200180831161092657829003601f168201915b505050505081565b6000600560008373ffffffffffffffffffffffffffffffffffffffff1673ffffffffffffffffffffffffffffffffffffffff168152602001908152602001600020549050919050565b600981815481106109a457600080fd5b906000526020600020016000915090505481565b82600073ffffffffffffffffffffffffffffffffffffffff16600360008373ffffffffffffffffffffffffffffffffffffffff1673ffffffffffffffffffffffffffffffffffffffff16815260200190815260200160002060000160009054906101000a900473ffffffffffffffffffffffffffffffffffffffff1673ffffffffffffffffffffffffffffffffffffffff1614610a8a576040517f08c379a0000000000000000000000000000000000000000000000000000000008152600401610a8190614773565b60405180910390fd5b600073ffffffffffffffffffffffffffffffffffffffff16600460008373ffffffffffffffffffffffffffffffffffffffff1673ffffffffffffffffffffffffffffffffffffffff16815260200190815260200160002060000160009054906101000a900473ffffffffffffffffffffffffffffffffffffffff1673ffffffffffffffffffffffffffffffffffffffff1614610b5b576040517f08c379a0000000000000000000000000000000000000000000000000000000008152600401610b5290614773565b60405180910390fd5b60008054906101000a900473ffffffffffffffffffffffffffffffffffffffff1673ffffffffffffffffffffffffffffffffffffffff168173ffffffffffffffffffffffffffffffffffffffff161415610bea576040517f08c379a0000000000000000000000000000000000000000000000000000000008152600401610be1906147d3565b60405180910390fd5b60405180608001604052808573ffffffffffffffffffffffffffffffffffffffff16815260200184815260200183815260200160001515815250600360008673ffffffffffffffffffffffffffffffffffffffff1673ffffffffffffffffffffffffffffffffffffffff16815260200190815260200160002060008201518160000160006101000a81548173ffffffffffffffffffffffffffffffffffffffff021916908373ffffffffffffffffffffffffffffffffffffffff160217905550602082015181600101556040820151816002015560608201518160030160006101000a81548160ff0219169083151502179055509050506001600560008673ffffffffffffffffffffffffffffffffffffffff1673ffffffffffffffffffffffffffffffffffffffff16815260200190815260200160002081905550600160405180606001604052808673ffffffffffffffffffffffffffffffffffffffff1681526020016001815260200160001515815250908060018154018082558091505060019003906000526020600020906003020160009091909190915060008201518160000160006101000a81548173ffffffffffffffffffffffffffffffffffffffff021916908373ffffffffffffffffffffffffffffffffffffffff1602179055506020820151816001015560408201518160020160006101000a81548160ff021916908315150217905550505060018080549050610e0a9190614b78565b600760008673ffffffffffffffffffffffffffffffffffffffff1673ffffffffffffffffffffffffffffffffffffffff168152602001908152602001600020819055507fe1391f1b21fd22d5c006ee81fe95aa900304333bd7a829642d9042a2395c27f88460016000604051610e82939291906145d3565b60405180910390a150505050565b600c5481565b84600073ffffffffffffffffffffffffffffffffffffffff16600360008373ffffffffffffffffffffffffffffffffffffffff1673ffffffffffffffffffffffffffffffffffffffff16815260200190815260200160002060000160009054906101000a900473ffffffffffffffffffffffffffffffffffffffff1673ffffffffffffffffffffffffffffffffffffffff1614610f68576040517f08c379a0000000000000000000000000000000000000000000000000000000008152600401610f5f90614773565b60405180910390fd5b600073ffffffffffffffffffffffffffffffffffffffff16600460008373ffffffffffffffffffffffffffffffffffffffff1673ffffffffffffffffffffffffffffffffffffffff16815260200190815260200160002060000160009054906101000a900473ffffffffffffffffffffffffffffffffffffffff1673ffffffffffffffffffffffffffffffffffffffff1614611039576040517f08c379a000000000000000000000000000000000000000000000000000000000815260040161103090614773565b60405180910390fd5b60008054906101000a900473ffffffffffffffffffffffffffffffffffffffff1673ffffffffffffffffffffffffffffffffffffffff168173ffffffffffffffffffffffffffffffffffffffff1614156110c8576040517f08c379a00000000000000000000000000000000000000000000000000000000081526004016110bf906147d3565b60405180910390fd5b6040518060a001604052808773ffffffffffffffffffffffffffffffffffffffff16815260200186815260200185815260200184815260200160001515815250600460008873ffffffffffffffffffffffffffffffffffffffff1673ffffffffffffffffffffffffffffffffffffffff16815260200190815260200160002060008201518160000160006101000a81548173ffffffffffffffffffffffffffffffffffffffff021916908373ffffffffffffffffffffffffffffffffffffffff16021790555060208201518160010155604082015181600201556060820151816003015560808201518160040160006101000a81548160ff0219169083151502179055509050506002600560008873ffffffffffffffffffffffffffffffffffffffff1673ffffffffffffffffffffffffffffffffffffffff1681526020019081526020016000208190555081600660008873ffffffffffffffffffffffffffffffffffffffff1673ffffffffffffffffffffffffffffffffffffffff168152602001908152602001600020908051906020019061126792919061353e565b50600160405180606001604052808873ffffffffffffffffffffffffffffffffffffffff1681526020016002815260200160001515815250908060018154018082558091505060019003906000526020600020906003020160009091909190915060008201518160000160006101000a81548173ffffffffffffffffffffffffffffffffffffffff021916908373ffffffffffffffffffffffffffffffffffffffff1602179055506020820151816001015560408201518160020160006101000a81548160ff02191690831515021790555050506001808054905061134c9190614b78565b600760008873ffffffffffffffffffffffffffffffffffffffff1673ffffffffffffffffffffffffffffffffffffffff168152602001908152602001600020819055507fe1391f1b21fd22d5c006ee81fe95aa900304333bd7a829642d9042a2395c27f886600260006040516113c49392919061460a565b60405180910390a1505050505050565b3373ffffffffffffffffffffffffffffffffffffffff16600460008673ffffffffffffffffffffffffffffffffffffffff1673ffffffffffffffffffffffffffffffffffffffff16815260200190815260200160002060000160009054906101000a900473ffffffffffffffffffffffffffffffffffffffff1673ffffffffffffffffffffffffffffffffffffffff16146114a4576040517f08c379a000000000000000000000000000000000000000000000000000000000815260040161149b90614813565b60405180910390fd5b6040518060a001604052808573ffffffffffffffffffffffffffffffffffffffff16815260200184815260200183815260200182815260200160001515815250600460008673ffffffffffffffffffffffffffffffffffffffff1673ffffffffffffffffffffffffffffffffffffffff16815260200190815260200160002060008201518160000160006101000a81548173ffffffffffffffffffffffffffffffffffffffff021916908373ffffffffffffffffffffffffffffffffffffffff16021790555060208201518160010155604082015181600201556060820151816003015560808201518160040160006101000a81548160ff0219169083151502179055509050506000600760008673ffffffffffffffffffffffffffffffffffffffff1673ffffffffffffffffffffffffffffffffffffffff16815260200190815260200160002054905060405180606001604052808673ffffffffffffffffffffffffffffffffffffffff16815260200160028152602001600015158152506001828154811061163857611637614e04565b5b906000526020600020906003020160008201518160000160006101000a81548173ffffffffffffffffffffffffffffffffffffffff021916908373ffffffffffffffffffffffffffffffffffffffff1602179055506020820151816001015560408201518160020160006101000a81548160ff0219169083151502179055509050507fe1391f1b21fd22d5c006ee81fe95aa900304333bd7a829642d9042a2395c27f885600260006040516116ef9392919061460a565b60405180910390a15050505050565b6060600061170b846133dd565b905082816040516020016117209291906144da565b60405160208183030381529060405291505092915050565b6117406135c4565b600d8260405161175091906144c3565b908152602001604051809103902060405180608001604052908160008201805461177990614c9a565b80601f01602080910402602001604051908101604052809291908181526020018280546117a590614c9a565b80156117f25780601f106117c7576101008083540402835291602001916117f2565b820191906000526020600020905b8154815290600101906020018083116117d557829003601f168201915b50505050508152602001600182015481526020016002820154815260200160038201805480602002602001604051908101604052809291908181526020016000905b828210156118e057838290600052602060002001805461185390614c9a565b80601f016020809104026020016040519081016040528092919081815260200182805461187f90614c9a565b80156118cc5780601f106118a1576101008083540402835291602001916118cc565b820191906000526020600020905b8154815290600101906020018083116118af57829003601f168201915b505050505081526020019060010190611834565b50505050815250509050919050565b6118f76135ef565b600460008373ffffffffffffffffffffffffffffffffffffffff1673ffffffffffffffffffffffffffffffffffffffff1681526020019081526020016000206040518060a00160405290816000820160009054906101000a900473ffffffffffffffffffffffffffffffffffffffff1673ffffffffffffffffffffffffffffffffffffffff1673ffffffffffffffffffffffffffffffffffffffff1681526020016001820154815260200160028201548152602001600382015481526020016004820160009054906101000a900460ff1615151515815250509050919050565b6119df61363f565b600e826040516119ef91906144c3565b9081526020016040518091039020604051806060016040529081600082018054611a1890614c9a565b80601f0160208091040260200160405190810160405280929190818152602001828054611a4490614c9a565b8015611a915780601f10611a6657610100808354040283529160200191611a91565b820191906000526020600020905b815481529060010190602001808311611a7457829003601f168201915b505050505081526020016001820154815260200160028201805480602002602001604051908101604052809291908181526020018280548015611af357602002820191906000526020600020905b815481526020019060010190808311611adf575b5050505050815250509050919050565b60008054906101000a900473ffffffffffffffffffffffffffffffffffffffff1681565b60008060009054906101000a900473ffffffffffffffffffffffffffffffffffffffff16905090565b3360008054906101000a900473ffffffffffffffffffffffffffffffffffffffff1673ffffffffffffffffffffffffffffffffffffffff168173ffffffffffffffffffffffffffffffffffffffff1614611bdf576040517f08c379a0000000000000000000000000000000000000000000000000000000008152600401611bd690614793565b60405180910390fd5b6001600460008473ffffffffffffffffffffffffffffffffffffffff1673ffffffffffffffffffffffffffffffffffffffff16815260200190815260200160002060040160006101000a81548160ff0219169083151502179055506000600760008473ffffffffffffffffffffffffffffffffffffffff1673ffffffffffffffffffffffffffffffffffffffff16815260200190815260200160002054905060405180606001604052808473ffffffffffffffffffffffffffffffffffffffff168152602001600281526020016001151581525060018281548110611cc757611cc6614e04565b5b906000526020600020906003020160008201518160000160006101000a81548173ffffffffffffffffffffffffffffffffffffffff021916908373ffffffffffffffffffffffffffffffffffffffff1602179055506020820151816001015560408201518160020160006101000a81548160ff0219169083151502179055509050507fe1391f1b21fd22d5c006ee81fe95aa900304333bd7a829642d9042a2395c27f88360026001604051611d7e9392919061460a565b60405180910390a1505050565b6060600660008373ffffffffffffffffffffffffffffffffffffffff1673ffffffffffffffffffffffffffffffffffffffff1681526020019081526020016000208054611dd790614c9a565b80601f0160208091040260200160405190810160405280929190818152602001828054611e0390614c9a565b8015611e505780601f10611e2557610100808354040283529160200191611e50565b820191906000526020600020905b815481529060010190602001808311611e3357829003601f168201915b50505050509050919050565b6060600b805480602002602001604051908101604052809291908181526020016000905b82821015611f4e5783829060005260206000209060020201604051806040016040529081600082018054611eb390614c9a565b80601f0160208091040260200160405190810160405280929190818152602001828054611edf90614c9a565b8015611f2c5780601f10611f0157610100808354040283529160200191611f2c565b820191906000526020600020905b815481529060010190602001808311611f0f57829003601f168201915b5050505050815260200160018201548152505081526020019060010190611e80565b50505050905090565b338073ffffffffffffffffffffffffffffffffffffffff16600860009054906101000a900473ffffffffffffffffffffffffffffffffffffffff1673ffffffffffffffffffffffffffffffffffffffff16638204c3266040518163ffffffff1660e01b815260040160206040518083038186803b158015611fd757600080fd5b505afa158015611feb573d6000803e3d6000fd5b505050506040513d601f19601f8201168201806040525081019061200f91906138c2565b73ffffffffffffffffffffffffffffffffffffffff1614612065576040517f08c379a000000000000000000000000000000000000000000000000000000000815260040161205c90614813565b60405180910390fd5b6001600c546120749190614af1565b600c8190555060006120bd600c546040518060400160405280600381526020017f6f726700000000000000000000000000000000000000000000000000000000008152506116fe565b905080600d826040516120d091906144c3565b908152602001604051809103902060000190805190602001906120f4929190613663565b5085600d8260405161210691906144c3565b90815260200160405180910390206001018190555060006001600d8360405161212f91906144c3565b90815260200160405180910390206002015461214b9190614af1565b905060008260405160200161216091906144fe565b6040516020818303038152906040529050600061217d83836116fe565b9050600d8460405161218f91906144c3565b908152602001604051809103902060020160008154809291906121b190614cfd565b9190505550600d846040516121c691906144c3565b908152602001604051809103902060030181908060018154018082558091505060019003906000526020600020016000909190919091509080519060200190612210929190613663565b5080600e8260405161222291906144c3565b90815260200160405180910390206000019080519060200190612246929190613663565b5087600e8260405161225891906144c3565b908152602001604051809103902060010181905550600e8160405161227d91906144c3565b908152602001604051809103902060020187908060018154018082558091505060019003906000526020600020016000909190919091505585156122e55760098790806001815401808255809150506001900390600052602060002001600090919091909150555b600a60405180604001604052808681526020018b81525090806001815401808255809150506001900390600052602060002090600202016000909190919091506000820151816000019080519060200190612341929190613663565b50602082015181600101555050600b60405180604001604052808381526020018a815250908060018154018082558091505060019003906000526020600020906002020160009091909190915060008201518160000190805190602001906123aa929190613663565b50602082015181600101555050505050505050505050565b3373ffffffffffffffffffffffffffffffffffffffff16600360008573ffffffffffffffffffffffffffffffffffffffff1673ffffffffffffffffffffffffffffffffffffffff16815260200190815260200160002060000160009054906101000a900473ffffffffffffffffffffffffffffffffffffffff1673ffffffffffffffffffffffffffffffffffffffff1614612492576040517f08c379a000000000000000000000000000000000000000000000000000000000815260040161248990614813565b60405180910390fd5b60405180608001604052808473ffffffffffffffffffffffffffffffffffffffff16815260200183815260200182815260200160001515815250600360008573ffffffffffffffffffffffffffffffffffffffff1673ffffffffffffffffffffffffffffffffffffffff16815260200190815260200160002060008201518160000160006101000a81548173ffffffffffffffffffffffffffffffffffffffff021916908373ffffffffffffffffffffffffffffffffffffffff160217905550602082015181600101556040820151816002015560608201518160030160006101000a81548160ff0219169083151502179055509050506000600760008573ffffffffffffffffffffffffffffffffffffffff1673ffffffffffffffffffffffffffffffffffffffff16815260200190815260200160002054905060405180606001604052808573ffffffffffffffffffffffffffffffffffffffff16815260200160018152602001600015158152506001828154811061261657612615614e04565b5b906000526020600020906003020160008201518160000160006101000a81548173ffffffffffffffffffffffffffffffffffffffff021916908373ffffffffffffffffffffffffffffffffffffffff1602179055506020820151816001015560408201518160020160006101000a81548160ff0219169083151502179055509050507fe1391f1b21fd22d5c006ee81fe95aa900304333bd7a829642d9042a2395c27f884600160006040516126cd939291906145d3565b60405180910390a150505050565b600b81815481106126eb57600080fd5b906000526020600020906002020160009150905080600001805461270e90614c9a565b80601f016020809104026020016040519081016040528092919081815260200182805461273a90614c9a565b80156127875780601f1061275c57610100808354040283529160200191612787565b820191906000526020600020905b81548152906001019060200180831161276a57829003601f168201915b5050505050908060010154905082565b6060600a805480602002602001604051908101604052809291908181526020016000905b8282101561288957838290600052602060002090600202016040518060400160405290816000820180546127ee90614c9a565b80601f016020809104026020016040519081016040528092919081815260200182805461281a90614c9a565b80156128675780601f1061283c57610100808354040283529160200191612867565b820191906000526020600020905b81548152906001019060200180831161284a57829003601f168201915b50505050508152602001600182015481525050815260200190600101906127bb565b50505050905090565b338073ffffffffffffffffffffffffffffffffffffffff16600860009054906101000a900473ffffffffffffffffffffffffffffffffffffffff1673ffffffffffffffffffffffffffffffffffffffff16638204c3266040518163ffffffff1660e01b815260040160206040518083038186803b15801561291257600080fd5b505afa158015612926573d6000803e3d6000fd5b505050506040513d601f19601f8201168201806040525081019061294a91906138c2565b73ffffffffffffffffffffffffffffffffffffffff16146129a0576040517f08c379a000000000000000000000000000000000000000000000000000000000815260040161299790614813565b60405180910390fd5b6000600e856040516129b291906144c3565b90815260200160405180910390206002018054905011612a07576040517f08c379a00000000000000000000000000000000000000000000000000000000081526004016129fe906147b3565b60405180910390fd5b8115612a375760098390806001815401808255809150506001900390600052602060002001600090919091909150555b600e84604051612a4791906144c3565b908152602001604051809103902060020183908060018154018082558091505060019003906000526020600020016000909190919091505550505050565b3360008054906101000a900473ffffffffffffffffffffffffffffffffffffffff1673ffffffffffffffffffffffffffffffffffffffff168173ffffffffffffffffffffffffffffffffffffffff1614612b14576040517f08c379a0000000000000000000000000000000000000000000000000000000008152600401612b0b90614793565b60405180910390fd5b6001600360008473ffffffffffffffffffffffffffffffffffffffff1673ffffffffffffffffffffffffffffffffffffffff16815260200190815260200160002060030160006101000a81548160ff0219169083151502179055506000600760008473ffffffffffffffffffffffffffffffffffffffff1673ffffffffffffffffffffffffffffffffffffffff16815260200190815260200160002054905060405180606001604052808473ffffffffffffffffffffffffffffffffffffffff168152602001600181526020016001151581525060018281548110612bfc57612bfb614e04565b5b906000526020600020906003020160008201518160000160006101000a81548173ffffffffffffffffffffffffffffffffffffffff021916908373ffffffffffffffffffffffffffffffffffffffff1602179055506020820151816001015560408201518160020160006101000a81548160ff0219169083151502179055509050507fe1391f1b21fd22d5c006ee81fe95aa900304333bd7a829642d9042a2395c27f883600180604051612cb2939291906145d3565b60405180910390a1505050565b600a8181548110612ccf57600080fd5b9060005260206000209060020201600091509050806000018054612cf290614c9a565b80601f0160208091040260200160405190810160405280929190818152602001828054612d1e90614c9a565b8015612d6b5780601f10612d4057610100808354040283529160200191612d6b565b820191906000526020600020905b815481529060010190602001808311612d4e57829003601f168201915b5050505050908060010154905082565b600860009054906101000a900473ffffffffffffffffffffffffffffffffffffffff1681565b60046020528060005260406000206000915090508060000160009054906101000a900473ffffffffffffffffffffffffffffffffffffffff16908060010154908060020154908060030154908060040160009054906101000a900460ff16905085565b60606002805480602002602001604051908101604052809291908181526020018280548015612e5257602002820191906000526020600020905b815481526020019060010190808311612e3e575b5050505050905090565b60606001805480602002602001604051908101604052809291908181526020016000905b82821015612f2d57838290600052602060002090600302016040518060600160405290816000820160009054906101000a900473ffffffffffffffffffffffffffffffffffffffff1673ffffffffffffffffffffffffffffffffffffffff1673ffffffffffffffffffffffffffffffffffffffff168152602001600182015481526020016002820160009054906101000a900460ff16151515158152505081526020019060010190612e80565b50505050905090565b612f3e6136e9565b600360008373ffffffffffffffffffffffffffffffffffffffff1673ffffffffffffffffffffffffffffffffffffffff1681526020019081526020016000206040518060800160405290816000820160009054906101000a900473ffffffffffffffffffffffffffffffffffffffff1673ffffffffffffffffffffffffffffffffffffffff1673ffffffffffffffffffffffffffffffffffffffff16815260200160018201548152602001600282015481526020016003820160009054906101000a900460ff1615151515815250509050919050565b338073ffffffffffffffffffffffffffffffffffffffff16600860009054906101000a900473ffffffffffffffffffffffffffffffffffffffff1673ffffffffffffffffffffffffffffffffffffffff16638204c3266040518163ffffffff1660e01b815260040160206040518083038186803b15801561309457600080fd5b505afa1580156130a8573d6000803e3d6000fd5b505050506040513d601f19601f820116820180604052508101906130cc91906138c2565b73ffffffffffffffffffffffffffffffffffffffff1614613122576040517f08c379a000000000000000000000000000000000000000000000000000000000815260040161311990614813565b60405180910390fd5b8480519060200120600d8660405161313a91906144c3565b908152602001604051809103902060000160405161315891906144ac565b6040518091039020146131a0576040517f08c379a0000000000000000000000000000000000000000000000000000000008152600401613197906147f3565b60405180910390fd5b60006001600d876040516131b491906144c3565b9081526020016040518091039020600201546131d09190614af1565b90506000866040516020016131e591906144fe565b6040516020818303038152906040529050600061320283836116fe565b9050600d8860405161321491906144c3565b9081526020016040518091039020600201600081548092919061323690614cfd565b9190505550600d8860405161324b91906144c3565b908152602001604051809103902060030181908060018154018082558091505060019003906000526020600020016000909190919091509080519060200190613295929190613663565b5080600e826040516132a791906144c3565b908152602001604051809103902060000190805190602001906132cb929190613663565b5086600e826040516132dd91906144c3565b908152602001604051809103902060010181905550600e8160405161330291906144c3565b9081526020016040518091039020600201869080600181540180825580915050600190039060005260206000200160009091909190915055841561336a5760098690806001815401808255809150506001900390600052602060002001600090919091909150555b600b604051806040016040528083815260200189815250908060018154018082558091505060019003906000526020600020906002020160009091909190915060008201518160000190805190602001906133c6929190613663565b506020820151816001015550505050505050505050565b60606000821415613425576040518060400160405280600181526020017f30000000000000000000000000000000000000000000000000000000000000008152509050613539565b600082905060005b6000821461345757808061344090614cfd565b915050600a826134509190614b47565b915061342d565b60008167ffffffffffffffff81111561347357613472614e33565b5b6040519080825280601f01601f1916602001820160405280156134a55781602001600182028036833780820191505090505b5090505b60008514613532576001826134be9190614b78565b9150600a856134cd9190614d46565b60306134d99190614af1565b60f81b8183815181106134ef576134ee614e04565b5b60200101907effffffffffffffffffffffffffffffffffffffffffffffffffffffffffffff1916908160001a905350600a8561352b9190614b47565b94506134a9565b8093505050505b919050565b82805461354a90614c9a565b90600052602060002090601f01602090048101928261356c57600085556135b3565b82601f1061358557805160ff19168380011785556135b3565b828001600101855582156135b3579182015b828111156135b2578251825591602001919060010190613597565b5b5090506135c0919061372f565b5090565b6040518060800160405280606081526020016000801916815260200160008152602001606081525090565b6040518060a00160405280600073ffffffffffffffffffffffffffffffffffffffff1681526020016000801916815260200160008019168152602001600080191681526020016000151581525090565b60405180606001604052806060815260200160008019168152602001606081525090565b82805461366f90614c9a565b90600052602060002090601f01602090048101928261369157600085556136d8565b82601f106136aa57805160ff19168380011785556136d8565b828001600101855582156136d8579182015b828111156136d75782518255916020019190600101906136bc565b5b5090506136e5919061372f565b5090565b6040518060800160405280600073ffffffffffffffffffffffffffffffffffffffff16815260200160008019168152602001600080191681526020016000151581525090565b5b80821115613748576000816000905550600101613730565b5090565b600061375f61375a846148ed565b6148c8565b90508281526020810184848401111561377b5761377a614e67565b5b613786848285614c58565b509392505050565b60006137a161379c8461491e565b6148c8565b9050828152602081018484840111156137bd576137bc614e67565b5b6137c8848285614c58565b509392505050565b6000813590506137df81614fcc565b92915050565b6000815190506137f481614fcc565b92915050565b60008135905061380981614fe3565b92915050565b60008135905061381e81614ffa565b92915050565b600082601f83011261383957613838614e62565b5b813561384984826020860161374c565b91505092915050565b600082601f83011261386757613866614e62565b5b813561387784826020860161378e565b91505092915050565b60008135905061388f81615011565b92915050565b6000602082840312156138ab576138aa614e71565b5b60006138b9848285016137d0565b91505092915050565b6000602082840312156138d8576138d7614e71565b5b60006138e6848285016137e5565b91505092915050565b60008060006060848603121561390857613907614e71565b5b6000613916868287016137d0565b93505060206139278682870161380f565b92505060406139388682870161380f565b9150509250925092565b6000806000806080858703121561395c5761395b614e71565b5b600061396a878288016137d0565b945050602061397b8782880161380f565b935050604061398c8782880161380f565b925050606061399d8782880161380f565b91505092959194509250565b600080600080600060a086880312156139c5576139c4614e71565b5b60006139d3888289016137d0565b95505060206139e48882890161380f565b94505060406139f58882890161380f565b9350506060613a068882890161380f565b925050608086013567ffffffffffffffff811115613a2757613a26614e6c565b5b613a3388828901613824565b9150509295509295909350565b600060208284031215613a5657613a55614e71565b5b6000613a648482850161380f565b91505092915050565b60008060008060808587031215613a8757613a86614e71565b5b6000613a958782880161380f565b9450506020613aa68782880161380f565b9350506040613ab78782880161380f565b9250506060613ac8878288016137fa565b91505092959194509250565b600060208284031215613aea57613ae9614e71565b5b600082013567ffffffffffffffff811115613b0857613b07614e6c565b5b613b1484828501613852565b91505092915050565b600080600060608486031215613b3657613b35614e71565b5b600084013567ffffffffffffffff811115613b5457613b53614e6c565b5b613b6086828701613852565b9350506020613b718682870161380f565b9250506040613b82868287016137fa565b9150509250925092565b60008060008060808587031215613ba657613ba5614e71565b5b600085013567ffffffffffffffff811115613bc457613bc3614e6c565b5b613bd087828801613852565b9450506020613be18782880161380f565b9350506040613bf28782880161380f565b9250506060613c03878288016137fa565b91505092959194509250565b600060208284031215613c2557613c24614e71565b5b6000613c3384828501613880565b91505092915050565b60008060408385031215613c5357613c52614e71565b5b6000613c6185828601613880565b925050602083013567ffffffffffffffff811115613c8257613c81614e6c565b5b613c8e85828601613852565b9150509250929050565b6000613ca48383613fb9565b60208301905092915050565b6000613cbc83836140bc565b905092915050565b6000613cd08383614254565b905092915050565b6000613ce483836142e8565b905092915050565b6000613cf8838361444c565b60608301905092915050565b613d0d81614bac565b82525050565b613d1c81614bac565b82525050565b6000613d2d826149b4565b613d378185614a42565b9350613d428361494f565b8060005b83811015613d73578151613d5a8882613c98565b9750613d6583614a01565b925050600181019050613d46565b5085935050505092915050565b6000613d8b826149b4565b613d958185614a53565b9350613da08361494f565b8060005b83811015613dd1578151613db88882613c98565b9750613dc383614a01565b925050600181019050613da4565b5085935050505092915050565b6000613de9826149bf565b613df38185614a64565b935083602082028501613e058561495f565b8060005b85811015613e415784840389528151613e228582613cb0565b9450613e2d83614a0e565b925060208a01995050600181019050613e09565b50829750879550505050505092915050565b6000613e5e826149ca565b613e688185614a75565b935083602082028501613e7a8561496f565b8060005b85811015613eb65784840389528151613e978582613cc4565b9450613ea283614a1b565b925060208a01995050600181019050613e7e565b50829750879550505050505092915050565b6000613ed3826149d5565b613edd8185614a86565b935083602082028501613eef8561497f565b8060005b85811015613f2b5784840389528151613f0c8582613cd8565b9450613f1783614a28565b925060208a01995050600181019050613ef3565b50829750879550505050505092915050565b6000613f48826149e0565b613f528185614a97565b9350613f5d8361498f565b8060005b83811015613f8e578151613f758882613cec565b9750613f8083614a35565b925050600181019050613f61565b5085935050505092915050565b613fa481614bbe565b82525050565b613fb381614bbe565b82525050565b613fc281614bca565b82525050565b613fd181614bca565b82525050565b6000613fe2826149eb565b613fec8185614aa8565b9350613ffc818560208601614c67565b61400581614e76565b840191505092915050565b6000815461401d81614c9a565b6140278186614ab9565b94506001821660008114614042576001811461405357614086565b60ff19831686528186019350614086565b61405c8561499f565b60005b8381101561407e5781548189015260018201915060208101905061405f565b838801955050505b50505092915050565b61409881614bfe565b82525050565b6140a781614c10565b82525050565b6140b681614c22565b82525050565b60006140c7826149f6565b6140d18185614ac4565b93506140e1818560208601614c67565b6140ea81614e76565b840191505092915050565b6000614100826149f6565b61410a8185614ad5565b935061411a818560208601614c67565b61412381614e76565b840191505092915050565b6000614139826149f6565b6141438185614ae6565b9350614153818560208601614c67565b80840191505092915050565b600061416c600383614ae6565b915061417782614e87565b600382019050919050565b600061418f601383614ad5565b915061419a82614eb0565b602082019050919050565b60006141b2602283614ad5565b91506141bd82614ed9565b604082019050919050565b60006141d5601283614ad5565b91506141e082614f28565b602082019050919050565b60006141f8600c83614ad5565b915061420382614f51565b602082019050919050565b600061421b601483614ad5565b915061422682614f7a565b602082019050919050565b600061423e601683614ad5565b915061424982614fa3565b602082019050919050565b6000604083016000830151848203600086015261427182826140bc565b91505060208301516142866020860182613fb9565b508091505092915050565b600060608301600083015184820360008601526142ae82826140bc565b91505060208301516142c36020860182613fb9565b50604083015184820360408601526142db8282613d22565b9150508091505092915050565b6000604083016000830151848203600086015261430582826140bc565b915050602083015161431a6020860182613fb9565b508091505092915050565b6000608083016000830151848203600086015261434282826140bc565b91505060208301516143576020860182613fb9565b50604083015161436a604086018261448e565b50606083015184820360608601526143828282613dde565b9150508091505092915050565b6080820160008201516143a56000850182613d04565b5060208201516143b86020850182613fb9565b5060408201516143cb6040850182613fb9565b5060608201516143de6060850182613f9b565b50505050565b60a0820160008201516143fa6000850182613d04565b50602082015161440d6020850182613fb9565b5060408201516144206040850182613fb9565b5060608201516144336060850182613fb9565b5060808201516144466080850182613f9b565b50505050565b6060820160008201516144626000850182613d04565b506020820151614475602085018261448e565b5060408201516144886040850182613f9b565b50505050565b61449781614bf4565b82525050565b6144a681614bf4565b82525050565b60006144b88284614010565b915081905092915050565b60006144cf828461412e565b915081905092915050565b60006144e6828561412e565b91506144f2828461412e565b91508190509392505050565b600061450a828461412e565b91506145158261415f565b915081905092915050565b60006020820190506145356000830184613d13565b92915050565b60006080820190506145506000830187613d13565b61455d6020830186613fc8565b61456a6040830185613fc8565b6145776060830184613faa565b95945050505050565b600060a0820190506145956000830188613d13565b6145a26020830187613fc8565b6145af6040830186613fc8565b6145bc6060830185613fc8565b6145c96080830184613faa565b9695505050505050565b60006060820190506145e86000830186613d13565b6145f5602083018561409e565b6146026040830184613faa565b949350505050565b600060608201905061461f6000830186613d13565b61462c60208301856140ad565b6146396040830184613faa565b949350505050565b6000602082019050818103600083015261465b8184613d80565b905092915050565b6000602082019050818103600083015261467d8184613e53565b905092915050565b6000602082019050818103600083015261469f8184613ec8565b905092915050565b600060208201905081810360008301526146c18184613f3d565b905092915050565b60006020820190506146de6000830184613fc8565b92915050565b600060208201905081810360008301526146fe8184613fd7565b905092915050565b600060208201905061471b600083018461408f565b92915050565b6000602082019050818103600083015261473b81846140f5565b905092915050565b6000604082019050818103600083015261475d81856140f5565b905061476c6020830184613fc8565b9392505050565b6000602082019050818103600083015261478c81614182565b9050919050565b600060208201905081810360008301526147ac816141a5565b9050919050565b600060208201905081810360008301526147cc816141c8565b9050919050565b600060208201905081810360008301526147ec816141eb565b9050919050565b6000602082019050818103600083015261480c8161420e565b9050919050565b6000602082019050818103600083015261482c81614231565b9050919050565b6000602082019050818103600083015261484d8184614291565b905092915050565b6000602082019050818103600083015261486f8184614325565b905092915050565b600060808201905061488c600083018461438f565b92915050565b600060a0820190506148a760008301846143e4565b92915050565b60006020820190506148c2600083018461449d565b92915050565b60006148d26148e3565b90506148de8282614ccc565b919050565b6000604051905090565b600067ffffffffffffffff82111561490857614907614e33565b5b61491182614e76565b9050602081019050919050565b600067ffffffffffffffff82111561493957614938614e33565b5b61494282614e76565b9050602081019050919050565b6000819050602082019050919050565b6000819050602082019050919050565b6000819050602082019050919050565b6000819050602082019050919050565b6000819050602082019050919050565b60008190508160005260206000209050919050565b600081519050919050565b600081519050919050565b600081519050919050565b600081519050919050565b600081519050919050565b600081519050919050565b600081519050919050565b6000602082019050919050565b6000602082019050919050565b6000602082019050919050565b6000602082019050919050565b6000602082019050919050565b600082825260208201905092915050565b600082825260208201905092915050565b600082825260208201905092915050565b600082825260208201905092915050565b600082825260208201905092915050565b600082825260208201905092915050565b600082825260208201905092915050565b600081905092915050565b600082825260208201905092915050565b600082825260208201905092915050565b600081905092915050565b6000614afc82614bf4565b9150614b0783614bf4565b9250827fffffffffffffffffffffffffffffffffffffffffffffffffffffffffffffffff03821115614b3c57614b3b614d77565b5b828201905092915050565b6000614b5282614bf4565b9150614b5d83614bf4565b925082614b6d57614b6c614da6565b5b828204905092915050565b6000614b8382614bf4565b9150614b8e83614bf4565b925082821015614ba157614ba0614d77565b5b828203905092915050565b6000614bb782614bd4565b9050919050565b60008115159050919050565b6000819050919050565b600073ffffffffffffffffffffffffffffffffffffffff82169050919050565b6000819050919050565b6000614c0982614c34565b9050919050565b6000614c1b82614bf4565b9050919050565b6000614c2d82614bf4565b9050919050565b6000614c3f82614c46565b9050919050565b6000614c5182614bd4565b9050919050565b82818337600083830152505050565b60005b83811015614c85578082015181840152602081019050614c6a565b83811115614c94576000848401525b50505050565b60006002820490506001821680614cb257607f821691505b60208210811415614cc657614cc5614dd5565b5b50919050565b614cd582614e76565b810181811067ffffffffffffffff82111715614cf457614cf3614e33565b5b80604052505050565b6000614d0882614bf4565b91507fffffffffffffffffffffffffffffffffffffffffffffffffffffffffffffffff821415614d3b57614d3a614d77565b5b600182019050919050565b6000614d5182614bf4565b9150614d5c83614bf4565b925082614d6c57614d6b614da6565b5b828206905092915050565b7f4e487b7100000000000000000000000000000000000000000000000000000000600052601160045260246000fd5b7f4e487b7100000000000000000000000000000000000000000000000000000000600052601260045260246000fd5b7f4e487b7100000000000000000000000000000000000000000000000000000000600052602260045260246000fd5b7f4e487b7100000000000000000000000000000000000000000000000000000000600052603260045260246000fd5b7f4e487b7100000000000000000000000000000000000000000000000000000000600052604160045260246000fd5b600080fd5b600080fd5b600080fd5b600080fd5b6000601f19601f8301169050919050565b7f6465700000000000000000000000000000000000000000000000000000000000600082015250565b7f5573657220616c72656164792065786973747300000000000000000000000000600082015250565b7f4f6e6c792073757065722061646d696e2063616e20617070726f76652075736560008201527f7273000000000000000000000000000000000000000000000000000000000000602082015250565b7f496e76616c6964206465706172746d656e740000000000000000000000000000600082015250565b7f496e76616c696420757365720000000000000000000000000000000000000000600082015250565b7f496e76616c6964206f7267616e69736174696f6e000000000000000000000000600082015250565b7f496e76616c69642075736572206f7065726174696f6e00000000000000000000600082015250565b614fd581614bac565b8114614fe057600080fd5b50565b614fec81614bbe565b8114614ff757600080fd5b50565b61500381614bca565b811461500e57600080fd5b50565b61501a81614bf4565b811461502557600080fd5b5056fea2646970667358221220222e752f74e0aff3a3a8d4e8196fc7ee8771cf6d143ac9401d3e8123f8caae3764736f6c63430008070033",
  "linkReferences": {},
  "deployedLinkReferences": {}
}