{
  "_format": "hh-sol-artifact-1",
  "contractName": "Organisations",
  "sourceName": "contracts/Organisations.sol",
  "abi": [
    {
      "inputs": [
        {
          "internalType": "address",
          "name": "userContractAddress",
          "type": "address"
        }
      ],
      "stateMutability": "nonpayable",
      "type": "constructor"
    },
    {
      "anonymous": false,
      "inputs": [
        {
          "indexed": false,
          "internalType": "address",
          "name": "userAddress",
          "type": "address"
        },
        {
          "indexed": false,
          "internalType": "uint256",
          "name": "userType",
          "type": "uint256"
        },
        {
          "indexed": false,
          "internalType": "bool",
          "name": "approved",
          "type": "bool"
        }
      ],
      "name": "UserUpdated",
      "type": "event"
    },
    {
      "inputs": [
        {
          "internalType": "address",
          "name": "ownerAddress",
          "type": "address"
        },
        {
          "internalType": "bytes32",
          "name": "profession",
          "type": "bytes32"
        },
        {
          "internalType": "bytes32",
          "name": "location",
          "type": "bytes32"
        }
      ],
      "name": "addDataOwner",
      "outputs": [],
      "stateMutability": "nonpayable",
      "type": "function"
    },
    {
      "inputs": [
        {
          "internalType": "address",
          "name": "requesterAddress",
          "type": "address"
        },
        {
          "internalType": "bytes32",
          "name": "organisation",
          "type": "bytes32"
        },
        {
          "internalType": "bytes32",
          "name": "department",
          "type": "bytes32"
        },
        {
          "internalType": "bytes32",
          "name": "designation",
          "type": "bytes32"
        },
        {
          "internalType": "bytes",
          "name": "publicKey",
          "type": "bytes"
        }
      ],
      "name": "addDataRequester",
      "outputs": [],
      "stateMutability": "nonpayable",
      "type": "function"
    },
    {
      "inputs": [
        {
          "internalType": "string",
          "name": "orgid",
          "type": "string"
        },
        {
          "internalType": "bytes32",
          "name": "departmentName",
          "type": "bytes32"
        },
        {
          "internalType": "bytes32",
          "name": "designation",
          "type": "bytes32"
        },
        {
          "internalType": "bool",
          "name": "isAddDesignation",
          "type": "bool"
        }
      ],
      "name": "addDepartmentToOrg",
      "outputs": [],
      "stateMutability": "nonpayable",
      "type": "function"
    },
    {
      "inputs": [
        {
          "internalType": "string",
          "name": "depid",
          "type": "string"
        },
        {
          "internalType": "bytes32",
          "name": "designation",
          "type": "bytes32"
        },
        {
          "internalType": "bool",
          "name": "isAddDesignation",
          "type": "bool"
        }
      ],
      "name": "addDesignationToDepartment",
      "outputs": [],
      "stateMutability": "nonpayable",
      "type": "function"
    },
    {
      "inputs": [
        {
          "internalType": "address",
          "name": "ownerAddress",
          "type": "address"
        }
      ],
      "name": "approveOwner",
      "outputs": [],
      "stateMutability": "nonpayable",
      "type": "function"
    },
    {
      "inputs": [
        {
          "internalType": "address",
          "name": "requesterAddress",
          "type": "address"
        }
      ],
      "name": "approveRequester",
      "outputs": [],
      "stateMutability": "nonpayable",
      "type": "function"
    },
    {
      "inputs": [
        {
          "internalType": "bytes32",
          "name": "name",
          "type": "bytes32"
        },
        {
          "internalType": "bytes32",
          "name": "departmentName",
          "type": "bytes32"
        },
        {
          "internalType": "bytes32",
          "name": "designation",
          "type": "bytes32"
        },
        {
          "internalType": "bool",
          "name": "isAddDesignation",
          "type": "bool"
        }
      ],
      "name": "createOrganisation",
      "outputs": [],
      "stateMutability": "nonpayable",
      "type": "function"
    },
    {
      "inputs": [],
      "name": "getAllDepartments",
      "outputs": [
        {
          "components": [
            {
              "internalType": "string",
              "name": "depid",
              "type": "string"
            },
            {
              "internalType": "bytes32",
              "name": "depname",
              "type": "bytes32"
            }
          ],
          "internalType": "struct Organisations.DepartmentMinimal[]",
          "name": "",
          "type": "tuple[]"
        }
      ],
      "stateMutability": "view",
      "type": "function"
    },
    {
      "inputs": [],
      "name": "getAllDesignations",
      "outputs": [
        {
          "internalType": "bytes32[]",
          "name": "",
          "type": "bytes32[]"
        }
      ],
      "stateMutability": "view",
      "type": "function"
    },
    {
      "inputs": [],
      "name": "getAllOrganisations",
      "outputs": [
        {
          "components": [
            {
              "internalType": "string",
              "name": "orgid",
              "type": "string"
            },
            {
              "internalType": "bytes32",
              "name": "orgname",
              "type": "bytes32"
            }
          ],
          "internalType": "struct Organisations.OrganisationMinimal[]",
          "name": "",
          "type": "tuple[]"
        }
      ],
      "stateMutability": "view",
      "type": "function"
    },
    {
      "inputs": [],
      "name": "getAllUsers",
      "outputs": [
        {
          "components": [
            {
              "internalType": "address",
              "name": "userAddress",
              "type": "address"
            },
            {
              "internalType": "uint256",
              "name": "userType",
              "type": "uint256"
            },
            {
              "internalType": "bool",
              "name": "approved",
              "type": "bool"
            }
          ],
          "internalType": "struct Users.UsersMinimal[]",
          "name": "",
          "type": "tuple[]"
        }
      ],
      "stateMutability": "view",
      "type": "function"
    },
    {
      "inputs": [
        {
          "internalType": "address",
          "name": "ownerAddress",
          "type": "address"
        }
      ],
      "name": "getDataOwner",
      "outputs": [
        {
          "components": [
            {
              "internalType": "address",
              "name": "ownerAddress",
              "type": "address"
            },
            {
              "internalType": "bytes32",
              "name": "profession",
              "type": "bytes32"
            },
            {
              "internalType": "bytes32",
              "name": "location",
              "type": "bytes32"
            },
            {
              "internalType": "bool",
              "name": "approved",
              "type": "bool"
            }
          ],
          "internalType": "struct Users.Owner",
          "name": "",
          "type": "tuple"
        }
      ],
      "stateMutability": "view",
      "type": "function"
    },
    {
      "inputs": [
        {
          "internalType": "address",
          "name": "requesterAddress",
          "type": "address"
        }
      ],
      "name": "getDataRequester",
      "outputs": [
        {
          "components": [
            {
              "internalType": "address",
              "name": "requesterAddress",
              "type": "address"
            },
            {
              "internalType": "bytes32",
              "name": "organisation",
              "type": "bytes32"
            },
            {
              "internalType": "bytes32",
              "name": "department",
              "type": "bytes32"
            },
            {
              "internalType": "bytes32",
              "name": "designation",
              "type": "bytes32"
            },
            {
              "internalType": "bool",
              "name": "approved",
              "type": "bool"
            }
          ],
          "internalType": "struct Users.Requester",
          "name": "",
          "type": "tuple"
        }
      ],
      "stateMutability": "view",
      "type": "function"
    },
    {
      "inputs": [
        {
          "internalType": "string",
          "name": "depid",
          "type": "string"
        }
      ],
      "name": "getDepartment",
      "outputs": [
        {
          "components": [
            {
              "internalType": "string",
              "name": "depid",
              "type": "string"
            },
            {
              "internalType": "bytes32",
              "name": "depname",
              "type": "bytes32"
            },
            {
              "internalType": "bytes32[]",
              "name": "designations",
              "type": "bytes32[]"
            }
          ],
          "internalType": "struct Organisations.Department",
          "name": "",
          "type": "tuple"
        }
      ],
      "stateMutability": "view",
      "type": "function"
    },
    {
      "inputs": [
        {
          "internalType": "string",
          "name": "orgid",
          "type": "string"
        }
      ],
      "name": "getOrganisation",
      "outputs": [
        {
          "components": [
            {
              "internalType": "string",
              "name": "orgid",
              "type": "string"
            },
            {
              "internalType": "bytes32",
              "name": "orgname",
              "type": "bytes32"
            },
            {
              "internalType": "uint256",
              "name": "totalDepartments",
              "type": "uint256"
            },
            {
              "internalType": "string[]",
              "name": "departmentids",
              "type": "string[]"
            }
          ],
          "internalType": "struct Organisations.Organisation",
          "name": "",
          "type": "tuple"
        }
      ],
      "stateMutability": "view",
      "type": "function"
    },
    {
      "inputs": [],
      "name": "getSuperAdmin",
      "outputs": [
        {
          "internalType": "address",
          "name": "",
          "type": "address"
        }
      ],
      "stateMutability": "view",
      "type": "function"
    },
    {
      "inputs": [
        {
          "internalType": "address",
          "name": "userAddress",
          "type": "address"
        }
      ],
      "name": "getUserRole",
      "outputs": [
        {
          "internalType": "uint256",
          "name": "",
          "type": "uint256"
        }
      ],
      "stateMutability": "view",
      "type": "function"
    },
    {
      "inputs": [
        {
          "internalType": "uint256",
          "name": "id",
          "type": "uint256"
        },
        {
          "internalType": "string",
          "name": "val",
          "type": "string"
        }
      ],
      "name": "makeId",
      "outputs": [
        {
          "internalType": "string",
          "name": "",
          "type": "string"
        }
      ],
      "stateMutability": "pure",
      "type": "function"
    },
    {
      "inputs": [],
      "name": "superadmin",
      "outputs": [
        {
          "internalType": "address",
          "name": "",
          "type": "address"
        }
      ],
      "stateMutability": "view",
      "type": "function"
    },
    {
      "inputs": [
        {
          "internalType": "address",
          "name": "ownerAddress",
          "type": "address"
        },
        {
          "internalType": "bytes32",
          "name": "profession",
          "type": "bytes32"
        },
        {
          "internalType": "bytes32",
          "name": "location",
          "type": "bytes32"
        }
      ],
      "name": "updateDataOwner",
      "outputs": [],
      "stateMutability": "nonpayable",
      "type": "function"
    },
    {
      "inputs": [
        {
          "internalType": "address",
          "name": "requesterAddress",
          "type": "address"
        },
        {
          "internalType": "bytes32",
          "name": "organisation",
          "type": "bytes32"
        },
        {
          "internalType": "bytes32",
          "name": "department",
          "type": "bytes32"
        },
        {
          "internalType": "bytes32",
          "name": "designation",
          "type": "bytes32"
        }
      ],
      "name": "updateDataRequester",
      "outputs": [],
      "stateMutability": "nonpayable",
      "type": "function"
    }
  ],
  "bytecode": "0x60806040526000600d553480156200001657600080fd5b50604051620044463803806200444683398181016040528101906200003c919062000120565b336000806101000a81548173ffffffffffffffffffffffffffffffffffffffff021916908373ffffffffffffffffffffffffffffffffffffffff1602179055506003600460003373ffffffffffffffffffffffffffffffffffffffff1673ffffffffffffffffffffffffffffffffffffffff1681526020019081526020016000208190555080600760006101000a81548173ffffffffffffffffffffffffffffffffffffffff021916908373ffffffffffffffffffffffffffffffffffffffff16021790555050620001a5565b6000815190506200011a816200018b565b92915050565b60006020828403121562000139576200013862000186565b5b6000620001498482850162000109565b91505092915050565b60006200015f8262000166565b9050919050565b600073ffffffffffffffffffffffffffffffffffffffff82169050919050565b600080fd5b620001968162000152565b8114620001a257600080fd5b50565b61429180620001b56000396000f3fe608060405234801561001057600080fd5b50600436106101375760003560e01c80638204c326116100b8578063b163e03d1161007c578063b163e03d1461034c578063b4d5b1ff1461036a578063b648ee2d14610386578063e2842d79146103a2578063f565d7b0146103c0578063fce59441146103f057610137565b80638204c326146102bc57806385099f6e146102da57806386c3a49c146102f65780639420d0201461031457806394231a011461033057610137565b806344713f79116100ff57806344713f79146101de57806350a387441461020e5780635669c0581461023e57806360d8c5ec1461026e57806363d48aba1461029e57610137565b80631113d5711461013c578063278208511461015a5780633185d5af1461018a5780633cabc73e146101a65780633cbca9d4146101c2575b600080fd5b61014461040c565b604051610151919061394e565b60405180910390f35b610174600480360381019061016f9190612d18565b610464565b6040516101819190613b32565b60405180910390f35b6101a4600480360381019061019f9190612d45565b6104ad565b005b6101c060048036038101906101bb9190612dff565b610985565b005b6101dc60048036038101906101d79190612d98565b610ec3565b005b6101f860048036038101906101f39190613038565b6111ed565b60405161020591906139d6565b60405180910390f35b61022860048036038101906102239190612efd565b611227565b6040516102359190613ada565b60405180910390f35b61025860048036038101906102539190612d18565b6113de565b6040516102659190613b17565b60405180910390f35b61028860048036038101906102839190612efd565b6114c6565b6040516102959190613ab8565b60405180910390f35b6102a66115f2565b6040516102b391906138c5565b60405180910390f35b6102c4611616565b6040516102d191906138c5565b60405180910390f35b6102f460048036038101906102ef9190612d18565b61163f565b005b6102fe61187a565b60405161030b9190613970565b60405180910390f35b61032e60048036038101906103299190612e96565b611975565b005b61034a60048036038101906103459190612d45565b611cd1565b005b610354611fea565b6040516103619190613992565b60405180910390f35b610384600480360381019061037f9190612f46565b6120e5565b005b6103a0600480360381019061039b9190612d18565b6121c9565b005b6103aa612403565b6040516103b791906139b4565b60405180910390f35b6103da60048036038101906103d59190612d18565b6124dd565b6040516103e79190613afc565b60405180910390f35b61040a60048036038101906104059190612fb5565b6125bb565b005b6060600a80548060200260200160405190810160405280929190818152602001828054801561045a57602002820191906000526020600020905b815481526020019060010190808311610446575b5050505050905090565b6000600460008373ffffffffffffffffffffffffffffffffffffffff1673ffffffffffffffffffffffffffffffffffffffff168152602001908152602001600020549050919050565b82600073ffffffffffffffffffffffffffffffffffffffff16600260008373ffffffffffffffffffffffffffffffffffffffff1673ffffffffffffffffffffffffffffffffffffffff16815260200190815260200160002060000160009054906101000a900473ffffffffffffffffffffffffffffffffffffffff1673ffffffffffffffffffffffffffffffffffffffff161461057f576040517f08c379a0000000000000000000000000000000000000000000000000000000008152600401610576906139f8565b60405180910390fd5b600073ffffffffffffffffffffffffffffffffffffffff16600360008373ffffffffffffffffffffffffffffffffffffffff1673ffffffffffffffffffffffffffffffffffffffff16815260200190815260200160002060000160009054906101000a900473ffffffffffffffffffffffffffffffffffffffff1673ffffffffffffffffffffffffffffffffffffffff1614610650576040517f08c379a0000000000000000000000000000000000000000000000000000000008152600401610647906139f8565b60405180910390fd5b60008054906101000a900473ffffffffffffffffffffffffffffffffffffffff1673ffffffffffffffffffffffffffffffffffffffff168173ffffffffffffffffffffffffffffffffffffffff1614156106df576040517f08c379a00000000000000000000000000000000000000000000000000000000081526004016106d690613a58565b60405180910390fd5b60405180608001604052808573ffffffffffffffffffffffffffffffffffffffff16815260200184815260200183815260200160001515815250600260008673ffffffffffffffffffffffffffffffffffffffff1673ffffffffffffffffffffffffffffffffffffffff16815260200190815260200160002060008201518160000160006101000a81548173ffffffffffffffffffffffffffffffffffffffff021916908373ffffffffffffffffffffffffffffffffffffffff160217905550602082015181600101556040820151816002015560608201518160030160006101000a81548160ff0219169083151502179055509050506001600460008673ffffffffffffffffffffffffffffffffffffffff1673ffffffffffffffffffffffffffffffffffffffff16815260200190815260200160002081905550600160405180606001604052808673ffffffffffffffffffffffffffffffffffffffff1681526020016001815260200160001515815250908060018154018082558091505060019003906000526020600020906003020160009091909190915060008201518160000160006101000a81548173ffffffffffffffffffffffffffffffffffffffff021916908373ffffffffffffffffffffffffffffffffffffffff1602179055506020820151816001015560408201518160020160006101000a81548160ff0219169083151502179055505050600180805490506108ff9190613de1565b600660008673ffffffffffffffffffffffffffffffffffffffff1673ffffffffffffffffffffffffffffffffffffffff168152602001908152602001600020819055507fe1391f1b21fd22d5c006ee81fe95aa900304333bd7a829642d9042a2395c27f88460016000604051610977939291906138e0565b60405180910390a150505050565b84600073ffffffffffffffffffffffffffffffffffffffff16600260008373ffffffffffffffffffffffffffffffffffffffff1673ffffffffffffffffffffffffffffffffffffffff16815260200190815260200160002060000160009054906101000a900473ffffffffffffffffffffffffffffffffffffffff1673ffffffffffffffffffffffffffffffffffffffff1614610a57576040517f08c379a0000000000000000000000000000000000000000000000000000000008152600401610a4e906139f8565b60405180910390fd5b600073ffffffffffffffffffffffffffffffffffffffff16600360008373ffffffffffffffffffffffffffffffffffffffff1673ffffffffffffffffffffffffffffffffffffffff16815260200190815260200160002060000160009054906101000a900473ffffffffffffffffffffffffffffffffffffffff1673ffffffffffffffffffffffffffffffffffffffff1614610b28576040517f08c379a0000000000000000000000000000000000000000000000000000000008152600401610b1f906139f8565b60405180910390fd5b60008054906101000a900473ffffffffffffffffffffffffffffffffffffffff1673ffffffffffffffffffffffffffffffffffffffff168173ffffffffffffffffffffffffffffffffffffffff161415610bb7576040517f08c379a0000000000000000000000000000000000000000000000000000000008152600401610bae90613a58565b60405180910390fd5b6040518060a001604052808773ffffffffffffffffffffffffffffffffffffffff16815260200186815260200185815260200184815260200160001515815250600360008873ffffffffffffffffffffffffffffffffffffffff1673ffffffffffffffffffffffffffffffffffffffff16815260200190815260200160002060008201518160000160006101000a81548173ffffffffffffffffffffffffffffffffffffffff021916908373ffffffffffffffffffffffffffffffffffffffff16021790555060208201518160010155604082015181600201556060820151816003015560808201518160040160006101000a81548160ff0219169083151502179055509050506002600460008873ffffffffffffffffffffffffffffffffffffffff1673ffffffffffffffffffffffffffffffffffffffff1681526020019081526020016000208190555081600560008873ffffffffffffffffffffffffffffffffffffffff1673ffffffffffffffffffffffffffffffffffffffff1681526020019081526020016000209080519060200190610d569291906129d6565b50600160405180606001604052808873ffffffffffffffffffffffffffffffffffffffff1681526020016002815260200160001515815250908060018154018082558091505060019003906000526020600020906003020160009091909190915060008201518160000160006101000a81548173ffffffffffffffffffffffffffffffffffffffff021916908373ffffffffffffffffffffffffffffffffffffffff1602179055506020820151816001015560408201518160020160006101000a81548160ff021916908315150217905550505060018080549050610e3b9190613de1565b600660008873ffffffffffffffffffffffffffffffffffffffff1673ffffffffffffffffffffffffffffffffffffffff168152602001908152602001600020819055507fe1391f1b21fd22d5c006ee81fe95aa900304333bd7a829642d9042a2395c27f88660026000604051610eb393929190613917565b60405180910390a1505050505050565b3373ffffffffffffffffffffffffffffffffffffffff16600360008673ffffffffffffffffffffffffffffffffffffffff1673ffffffffffffffffffffffffffffffffffffffff16815260200190815260200160002060000160009054906101000a900473ffffffffffffffffffffffffffffffffffffffff1673ffffffffffffffffffffffffffffffffffffffff1614610f93576040517f08c379a0000000000000000000000000000000000000000000000000000000008152600401610f8a90613a98565b60405180910390fd5b6040518060a001604052808573ffffffffffffffffffffffffffffffffffffffff16815260200184815260200183815260200182815260200160001515815250600360008673ffffffffffffffffffffffffffffffffffffffff1673ffffffffffffffffffffffffffffffffffffffff16815260200190815260200160002060008201518160000160006101000a81548173ffffffffffffffffffffffffffffffffffffffff021916908373ffffffffffffffffffffffffffffffffffffffff16021790555060208201518160010155604082015181600201556060820151816003015560808201518160040160006101000a81548160ff0219169083151502179055509050506000600660008673ffffffffffffffffffffffffffffffffffffffff1673ffffffffffffffffffffffffffffffffffffffff16815260200190815260200160002054905060405180606001604052808673ffffffffffffffffffffffffffffffffffffffff16815260200160028152602001600015158152506001828154811061112757611126614037565b5b906000526020600020906003020160008201518160000160006101000a81548173ffffffffffffffffffffffffffffffffffffffff021916908373ffffffffffffffffffffffffffffffffffffffff1602179055506020820151816001015560408201518160020160006101000a81548160ff0219169083151502179055509050507fe1391f1b21fd22d5c006ee81fe95aa900304333bd7a829642d9042a2395c27f885600260006040516111de93929190613917565b60405180910390a15050505050565b606060006111fa84612875565b9050828160405160200161120f92919061387f565b60405160208183030381529060405291505092915050565b61122f612a5c565b60088260405161123f9190613868565b908152602001604051809103902060405180608001604052908160008201805461126890613ecd565b80601f016020809104026020016040519081016040528092919081815260200182805461129490613ecd565b80156112e15780601f106112b6576101008083540402835291602001916112e1565b820191906000526020600020905b8154815290600101906020018083116112c457829003601f168201915b50505050508152602001600182015481526020016002820154815260200160038201805480602002602001604051908101604052809291908181526020016000905b828210156113cf57838290600052602060002001805461134290613ecd565b80601f016020809104026020016040519081016040528092919081815260200182805461136e90613ecd565b80156113bb5780601f10611390576101008083540402835291602001916113bb565b820191906000526020600020905b81548152906001019060200180831161139e57829003601f168201915b505050505081526020019060010190611323565b50505050815250509050919050565b6113e6612a87565b600360008373ffffffffffffffffffffffffffffffffffffffff1673ffffffffffffffffffffffffffffffffffffffff1681526020019081526020016000206040518060a00160405290816000820160009054906101000a900473ffffffffffffffffffffffffffffffffffffffff1673ffffffffffffffffffffffffffffffffffffffff1673ffffffffffffffffffffffffffffffffffffffff1681526020016001820154815260200160028201548152602001600382015481526020016004820160009054906101000a900460ff1615151515815250509050919050565b6114ce612ad7565b6009826040516114de9190613868565b908152602001604051809103902060405180606001604052908160008201805461150790613ecd565b80601f016020809104026020016040519081016040528092919081815260200182805461153390613ecd565b80156115805780601f1061155557610100808354040283529160200191611580565b820191906000526020600020905b81548152906001019060200180831161156357829003601f168201915b5050505050815260200160018201548152602001600282018054806020026020016040519081016040528092919081815260200182805480156115e257602002820191906000526020600020905b8154815260200190600101908083116115ce575b5050505050815250509050919050565b60008054906101000a900473ffffffffffffffffffffffffffffffffffffffff1681565b60008060009054906101000a900473ffffffffffffffffffffffffffffffffffffffff16905090565b3360008054906101000a900473ffffffffffffffffffffffffffffffffffffffff1673ffffffffffffffffffffffffffffffffffffffff168173ffffffffffffffffffffffffffffffffffffffff16146116ce576040517f08c379a00000000000000000000000000000000000000000000000000000000081526004016116c590613a18565b60405180910390fd5b6001600360008473ffffffffffffffffffffffffffffffffffffffff1673ffffffffffffffffffffffffffffffffffffffff16815260200190815260200160002060040160006101000a81548160ff0219169083151502179055506000600660008473ffffffffffffffffffffffffffffffffffffffff1673ffffffffffffffffffffffffffffffffffffffff16815260200190815260200160002054905060405180606001604052808473ffffffffffffffffffffffffffffffffffffffff1681526020016002815260200160011515815250600182815481106117b6576117b5614037565b5b906000526020600020906003020160008201518160000160006101000a81548173ffffffffffffffffffffffffffffffffffffffff021916908373ffffffffffffffffffffffffffffffffffffffff1602179055506020820151816001015560408201518160020160006101000a81548160ff0219169083151502179055509050507fe1391f1b21fd22d5c006ee81fe95aa900304333bd7a829642d9042a2395c27f8836002600160405161186d93929190613917565b60405180910390a1505050565b6060600c805480602002602001604051908101604052809291908181526020016000905b8282101561196c57838290600052602060002090600202016040518060400160405290816000820180546118d190613ecd565b80601f01602080910402602001604051908101604052809291908181526020018280546118fd90613ecd565b801561194a5780601f1061191f5761010080835404028352916020019161194a565b820191906000526020600020905b81548152906001019060200180831161192d57829003601f168201915b505050505081526020016001820154815250508152602001906001019061189e565b50505050905090565b6001600d546119849190613d5a565b600d8190555060006119cd600d546040518060400160405280600381526020017f6f726700000000000000000000000000000000000000000000000000000000008152506111ed565b9050806008826040516119e09190613868565b90815260200160405180910390206000019080519060200190611a04929190612afb565b5084600882604051611a169190613868565b90815260200160405180910390206001018190555060006001600883604051611a3f9190613868565b908152602001604051809103902060020154611a5b9190613d5a565b9050600082604051602001611a7091906138a3565b60405160208183030381529060405290506000611a8d83836111ed565b9050600884604051611a9f9190613868565b90815260200160405180910390206002016000815480929190611ac190613f30565b9190505550600884604051611ad69190613868565b908152602001604051809103902060030181908060018154018082558091505060019003906000526020600020016000909190919091509080519060200190611b20929190612afb565b5080600982604051611b329190613868565b90815260200160405180910390206000019080519060200190611b56929190612afb565b5086600982604051611b689190613868565b908152602001604051809103902060010181905550600981604051611b8d9190613868565b90815260200160405180910390206002018690806001815401808255809150506001900390600052602060002001600090919091909150558415611bf557600a8690806001815401808255809150506001900390600052602060002001600090919091909150555b600b60405180604001604052808681526020018a81525090806001815401808255809150506001900390600052602060002090600202016000909190919091506000820151816000019080519060200190611c51929190612afb565b50602082015181600101555050600c60405180604001604052808381526020018981525090806001815401808255809150506001900390600052602060002090600202016000909190919091506000820151816000019080519060200190611cba929190612afb565b506020820151816001015550505050505050505050565b3373ffffffffffffffffffffffffffffffffffffffff16600260008573ffffffffffffffffffffffffffffffffffffffff1673ffffffffffffffffffffffffffffffffffffffff16815260200190815260200160002060000160009054906101000a900473ffffffffffffffffffffffffffffffffffffffff1673ffffffffffffffffffffffffffffffffffffffff1614611da1576040517f08c379a0000000000000000000000000000000000000000000000000000000008152600401611d9890613a98565b60405180910390fd5b60405180608001604052808473ffffffffffffffffffffffffffffffffffffffff16815260200183815260200182815260200160001515815250600260008573ffffffffffffffffffffffffffffffffffffffff1673ffffffffffffffffffffffffffffffffffffffff16815260200190815260200160002060008201518160000160006101000a81548173ffffffffffffffffffffffffffffffffffffffff021916908373ffffffffffffffffffffffffffffffffffffffff160217905550602082015181600101556040820151816002015560608201518160030160006101000a81548160ff0219169083151502179055509050506000600660008573ffffffffffffffffffffffffffffffffffffffff1673ffffffffffffffffffffffffffffffffffffffff16815260200190815260200160002054905060405180606001604052808573ffffffffffffffffffffffffffffffffffffffff168152602001600181526020016000151581525060018281548110611f2557611f24614037565b5b906000526020600020906003020160008201518160000160006101000a81548173ffffffffffffffffffffffffffffffffffffffff021916908373ffffffffffffffffffffffffffffffffffffffff1602179055506020820151816001015560408201518160020160006101000a81548160ff0219169083151502179055509050507fe1391f1b21fd22d5c006ee81fe95aa900304333bd7a829642d9042a2395c27f88460016000604051611fdc939291906138e0565b60405180910390a150505050565b6060600b805480602002602001604051908101604052809291908181526020016000905b828210156120dc578382906000526020600020906002020160405180604001604052908160008201805461204190613ecd565b80601f016020809104026020016040519081016040528092919081815260200182805461206d90613ecd565b80156120ba5780601f1061208f576101008083540402835291602001916120ba565b820191906000526020600020905b81548152906001019060200180831161209d57829003601f168201915b505050505081526020016001820154815250508152602001906001019061200e565b50505050905090565b60006009846040516120f79190613868565b9081526020016040518091039020600201805490501161214c576040517f08c379a000000000000000000000000000000000000000000000000000000000815260040161214390613a38565b60405180910390fd5b801561217c57600a8290806001815401808255809150506001900390600052602060002001600090919091909150555b60098360405161218c9190613868565b9081526020016040518091039020600201829080600181540180825580915050600190039060005260206000200160009091909190915055505050565b3360008054906101000a900473ffffffffffffffffffffffffffffffffffffffff1673ffffffffffffffffffffffffffffffffffffffff168173ffffffffffffffffffffffffffffffffffffffff1614612258576040517f08c379a000000000000000000000000000000000000000000000000000000000815260040161224f90613a18565b60405180910390fd5b6001600260008473ffffffffffffffffffffffffffffffffffffffff1673ffffffffffffffffffffffffffffffffffffffff16815260200190815260200160002060030160006101000a81548160ff0219169083151502179055506000600660008473ffffffffffffffffffffffffffffffffffffffff1673ffffffffffffffffffffffffffffffffffffffff16815260200190815260200160002054905060405180606001604052808473ffffffffffffffffffffffffffffffffffffffff1681526020016001815260200160011515815250600182815481106123405761233f614037565b5b906000526020600020906003020160008201518160000160006101000a81548173ffffffffffffffffffffffffffffffffffffffff021916908373ffffffffffffffffffffffffffffffffffffffff1602179055506020820151816001015560408201518160020160006101000a81548160ff0219169083151502179055509050507fe1391f1b21fd22d5c006ee81fe95aa900304333bd7a829642d9042a2395c27f8836001806040516123f6939291906138e0565b60405180910390a1505050565b60606001805480602002602001604051908101604052809291908181526020016000905b828210156124d457838290600052602060002090600302016040518060600160405290816000820160009054906101000a900473ffffffffffffffffffffffffffffffffffffffff1673ffffffffffffffffffffffffffffffffffffffff1673ffffffffffffffffffffffffffffffffffffffff168152602001600182015481526020016002820160009054906101000a900460ff16151515158152505081526020019060010190612427565b50505050905090565b6124e5612b81565b600260008373ffffffffffffffffffffffffffffffffffffffff1673ffffffffffffffffffffffffffffffffffffffff1681526020019081526020016000206040518060800160405290816000820160009054906101000a900473ffffffffffffffffffffffffffffffffffffffff1673ffffffffffffffffffffffffffffffffffffffff1673ffffffffffffffffffffffffffffffffffffffff16815260200160018201548152602001600282015481526020016003820160009054906101000a900460ff1615151515815250509050919050565b83805190602001206008856040516125d39190613868565b90815260200160405180910390206000016040516125f19190613851565b604051809103902014612639576040517f08c379a000000000000000000000000000000000000000000000000000000000815260040161263090613a78565b60405180910390fd5b6000600160088660405161264d9190613868565b9081526020016040518091039020600201546126699190613d5a565b905060008560405160200161267e91906138a3565b6040516020818303038152906040529050600061269b83836111ed565b90506008876040516126ad9190613868565b908152602001604051809103902060020160008154809291906126cf90613f30565b91905055506008876040516126e49190613868565b90815260200160405180910390206003018190806001815401808255809150506001900390600052602060002001600090919091909150908051906020019061272e929190612afb565b50806009826040516127409190613868565b90815260200160405180910390206000019080519060200190612764929190612afb565b50856009826040516127769190613868565b90815260200160405180910390206001018190555060098160405161279b9190613868565b9081526020016040518091039020600201859080600181540180825580915050600190039060005260206000200160009091909190915055831561280357600a8590806001815401808255809150506001900390600052602060002001600090919091909150555b600c6040518060400160405280838152602001888152509080600181540180825580915050600190039060005260206000209060020201600090919091909150600082015181600001908051906020019061285f929190612afb565b5060208201518160010155505050505050505050565b606060008214156128bd576040518060400160405280600181526020017f300000000000000000000000000000000000000000000000000000000000000081525090506129d1565b600082905060005b600082146128ef5780806128d890613f30565b915050600a826128e89190613db0565b91506128c5565b60008167ffffffffffffffff81111561290b5761290a614066565b5b6040519080825280601f01601f19166020018201604052801561293d5781602001600182028036833780820191505090505b5090505b600085146129ca576001826129569190613de1565b9150600a856129659190613f79565b60306129719190613d5a565b60f81b81838151811061298757612986614037565b5b60200101907effffffffffffffffffffffffffffffffffffffffffffffffffffffffffffff1916908160001a905350600a856129c39190613db0565b9450612941565b8093505050505b919050565b8280546129e290613ecd565b90600052602060002090601f016020900481019282612a045760008555612a4b565b82601f10612a1d57805160ff1916838001178555612a4b565b82800160010185558215612a4b579182015b82811115612a4a578251825591602001919060010190612a2f565b5b509050612a589190612bc7565b5090565b6040518060800160405280606081526020016000801916815260200160008152602001606081525090565b6040518060a00160405280600073ffffffffffffffffffffffffffffffffffffffff1681526020016000801916815260200160008019168152602001600080191681526020016000151581525090565b60405180606001604052806060815260200160008019168152602001606081525090565b828054612b0790613ecd565b90600052602060002090601f016020900481019282612b295760008555612b70565b82601f10612b4257805160ff1916838001178555612b70565b82800160010185558215612b70579182015b82811115612b6f578251825591602001919060010190612b54565b5b509050612b7d9190612bc7565b5090565b6040518060800160405280600073ffffffffffffffffffffffffffffffffffffffff16815260200160008019168152602001600080191681526020016000151581525090565b5b80821115612be0576000816000905550600101612bc8565b5090565b6000612bf7612bf284613b72565b613b4d565b905082815260208101848484011115612c1357612c1261409a565b5b612c1e848285613e8b565b509392505050565b6000612c39612c3484613ba3565b613b4d565b905082815260208101848484011115612c5557612c5461409a565b5b612c60848285613e8b565b509392505050565b600081359050612c77816141ff565b92915050565b600081359050612c8c81614216565b92915050565b600081359050612ca18161422d565b92915050565b600082601f830112612cbc57612cbb614095565b5b8135612ccc848260208601612be4565b91505092915050565b600082601f830112612cea57612ce9614095565b5b8135612cfa848260208601612c26565b91505092915050565b600081359050612d1281614244565b92915050565b600060208284031215612d2e57612d2d6140a4565b5b6000612d3c84828501612c68565b91505092915050565b600080600060608486031215612d5e57612d5d6140a4565b5b6000612d6c86828701612c68565b9350506020612d7d86828701612c92565b9250506040612d8e86828701612c92565b9150509250925092565b60008060008060808587031215612db257612db16140a4565b5b6000612dc087828801612c68565b9450506020612dd187828801612c92565b9350506040612de287828801612c92565b9250506060612df387828801612c92565b91505092959194509250565b600080600080600060a08688031215612e1b57612e1a6140a4565b5b6000612e2988828901612c68565b9550506020612e3a88828901612c92565b9450506040612e4b88828901612c92565b9350506060612e5c88828901612c92565b925050608086013567ffffffffffffffff811115612e7d57612e7c61409f565b5b612e8988828901612ca7565b9150509295509295909350565b60008060008060808587031215612eb057612eaf6140a4565b5b6000612ebe87828801612c92565b9450506020612ecf87828801612c92565b9350506040612ee087828801612c92565b9250506060612ef187828801612c7d565b91505092959194509250565b600060208284031215612f1357612f126140a4565b5b600082013567ffffffffffffffff811115612f3157612f3061409f565b5b612f3d84828501612cd5565b91505092915050565b600080600060608486031215612f5f57612f5e6140a4565b5b600084013567ffffffffffffffff811115612f7d57612f7c61409f565b5b612f8986828701612cd5565b9350506020612f9a86828701612c92565b9250506040612fab86828701612c7d565b9150509250925092565b60008060008060808587031215612fcf57612fce6140a4565b5b600085013567ffffffffffffffff811115612fed57612fec61409f565b5b612ff987828801612cd5565b945050602061300a87828801612c92565b935050604061301b87828801612c92565b925050606061302c87828801612c7d565b91505092959194509250565b6000806040838503121561304f5761304e6140a4565b5b600061305d85828601612d03565b925050602083013567ffffffffffffffff81111561307e5761307d61409f565b5b61308a85828601612cd5565b9150509250929050565b60006130a083836133b5565b60208301905092915050565b60006130b88383613461565b905092915050565b60006130cc83836135f9565b905092915050565b60006130e0838361368d565b905092915050565b60006130f483836137f1565b60608301905092915050565b61310981613e15565b82525050565b61311881613e15565b82525050565b600061312982613c39565b6131338185613cbc565b935061313e83613bd4565b8060005b8381101561316f5781516131568882613094565b975061316183613c7b565b925050600181019050613142565b5085935050505092915050565b600061318782613c39565b6131918185613ccd565b935061319c83613bd4565b8060005b838110156131cd5781516131b48882613094565b97506131bf83613c7b565b9250506001810190506131a0565b5085935050505092915050565b60006131e582613c44565b6131ef8185613cde565b93508360208202850161320185613be4565b8060005b8581101561323d578484038952815161321e85826130ac565b945061322983613c88565b925060208a01995050600181019050613205565b50829750879550505050505092915050565b600061325a82613c4f565b6132648185613cef565b93508360208202850161327685613bf4565b8060005b858110156132b2578484038952815161329385826130c0565b945061329e83613c95565b925060208a0199505060018101905061327a565b50829750879550505050505092915050565b60006132cf82613c5a565b6132d98185613d00565b9350836020820285016132eb85613c04565b8060005b85811015613327578484038952815161330885826130d4565b945061331383613ca2565b925060208a019950506001810190506132ef565b50829750879550505050505092915050565b600061334482613c65565b61334e8185613d11565b935061335983613c14565b8060005b8381101561338a57815161337188826130e8565b975061337c83613caf565b92505060018101905061335d565b5085935050505092915050565b6133a081613e27565b82525050565b6133af81613e27565b82525050565b6133be81613e33565b82525050565b600081546133d181613ecd565b6133db8186613d22565b945060018216600081146133f657600181146134075761343a565b60ff1983168652818601935061343a565b61341085613c24565b60005b8381101561343257815481890152600182019150602081019050613413565b838801955050505b50505092915050565b61344c81613e67565b82525050565b61345b81613e79565b82525050565b600061346c82613c70565b6134768185613d2d565b9350613486818560208601613e9a565b61348f816140a9565b840191505092915050565b60006134a582613c70565b6134af8185613d3e565b93506134bf818560208601613e9a565b6134c8816140a9565b840191505092915050565b60006134de82613c70565b6134e88185613d4f565b93506134f8818560208601613e9a565b80840191505092915050565b6000613511600383613d4f565b915061351c826140ba565b600382019050919050565b6000613534601383613d3e565b915061353f826140e3565b602082019050919050565b6000613557602283613d3e565b91506135628261410c565b604082019050919050565b600061357a601283613d3e565b91506135858261415b565b602082019050919050565b600061359d600c83613d3e565b91506135a882614184565b602082019050919050565b60006135c0601483613d3e565b91506135cb826141ad565b602082019050919050565b60006135e3601683613d3e565b91506135ee826141d6565b602082019050919050565b600060408301600083015184820360008601526136168282613461565b915050602083015161362b60208601826133b5565b508091505092915050565b600060608301600083015184820360008601526136538282613461565b915050602083015161366860208601826133b5565b5060408301518482036040860152613680828261311e565b9150508091505092915050565b600060408301600083015184820360008601526136aa8282613461565b91505060208301516136bf60208601826133b5565b508091505092915050565b600060808301600083015184820360008601526136e78282613461565b91505060208301516136fc60208601826133b5565b50604083015161370f6040860182613833565b506060830151848203606086015261372782826131da565b9150508091505092915050565b60808201600082015161374a6000850182613100565b50602082015161375d60208501826133b5565b50604082015161377060408501826133b5565b5060608201516137836060850182613397565b50505050565b60a08201600082015161379f6000850182613100565b5060208201516137b260208501826133b5565b5060408201516137c560408501826133b5565b5060608201516137d860608501826133b5565b5060808201516137eb6080850182613397565b50505050565b6060820160008201516138076000850182613100565b50602082015161381a6020850182613833565b50604082015161382d6040850182613397565b50505050565b61383c81613e5d565b82525050565b61384b81613e5d565b82525050565b600061385d82846133c4565b915081905092915050565b600061387482846134d3565b915081905092915050565b600061388b82856134d3565b915061389782846134d3565b91508190509392505050565b60006138af82846134d3565b91506138ba82613504565b915081905092915050565b60006020820190506138da600083018461310f565b92915050565b60006060820190506138f5600083018661310f565b6139026020830185613443565b61390f60408301846133a6565b949350505050565b600060608201905061392c600083018661310f565b6139396020830185613452565b61394660408301846133a6565b949350505050565b60006020820190508181036000830152613968818461317c565b905092915050565b6000602082019050818103600083015261398a818461324f565b905092915050565b600060208201905081810360008301526139ac81846132c4565b905092915050565b600060208201905081810360008301526139ce8184613339565b905092915050565b600060208201905081810360008301526139f0818461349a565b905092915050565b60006020820190508181036000830152613a1181613527565b9050919050565b60006020820190508181036000830152613a318161354a565b9050919050565b60006020820190508181036000830152613a518161356d565b9050919050565b60006020820190508181036000830152613a7181613590565b9050919050565b60006020820190508181036000830152613a91816135b3565b9050919050565b60006020820190508181036000830152613ab1816135d6565b9050919050565b60006020820190508181036000830152613ad28184613636565b905092915050565b60006020820190508181036000830152613af481846136ca565b905092915050565b6000608082019050613b116000830184613734565b92915050565b600060a082019050613b2c6000830184613789565b92915050565b6000602082019050613b476000830184613842565b92915050565b6000613b57613b68565b9050613b638282613eff565b919050565b6000604051905090565b600067ffffffffffffffff821115613b8d57613b8c614066565b5b613b96826140a9565b9050602081019050919050565b600067ffffffffffffffff821115613bbe57613bbd614066565b5b613bc7826140a9565b9050602081019050919050565b6000819050602082019050919050565b6000819050602082019050919050565b6000819050602082019050919050565b6000819050602082019050919050565b6000819050602082019050919050565b60008190508160005260206000209050919050565b600081519050919050565b600081519050919050565b600081519050919050565b600081519050919050565b600081519050919050565b600081519050919050565b6000602082019050919050565b6000602082019050919050565b6000602082019050919050565b6000602082019050919050565b6000602082019050919050565b600082825260208201905092915050565b600082825260208201905092915050565b600082825260208201905092915050565b600082825260208201905092915050565b600082825260208201905092915050565b600082825260208201905092915050565b600081905092915050565b600082825260208201905092915050565b600082825260208201905092915050565b600081905092915050565b6000613d6582613e5d565b9150613d7083613e5d565b9250827fffffffffffffffffffffffffffffffffffffffffffffffffffffffffffffffff03821115613da557613da4613faa565b5b828201905092915050565b6000613dbb82613e5d565b9150613dc683613e5d565b925082613dd657613dd5613fd9565b5b828204905092915050565b6000613dec82613e5d565b9150613df783613e5d565b925082821015613e0a57613e09613faa565b5b828203905092915050565b6000613e2082613e3d565b9050919050565b60008115159050919050565b6000819050919050565b600073ffffffffffffffffffffffffffffffffffffffff82169050919050565b6000819050919050565b6000613e7282613e5d565b9050919050565b6000613e8482613e5d565b9050919050565b82818337600083830152505050565b60005b83811015613eb8578082015181840152602081019050613e9d565b83811115613ec7576000848401525b50505050565b60006002820490506001821680613ee557607f821691505b60208210811415613ef957613ef8614008565b5b50919050565b613f08826140a9565b810181811067ffffffffffffffff82111715613f2757613f26614066565b5b80604052505050565b6000613f3b82613e5d565b91507fffffffffffffffffffffffffffffffffffffffffffffffffffffffffffffffff821415613f6e57613f6d613faa565b5b600182019050919050565b6000613f8482613e5d565b9150613f8f83613e5d565b925082613f9f57613f9e613fd9565b5b828206905092915050565b7f4e487b7100000000000000000000000000000000000000000000000000000000600052601160045260246000fd5b7f4e487b7100000000000000000000000000000000000000000000000000000000600052601260045260246000fd5b7f4e487b7100000000000000000000000000000000000000000000000000000000600052602260045260246000fd5b7f4e487b7100000000000000000000000000000000000000000000000000000000600052603260045260246000fd5b7f4e487b7100000000000000000000000000000000000000000000000000000000600052604160045260246000fd5b600080fd5b600080fd5b600080fd5b600080fd5b6000601f19601f8301169050919050565b7f6465700000000000000000000000000000000000000000000000000000000000600082015250565b7f5573657220616c72656164792065786973747300000000000000000000000000600082015250565b7f4f6e6c792073757065722061646d696e2063616e20617070726f76652075736560008201527f7273000000000000000000000000000000000000000000000000000000000000602082015250565b7f496e76616c6964206465706172746d656e740000000000000000000000000000600082015250565b7f496e76616c696420757365720000000000000000000000000000000000000000600082015250565b7f496e76616c6964206f7267616e69736174696f6e000000000000000000000000600082015250565b7f496e76616c69642075736572206f7065726174696f6e00000000000000000000600082015250565b61420881613e15565b811461421357600080fd5b50565b61421f81613e27565b811461422a57600080fd5b50565b61423681613e33565b811461424157600080fd5b50565b61424d81613e5d565b811461425857600080fd5b5056fea2646970667358221220ec103a5d99b3fc04c7237e213a9e43d80af4ced615548cab32277ba8e4cf9b3f64736f6c63430008070033",
  "linkReferences": {},
  "deployedLinkReferences": {}
}