{
  "_format": "hh-sol-artifact-1",
  "contractName": "Organisations",
  "sourceName": "contracts/Organisations.sol",
  "abi": [
    {
      "inputs": [
        {
          "internalType": "address",
          "name": "userContractAddress",
          "type": "address"
        }
      ],
      "stateMutability": "nonpayable",
      "type": "constructor"
    },
    {
      "anonymous": false,
      "inputs": [
        {
          "indexed": false,
          "internalType": "address",
          "name": "ownerAddress",
          "type": "address"
        },
        {
          "indexed": false,
          "internalType": "bytes32",
          "name": "profession",
          "type": "bytes32"
        },
        {
          "indexed": false,
          "internalType": "bytes32",
          "name": "location",
          "type": "bytes32"
        },
        {
          "indexed": false,
          "internalType": "bool",
          "name": "approved",
          "type": "bool"
        }
      ],
      "name": "NewOwnerCreated",
      "type": "event"
    },
    {
      "anonymous": false,
      "inputs": [
        {
          "indexed": false,
          "internalType": "address",
          "name": "requesterAddress",
          "type": "address"
        },
        {
          "indexed": false,
          "internalType": "bytes32",
          "name": "organisation",
          "type": "bytes32"
        },
        {
          "indexed": false,
          "internalType": "bytes32",
          "name": "department",
          "type": "bytes32"
        },
        {
          "indexed": false,
          "internalType": "bytes32",
          "name": "designation",
          "type": "bytes32"
        },
        {
          "indexed": false,
          "internalType": "bool",
          "name": "approved",
          "type": "bool"
        }
      ],
      "name": "NewRequesterCreated",
      "type": "event"
    },
    {
      "anonymous": false,
      "inputs": [
        {
          "indexed": false,
          "internalType": "address",
          "name": "ownerAddress",
          "type": "address"
        },
        {
          "indexed": false,
          "internalType": "bytes32",
          "name": "profession",
          "type": "bytes32"
        },
        {
          "indexed": false,
          "internalType": "bytes32",
          "name": "location",
          "type": "bytes32"
        },
        {
          "indexed": false,
          "internalType": "bool",
          "name": "approved",
          "type": "bool"
        }
      ],
      "name": "UpdateDataOwner",
      "type": "event"
    },
    {
      "anonymous": false,
      "inputs": [
        {
          "indexed": false,
          "internalType": "address",
          "name": "requesterAddress",
          "type": "address"
        },
        {
          "indexed": false,
          "internalType": "bytes32",
          "name": "organisation",
          "type": "bytes32"
        },
        {
          "indexed": false,
          "internalType": "bytes32",
          "name": "department",
          "type": "bytes32"
        },
        {
          "indexed": false,
          "internalType": "bytes32",
          "name": "designation",
          "type": "bytes32"
        },
        {
          "indexed": false,
          "internalType": "bool",
          "name": "approved",
          "type": "bool"
        }
      ],
      "name": "UpdateDataRequester",
      "type": "event"
    },
    {
      "inputs": [
        {
          "internalType": "address",
          "name": "ownerAddress",
          "type": "address"
        },
        {
          "internalType": "bytes32",
          "name": "profession",
          "type": "bytes32"
        },
        {
          "internalType": "bytes32",
          "name": "location",
          "type": "bytes32"
        }
      ],
      "name": "addDataOwner",
      "outputs": [],
      "stateMutability": "nonpayable",
      "type": "function"
    },
    {
      "inputs": [
        {
          "internalType": "address",
          "name": "requesterAddress",
          "type": "address"
        },
        {
          "internalType": "bytes32",
          "name": "organisation",
          "type": "bytes32"
        },
        {
          "internalType": "bytes32",
          "name": "department",
          "type": "bytes32"
        },
        {
          "internalType": "bytes32",
          "name": "designation",
          "type": "bytes32"
        }
      ],
      "name": "addDataRequester",
      "outputs": [],
      "stateMutability": "nonpayable",
      "type": "function"
    },
    {
      "inputs": [
        {
          "internalType": "string",
          "name": "orgid",
          "type": "string"
        },
        {
          "internalType": "bytes32",
          "name": "departmentName",
          "type": "bytes32"
        },
        {
          "internalType": "bytes32",
          "name": "designation",
          "type": "bytes32"
        },
        {
          "internalType": "bool",
          "name": "isAddDesignation",
          "type": "bool"
        }
      ],
      "name": "addDepartmentToOrg",
      "outputs": [],
      "stateMutability": "nonpayable",
      "type": "function"
    },
    {
      "inputs": [
        {
          "internalType": "string",
          "name": "depid",
          "type": "string"
        },
        {
          "internalType": "bytes32",
          "name": "designation",
          "type": "bytes32"
        },
        {
          "internalType": "bool",
          "name": "isAddDesignation",
          "type": "bool"
        }
      ],
      "name": "addDesignationToDepartment",
      "outputs": [],
      "stateMutability": "nonpayable",
      "type": "function"
    },
    {
      "inputs": [
        {
          "internalType": "address",
          "name": "ownerAddress",
          "type": "address"
        }
      ],
      "name": "approveOwner",
      "outputs": [],
      "stateMutability": "nonpayable",
      "type": "function"
    },
    {
      "inputs": [
        {
          "internalType": "address",
          "name": "requesterAddress",
          "type": "address"
        }
      ],
      "name": "approveRequester",
      "outputs": [],
      "stateMutability": "nonpayable",
      "type": "function"
    },
    {
      "inputs": [
        {
          "internalType": "bytes32",
          "name": "name",
          "type": "bytes32"
        },
        {
          "internalType": "bytes32",
          "name": "departmentName",
          "type": "bytes32"
        },
        {
          "internalType": "bytes32",
          "name": "designation",
          "type": "bytes32"
        },
        {
          "internalType": "bool",
          "name": "isAddDesignation",
          "type": "bool"
        }
      ],
      "name": "createOrganisation",
      "outputs": [],
      "stateMutability": "nonpayable",
      "type": "function"
    },
    {
      "inputs": [],
      "name": "getAllDepartments",
      "outputs": [
        {
          "components": [
            {
              "internalType": "string",
              "name": "depid",
              "type": "string"
            },
            {
              "internalType": "bytes32",
              "name": "depname",
              "type": "bytes32"
            }
          ],
          "internalType": "struct Organisations.DepartmentMinimal[]",
          "name": "",
          "type": "tuple[]"
        }
      ],
      "stateMutability": "view",
      "type": "function"
    },
    {
      "inputs": [],
      "name": "getAllDesignations",
      "outputs": [
        {
          "internalType": "bytes32[]",
          "name": "",
          "type": "bytes32[]"
        }
      ],
      "stateMutability": "view",
      "type": "function"
    },
    {
      "inputs": [],
      "name": "getAllOrganisations",
      "outputs": [
        {
          "components": [
            {
              "internalType": "string",
              "name": "orgid",
              "type": "string"
            },
            {
              "internalType": "bytes32",
              "name": "orgname",
              "type": "bytes32"
            }
          ],
          "internalType": "struct Organisations.OrganisationMinimal[]",
          "name": "",
          "type": "tuple[]"
        }
      ],
      "stateMutability": "view",
      "type": "function"
    },
    {
      "inputs": [],
      "name": "getAllUsers",
      "outputs": [
        {
          "components": [
            {
              "internalType": "address",
              "name": "userAddress",
              "type": "address"
            },
            {
              "internalType": "uint256",
              "name": "role",
              "type": "uint256"
            }
          ],
          "internalType": "struct Users.User[]",
          "name": "",
          "type": "tuple[]"
        }
      ],
      "stateMutability": "view",
      "type": "function"
    },
    {
      "inputs": [
        {
          "internalType": "address",
          "name": "ownerAddress",
          "type": "address"
        }
      ],
      "name": "getDataOwner",
      "outputs": [
        {
          "components": [
            {
              "internalType": "address",
              "name": "ownerAddress",
              "type": "address"
            },
            {
              "internalType": "bytes32",
              "name": "profession",
              "type": "bytes32"
            },
            {
              "internalType": "bytes32",
              "name": "location",
              "type": "bytes32"
            },
            {
              "internalType": "bool",
              "name": "approved",
              "type": "bool"
            }
          ],
          "internalType": "struct Users.Owner",
          "name": "",
          "type": "tuple"
        }
      ],
      "stateMutability": "view",
      "type": "function"
    },
    {
      "inputs": [
        {
          "internalType": "address",
          "name": "requesterAddress",
          "type": "address"
        }
      ],
      "name": "getDataRequester",
      "outputs": [
        {
          "components": [
            {
              "internalType": "address",
              "name": "requesterAddress",
              "type": "address"
            },
            {
              "internalType": "bytes32",
              "name": "organisation",
              "type": "bytes32"
            },
            {
              "internalType": "bytes32",
              "name": "department",
              "type": "bytes32"
            },
            {
              "internalType": "bytes32",
              "name": "designation",
              "type": "bytes32"
            },
            {
              "internalType": "bool",
              "name": "approved",
              "type": "bool"
            }
          ],
          "internalType": "struct Users.Requester",
          "name": "",
          "type": "tuple"
        }
      ],
      "stateMutability": "view",
      "type": "function"
    },
    {
      "inputs": [
        {
          "internalType": "string",
          "name": "depid",
          "type": "string"
        }
      ],
      "name": "getDepartment",
      "outputs": [
        {
          "components": [
            {
              "internalType": "string",
              "name": "depid",
              "type": "string"
            },
            {
              "internalType": "bytes32",
              "name": "depname",
              "type": "bytes32"
            },
            {
              "internalType": "bytes32[]",
              "name": "designations",
              "type": "bytes32[]"
            }
          ],
          "internalType": "struct Organisations.Department",
          "name": "",
          "type": "tuple"
        }
      ],
      "stateMutability": "view",
      "type": "function"
    },
    {
      "inputs": [
        {
          "internalType": "string",
          "name": "orgid",
          "type": "string"
        }
      ],
      "name": "getOrganisation",
      "outputs": [
        {
          "components": [
            {
              "internalType": "string",
              "name": "orgid",
              "type": "string"
            },
            {
              "internalType": "bytes32",
              "name": "orgname",
              "type": "bytes32"
            },
            {
              "internalType": "uint256",
              "name": "totalDepartments",
              "type": "uint256"
            },
            {
              "internalType": "string[]",
              "name": "departmentids",
              "type": "string[]"
            }
          ],
          "internalType": "struct Organisations.Organisation",
          "name": "",
          "type": "tuple"
        }
      ],
      "stateMutability": "view",
      "type": "function"
    },
    {
      "inputs": [],
      "name": "getSuperAdmin",
      "outputs": [
        {
          "internalType": "address",
          "name": "",
          "type": "address"
        }
      ],
      "stateMutability": "view",
      "type": "function"
    },
    {
      "inputs": [
        {
          "internalType": "uint256",
          "name": "id",
          "type": "uint256"
        },
        {
          "internalType": "string",
          "name": "val",
          "type": "string"
        }
      ],
      "name": "makeId",
      "outputs": [
        {
          "internalType": "string",
          "name": "",
          "type": "string"
        }
      ],
      "stateMutability": "pure",
      "type": "function"
    },
    {
      "inputs": [
        {
          "internalType": "string",
          "name": "source",
          "type": "string"
        }
      ],
      "name": "stringToBytes32",
      "outputs": [
        {
          "internalType": "bytes32",
          "name": "result",
          "type": "bytes32"
        }
      ],
      "stateMutability": "pure",
      "type": "function"
    },
    {
      "inputs": [],
      "name": "superadmin",
      "outputs": [
        {
          "internalType": "address",
          "name": "",
          "type": "address"
        }
      ],
      "stateMutability": "view",
      "type": "function"
    },
    {
      "inputs": [
        {
          "internalType": "address",
          "name": "ownerAddress",
          "type": "address"
        },
        {
          "internalType": "bytes32",
          "name": "profession",
          "type": "bytes32"
        },
        {
          "internalType": "bytes32",
          "name": "location",
          "type": "bytes32"
        }
      ],
      "name": "updateDataOwner",
      "outputs": [],
      "stateMutability": "nonpayable",
      "type": "function"
    },
    {
      "inputs": [
        {
          "internalType": "address",
          "name": "requesterAddress",
          "type": "address"
        },
        {
          "internalType": "bytes32",
          "name": "organisation",
          "type": "bytes32"
        },
        {
          "internalType": "bytes32",
          "name": "department",
          "type": "bytes32"
        },
        {
          "internalType": "bytes32",
          "name": "designation",
          "type": "bytes32"
        }
      ],
      "name": "updateDataRequester",
      "outputs": [],
      "stateMutability": "nonpayable",
      "type": "function"
    }
  ],
  "bytecode": "0x60806040526000600a553480156200001657600080fd5b5060405162003c4738038062003c4783398181016040528101906200003c9190620001a5565b336000806101000a81548173ffffffffffffffffffffffffffffffffffffffff021916908373ffffffffffffffffffffffffffffffffffffffff1602179055506001604051806040016040528060008054906101000a900473ffffffffffffffffffffffffffffffffffffffff1673ffffffffffffffffffffffffffffffffffffffff1681526020016003815250908060018154018082558091505060019003906000526020600020906002020160009091909190915060008201518160000160006101000a81548173ffffffffffffffffffffffffffffffffffffffff021916908373ffffffffffffffffffffffffffffffffffffffff16021790555060208201518160010155505080600460006101000a81548173ffffffffffffffffffffffffffffffffffffffff021916908373ffffffffffffffffffffffffffffffffffffffff160217905550506200022a565b6000815190506200019f8162000210565b92915050565b600060208284031215620001be57620001bd6200020b565b5b6000620001ce848285016200018e565b91505092915050565b6000620001e482620001eb565b9050919050565b600073ffffffffffffffffffffffffffffffffffffffff82169050919050565b600080fd5b6200021b81620001d7565b81146200022757600080fd5b50565b613a0d806200023a6000396000f3fe608060405234801561001057600080fd5b50600436106101375760003560e01c806385099f6e116100b8578063b4d5b1ff1161007c578063b4d5b1ff1461033a578063b648ee2d14610356578063cfb5192814610372578063e2842d79146103a2578063f565d7b0146103c0578063fce59441146103f057610137565b806385099f6e146102aa57806386c3a49c146102c65780639420d020146102e457806394231a0114610300578063b163e03d1461031c57610137565b80635669c058116100ff5780635669c058146101f257806360d8c5ec1461022257806363d48aba1461025257806369146dea146102705780638204c3261461028c57610137565b80631113d5711461013c5780633185d5af1461015a5780633cbca9d41461017657806344713f791461019257806350a38744146101c2575b600080fd5b61014461040c565b604051610151919061311f565b60405180910390f35b610174600480360381019061016f91906125b4565b610464565b005b610190600480360381019061018b9190612607565b61087b565b005b6101ac60048036038101906101a79190612810565b610ac1565b6040516101b991906131c2565b60405180910390f35b6101dc60048036038101906101d791906126d5565b610afb565b6040516101e991906132c6565b60405180910390f35b61020c60048036038101906102079190612587565b610cb2565b6040516102199190613303565b60405180910390f35b61023c600480360381019061023791906126d5565b610d9a565b60405161024991906132a4565b60405180910390f35b61025a610ec6565b604051610267919061306c565b60405180910390f35b61028a60048036038101906102859190612607565b610eea565b005b610294611314565b6040516102a1919061306c565b60405180910390f35b6102c460048036038101906102bf9190612587565b61133d565b005b6102ce61142b565b6040516102db9190613141565b60405180910390f35b6102fe60048036038101906102f9919061266e565b611526565b005b61031a600480360381019061031591906125b4565b611882565b005b610324611a8c565b6040516103319190613163565b60405180910390f35b610354600480360381019061034f919061271e565b611b87565b005b610370600480360381019061036b9190612587565b611c6b565b005b61038c600480360381019061038791906126d5565b611d59565b60405161039991906131a7565b60405180910390f35b6103aa611d83565b6040516103b79190613185565b60405180910390f35b6103da60048036038101906103d59190612587565b611e42565b6040516103e791906132e8565b60405180910390f35b61040a6004803603810190610405919061278d565b611f20565b005b6060600780548060200260200160405190810160405280929190818152602001828054801561045a57602002820191906000526020600020905b815481526020019060010190808311610446575b5050505050905090565b82600073ffffffffffffffffffffffffffffffffffffffff16600260008373ffffffffffffffffffffffffffffffffffffffff1673ffffffffffffffffffffffffffffffffffffffff16815260200190815260200160002060000160009054906101000a900473ffffffffffffffffffffffffffffffffffffffff1673ffffffffffffffffffffffffffffffffffffffff1614610536576040517f08c379a000000000000000000000000000000000000000000000000000000000815260040161052d906131e4565b60405180910390fd5b600073ffffffffffffffffffffffffffffffffffffffff16600360008373ffffffffffffffffffffffffffffffffffffffff1673ffffffffffffffffffffffffffffffffffffffff16815260200190815260200160002060000160009054906101000a900473ffffffffffffffffffffffffffffffffffffffff1673ffffffffffffffffffffffffffffffffffffffff1614610607576040517f08c379a00000000000000000000000000000000000000000000000000000000081526004016105fe906131e4565b60405180910390fd5b60008054906101000a900473ffffffffffffffffffffffffffffffffffffffff1673ffffffffffffffffffffffffffffffffffffffff168173ffffffffffffffffffffffffffffffffffffffff161415610696576040517f08c379a000000000000000000000000000000000000000000000000000000000815260040161068d90613244565b60405180910390fd5b60405180608001604052808573ffffffffffffffffffffffffffffffffffffffff16815260200184815260200183815260200160001515815250600260008673ffffffffffffffffffffffffffffffffffffffff1673ffffffffffffffffffffffffffffffffffffffff16815260200190815260200160002060008201518160000160006101000a81548173ffffffffffffffffffffffffffffffffffffffff021916908373ffffffffffffffffffffffffffffffffffffffff160217905550602082015181600101556040820151816002015560608201518160030160006101000a81548160ff021916908315150217905550905050600160405180604001604052808673ffffffffffffffffffffffffffffffffffffffff1681526020016001815250908060018154018082558091505060019003906000526020600020906002020160009091909190915060008201518160000160006101000a81548173ffffffffffffffffffffffffffffffffffffffff021916908373ffffffffffffffffffffffffffffffffffffffff1602179055506020820151816001015550507f9a5c03ed86a31061c8fb061b17872c118b5d9a2bc06ae9c21010519f2b462716848484600060405161086d9493929190613087565b60405180910390a150505050565b3373ffffffffffffffffffffffffffffffffffffffff16600360008673ffffffffffffffffffffffffffffffffffffffff1673ffffffffffffffffffffffffffffffffffffffff16815260200190815260200160002060000160009054906101000a900473ffffffffffffffffffffffffffffffffffffffff1673ffffffffffffffffffffffffffffffffffffffff161461094b576040517f08c379a000000000000000000000000000000000000000000000000000000000815260040161094290613284565b60405180910390fd5b82600360008673ffffffffffffffffffffffffffffffffffffffff1673ffffffffffffffffffffffffffffffffffffffff1681526020019081526020016000206001018190555081600360008673ffffffffffffffffffffffffffffffffffffffff1673ffffffffffffffffffffffffffffffffffffffff1681526020019081526020016000206002018190555080600360008673ffffffffffffffffffffffffffffffffffffffff1673ffffffffffffffffffffffffffffffffffffffff168152602001908152602001600020600301819055506000600360008673ffffffffffffffffffffffffffffffffffffffff1673ffffffffffffffffffffffffffffffffffffffff16815260200190815260200160002060040160006101000a81548160ff0219169083151502179055507f01a7125faedbb1c78d014d708a9503a9c7c19c7ea7dfc67d7edaa9bdd15f897c848484846000604051610ab39594939291906130cc565b60405180910390a150505050565b60606000610ace846121da565b90508281604051602001610ae3929190613026565b60405160208183030381529060405291505092915050565b610b0361233b565b600582604051610b13919061300f565b9081526020016040518091039020604051806080016040529081600082018054610b3c90613649565b80601f0160208091040260200160405190810160405280929190818152602001828054610b6890613649565b8015610bb55780601f10610b8a57610100808354040283529160200191610bb5565b820191906000526020600020905b815481529060010190602001808311610b9857829003601f168201915b50505050508152602001600182015481526020016002820154815260200160038201805480602002602001604051908101604052809291908181526020016000905b82821015610ca3578382906000526020600020018054610c1690613649565b80601f0160208091040260200160405190810160405280929190818152602001828054610c4290613649565b8015610c8f5780601f10610c6457610100808354040283529160200191610c8f565b820191906000526020600020905b815481529060010190602001808311610c7257829003601f168201915b505050505081526020019060010190610bf7565b50505050815250509050919050565b610cba612366565b600360008373ffffffffffffffffffffffffffffffffffffffff1673ffffffffffffffffffffffffffffffffffffffff1681526020019081526020016000206040518060a00160405290816000820160009054906101000a900473ffffffffffffffffffffffffffffffffffffffff1673ffffffffffffffffffffffffffffffffffffffff1673ffffffffffffffffffffffffffffffffffffffff1681526020016001820154815260200160028201548152602001600382015481526020016004820160009054906101000a900460ff1615151515815250509050919050565b610da26123b6565b600682604051610db2919061300f565b9081526020016040518091039020604051806060016040529081600082018054610ddb90613649565b80601f0160208091040260200160405190810160405280929190818152602001828054610e0790613649565b8015610e545780601f10610e2957610100808354040283529160200191610e54565b820191906000526020600020905b815481529060010190602001808311610e3757829003601f168201915b505050505081526020016001820154815260200160028201805480602002602001604051908101604052809291908181526020018280548015610eb657602002820191906000526020600020905b815481526020019060010190808311610ea2575b5050505050815250509050919050565b60008054906101000a900473ffffffffffffffffffffffffffffffffffffffff1681565b83600073ffffffffffffffffffffffffffffffffffffffff16600260008373ffffffffffffffffffffffffffffffffffffffff1673ffffffffffffffffffffffffffffffffffffffff16815260200190815260200160002060000160009054906101000a900473ffffffffffffffffffffffffffffffffffffffff1673ffffffffffffffffffffffffffffffffffffffff1614610fbc576040517f08c379a0000000000000000000000000000000000000000000000000000000008152600401610fb3906131e4565b60405180910390fd5b600073ffffffffffffffffffffffffffffffffffffffff16600360008373ffffffffffffffffffffffffffffffffffffffff1673ffffffffffffffffffffffffffffffffffffffff16815260200190815260200160002060000160009054906101000a900473ffffffffffffffffffffffffffffffffffffffff1673ffffffffffffffffffffffffffffffffffffffff161461108d576040517f08c379a0000000000000000000000000000000000000000000000000000000008152600401611084906131e4565b60405180910390fd5b60008054906101000a900473ffffffffffffffffffffffffffffffffffffffff1673ffffffffffffffffffffffffffffffffffffffff168173ffffffffffffffffffffffffffffffffffffffff16141561111c576040517f08c379a000000000000000000000000000000000000000000000000000000000815260040161111390613244565b60405180910390fd5b6040518060a001604052808673ffffffffffffffffffffffffffffffffffffffff16815260200185815260200184815260200183815260200160001515815250600360008773ffffffffffffffffffffffffffffffffffffffff1673ffffffffffffffffffffffffffffffffffffffff16815260200190815260200160002060008201518160000160006101000a81548173ffffffffffffffffffffffffffffffffffffffff021916908373ffffffffffffffffffffffffffffffffffffffff16021790555060208201518160010155604082015181600201556060820151816003015560808201518160040160006101000a81548160ff021916908315150217905550905050600160405180604001604052808773ffffffffffffffffffffffffffffffffffffffff1681526020016002815250908060018154018082558091505060019003906000526020600020906002020160009091909190915060008201518160000160006101000a81548173ffffffffffffffffffffffffffffffffffffffff021916908373ffffffffffffffffffffffffffffffffffffffff1602179055506020820151816001015550507f64a3b601a8956496945ec082053c49dacb526b26466a0848e0db79d3760b4fa38585858560006040516113059594939291906130cc565b60405180910390a15050505050565b60008060009054906101000a900473ffffffffffffffffffffffffffffffffffffffff16905090565b3360008054906101000a900473ffffffffffffffffffffffffffffffffffffffff1673ffffffffffffffffffffffffffffffffffffffff168173ffffffffffffffffffffffffffffffffffffffff16146113cc576040517f08c379a00000000000000000000000000000000000000000000000000000000081526004016113c390613204565b60405180910390fd5b6001600360008473ffffffffffffffffffffffffffffffffffffffff1673ffffffffffffffffffffffffffffffffffffffff16815260200190815260200160002060040160006101000a81548160ff0219169083151502179055505050565b60606009805480602002602001604051908101604052809291908181526020016000905b8282101561151d578382906000526020600020906002020160405180604001604052908160008201805461148290613649565b80601f01602080910402602001604051908101604052809291908181526020018280546114ae90613649565b80156114fb5780601f106114d0576101008083540402835291602001916114fb565b820191906000526020600020905b8154815290600101906020018083116114de57829003601f168201915b505050505081526020016001820154815250508152602001906001019061144f565b50505050905090565b6001600a5461153591906134fa565b600a81905550600061157e600a546040518060400160405280600381526020017f6f72670000000000000000000000000000000000000000000000000000000000815250610ac1565b905080600582604051611591919061300f565b908152602001604051809103902060000190805190602001906115b59291906123da565b50846005826040516115c7919061300f565b908152602001604051809103902060010181905550600060016005836040516115f0919061300f565b90815260200160405180910390206002015461160c91906134fa565b9050600082604051602001611621919061304a565b6040516020818303038152906040529050600061163e8383610ac1565b9050600584604051611650919061300f565b90815260200160405180910390206002016000815480929190611672906136ac565b9190505550600584604051611687919061300f565b9081526020016040518091039020600301819080600181540180825580915050600190039060005260206000200160009091909190915090805190602001906116d19291906123da565b50806006826040516116e3919061300f565b908152602001604051809103902060000190805190602001906117079291906123da565b5086600682604051611719919061300f565b90815260200160405180910390206001018190555060068160405161173e919061300f565b908152602001604051809103902060020186908060018154018082558091505060019003906000526020600020016000909190919091505584156117a65760078690806001815401808255809150506001900390600052602060002001600090919091909150555b600860405180604001604052808681526020018a815250908060018154018082558091505060019003906000526020600020906002020160009091909190915060008201518160000190805190602001906118029291906123da565b5060208201518160010155505060096040518060400160405280838152602001898152509080600181540180825580915050600190039060005260206000209060020201600090919091909150600082015181600001908051906020019061186b9291906123da565b506020820151816001015550505050505050505050565b3373ffffffffffffffffffffffffffffffffffffffff16600260008573ffffffffffffffffffffffffffffffffffffffff1673ffffffffffffffffffffffffffffffffffffffff16815260200190815260200160002060000160009054906101000a900473ffffffffffffffffffffffffffffffffffffffff1673ffffffffffffffffffffffffffffffffffffffff1614611952576040517f08c379a000000000000000000000000000000000000000000000000000000000815260040161194990613284565b60405180910390fd5b60405180608001604052808473ffffffffffffffffffffffffffffffffffffffff16815260200183815260200182815260200160001515815250600260008573ffffffffffffffffffffffffffffffffffffffff1673ffffffffffffffffffffffffffffffffffffffff16815260200190815260200160002060008201518160000160006101000a81548173ffffffffffffffffffffffffffffffffffffffff021916908373ffffffffffffffffffffffffffffffffffffffff160217905550602082015181600101556040820151816002015560608201518160030160006101000a81548160ff0219169083151502179055509050507fabc0938dcc8823bebe7fccc24a381077379cad909e1f06bf32a384a8d7c8d2d08383836000604051611a7f9493929190613087565b60405180910390a1505050565b60606008805480602002602001604051908101604052809291908181526020016000905b82821015611b7e5783829060005260206000209060020201604051806040016040529081600082018054611ae390613649565b80601f0160208091040260200160405190810160405280929190818152602001828054611b0f90613649565b8015611b5c5780601f10611b3157610100808354040283529160200191611b5c565b820191906000526020600020905b815481529060010190602001808311611b3f57829003601f168201915b5050505050815260200160018201548152505081526020019060010190611ab0565b50505050905090565b6000600684604051611b99919061300f565b90815260200160405180910390206002018054905011611bee576040517f08c379a0000000000000000000000000000000000000000000000000000000008152600401611be590613224565b60405180910390fd5b8015611c1e5760078290806001815401808255809150506001900390600052602060002001600090919091909150555b600683604051611c2e919061300f565b9081526020016040518091039020600201829080600181540180825580915050600190039060005260206000200160009091909190915055505050565b3360008054906101000a900473ffffffffffffffffffffffffffffffffffffffff1673ffffffffffffffffffffffffffffffffffffffff168173ffffffffffffffffffffffffffffffffffffffff1614611cfa576040517f08c379a0000000000000000000000000000000000000000000000000000000008152600401611cf190613204565b60405180910390fd5b6001600260008473ffffffffffffffffffffffffffffffffffffffff1673ffffffffffffffffffffffffffffffffffffffff16815260200190815260200160002060030160006101000a81548160ff0219169083151502179055505050565b600080829050600081511415611d75576000801b915050611d7e565b60208301519150505b919050565b60606001805480602002602001604051908101604052809291908181526020016000905b82821015611e3957838290600052602060002090600202016040518060400160405290816000820160009054906101000a900473ffffffffffffffffffffffffffffffffffffffff1673ffffffffffffffffffffffffffffffffffffffff1673ffffffffffffffffffffffffffffffffffffffff16815260200160018201548152505081526020019060010190611da7565b50505050905090565b611e4a612460565b600260008373ffffffffffffffffffffffffffffffffffffffff1673ffffffffffffffffffffffffffffffffffffffff1681526020019081526020016000206040518060800160405290816000820160009054906101000a900473ffffffffffffffffffffffffffffffffffffffff1673ffffffffffffffffffffffffffffffffffffffff1673ffffffffffffffffffffffffffffffffffffffff16815260200160018201548152602001600282015481526020016003820160009054906101000a900460ff1615151515815250509050919050565b8380519060200120600585604051611f38919061300f565b9081526020016040518091039020600001604051611f569190612ff8565b604051809103902014611f9e576040517f08c379a0000000000000000000000000000000000000000000000000000000008152600401611f9590613264565b60405180910390fd5b60006001600586604051611fb2919061300f565b908152602001604051809103902060020154611fce91906134fa565b9050600085604051602001611fe3919061304a565b604051602081830303815290604052905060006120008383610ac1565b9050600587604051612012919061300f565b90815260200160405180910390206002016000815480929190612034906136ac565b9190505550600587604051612049919061300f565b9081526020016040518091039020600301819080600181540180825580915050600190039060005260206000200160009091909190915090805190602001906120939291906123da565b50806006826040516120a5919061300f565b908152602001604051809103902060000190805190602001906120c99291906123da565b50856006826040516120db919061300f565b908152602001604051809103902060010181905550600681604051612100919061300f565b908152602001604051809103902060020185908060018154018082558091505060019003906000526020600020016000909190919091505583156121685760078590806001815401808255809150506001900390600052602060002001600090919091909150555b6009604051806040016040528083815260200188815250908060018154018082558091505060019003906000526020600020906002020160009091909190915060008201518160000190805190602001906121c49291906123da565b5060208201518160010155505050505050505050565b60606000821415612222576040518060400160405280600181526020017f30000000000000000000000000000000000000000000000000000000000000008152509050612336565b600082905060005b6000821461225457808061223d906136ac565b915050600a8261224d9190613550565b915061222a565b60008167ffffffffffffffff8111156122705761226f6137e2565b5b6040519080825280601f01601f1916602001820160405280156122a25781602001600182028036833780820191505090505b5090505b6000851461232f576001826122bb9190613581565b9150600a856122ca91906136f5565b60306122d691906134fa565b60f81b8183815181106122ec576122eb6137b3565b5b60200101907effffffffffffffffffffffffffffffffffffffffffffffffffffffffffffff1916908160001a905350600a856123289190613550565b94506122a6565b8093505050505b919050565b6040518060800160405280606081526020016000801916815260200160008152602001606081525090565b6040518060a00160405280600073ffffffffffffffffffffffffffffffffffffffff1681526020016000801916815260200160008019168152602001600080191681526020016000151581525090565b60405180606001604052806060815260200160008019168152602001606081525090565b8280546123e690613649565b90600052602060002090601f016020900481019282612408576000855561244f565b82601f1061242157805160ff191683800117855561244f565b8280016001018555821561244f579182015b8281111561244e578251825591602001919060010190612433565b5b50905061245c91906124a6565b5090565b6040518060800160405280600073ffffffffffffffffffffffffffffffffffffffff16815260200160008019168152602001600080191681526020016000151581525090565b5b808211156124bf5760008160009055506001016124a7565b5090565b60006124d66124d184613343565b61331e565b9050828152602081018484840111156124f2576124f1613816565b5b6124fd848285613607565b509392505050565b6000813590506125148161397b565b92915050565b60008135905061252981613992565b92915050565b60008135905061253e816139a9565b92915050565b600082601f83011261255957612558613811565b5b81356125698482602086016124c3565b91505092915050565b600081359050612581816139c0565b92915050565b60006020828403121561259d5761259c613820565b5b60006125ab84828501612505565b91505092915050565b6000806000606084860312156125cd576125cc613820565b5b60006125db86828701612505565b93505060206125ec8682870161252f565b92505060406125fd8682870161252f565b9150509250925092565b6000806000806080858703121561262157612620613820565b5b600061262f87828801612505565b94505060206126408782880161252f565b93505060406126518782880161252f565b92505060606126628782880161252f565b91505092959194509250565b6000806000806080858703121561268857612687613820565b5b60006126968782880161252f565b94505060206126a78782880161252f565b93505060406126b88782880161252f565b92505060606126c98782880161251a565b91505092959194509250565b6000602082840312156126eb576126ea613820565b5b600082013567ffffffffffffffff8111156127095761270861381b565b5b61271584828501612544565b91505092915050565b60008060006060848603121561273757612736613820565b5b600084013567ffffffffffffffff8111156127555761275461381b565b5b61276186828701612544565b93505060206127728682870161252f565b92505060406127838682870161251a565b9150509250925092565b600080600080608085870312156127a7576127a6613820565b5b600085013567ffffffffffffffff8111156127c5576127c461381b565b5b6127d187828801612544565b94505060206127e28782880161252f565b93505060406127f38782880161252f565b92505060606128048782880161251a565b91505092959194509250565b6000806040838503121561282757612826613820565b5b600061283585828601612572565b925050602083013567ffffffffffffffff8111156128565761285561381b565b5b61286285828601612544565b9150509250929050565b60006128788383612b8d565b60208301905092915050565b60006128908383612c2a565b905092915050565b60006128a48383612dc2565b905092915050565b60006128b88383612e56565b905092915050565b60006128cc8383612fba565b60408301905092915050565b6128e1816135b5565b82525050565b6128f0816135b5565b82525050565b6000612901826133d9565b61290b818561345c565b935061291683613374565b8060005b8381101561294757815161292e888261286c565b97506129398361341b565b92505060018101905061291a565b5085935050505092915050565b600061295f826133d9565b612969818561346d565b935061297483613374565b8060005b838110156129a557815161298c888261286c565b97506129978361341b565b925050600181019050612978565b5085935050505092915050565b60006129bd826133e4565b6129c7818561347e565b9350836020820285016129d985613384565b8060005b85811015612a1557848403895281516129f68582612884565b9450612a0183613428565b925060208a019950506001810190506129dd565b50829750879550505050505092915050565b6000612a32826133ef565b612a3c818561348f565b935083602082028501612a4e85613394565b8060005b85811015612a8a5784840389528151612a6b8582612898565b9450612a7683613435565b925060208a01995050600181019050612a52565b50829750879550505050505092915050565b6000612aa7826133fa565b612ab181856134a0565b935083602082028501612ac3856133a4565b8060005b85811015612aff5784840389528151612ae085826128ac565b9450612aeb83613442565b925060208a01995050600181019050612ac7565b50829750879550505050505092915050565b6000612b1c82613405565b612b2681856134b1565b9350612b31836133b4565b8060005b83811015612b62578151612b4988826128c0565b9750612b548361344f565b925050600181019050612b35565b5085935050505092915050565b612b78816135c7565b82525050565b612b87816135c7565b82525050565b612b96816135d3565b82525050565b612ba5816135d3565b82525050565b60008154612bb881613649565b612bc281866134c2565b94506001821660008114612bdd5760018114612bee57612c21565b60ff19831686528186019350612c21565b612bf7856133c4565b60005b83811015612c1957815481890152600182019150602081019050612bfa565b838801955050505b50505092915050565b6000612c3582613410565b612c3f81856134cd565b9350612c4f818560208601613616565b612c5881613825565b840191505092915050565b6000612c6e82613410565b612c7881856134de565b9350612c88818560208601613616565b612c9181613825565b840191505092915050565b6000612ca782613410565b612cb181856134ef565b9350612cc1818560208601613616565b80840191505092915050565b6000612cda6003836134ef565b9150612ce582613836565b600382019050919050565b6000612cfd6013836134de565b9150612d088261385f565b602082019050919050565b6000612d206022836134de565b9150612d2b82613888565b604082019050919050565b6000612d436012836134de565b9150612d4e826138d7565b602082019050919050565b6000612d66600c836134de565b9150612d7182613900565b602082019050919050565b6000612d896014836134de565b9150612d9482613929565b602082019050919050565b6000612dac6016836134de565b9150612db782613952565b602082019050919050565b60006040830160008301518482036000860152612ddf8282612c2a565b9150506020830151612df46020860182612b8d565b508091505092915050565b60006060830160008301518482036000860152612e1c8282612c2a565b9150506020830151612e316020860182612b8d565b5060408301518482036040860152612e4982826128f6565b9150508091505092915050565b60006040830160008301518482036000860152612e738282612c2a565b9150506020830151612e886020860182612b8d565b508091505092915050565b60006080830160008301518482036000860152612eb08282612c2a565b9150506020830151612ec56020860182612b8d565b506040830151612ed86040860182612fe9565b5060608301518482036060860152612ef082826129b2565b9150508091505092915050565b608082016000820151612f1360008501826128d8565b506020820151612f266020850182612b8d565b506040820151612f396040850182612b8d565b506060820151612f4c6060850182612b6f565b50505050565b60a082016000820151612f6860008501826128d8565b506020820151612f7b6020850182612b8d565b506040820151612f8e6040850182612b8d565b506060820151612fa16060850182612b8d565b506080820151612fb46080850182612b6f565b50505050565b604082016000820151612fd060008501826128d8565b506020820151612fe36020850182612fe9565b50505050565b612ff2816135fd565b82525050565b60006130048284612bab565b915081905092915050565b600061301b8284612c9c565b915081905092915050565b60006130328285612c9c565b915061303e8284612c9c565b91508190509392505050565b60006130568284612c9c565b915061306182612ccd565b915081905092915050565b600060208201905061308160008301846128e7565b92915050565b600060808201905061309c60008301876128e7565b6130a96020830186612b9c565b6130b66040830185612b9c565b6130c36060830184612b7e565b95945050505050565b600060a0820190506130e160008301886128e7565b6130ee6020830187612b9c565b6130fb6040830186612b9c565b6131086060830185612b9c565b6131156080830184612b7e565b9695505050505050565b600060208201905081810360008301526131398184612954565b905092915050565b6000602082019050818103600083015261315b8184612a27565b905092915050565b6000602082019050818103600083015261317d8184612a9c565b905092915050565b6000602082019050818103600083015261319f8184612b11565b905092915050565b60006020820190506131bc6000830184612b9c565b92915050565b600060208201905081810360008301526131dc8184612c63565b905092915050565b600060208201905081810360008301526131fd81612cf0565b9050919050565b6000602082019050818103600083015261321d81612d13565b9050919050565b6000602082019050818103600083015261323d81612d36565b9050919050565b6000602082019050818103600083015261325d81612d59565b9050919050565b6000602082019050818103600083015261327d81612d7c565b9050919050565b6000602082019050818103600083015261329d81612d9f565b9050919050565b600060208201905081810360008301526132be8184612dff565b905092915050565b600060208201905081810360008301526132e08184612e93565b905092915050565b60006080820190506132fd6000830184612efd565b92915050565b600060a0820190506133186000830184612f52565b92915050565b6000613328613339565b9050613334828261367b565b919050565b6000604051905090565b600067ffffffffffffffff82111561335e5761335d6137e2565b5b61336782613825565b9050602081019050919050565b6000819050602082019050919050565b6000819050602082019050919050565b6000819050602082019050919050565b6000819050602082019050919050565b6000819050602082019050919050565b60008190508160005260206000209050919050565b600081519050919050565b600081519050919050565b600081519050919050565b600081519050919050565b600081519050919050565b600081519050919050565b6000602082019050919050565b6000602082019050919050565b6000602082019050919050565b6000602082019050919050565b6000602082019050919050565b600082825260208201905092915050565b600082825260208201905092915050565b600082825260208201905092915050565b600082825260208201905092915050565b600082825260208201905092915050565b600082825260208201905092915050565b600081905092915050565b600082825260208201905092915050565b600082825260208201905092915050565b600081905092915050565b6000613505826135fd565b9150613510836135fd565b9250827fffffffffffffffffffffffffffffffffffffffffffffffffffffffffffffffff0382111561354557613544613726565b5b828201905092915050565b600061355b826135fd565b9150613566836135fd565b92508261357657613575613755565b5b828204905092915050565b600061358c826135fd565b9150613597836135fd565b9250828210156135aa576135a9613726565b5b828203905092915050565b60006135c0826135dd565b9050919050565b60008115159050919050565b6000819050919050565b600073ffffffffffffffffffffffffffffffffffffffff82169050919050565b6000819050919050565b82818337600083830152505050565b60005b83811015613634578082015181840152602081019050613619565b83811115613643576000848401525b50505050565b6000600282049050600182168061366157607f821691505b6020821081141561367557613674613784565b5b50919050565b61368482613825565b810181811067ffffffffffffffff821117156136a3576136a26137e2565b5b80604052505050565b60006136b7826135fd565b91507fffffffffffffffffffffffffffffffffffffffffffffffffffffffffffffffff8214156136ea576136e9613726565b5b600182019050919050565b6000613700826135fd565b915061370b836135fd565b92508261371b5761371a613755565b5b828206905092915050565b7f4e487b7100000000000000000000000000000000000000000000000000000000600052601160045260246000fd5b7f4e487b7100000000000000000000000000000000000000000000000000000000600052601260045260246000fd5b7f4e487b7100000000000000000000000000000000000000000000000000000000600052602260045260246000fd5b7f4e487b7100000000000000000000000000000000000000000000000000000000600052603260045260246000fd5b7f4e487b7100000000000000000000000000000000000000000000000000000000600052604160045260246000fd5b600080fd5b600080fd5b600080fd5b600080fd5b6000601f19601f8301169050919050565b7f6465700000000000000000000000000000000000000000000000000000000000600082015250565b7f5573657220616c72656164792065786973747300000000000000000000000000600082015250565b7f4f6e6c792073757065722061646d696e2063616e20617070726f76652075736560008201527f7273000000000000000000000000000000000000000000000000000000000000602082015250565b7f496e76616c6964206465706172746d656e740000000000000000000000000000600082015250565b7f496e76616c696420757365720000000000000000000000000000000000000000600082015250565b7f496e76616c6964206f7267616e69736174696f6e000000000000000000000000600082015250565b7f496e76616c69642075736572206f7065726174696f6e00000000000000000000600082015250565b613984816135b5565b811461398f57600080fd5b50565b61399b816135c7565b81146139a657600080fd5b50565b6139b2816135d3565b81146139bd57600080fd5b50565b6139c9816135fd565b81146139d457600080fd5b5056fea2646970667358221220b5695bee1991b502eec7719842b04792cc480e2ef89cbb4900fc229f0236c3aa64736f6c63430008060033",
  "linkReferences": {},
  "deployedLinkReferences": {}
}