{
  "_format": "hh-sol-artifact-1",
  "contractName": "Policies",
  "sourceName": "contracts/Policies.sol",
  "abi": [
    {
      "inputs": [
        {
          "internalType": "address",
          "name": "userContractAddress",
          "type": "address"
        }
      ],
      "stateMutability": "nonpayable",
      "type": "constructor"
    },
    {
      "anonymous": false,
      "inputs": [
        {
          "indexed": false,
          "internalType": "address",
          "name": "ownerAddress",
          "type": "address"
        },
        {
          "indexed": false,
          "internalType": "bytes32",
          "name": "profession",
          "type": "bytes32"
        },
        {
          "indexed": false,
          "internalType": "bytes32",
          "name": "location",
          "type": "bytes32"
        },
        {
          "indexed": false,
          "internalType": "bool",
          "name": "approved",
          "type": "bool"
        }
      ],
      "name": "NewOwnerCreated",
      "type": "event"
    },
    {
      "anonymous": false,
      "inputs": [
        {
          "indexed": false,
          "internalType": "address",
          "name": "requesterAddress",
          "type": "address"
        },
        {
          "indexed": false,
          "internalType": "bytes32",
          "name": "organisation",
          "type": "bytes32"
        },
        {
          "indexed": false,
          "internalType": "bytes32",
          "name": "department",
          "type": "bytes32"
        },
        {
          "indexed": false,
          "internalType": "bytes32",
          "name": "designation",
          "type": "bytes32"
        },
        {
          "indexed": false,
          "internalType": "bool",
          "name": "approved",
          "type": "bool"
        }
      ],
      "name": "NewRequesterCreated",
      "type": "event"
    },
    {
      "anonymous": false,
      "inputs": [
        {
          "indexed": false,
          "internalType": "address",
          "name": "ownerAddress",
          "type": "address"
        },
        {
          "indexed": false,
          "internalType": "bytes32",
          "name": "profession",
          "type": "bytes32"
        },
        {
          "indexed": false,
          "internalType": "bytes32",
          "name": "location",
          "type": "bytes32"
        },
        {
          "indexed": false,
          "internalType": "bool",
          "name": "approved",
          "type": "bool"
        }
      ],
      "name": "UpdateDataOwner",
      "type": "event"
    },
    {
      "anonymous": false,
      "inputs": [
        {
          "indexed": false,
          "internalType": "address",
          "name": "requesterAddress",
          "type": "address"
        },
        {
          "indexed": false,
          "internalType": "bytes32",
          "name": "organisation",
          "type": "bytes32"
        },
        {
          "indexed": false,
          "internalType": "bytes32",
          "name": "department",
          "type": "bytes32"
        },
        {
          "indexed": false,
          "internalType": "bytes32",
          "name": "designation",
          "type": "bytes32"
        },
        {
          "indexed": false,
          "internalType": "bool",
          "name": "approved",
          "type": "bool"
        }
      ],
      "name": "UpdateDataRequester",
      "type": "event"
    },
    {
      "inputs": [
        {
          "internalType": "address",
          "name": "ownerAddress",
          "type": "address"
        },
        {
          "internalType": "bytes32",
          "name": "profession",
          "type": "bytes32"
        },
        {
          "internalType": "bytes32",
          "name": "location",
          "type": "bytes32"
        }
      ],
      "name": "addDataOwner",
      "outputs": [],
      "stateMutability": "nonpayable",
      "type": "function"
    },
    {
      "inputs": [
        {
          "internalType": "address",
          "name": "requesterAddress",
          "type": "address"
        },
        {
          "internalType": "bytes32",
          "name": "organisation",
          "type": "bytes32"
        },
        {
          "internalType": "bytes32",
          "name": "department",
          "type": "bytes32"
        },
        {
          "internalType": "bytes32",
          "name": "designation",
          "type": "bytes32"
        }
      ],
      "name": "addDataRequester",
      "outputs": [],
      "stateMutability": "nonpayable",
      "type": "function"
    },
    {
      "inputs": [
        {
          "internalType": "address",
          "name": "ownerAddress",
          "type": "address"
        }
      ],
      "name": "approveOwner",
      "outputs": [],
      "stateMutability": "nonpayable",
      "type": "function"
    },
    {
      "inputs": [
        {
          "internalType": "address",
          "name": "requesterAddress",
          "type": "address"
        }
      ],
      "name": "approveRequester",
      "outputs": [],
      "stateMutability": "nonpayable",
      "type": "function"
    },
    {
      "inputs": [
        {
          "internalType": "string",
          "name": "dataid",
          "type": "string"
        },
        {
          "internalType": "bytes",
          "name": "policies",
          "type": "bytes"
        }
      ],
      "name": "createPolicy",
      "outputs": [],
      "stateMutability": "nonpayable",
      "type": "function"
    },
    {
      "inputs": [],
      "name": "getAllUsers",
      "outputs": [
        {
          "components": [
            {
              "internalType": "address",
              "name": "userAddress",
              "type": "address"
            },
            {
              "internalType": "uint256",
              "name": "role",
              "type": "uint256"
            }
          ],
          "internalType": "struct Users.User[]",
          "name": "",
          "type": "tuple[]"
        }
      ],
      "stateMutability": "view",
      "type": "function"
    },
    {
      "inputs": [
        {
          "internalType": "address",
          "name": "ownerAddress",
          "type": "address"
        }
      ],
      "name": "getDataOwner",
      "outputs": [
        {
          "components": [
            {
              "internalType": "address",
              "name": "ownerAddress",
              "type": "address"
            },
            {
              "internalType": "bytes32",
              "name": "profession",
              "type": "bytes32"
            },
            {
              "internalType": "bytes32",
              "name": "location",
              "type": "bytes32"
            },
            {
              "internalType": "bool",
              "name": "approved",
              "type": "bool"
            }
          ],
          "internalType": "struct Users.Owner",
          "name": "",
          "type": "tuple"
        }
      ],
      "stateMutability": "view",
      "type": "function"
    },
    {
      "inputs": [
        {
          "internalType": "address",
          "name": "requesterAddress",
          "type": "address"
        }
      ],
      "name": "getDataRequester",
      "outputs": [
        {
          "components": [
            {
              "internalType": "address",
              "name": "requesterAddress",
              "type": "address"
            },
            {
              "internalType": "bytes32",
              "name": "organisation",
              "type": "bytes32"
            },
            {
              "internalType": "bytes32",
              "name": "department",
              "type": "bytes32"
            },
            {
              "internalType": "bytes32",
              "name": "designation",
              "type": "bytes32"
            },
            {
              "internalType": "bool",
              "name": "approved",
              "type": "bool"
            }
          ],
          "internalType": "struct Users.Requester",
          "name": "",
          "type": "tuple"
        }
      ],
      "stateMutability": "view",
      "type": "function"
    },
    {
      "inputs": [
        {
          "internalType": "string",
          "name": "dataid",
          "type": "string"
        }
      ],
      "name": "getPolicy",
      "outputs": [
        {
          "internalType": "bytes",
          "name": "",
          "type": "bytes"
        }
      ],
      "stateMutability": "view",
      "type": "function"
    },
    {
      "inputs": [],
      "name": "getSuperAdmin",
      "outputs": [
        {
          "internalType": "address",
          "name": "",
          "type": "address"
        }
      ],
      "stateMutability": "view",
      "type": "function"
    },
    {
      "inputs": [],
      "name": "superadmin",
      "outputs": [
        {
          "internalType": "address",
          "name": "",
          "type": "address"
        }
      ],
      "stateMutability": "view",
      "type": "function"
    },
    {
      "inputs": [
        {
          "internalType": "address",
          "name": "ownerAddress",
          "type": "address"
        },
        {
          "internalType": "bytes32",
          "name": "profession",
          "type": "bytes32"
        },
        {
          "internalType": "bytes32",
          "name": "location",
          "type": "bytes32"
        }
      ],
      "name": "updateDataOwner",
      "outputs": [],
      "stateMutability": "nonpayable",
      "type": "function"
    },
    {
      "inputs": [
        {
          "internalType": "address",
          "name": "requesterAddress",
          "type": "address"
        },
        {
          "internalType": "bytes32",
          "name": "organisation",
          "type": "bytes32"
        },
        {
          "internalType": "bytes32",
          "name": "department",
          "type": "bytes32"
        },
        {
          "internalType": "bytes32",
          "name": "designation",
          "type": "bytes32"
        }
      ],
      "name": "updateDataRequester",
      "outputs": [],
      "stateMutability": "nonpayable",
      "type": "function"
    }
  ],
  "bytecode": "0x60806040523480156200001157600080fd5b5060405162002684380380620026848339818101604052810190620000379190620001a0565b336000806101000a81548173ffffffffffffffffffffffffffffffffffffffff021916908373ffffffffffffffffffffffffffffffffffffffff1602179055506001604051806040016040528060008054906101000a900473ffffffffffffffffffffffffffffffffffffffff1673ffffffffffffffffffffffffffffffffffffffff1681526020016003815250908060018154018082558091505060019003906000526020600020906002020160009091909190915060008201518160000160006101000a81548173ffffffffffffffffffffffffffffffffffffffff021916908373ffffffffffffffffffffffffffffffffffffffff16021790555060208201518160010155505080600460006101000a81548173ffffffffffffffffffffffffffffffffffffffff021916908373ffffffffffffffffffffffffffffffffffffffff1602179055505062000225565b6000815190506200019a816200020b565b92915050565b600060208284031215620001b957620001b862000206565b5b6000620001c98482850162000189565b91505092915050565b6000620001df82620001e6565b9050919050565b600073ffffffffffffffffffffffffffffffffffffffff82169050919050565b600080fd5b6200021681620001d2565b81146200022257600080fd5b50565b61244f80620002356000396000f3fe608060405234801561001057600080fd5b50600436106100cf5760003560e01c806369146dea1161008c57806394231a011161006657806394231a01146101fc578063b648ee2d14610218578063e2842d7914610234578063f565d7b014610252576100cf565b806369146dea146101a65780638204c326146101c257806385099f6e146101e0576100cf565b80632ff409a5146100d45780633185d5af146100f05780633cbca9d41461010c5780635669c0581461012857806360dd5f901461015857806363d48aba14610188575b600080fd5b6100ee60048036038101906100e99190611af2565b610282565b005b61010a600480360381019061010591906119ef565b610453565b005b61012660048036038101906101219190611a42565b61086a565b005b610142600480360381019061013d91906119c2565b610ab0565b60405161014f9190612044565b60405180910390f35b610172600480360381019061016d9190611aa9565b610b98565b60405161017f9190611f67565b60405180910390f35b610190610c48565b60405161019d9190611e92565b60405180910390f35b6101c060048036038101906101bb9190611a42565b610c6c565b005b6101ca611096565b6040516101d79190611e92565b60405180910390f35b6101fa60048036038101906101f591906119c2565b6110bf565b005b610216600480360381019061021191906119ef565b6111ad565b005b610232600480360381019061022d91906119c2565b6113b7565b005b61023c6114a5565b6040516102499190611f45565b60405180910390f35b61026c600480360381019061026791906119c2565b611564565b6040516102799190612029565b60405180910390f35b338073ffffffffffffffffffffffffffffffffffffffff16600460009054906101000a900473ffffffffffffffffffffffffffffffffffffffff1673ffffffffffffffffffffffffffffffffffffffff1663f565d7b0836040518263ffffffff1660e01b81526004016102f59190611e92565b60806040518083038186803b15801561030d57600080fd5b505afa158015610321573d6000803e3d6000fd5b505050506040513d601f19601f820116820180604052508101906103459190611b6a565b6000015173ffffffffffffffffffffffffffffffffffffffff161461039f576040517f08c379a000000000000000000000000000000000000000000000000000000000815260040161039690611f89565b60405180910390fd5b816005846040516103b09190611e7b565b908152602001604051809103902090805190602001906103d1929190611642565b5060066040518060400160405280858152602001848152509080600181540180825580915050600190039060005260206000209060020201600090919091909150600082015181600001908051906020019061042e9291906116c8565b50602082015181600101908051906020019061044b929190611642565b505050505050565b82600073ffffffffffffffffffffffffffffffffffffffff16600260008373ffffffffffffffffffffffffffffffffffffffff1673ffffffffffffffffffffffffffffffffffffffff16815260200190815260200160002060000160009054906101000a900473ffffffffffffffffffffffffffffffffffffffff1673ffffffffffffffffffffffffffffffffffffffff1614610525576040517f08c379a000000000000000000000000000000000000000000000000000000000815260040161051c90611fa9565b60405180910390fd5b600073ffffffffffffffffffffffffffffffffffffffff16600360008373ffffffffffffffffffffffffffffffffffffffff1673ffffffffffffffffffffffffffffffffffffffff16815260200190815260200160002060000160009054906101000a900473ffffffffffffffffffffffffffffffffffffffff1673ffffffffffffffffffffffffffffffffffffffff16146105f6576040517f08c379a00000000000000000000000000000000000000000000000000000000081526004016105ed90611fa9565b60405180910390fd5b60008054906101000a900473ffffffffffffffffffffffffffffffffffffffff1673ffffffffffffffffffffffffffffffffffffffff168173ffffffffffffffffffffffffffffffffffffffff161415610685576040517f08c379a000000000000000000000000000000000000000000000000000000000815260040161067c90611fe9565b60405180910390fd5b60405180608001604052808573ffffffffffffffffffffffffffffffffffffffff16815260200184815260200183815260200160001515815250600260008673ffffffffffffffffffffffffffffffffffffffff1673ffffffffffffffffffffffffffffffffffffffff16815260200190815260200160002060008201518160000160006101000a81548173ffffffffffffffffffffffffffffffffffffffff021916908373ffffffffffffffffffffffffffffffffffffffff160217905550602082015181600101556040820151816002015560608201518160030160006101000a81548160ff021916908315150217905550905050600160405180604001604052808673ffffffffffffffffffffffffffffffffffffffff1681526020016001815250908060018154018082558091505060019003906000526020600020906002020160009091909190915060008201518160000160006101000a81548173ffffffffffffffffffffffffffffffffffffffff021916908373ffffffffffffffffffffffffffffffffffffffff1602179055506020820151816001015550507f9a5c03ed86a31061c8fb061b17872c118b5d9a2bc06ae9c21010519f2b462716848484600060405161085c9493929190611ead565b60405180910390a150505050565b3373ffffffffffffffffffffffffffffffffffffffff16600360008673ffffffffffffffffffffffffffffffffffffffff1673ffffffffffffffffffffffffffffffffffffffff16815260200190815260200160002060000160009054906101000a900473ffffffffffffffffffffffffffffffffffffffff1673ffffffffffffffffffffffffffffffffffffffff161461093a576040517f08c379a000000000000000000000000000000000000000000000000000000000815260040161093190612009565b60405180910390fd5b82600360008673ffffffffffffffffffffffffffffffffffffffff1673ffffffffffffffffffffffffffffffffffffffff1681526020019081526020016000206001018190555081600360008673ffffffffffffffffffffffffffffffffffffffff1673ffffffffffffffffffffffffffffffffffffffff1681526020019081526020016000206002018190555080600360008673ffffffffffffffffffffffffffffffffffffffff1673ffffffffffffffffffffffffffffffffffffffff168152602001908152602001600020600301819055506000600360008673ffffffffffffffffffffffffffffffffffffffff1673ffffffffffffffffffffffffffffffffffffffff16815260200190815260200160002060040160006101000a81548160ff0219169083151502179055507f01a7125faedbb1c78d014d708a9503a9c7c19c7ea7dfc67d7edaa9bdd15f897c848484846000604051610aa2959493929190611ef2565b60405180910390a150505050565b610ab861174e565b600360008373ffffffffffffffffffffffffffffffffffffffff1673ffffffffffffffffffffffffffffffffffffffff1681526020019081526020016000206040518060a00160405290816000820160009054906101000a900473ffffffffffffffffffffffffffffffffffffffff1673ffffffffffffffffffffffffffffffffffffffff1673ffffffffffffffffffffffffffffffffffffffff1681526020016001820154815260200160028201548152602001600382015481526020016004820160009054906101000a900460ff1615151515815250509050919050565b6060600582604051610baa9190611e7b565b90815260200160405180910390208054610bc3906121f6565b80601f0160208091040260200160405190810160405280929190818152602001828054610bef906121f6565b8015610c3c5780601f10610c1157610100808354040283529160200191610c3c565b820191906000526020600020905b815481529060010190602001808311610c1f57829003601f168201915b50505050509050919050565b60008054906101000a900473ffffffffffffffffffffffffffffffffffffffff1681565b83600073ffffffffffffffffffffffffffffffffffffffff16600260008373ffffffffffffffffffffffffffffffffffffffff1673ffffffffffffffffffffffffffffffffffffffff16815260200190815260200160002060000160009054906101000a900473ffffffffffffffffffffffffffffffffffffffff1673ffffffffffffffffffffffffffffffffffffffff1614610d3e576040517f08c379a0000000000000000000000000000000000000000000000000000000008152600401610d3590611fa9565b60405180910390fd5b600073ffffffffffffffffffffffffffffffffffffffff16600360008373ffffffffffffffffffffffffffffffffffffffff1673ffffffffffffffffffffffffffffffffffffffff16815260200190815260200160002060000160009054906101000a900473ffffffffffffffffffffffffffffffffffffffff1673ffffffffffffffffffffffffffffffffffffffff1614610e0f576040517f08c379a0000000000000000000000000000000000000000000000000000000008152600401610e0690611fa9565b60405180910390fd5b60008054906101000a900473ffffffffffffffffffffffffffffffffffffffff1673ffffffffffffffffffffffffffffffffffffffff168173ffffffffffffffffffffffffffffffffffffffff161415610e9e576040517f08c379a0000000000000000000000000000000000000000000000000000000008152600401610e9590611fe9565b60405180910390fd5b6040518060a001604052808673ffffffffffffffffffffffffffffffffffffffff16815260200185815260200184815260200183815260200160001515815250600360008773ffffffffffffffffffffffffffffffffffffffff1673ffffffffffffffffffffffffffffffffffffffff16815260200190815260200160002060008201518160000160006101000a81548173ffffffffffffffffffffffffffffffffffffffff021916908373ffffffffffffffffffffffffffffffffffffffff16021790555060208201518160010155604082015181600201556060820151816003015560808201518160040160006101000a81548160ff021916908315150217905550905050600160405180604001604052808773ffffffffffffffffffffffffffffffffffffffff1681526020016002815250908060018154018082558091505060019003906000526020600020906002020160009091909190915060008201518160000160006101000a81548173ffffffffffffffffffffffffffffffffffffffff021916908373ffffffffffffffffffffffffffffffffffffffff1602179055506020820151816001015550507f64a3b601a8956496945ec082053c49dacb526b26466a0848e0db79d3760b4fa3858585856000604051611087959493929190611ef2565b60405180910390a15050505050565b60008060009054906101000a900473ffffffffffffffffffffffffffffffffffffffff16905090565b3360008054906101000a900473ffffffffffffffffffffffffffffffffffffffff1673ffffffffffffffffffffffffffffffffffffffff168173ffffffffffffffffffffffffffffffffffffffff161461114e576040517f08c379a000000000000000000000000000000000000000000000000000000000815260040161114590611fc9565b60405180910390fd5b6001600360008473ffffffffffffffffffffffffffffffffffffffff1673ffffffffffffffffffffffffffffffffffffffff16815260200190815260200160002060040160006101000a81548160ff0219169083151502179055505050565b3373ffffffffffffffffffffffffffffffffffffffff16600260008573ffffffffffffffffffffffffffffffffffffffff1673ffffffffffffffffffffffffffffffffffffffff16815260200190815260200160002060000160009054906101000a900473ffffffffffffffffffffffffffffffffffffffff1673ffffffffffffffffffffffffffffffffffffffff161461127d576040517f08c379a000000000000000000000000000000000000000000000000000000000815260040161127490612009565b60405180910390fd5b60405180608001604052808473ffffffffffffffffffffffffffffffffffffffff16815260200183815260200182815260200160001515815250600260008573ffffffffffffffffffffffffffffffffffffffff1673ffffffffffffffffffffffffffffffffffffffff16815260200190815260200160002060008201518160000160006101000a81548173ffffffffffffffffffffffffffffffffffffffff021916908373ffffffffffffffffffffffffffffffffffffffff160217905550602082015181600101556040820151816002015560608201518160030160006101000a81548160ff0219169083151502179055509050507fabc0938dcc8823bebe7fccc24a381077379cad909e1f06bf32a384a8d7c8d2d083838360006040516113aa9493929190611ead565b60405180910390a1505050565b3360008054906101000a900473ffffffffffffffffffffffffffffffffffffffff1673ffffffffffffffffffffffffffffffffffffffff168173ffffffffffffffffffffffffffffffffffffffff1614611446576040517f08c379a000000000000000000000000000000000000000000000000000000000815260040161143d90611fc9565b60405180910390fd5b6001600260008473ffffffffffffffffffffffffffffffffffffffff1673ffffffffffffffffffffffffffffffffffffffff16815260200190815260200160002060030160006101000a81548160ff0219169083151502179055505050565b60606001805480602002602001604051908101604052809291908181526020016000905b8282101561155b57838290600052602060002090600202016040518060400160405290816000820160009054906101000a900473ffffffffffffffffffffffffffffffffffffffff1673ffffffffffffffffffffffffffffffffffffffff1673ffffffffffffffffffffffffffffffffffffffff168152602001600182015481525050815260200190600101906114c9565b50505050905090565b61156c61179e565b600260008373ffffffffffffffffffffffffffffffffffffffff1673ffffffffffffffffffffffffffffffffffffffff1681526020019081526020016000206040518060800160405290816000820160009054906101000a900473ffffffffffffffffffffffffffffffffffffffff1673ffffffffffffffffffffffffffffffffffffffff1673ffffffffffffffffffffffffffffffffffffffff16815260200160018201548152602001600282015481526020016003820160009054906101000a900460ff1615151515815250509050919050565b82805461164e906121f6565b90600052602060002090601f01602090048101928261167057600085556116b7565b82601f1061168957805160ff19168380011785556116b7565b828001600101855582156116b7579182015b828111156116b657825182559160200191906001019061169b565b5b5090506116c491906117e4565b5090565b8280546116d4906121f6565b90600052602060002090601f0160209004810192826116f6576000855561173d565b82601f1061170f57805160ff191683800117855561173d565b8280016001018555821561173d579182015b8281111561173c578251825591602001919060010190611721565b5b50905061174a91906117e4565b5090565b6040518060a00160405280600073ffffffffffffffffffffffffffffffffffffffff1681526020016000801916815260200160008019168152602001600080191681526020016000151581525090565b6040518060800160405280600073ffffffffffffffffffffffffffffffffffffffff16815260200160008019168152602001600080191681526020016000151581525090565b5b808211156117fd5760008160009055506001016117e5565b5090565b600061181461180f84612084565b61205f565b9050828152602081018484840111156118305761182f6122c1565b5b61183b8482856121b4565b509392505050565b6000611856611851846120b5565b61205f565b905082815260208101848484011115611872576118716122c1565b5b61187d8482856121b4565b509392505050565b600081359050611894816123d4565b92915050565b6000815190506118a9816123d4565b92915050565b6000815190506118be816123eb565b92915050565b6000813590506118d381612402565b92915050565b6000815190506118e881612402565b92915050565b600082601f830112611903576119026122b7565b5b8135611913848260208601611801565b91505092915050565b600082601f830112611931576119306122b7565b5b8135611941848260208601611843565b91505092915050565b6000608082840312156119605761195f6122bc565b5b61196a608061205f565b9050600061197a8482850161189a565b600083015250602061198e848285016118d9565b60208301525060406119a2848285016118d9565b60408301525060606119b6848285016118af565b60608301525092915050565b6000602082840312156119d8576119d76122cb565b5b60006119e684828501611885565b91505092915050565b600080600060608486031215611a0857611a076122cb565b5b6000611a1686828701611885565b9350506020611a27868287016118c4565b9250506040611a38868287016118c4565b9150509250925092565b60008060008060808587031215611a5c57611a5b6122cb565b5b6000611a6a87828801611885565b9450506020611a7b878288016118c4565b9350506040611a8c878288016118c4565b9250506060611a9d878288016118c4565b91505092959194509250565b600060208284031215611abf57611abe6122cb565b5b600082013567ffffffffffffffff811115611add57611adc6122c6565b5b611ae98482850161191c565b91505092915050565b60008060408385031215611b0957611b086122cb565b5b600083013567ffffffffffffffff811115611b2757611b266122c6565b5b611b338582860161191c565b925050602083013567ffffffffffffffff811115611b5457611b536122c6565b5b611b60858286016118ee565b9150509250929050565b600060808284031215611b8057611b7f6122cb565b5b6000611b8e8482850161194a565b91505092915050565b6000611ba38383611e3d565b60408301905092915050565b611bb881612162565b82525050565b611bc781612162565b82525050565b6000611bd8826120f6565b611be28185612124565b9350611bed836120e6565b8060005b83811015611c1e578151611c058882611b97565b9750611c1083612117565b925050600181019050611bf1565b5085935050505092915050565b611c3481612174565b82525050565b611c4381612174565b82525050565b611c5281612180565b82525050565b611c6181612180565b82525050565b6000611c7282612101565b611c7c8185612135565b9350611c8c8185602086016121c3565b611c95816122d0565b840191505092915050565b6000611cab8261210c565b611cb58185612157565b9350611cc58185602086016121c3565b80840191505092915050565b6000611cde600e83612146565b9150611ce9826122e1565b602082019050919050565b6000611d01601383612146565b9150611d0c8261230a565b602082019050919050565b6000611d24602283612146565b9150611d2f82612333565b604082019050919050565b6000611d47600c83612146565b9150611d5282612382565b602082019050919050565b6000611d6a601683612146565b9150611d75826123ab565b602082019050919050565b608082016000820151611d966000850182611baf565b506020820151611da96020850182611c49565b506040820151611dbc6040850182611c49565b506060820151611dcf6060850182611c2b565b50505050565b60a082016000820151611deb6000850182611baf565b506020820151611dfe6020850182611c49565b506040820151611e116040850182611c49565b506060820151611e246060850182611c49565b506080820151611e376080850182611c2b565b50505050565b604082016000820151611e536000850182611baf565b506020820151611e666020850182611e6c565b50505050565b611e75816121aa565b82525050565b6000611e878284611ca0565b915081905092915050565b6000602082019050611ea76000830184611bbe565b92915050565b6000608082019050611ec26000830187611bbe565b611ecf6020830186611c58565b611edc6040830185611c58565b611ee96060830184611c3a565b95945050505050565b600060a082019050611f076000830188611bbe565b611f146020830187611c58565b611f216040830186611c58565b611f2e6060830185611c58565b611f3b6080830184611c3a565b9695505050505050565b60006020820190508181036000830152611f5f8184611bcd565b905092915050565b60006020820190508181036000830152611f818184611c67565b905092915050565b60006020820190508181036000830152611fa281611cd1565b9050919050565b60006020820190508181036000830152611fc281611cf4565b9050919050565b60006020820190508181036000830152611fe281611d17565b9050919050565b6000602082019050818103600083015261200281611d3a565b9050919050565b6000602082019050818103600083015261202281611d5d565b9050919050565b600060808201905061203e6000830184611d80565b92915050565b600060a0820190506120596000830184611dd5565b92915050565b600061206961207a565b90506120758282612228565b919050565b6000604051905090565b600067ffffffffffffffff82111561209f5761209e612288565b5b6120a8826122d0565b9050602081019050919050565b600067ffffffffffffffff8211156120d0576120cf612288565b5b6120d9826122d0565b9050602081019050919050565b6000819050602082019050919050565b600081519050919050565b600081519050919050565b600081519050919050565b6000602082019050919050565b600082825260208201905092915050565b600082825260208201905092915050565b600082825260208201905092915050565b600081905092915050565b600061216d8261218a565b9050919050565b60008115159050919050565b6000819050919050565b600073ffffffffffffffffffffffffffffffffffffffff82169050919050565b6000819050919050565b82818337600083830152505050565b60005b838110156121e15780820151818401526020810190506121c6565b838111156121f0576000848401525b50505050565b6000600282049050600182168061220e57607f821691505b6020821081141561222257612221612259565b5b50919050565b612231826122d0565b810181811067ffffffffffffffff821117156122505761224f612288565b5b80604052505050565b7f4e487b7100000000000000000000000000000000000000000000000000000000600052602260045260246000fd5b7f4e487b7100000000000000000000000000000000000000000000000000000000600052604160045260246000fd5b600080fd5b600080fd5b600080fd5b600080fd5b600080fd5b6000601f19601f8301169050919050565b7f496e76616c696420616374696f6e000000000000000000000000000000000000600082015250565b7f5573657220616c72656164792065786973747300000000000000000000000000600082015250565b7f4f6e6c792073757065722061646d696e2063616e20617070726f76652075736560008201527f7273000000000000000000000000000000000000000000000000000000000000602082015250565b7f496e76616c696420757365720000000000000000000000000000000000000000600082015250565b7f496e76616c69642075736572206f7065726174696f6e00000000000000000000600082015250565b6123dd81612162565b81146123e857600080fd5b50565b6123f481612174565b81146123ff57600080fd5b50565b61240b81612180565b811461241657600080fd5b5056fea2646970667358221220bab934f442751cf9fd72afe96291083d7ecc34f5cb11261fb2dec7846eadd70264736f6c63430008060033",
  "linkReferences": {},
  "deployedLinkReferences": {}
}