{
  "_format": "hh-sol-artifact-1",
  "contractName": "Policies",
  "sourceName": "contracts/Policies.sol",
  "abi": [
    {
      "inputs": [
        {
          "internalType": "address",
          "name": "userContractAddress",
          "type": "address"
        }
      ],
      "stateMutability": "nonpayable",
      "type": "constructor"
    },
    {
      "anonymous": false,
      "inputs": [
        {
          "indexed": false,
          "internalType": "address",
          "name": "userAddress",
          "type": "address"
        },
        {
          "indexed": false,
          "internalType": "uint256",
          "name": "userType",
          "type": "uint256"
        },
        {
          "indexed": false,
          "internalType": "bool",
          "name": "approved",
          "type": "bool"
        }
      ],
      "name": "UserUpdated",
      "type": "event"
    },
    {
      "inputs": [
        {
          "internalType": "bytes32",
          "name": "category",
          "type": "bytes32"
        }
      ],
      "name": "addCategory",
      "outputs": [],
      "stateMutability": "nonpayable",
      "type": "function"
    },
    {
      "inputs": [
        {
          "internalType": "address",
          "name": "ownerAddress",
          "type": "address"
        },
        {
          "internalType": "bytes32",
          "name": "profession",
          "type": "bytes32"
        },
        {
          "internalType": "bytes32",
          "name": "location",
          "type": "bytes32"
        }
      ],
      "name": "addDataOwner",
      "outputs": [],
      "stateMutability": "nonpayable",
      "type": "function"
    },
    {
      "inputs": [
        {
          "internalType": "address",
          "name": "requesterAddress",
          "type": "address"
        },
        {
          "internalType": "bytes32",
          "name": "organisation",
          "type": "bytes32"
        },
        {
          "internalType": "bytes32",
          "name": "department",
          "type": "bytes32"
        },
        {
          "internalType": "bytes32",
          "name": "designation",
          "type": "bytes32"
        },
        {
          "internalType": "bytes",
          "name": "publicKey",
          "type": "bytes"
        }
      ],
      "name": "addDataRequester",
      "outputs": [],
      "stateMutability": "nonpayable",
      "type": "function"
    },
    {
      "inputs": [
        {
          "internalType": "address",
          "name": "ownerAddress",
          "type": "address"
        }
      ],
      "name": "approveOwner",
      "outputs": [],
      "stateMutability": "nonpayable",
      "type": "function"
    },
    {
      "inputs": [
        {
          "internalType": "address",
          "name": "requesterAddress",
          "type": "address"
        }
      ],
      "name": "approveRequester",
      "outputs": [],
      "stateMutability": "nonpayable",
      "type": "function"
    },
    {
      "inputs": [
        {
          "internalType": "string",
          "name": "dataid",
          "type": "string"
        },
        {
          "internalType": "bytes",
          "name": "policies",
          "type": "bytes"
        }
      ],
      "name": "createPolicy",
      "outputs": [],
      "stateMutability": "nonpayable",
      "type": "function"
    },
    {
      "inputs": [],
      "name": "getAllCategories",
      "outputs": [
        {
          "internalType": "bytes32[]",
          "name": "",
          "type": "bytes32[]"
        }
      ],
      "stateMutability": "view",
      "type": "function"
    },
    {
      "inputs": [],
      "name": "getAllUsers",
      "outputs": [
        {
          "components": [
            {
              "internalType": "address",
              "name": "userAddress",
              "type": "address"
            },
            {
              "internalType": "uint256",
              "name": "userType",
              "type": "uint256"
            },
            {
              "internalType": "bool",
              "name": "approved",
              "type": "bool"
            }
          ],
          "internalType": "struct Users.UsersMinimal[]",
          "name": "",
          "type": "tuple[]"
        }
      ],
      "stateMutability": "view",
      "type": "function"
    },
    {
      "inputs": [
        {
          "internalType": "address",
          "name": "ownerAddress",
          "type": "address"
        }
      ],
      "name": "getDataOwner",
      "outputs": [
        {
          "components": [
            {
              "internalType": "address",
              "name": "ownerAddress",
              "type": "address"
            },
            {
              "internalType": "bytes32",
              "name": "profession",
              "type": "bytes32"
            },
            {
              "internalType": "bytes32",
              "name": "location",
              "type": "bytes32"
            },
            {
              "internalType": "bool",
              "name": "approved",
              "type": "bool"
            }
          ],
          "internalType": "struct Users.Owner",
          "name": "",
          "type": "tuple"
        }
      ],
      "stateMutability": "view",
      "type": "function"
    },
    {
      "inputs": [
        {
          "internalType": "address",
          "name": "requesterAddress",
          "type": "address"
        }
      ],
      "name": "getDataRequester",
      "outputs": [
        {
          "components": [
            {
              "internalType": "address",
              "name": "requesterAddress",
              "type": "address"
            },
            {
              "internalType": "bytes32",
              "name": "organisation",
              "type": "bytes32"
            },
            {
              "internalType": "bytes32",
              "name": "department",
              "type": "bytes32"
            },
            {
              "internalType": "bytes32",
              "name": "designation",
              "type": "bytes32"
            },
            {
              "internalType": "bool",
              "name": "approved",
              "type": "bool"
            }
          ],
          "internalType": "struct Users.Requester",
          "name": "",
          "type": "tuple"
        }
      ],
      "stateMutability": "view",
      "type": "function"
    },
    {
      "inputs": [
        {
          "internalType": "string",
          "name": "dataid",
          "type": "string"
        }
      ],
      "name": "getPolicy",
      "outputs": [
        {
          "internalType": "bytes",
          "name": "",
          "type": "bytes"
        }
      ],
      "stateMutability": "view",
      "type": "function"
    },
    {
      "inputs": [
        {
          "internalType": "address",
          "name": "requesterAddress",
          "type": "address"
        }
      ],
      "name": "getPublicKey",
      "outputs": [
        {
          "internalType": "bytes",
          "name": "",
          "type": "bytes"
        }
      ],
      "stateMutability": "view",
      "type": "function"
    },
    {
      "inputs": [],
      "name": "getSuperAdmin",
      "outputs": [
        {
          "internalType": "address",
          "name": "",
          "type": "address"
        }
      ],
      "stateMutability": "view",
      "type": "function"
    },
    {
      "inputs": [
        {
          "internalType": "address",
          "name": "userAddress",
          "type": "address"
        }
      ],
      "name": "getUserRole",
      "outputs": [
        {
          "internalType": "uint256",
          "name": "",
          "type": "uint256"
        }
      ],
      "stateMutability": "view",
      "type": "function"
    },
    {
      "inputs": [
        {
          "internalType": "address",
          "name": "",
          "type": "address"
        }
      ],
      "name": "owners",
      "outputs": [
        {
          "internalType": "address",
          "name": "ownerAddress",
          "type": "address"
        },
        {
          "internalType": "bytes32",
          "name": "profession",
          "type": "bytes32"
        },
        {
          "internalType": "bytes32",
          "name": "location",
          "type": "bytes32"
        },
        {
          "internalType": "bool",
          "name": "approved",
          "type": "bool"
        }
      ],
      "stateMutability": "view",
      "type": "function"
    },
    {
      "inputs": [
        {
          "internalType": "address",
          "name": "",
          "type": "address"
        }
      ],
      "name": "requesterToPublicKey",
      "outputs": [
        {
          "internalType": "bytes",
          "name": "",
          "type": "bytes"
        }
      ],
      "stateMutability": "view",
      "type": "function"
    },
    {
      "inputs": [
        {
          "internalType": "address",
          "name": "",
          "type": "address"
        }
      ],
      "name": "requesters",
      "outputs": [
        {
          "internalType": "address",
          "name": "requesterAddress",
          "type": "address"
        },
        {
          "internalType": "bytes32",
          "name": "organisation",
          "type": "bytes32"
        },
        {
          "internalType": "bytes32",
          "name": "department",
          "type": "bytes32"
        },
        {
          "internalType": "bytes32",
          "name": "designation",
          "type": "bytes32"
        },
        {
          "internalType": "bool",
          "name": "approved",
          "type": "bool"
        }
      ],
      "stateMutability": "view",
      "type": "function"
    },
    {
      "inputs": [],
      "name": "superadmin",
      "outputs": [
        {
          "internalType": "address",
          "name": "",
          "type": "address"
        }
      ],
      "stateMutability": "view",
      "type": "function"
    },
    {
      "inputs": [
        {
          "internalType": "address",
          "name": "ownerAddress",
          "type": "address"
        },
        {
          "internalType": "bytes32",
          "name": "profession",
          "type": "bytes32"
        },
        {
          "internalType": "bytes32",
          "name": "location",
          "type": "bytes32"
        }
      ],
      "name": "updateDataOwner",
      "outputs": [],
      "stateMutability": "nonpayable",
      "type": "function"
    },
    {
      "inputs": [
        {
          "internalType": "address",
          "name": "requesterAddress",
          "type": "address"
        },
        {
          "internalType": "bytes32",
          "name": "organisation",
          "type": "bytes32"
        },
        {
          "internalType": "bytes32",
          "name": "department",
          "type": "bytes32"
        },
        {
          "internalType": "bytes32",
          "name": "designation",
          "type": "bytes32"
        }
      ],
      "name": "updateDataRequester",
      "outputs": [],
      "stateMutability": "nonpayable",
      "type": "function"
    },
    {
      "inputs": [
        {
          "internalType": "address",
          "name": "",
          "type": "address"
        }
      ],
      "name": "userIndexToUpdate",
      "outputs": [
        {
          "internalType": "uint256",
          "name": "",
          "type": "uint256"
        }
      ],
      "stateMutability": "view",
      "type": "function"
    },
    {
      "inputs": [
        {
          "internalType": "address",
          "name": "",
          "type": "address"
        }
      ],
      "name": "userToRole",
      "outputs": [
        {
          "internalType": "uint256",
          "name": "",
          "type": "uint256"
        }
      ],
      "stateMutability": "view",
      "type": "function"
    }
  ],
  "bytecode": "0x60806040523480156200001157600080fd5b50604051620035513803806200355183398181016040528101906200003791906200011b565b336000806101000a81548173ffffffffffffffffffffffffffffffffffffffff021916908373ffffffffffffffffffffffffffffffffffffffff1602179055506003600560003373ffffffffffffffffffffffffffffffffffffffff1673ffffffffffffffffffffffffffffffffffffffff1681526020019081526020016000208190555080600860006101000a81548173ffffffffffffffffffffffffffffffffffffffff021916908373ffffffffffffffffffffffffffffffffffffffff16021790555050620001a0565b600081519050620001158162000186565b92915050565b60006020828403121562000134576200013362000181565b5b6000620001448482850162000104565b91505092915050565b60006200015a8262000161565b9050919050565b600073ffffffffffffffffffffffffffffffffffffffff82169050919050565b600080fd5b62000191816200014d565b81146200019d57600080fd5b50565b6133a180620001b06000396000f3fe608060405234801561001057600080fd5b50600436106101425760003560e01c806360dd5f90116100b857806394231a011161007c57806394231a01146103ae578063b648ee2d146103ca578063d6f8307f146103e6578063dadd0a571461041a578063e2842d7914610438578063f565d7b01461045657610142565b806360dd5f90146102f657806363d48aba146103265780638204c3261461034457806385099f6e14610362578063857cdbb81461037e57610142565b8063278208511161010a57806327820851146102265780632ff409a5146102565780633185d5af146102725780633cabc73e1461028e5780633cbca9d4146102aa5780635669c058146102c657610142565b8063022914a7146101475780630cd12a2f1461017a5780631a70b681146101aa5780631d4ff14e146101c65780631e2b7e26146101f6575b600080fd5b610161600480360381019061015c9190612600565b610486565b6040516101719493929190612c65565b60405180910390f35b610194600480360381019061018f9190612600565b6104e3565b6040516101a19190612ea7565b60405180910390f35b6101c460048036038101906101bf919061277e565b6104fb565b005b6101e060048036038101906101db9190612600565b6105b7565b6040516101ed9190612ea7565b60405180910390f35b610210600480360381019061020b9190612600565b6105cf565b60405161021d9190612daf565b60405180910390f35b610240600480360381019061023b9190612600565b61066f565b60405161024d9190612ea7565b60405180910390f35b610270600480360381019061026b91906127f4565b6106b8565b005b61028c6004803603810190610287919061262d565b610889565b005b6102a860048036038101906102a391906126e7565b610d61565b005b6102c460048036038101906102bf9190612680565b61129f565b005b6102e060048036038101906102db9190612600565b6115c9565b6040516102ed9190612e8c565b60405180910390f35b610310600480360381019061030b91906127ab565b6116b1565b60405161031d9190612daf565b60405180910390f35b61032e611761565b60405161033b9190612c4a565b60405180910390f35b61034c611785565b6040516103599190612c4a565b60405180910390f35b61037c60048036038101906103779190612600565b6117ae565b005b61039860048036038101906103939190612600565b6119e9565b6040516103a59190612daf565b60405180910390f35b6103c860048036038101906103c3919061262d565b611aba565b005b6103e460048036038101906103df9190612600565b611dd3565b005b61040060048036038101906103fb9190612600565b61200d565b604051610411959493929190612caa565b60405180910390f35b610422612070565b60405161042f9190612d6b565b60405180910390f35b6104406120c8565b60405161044d9190612d8d565b60405180910390f35b610470600480360381019061046b9190612600565b6121a2565b60405161047d9190612e71565b60405180910390f35b60036020528060005260406000206000915090508060000160009054906101000a900473ffffffffffffffffffffffffffffffffffffffff16908060010154908060020154908060030160009054906101000a900460ff16905084565b60056020528060005260406000206000915090505481565b3360008054906101000a900473ffffffffffffffffffffffffffffffffffffffff1673ffffffffffffffffffffffffffffffffffffffff168173ffffffffffffffffffffffffffffffffffffffff161461058a576040517f08c379a000000000000000000000000000000000000000000000000000000000815260040161058190612e11565b60405180910390fd5b60028290806001815401808255809150506001900390600052602060002001600090919091909150555050565b60076020528060005260406000206000915090505481565b600660205280600052604060002060009150905080546105ee906130ea565b80601f016020809104026020016040519081016040528092919081815260200182805461061a906130ea565b80156106675780601f1061063c57610100808354040283529160200191610667565b820191906000526020600020905b81548152906001019060200180831161064a57829003601f168201915b505050505081565b6000600560008373ffffffffffffffffffffffffffffffffffffffff1673ffffffffffffffffffffffffffffffffffffffff168152602001908152602001600020549050919050565b338073ffffffffffffffffffffffffffffffffffffffff16600860009054906101000a900473ffffffffffffffffffffffffffffffffffffffff1673ffffffffffffffffffffffffffffffffffffffff1663f565d7b0836040518263ffffffff1660e01b815260040161072b9190612c4a565b60806040518083038186803b15801561074357600080fd5b505afa158015610757573d6000803e3d6000fd5b505050506040513d601f19601f8201168201806040525081019061077b919061286c565b6000015173ffffffffffffffffffffffffffffffffffffffff16146107d5576040517f08c379a00000000000000000000000000000000000000000000000000000000081526004016107cc90612dd1565b60405180910390fd5b816009846040516107e69190612c33565b90815260200160405180910390209080519060200190610807929190612280565b50600a60405180604001604052808581526020018481525090806001815401808255809150506001900390600052602060002090600202016000909190919091506000820151816000019080519060200190610864929190612306565b506020820151816001019080519060200190610881929190612280565b505050505050565b82600073ffffffffffffffffffffffffffffffffffffffff16600360008373ffffffffffffffffffffffffffffffffffffffff1673ffffffffffffffffffffffffffffffffffffffff16815260200190815260200160002060000160009054906101000a900473ffffffffffffffffffffffffffffffffffffffff1673ffffffffffffffffffffffffffffffffffffffff161461095b576040517f08c379a000000000000000000000000000000000000000000000000000000000815260040161095290612df1565b60405180910390fd5b600073ffffffffffffffffffffffffffffffffffffffff16600460008373ffffffffffffffffffffffffffffffffffffffff1673ffffffffffffffffffffffffffffffffffffffff16815260200190815260200160002060000160009054906101000a900473ffffffffffffffffffffffffffffffffffffffff1673ffffffffffffffffffffffffffffffffffffffff1614610a2c576040517f08c379a0000000000000000000000000000000000000000000000000000000008152600401610a2390612df1565b60405180910390fd5b60008054906101000a900473ffffffffffffffffffffffffffffffffffffffff1673ffffffffffffffffffffffffffffffffffffffff168173ffffffffffffffffffffffffffffffffffffffff161415610abb576040517f08c379a0000000000000000000000000000000000000000000000000000000008152600401610ab290612e31565b60405180910390fd5b60405180608001604052808573ffffffffffffffffffffffffffffffffffffffff16815260200184815260200183815260200160001515815250600360008673ffffffffffffffffffffffffffffffffffffffff1673ffffffffffffffffffffffffffffffffffffffff16815260200190815260200160002060008201518160000160006101000a81548173ffffffffffffffffffffffffffffffffffffffff021916908373ffffffffffffffffffffffffffffffffffffffff160217905550602082015181600101556040820151816002015560608201518160030160006101000a81548160ff0219169083151502179055509050506001600560008673ffffffffffffffffffffffffffffffffffffffff1673ffffffffffffffffffffffffffffffffffffffff16815260200190815260200160002081905550600160405180606001604052808673ffffffffffffffffffffffffffffffffffffffff1681526020016001815260200160001515815250908060018154018082558091505060019003906000526020600020906003020160009091909190915060008201518160000160006101000a81548173ffffffffffffffffffffffffffffffffffffffff021916908373ffffffffffffffffffffffffffffffffffffffff1602179055506020820151816001015560408201518160020160006101000a81548160ff021916908315150217905550505060018080549050610cdb9190612ffe565b600760008673ffffffffffffffffffffffffffffffffffffffff1673ffffffffffffffffffffffffffffffffffffffff168152602001908152602001600020819055507fe1391f1b21fd22d5c006ee81fe95aa900304333bd7a829642d9042a2395c27f88460016000604051610d5393929190612cfd565b60405180910390a150505050565b84600073ffffffffffffffffffffffffffffffffffffffff16600360008373ffffffffffffffffffffffffffffffffffffffff1673ffffffffffffffffffffffffffffffffffffffff16815260200190815260200160002060000160009054906101000a900473ffffffffffffffffffffffffffffffffffffffff1673ffffffffffffffffffffffffffffffffffffffff1614610e33576040517f08c379a0000000000000000000000000000000000000000000000000000000008152600401610e2a90612df1565b60405180910390fd5b600073ffffffffffffffffffffffffffffffffffffffff16600460008373ffffffffffffffffffffffffffffffffffffffff1673ffffffffffffffffffffffffffffffffffffffff16815260200190815260200160002060000160009054906101000a900473ffffffffffffffffffffffffffffffffffffffff1673ffffffffffffffffffffffffffffffffffffffff1614610f04576040517f08c379a0000000000000000000000000000000000000000000000000000000008152600401610efb90612df1565b60405180910390fd5b60008054906101000a900473ffffffffffffffffffffffffffffffffffffffff1673ffffffffffffffffffffffffffffffffffffffff168173ffffffffffffffffffffffffffffffffffffffff161415610f93576040517f08c379a0000000000000000000000000000000000000000000000000000000008152600401610f8a90612e31565b60405180910390fd5b6040518060a001604052808773ffffffffffffffffffffffffffffffffffffffff16815260200186815260200185815260200184815260200160001515815250600460008873ffffffffffffffffffffffffffffffffffffffff1673ffffffffffffffffffffffffffffffffffffffff16815260200190815260200160002060008201518160000160006101000a81548173ffffffffffffffffffffffffffffffffffffffff021916908373ffffffffffffffffffffffffffffffffffffffff16021790555060208201518160010155604082015181600201556060820151816003015560808201518160040160006101000a81548160ff0219169083151502179055509050506002600560008873ffffffffffffffffffffffffffffffffffffffff1673ffffffffffffffffffffffffffffffffffffffff1681526020019081526020016000208190555081600660008873ffffffffffffffffffffffffffffffffffffffff1673ffffffffffffffffffffffffffffffffffffffff1681526020019081526020016000209080519060200190611132929190612280565b50600160405180606001604052808873ffffffffffffffffffffffffffffffffffffffff1681526020016002815260200160001515815250908060018154018082558091505060019003906000526020600020906003020160009091909190915060008201518160000160006101000a81548173ffffffffffffffffffffffffffffffffffffffff021916908373ffffffffffffffffffffffffffffffffffffffff1602179055506020820151816001015560408201518160020160006101000a81548160ff0219169083151502179055505050600180805490506112179190612ffe565b600760008873ffffffffffffffffffffffffffffffffffffffff1673ffffffffffffffffffffffffffffffffffffffff168152602001908152602001600020819055507fe1391f1b21fd22d5c006ee81fe95aa900304333bd7a829642d9042a2395c27f8866002600060405161128f93929190612d34565b60405180910390a1505050505050565b3373ffffffffffffffffffffffffffffffffffffffff16600460008673ffffffffffffffffffffffffffffffffffffffff1673ffffffffffffffffffffffffffffffffffffffff16815260200190815260200160002060000160009054906101000a900473ffffffffffffffffffffffffffffffffffffffff1673ffffffffffffffffffffffffffffffffffffffff161461136f576040517f08c379a000000000000000000000000000000000000000000000000000000000815260040161136690612e51565b60405180910390fd5b6040518060a001604052808573ffffffffffffffffffffffffffffffffffffffff16815260200184815260200183815260200182815260200160001515815250600460008673ffffffffffffffffffffffffffffffffffffffff1673ffffffffffffffffffffffffffffffffffffffff16815260200190815260200160002060008201518160000160006101000a81548173ffffffffffffffffffffffffffffffffffffffff021916908373ffffffffffffffffffffffffffffffffffffffff16021790555060208201518160010155604082015181600201556060820151816003015560808201518160040160006101000a81548160ff0219169083151502179055509050506000600760008673ffffffffffffffffffffffffffffffffffffffff1673ffffffffffffffffffffffffffffffffffffffff16815260200190815260200160002054905060405180606001604052808673ffffffffffffffffffffffffffffffffffffffff168152602001600281526020016000151581525060018281548110611503576115026131ab565b5b906000526020600020906003020160008201518160000160006101000a81548173ffffffffffffffffffffffffffffffffffffffff021916908373ffffffffffffffffffffffffffffffffffffffff1602179055506020820151816001015560408201518160020160006101000a81548160ff0219169083151502179055509050507fe1391f1b21fd22d5c006ee81fe95aa900304333bd7a829642d9042a2395c27f885600260006040516115ba93929190612d34565b60405180910390a15050505050565b6115d161238c565b600460008373ffffffffffffffffffffffffffffffffffffffff1673ffffffffffffffffffffffffffffffffffffffff1681526020019081526020016000206040518060a00160405290816000820160009054906101000a900473ffffffffffffffffffffffffffffffffffffffff1673ffffffffffffffffffffffffffffffffffffffff1673ffffffffffffffffffffffffffffffffffffffff1681526020016001820154815260200160028201548152602001600382015481526020016004820160009054906101000a900460ff1615151515815250509050919050565b60606009826040516116c39190612c33565b908152602001604051809103902080546116dc906130ea565b80601f0160208091040260200160405190810160405280929190818152602001828054611708906130ea565b80156117555780601f1061172a57610100808354040283529160200191611755565b820191906000526020600020905b81548152906001019060200180831161173857829003601f168201915b50505050509050919050565b60008054906101000a900473ffffffffffffffffffffffffffffffffffffffff1681565b60008060009054906101000a900473ffffffffffffffffffffffffffffffffffffffff16905090565b3360008054906101000a900473ffffffffffffffffffffffffffffffffffffffff1673ffffffffffffffffffffffffffffffffffffffff168173ffffffffffffffffffffffffffffffffffffffff161461183d576040517f08c379a000000000000000000000000000000000000000000000000000000000815260040161183490612e11565b60405180910390fd5b6001600460008473ffffffffffffffffffffffffffffffffffffffff1673ffffffffffffffffffffffffffffffffffffffff16815260200190815260200160002060040160006101000a81548160ff0219169083151502179055506000600760008473ffffffffffffffffffffffffffffffffffffffff1673ffffffffffffffffffffffffffffffffffffffff16815260200190815260200160002054905060405180606001604052808473ffffffffffffffffffffffffffffffffffffffff168152602001600281526020016001151581525060018281548110611925576119246131ab565b5b906000526020600020906003020160008201518160000160006101000a81548173ffffffffffffffffffffffffffffffffffffffff021916908373ffffffffffffffffffffffffffffffffffffffff1602179055506020820151816001015560408201518160020160006101000a81548160ff0219169083151502179055509050507fe1391f1b21fd22d5c006ee81fe95aa900304333bd7a829642d9042a2395c27f883600260016040516119dc93929190612d34565b60405180910390a1505050565b6060600660008373ffffffffffffffffffffffffffffffffffffffff1673ffffffffffffffffffffffffffffffffffffffff1681526020019081526020016000208054611a35906130ea565b80601f0160208091040260200160405190810160405280929190818152602001828054611a61906130ea565b8015611aae5780601f10611a8357610100808354040283529160200191611aae565b820191906000526020600020905b815481529060010190602001808311611a9157829003601f168201915b50505050509050919050565b3373ffffffffffffffffffffffffffffffffffffffff16600360008573ffffffffffffffffffffffffffffffffffffffff1673ffffffffffffffffffffffffffffffffffffffff16815260200190815260200160002060000160009054906101000a900473ffffffffffffffffffffffffffffffffffffffff1673ffffffffffffffffffffffffffffffffffffffff1614611b8a576040517f08c379a0000000000000000000000000000000000000000000000000000000008152600401611b8190612e51565b60405180910390fd5b60405180608001604052808473ffffffffffffffffffffffffffffffffffffffff16815260200183815260200182815260200160001515815250600360008573ffffffffffffffffffffffffffffffffffffffff1673ffffffffffffffffffffffffffffffffffffffff16815260200190815260200160002060008201518160000160006101000a81548173ffffffffffffffffffffffffffffffffffffffff021916908373ffffffffffffffffffffffffffffffffffffffff160217905550602082015181600101556040820151816002015560608201518160030160006101000a81548160ff0219169083151502179055509050506000600760008573ffffffffffffffffffffffffffffffffffffffff1673ffffffffffffffffffffffffffffffffffffffff16815260200190815260200160002054905060405180606001604052808573ffffffffffffffffffffffffffffffffffffffff168152602001600181526020016000151581525060018281548110611d0e57611d0d6131ab565b5b906000526020600020906003020160008201518160000160006101000a81548173ffffffffffffffffffffffffffffffffffffffff021916908373ffffffffffffffffffffffffffffffffffffffff1602179055506020820151816001015560408201518160020160006101000a81548160ff0219169083151502179055509050507fe1391f1b21fd22d5c006ee81fe95aa900304333bd7a829642d9042a2395c27f88460016000604051611dc593929190612cfd565b60405180910390a150505050565b3360008054906101000a900473ffffffffffffffffffffffffffffffffffffffff1673ffffffffffffffffffffffffffffffffffffffff168173ffffffffffffffffffffffffffffffffffffffff1614611e62576040517f08c379a0000000000000000000000000000000000000000000000000000000008152600401611e5990612e11565b60405180910390fd5b6001600360008473ffffffffffffffffffffffffffffffffffffffff1673ffffffffffffffffffffffffffffffffffffffff16815260200190815260200160002060030160006101000a81548160ff0219169083151502179055506000600760008473ffffffffffffffffffffffffffffffffffffffff1673ffffffffffffffffffffffffffffffffffffffff16815260200190815260200160002054905060405180606001604052808473ffffffffffffffffffffffffffffffffffffffff168152602001600181526020016001151581525060018281548110611f4a57611f496131ab565b5b906000526020600020906003020160008201518160000160006101000a81548173ffffffffffffffffffffffffffffffffffffffff021916908373ffffffffffffffffffffffffffffffffffffffff1602179055506020820151816001015560408201518160020160006101000a81548160ff0219169083151502179055509050507fe1391f1b21fd22d5c006ee81fe95aa900304333bd7a829642d9042a2395c27f88360018060405161200093929190612cfd565b60405180910390a1505050565b60046020528060005260406000206000915090508060000160009054906101000a900473ffffffffffffffffffffffffffffffffffffffff16908060010154908060020154908060030154908060040160009054906101000a900460ff16905085565b606060028054806020026020016040519081016040528092919081815260200182805480156120be57602002820191906000526020600020905b8154815260200190600101908083116120aa575b5050505050905090565b60606001805480602002602001604051908101604052809291908181526020016000905b8282101561219957838290600052602060002090600302016040518060600160405290816000820160009054906101000a900473ffffffffffffffffffffffffffffffffffffffff1673ffffffffffffffffffffffffffffffffffffffff1673ffffffffffffffffffffffffffffffffffffffff168152602001600182015481526020016002820160009054906101000a900460ff161515151581525050815260200190600101906120ec565b50505050905090565b6121aa6123dc565b600360008373ffffffffffffffffffffffffffffffffffffffff1673ffffffffffffffffffffffffffffffffffffffff1681526020019081526020016000206040518060800160405290816000820160009054906101000a900473ffffffffffffffffffffffffffffffffffffffff1673ffffffffffffffffffffffffffffffffffffffff1673ffffffffffffffffffffffffffffffffffffffff16815260200160018201548152602001600282015481526020016003820160009054906101000a900460ff1615151515815250509050919050565b82805461228c906130ea565b90600052602060002090601f0160209004810192826122ae57600085556122f5565b82601f106122c757805160ff19168380011785556122f5565b828001600101855582156122f5579182015b828111156122f45782518255916020019190600101906122d9565b5b5090506123029190612422565b5090565b828054612312906130ea565b90600052602060002090601f016020900481019282612334576000855561237b565b82601f1061234d57805160ff191683800117855561237b565b8280016001018555821561237b579182015b8281111561237a57825182559160200191906001019061235f565b5b5090506123889190612422565b5090565b6040518060a00160405280600073ffffffffffffffffffffffffffffffffffffffff1681526020016000801916815260200160008019168152602001600080191681526020016000151581525090565b6040518060800160405280600073ffffffffffffffffffffffffffffffffffffffff16815260200160008019168152602001600080191681526020016000151581525090565b5b8082111561243b576000816000905550600101612423565b5090565b600061245261244d84612ee7565b612ec2565b90508281526020810184848401111561246e5761246d613213565b5b6124798482856130a8565b509392505050565b600061249461248f84612f18565b612ec2565b9050828152602081018484840111156124b0576124af613213565b5b6124bb8482856130a8565b509392505050565b6000813590506124d281613326565b92915050565b6000815190506124e781613326565b92915050565b6000815190506124fc8161333d565b92915050565b60008135905061251181613354565b92915050565b60008151905061252681613354565b92915050565b600082601f83011261254157612540613209565b5b813561255184826020860161243f565b91505092915050565b600082601f83011261256f5761256e613209565b5b813561257f848260208601612481565b91505092915050565b60006080828403121561259e5761259d61320e565b5b6125a86080612ec2565b905060006125b8848285016124d8565b60008301525060206125cc84828501612517565b60208301525060406125e084828501612517565b60408301525060606125f4848285016124ed565b60608301525092915050565b6000602082840312156126165761261561321d565b5b6000612624848285016124c3565b91505092915050565b6000806000606084860312156126465761264561321d565b5b6000612654868287016124c3565b935050602061266586828701612502565b925050604061267686828701612502565b9150509250925092565b6000806000806080858703121561269a5761269961321d565b5b60006126a8878288016124c3565b94505060206126b987828801612502565b93505060406126ca87828801612502565b92505060606126db87828801612502565b91505092959194509250565b600080600080600060a086880312156127035761270261321d565b5b6000612711888289016124c3565b955050602061272288828901612502565b945050604061273388828901612502565b935050606061274488828901612502565b925050608086013567ffffffffffffffff81111561276557612764613218565b5b6127718882890161252c565b9150509295509295909350565b6000602082840312156127945761279361321d565b5b60006127a284828501612502565b91505092915050565b6000602082840312156127c1576127c061321d565b5b600082013567ffffffffffffffff8111156127df576127de613218565b5b6127eb8482850161255a565b91505092915050565b6000806040838503121561280b5761280a61321d565b5b600083013567ffffffffffffffff81111561282957612828613218565b5b6128358582860161255a565b925050602083013567ffffffffffffffff81111561285657612855613218565b5b6128628582860161252c565b9150509250929050565b6000608082840312156128825761288161321d565b5b600061289084828501612588565b91505092915050565b60006128a583836129c1565b60208301905092915050565b60006128bd8383612bd3565b60608301905092915050565b6128d281613032565b82525050565b6128e181613032565b82525050565b60006128f282612f69565b6128fc8185612faf565b935061290783612f49565b8060005b8381101561293857815161291f8882612899565b975061292a83612f95565b92505060018101905061290b565b5085935050505092915050565b600061295082612f74565b61295a8185612fc0565b935061296583612f59565b8060005b8381101561299657815161297d88826128b1565b975061298883612fa2565b925050600181019050612969565b5085935050505092915050565b6129ac81613044565b82525050565b6129bb81613044565b82525050565b6129ca81613050565b82525050565b6129d981613050565b82525050565b60006129ea82612f7f565b6129f48185612fd1565b9350612a048185602086016130b7565b612a0d81613222565b840191505092915050565b612a2181613084565b82525050565b612a3081613096565b82525050565b6000612a4182612f8a565b612a4b8185612ff3565b9350612a5b8185602086016130b7565b80840191505092915050565b6000612a74600e83612fe2565b9150612a7f82613233565b602082019050919050565b6000612a97601383612fe2565b9150612aa28261325c565b602082019050919050565b6000612aba602283612fe2565b9150612ac582613285565b604082019050919050565b6000612add600c83612fe2565b9150612ae8826132d4565b602082019050919050565b6000612b00601683612fe2565b9150612b0b826132fd565b602082019050919050565b608082016000820151612b2c60008501826128c9565b506020820151612b3f60208501826129c1565b506040820151612b5260408501826129c1565b506060820151612b6560608501826129a3565b50505050565b60a082016000820151612b8160008501826128c9565b506020820151612b9460208501826129c1565b506040820151612ba760408501826129c1565b506060820151612bba60608501826129c1565b506080820151612bcd60808501826129a3565b50505050565b606082016000820151612be960008501826128c9565b506020820151612bfc6020850182612c15565b506040820151612c0f60408501826129a3565b50505050565b612c1e8161307a565b82525050565b612c2d8161307a565b82525050565b6000612c3f8284612a36565b915081905092915050565b6000602082019050612c5f60008301846128d8565b92915050565b6000608082019050612c7a60008301876128d8565b612c8760208301866129d0565b612c9460408301856129d0565b612ca160608301846129b2565b95945050505050565b600060a082019050612cbf60008301886128d8565b612ccc60208301876129d0565b612cd960408301866129d0565b612ce660608301856129d0565b612cf360808301846129b2565b9695505050505050565b6000606082019050612d1260008301866128d8565b612d1f6020830185612a18565b612d2c60408301846129b2565b949350505050565b6000606082019050612d4960008301866128d8565b612d566020830185612a27565b612d6360408301846129b2565b949350505050565b60006020820190508181036000830152612d8581846128e7565b905092915050565b60006020820190508181036000830152612da78184612945565b905092915050565b60006020820190508181036000830152612dc981846129df565b905092915050565b60006020820190508181036000830152612dea81612a67565b9050919050565b60006020820190508181036000830152612e0a81612a8a565b9050919050565b60006020820190508181036000830152612e2a81612aad565b9050919050565b60006020820190508181036000830152612e4a81612ad0565b9050919050565b60006020820190508181036000830152612e6a81612af3565b9050919050565b6000608082019050612e866000830184612b16565b92915050565b600060a082019050612ea16000830184612b6b565b92915050565b6000602082019050612ebc6000830184612c24565b92915050565b6000612ecc612edd565b9050612ed8828261311c565b919050565b6000604051905090565b600067ffffffffffffffff821115612f0257612f016131da565b5b612f0b82613222565b9050602081019050919050565b600067ffffffffffffffff821115612f3357612f326131da565b5b612f3c82613222565b9050602081019050919050565b6000819050602082019050919050565b6000819050602082019050919050565b600081519050919050565b600081519050919050565b600081519050919050565b600081519050919050565b6000602082019050919050565b6000602082019050919050565b600082825260208201905092915050565b600082825260208201905092915050565b600082825260208201905092915050565b600082825260208201905092915050565b600081905092915050565b60006130098261307a565b91506130148361307a565b9250828210156130275761302661314d565b5b828203905092915050565b600061303d8261305a565b9050919050565b60008115159050919050565b6000819050919050565b600073ffffffffffffffffffffffffffffffffffffffff82169050919050565b6000819050919050565b600061308f8261307a565b9050919050565b60006130a18261307a565b9050919050565b82818337600083830152505050565b60005b838110156130d55780820151818401526020810190506130ba565b838111156130e4576000848401525b50505050565b6000600282049050600182168061310257607f821691505b602082108114156131165761311561317c565b5b50919050565b61312582613222565b810181811067ffffffffffffffff82111715613144576131436131da565b5b80604052505050565b7f4e487b7100000000000000000000000000000000000000000000000000000000600052601160045260246000fd5b7f4e487b7100000000000000000000000000000000000000000000000000000000600052602260045260246000fd5b7f4e487b7100000000000000000000000000000000000000000000000000000000600052603260045260246000fd5b7f4e487b7100000000000000000000000000000000000000000000000000000000600052604160045260246000fd5b600080fd5b600080fd5b600080fd5b600080fd5b600080fd5b6000601f19601f8301169050919050565b7f496e76616c696420616374696f6e000000000000000000000000000000000000600082015250565b7f5573657220616c72656164792065786973747300000000000000000000000000600082015250565b7f4f6e6c792073757065722061646d696e2063616e20617070726f76652075736560008201527f7273000000000000000000000000000000000000000000000000000000000000602082015250565b7f496e76616c696420757365720000000000000000000000000000000000000000600082015250565b7f496e76616c69642075736572206f7065726174696f6e00000000000000000000600082015250565b61332f81613032565b811461333a57600080fd5b50565b61334681613044565b811461335157600080fd5b50565b61335d81613050565b811461336857600080fd5b5056fea2646970667358221220ede4aacaf0b1929d3dfd3dd2002b4a936f7b6f4679496499ec4f4de7eda9126564736f6c63430008070033",
  "linkReferences": {},
  "deployedLinkReferences": {}
}