{
  "_format": "hh-sol-artifact-1",
  "contractName": "Policies",
  "sourceName": "contracts/Policies.sol",
  "abi": [
    {
      "inputs": [
        {
          "internalType": "bytes32",
          "name": "dataid",
          "type": "bytes32"
        },
        {
          "internalType": "bytes32",
          "name": "policies",
          "type": "bytes32"
        }
      ],
      "name": "createPolicy",
      "outputs": [],
      "stateMutability": "nonpayable",
      "type": "function"
    },
    {
      "inputs": [
        {
          "internalType": "bytes32",
          "name": "dataid",
          "type": "bytes32"
        }
      ],
      "name": "getPolicy",
      "outputs": [
        {
          "internalType": "bytes32",
          "name": "",
          "type": "bytes32"
        }
      ],
      "stateMutability": "view",
      "type": "function"
    },
    {
      "inputs": [
        {
          "internalType": "bytes32",
          "name": "dataid",
          "type": "bytes32"
        },
        {
          "internalType": "bytes32",
          "name": "policies",
          "type": "bytes32"
        }
      ],
      "name": "updatePolicy",
      "outputs": [],
      "stateMutability": "nonpayable",
      "type": "function"
    }
  ],
  "bytecode": "0x608060405234801561001057600080fd5b506103af806100206000396000f3fe608060405234801561001057600080fd5b50600436106100415760003560e01c80638b35da92146100465780638da7e12914610062578063a3f685f91461007e575b600080fd5b610060600480360381019061005b9190610238565b6100ae565b005b61007c60048036038101906100779190610238565b610169565b005b6100986004803603810190610093919061020b565b6101da565b6040516100a59190610287565b60405180910390f35b806000808481526020019081526020016000208190555060005b6001805490508110156101645782600182815481106100ea576100e961032e565b5b9060005260206000209060020201600001541415610151576040518060400160405280848152602001838152506001828154811061012b5761012a61032e565b5b906000526020600020906002020160008201518160000155602082015181600101559050505b808061015c906102b6565b9150506100c8565b505050565b806000808481526020019081526020016000208190555060016040518060400160405280848152602001838152509080600181540180825580915050600190039060005260206000209060020201600090919091909150600082015181600001556020820151816001015550505050565b6000806000838152602001908152602001600020549050919050565b60008135905061020581610362565b92915050565b6000602082840312156102215761022061035d565b5b600061022f848285016101f6565b91505092915050565b6000806040838503121561024f5761024e61035d565b5b600061025d858286016101f6565b925050602061026e858286016101f6565b9150509250929050565b610281816102a2565b82525050565b600060208201905061029c6000830184610278565b92915050565b6000819050919050565b6000819050919050565b60006102c1826102ac565b91507fffffffffffffffffffffffffffffffffffffffffffffffffffffffffffffffff8214156102f4576102f36102ff565b5b600182019050919050565b7f4e487b7100000000000000000000000000000000000000000000000000000000600052601160045260246000fd5b7f4e487b7100000000000000000000000000000000000000000000000000000000600052603260045260246000fd5b600080fd5b61036b816102a2565b811461037657600080fd5b5056fea26469706673582212205d1c9d776695185175e3d1951354febd80dfe551f27ac38d55a27cb7e64a5f5964736f6c63430008060033",
  "linkReferences": {},
  "deployedLinkReferences": {}
}