{
  "_format": "hh-sol-artifact-1",
  "contractName": "Users",
  "sourceName": "contracts/Users.sol",
  "abi": [
    {
      "inputs": [],
      "stateMutability": "nonpayable",
      "type": "constructor"
    },
    {
      "anonymous": false,
      "inputs": [
        {
          "indexed": false,
          "internalType": "address",
          "name": "userAddress",
          "type": "address"
        },
        {
          "indexed": false,
          "internalType": "uint256",
          "name": "userType",
          "type": "uint256"
        },
        {
          "indexed": false,
          "internalType": "bool",
          "name": "approved",
          "type": "bool"
        }
      ],
      "name": "UserUpdated",
      "type": "event"
    },
    {
      "inputs": [
        {
          "internalType": "bytes32",
          "name": "category",
          "type": "bytes32"
        }
      ],
      "name": "addCategory",
      "outputs": [],
      "stateMutability": "nonpayable",
      "type": "function"
    },
    {
      "inputs": [
        {
          "internalType": "address",
          "name": "ownerAddress",
          "type": "address"
        },
        {
          "internalType": "bytes32",
          "name": "profession",
          "type": "bytes32"
        },
        {
          "internalType": "bytes32",
          "name": "location",
          "type": "bytes32"
        }
      ],
      "name": "addDataOwner",
      "outputs": [],
      "stateMutability": "nonpayable",
      "type": "function"
    },
    {
      "inputs": [
        {
          "internalType": "address",
          "name": "requesterAddress",
          "type": "address"
        },
        {
          "internalType": "bytes32",
          "name": "organisation",
          "type": "bytes32"
        },
        {
          "internalType": "bytes32",
          "name": "department",
          "type": "bytes32"
        },
        {
          "internalType": "bytes32",
          "name": "designation",
          "type": "bytes32"
        },
        {
          "internalType": "bytes",
          "name": "publicKey",
          "type": "bytes"
        }
      ],
      "name": "addDataRequester",
      "outputs": [],
      "stateMutability": "nonpayable",
      "type": "function"
    },
    {
      "inputs": [
        {
          "internalType": "address",
          "name": "ownerAddress",
          "type": "address"
        }
      ],
      "name": "approveOwner",
      "outputs": [],
      "stateMutability": "nonpayable",
      "type": "function"
    },
    {
      "inputs": [
        {
          "internalType": "address",
          "name": "requesterAddress",
          "type": "address"
        }
      ],
      "name": "approveRequester",
      "outputs": [],
      "stateMutability": "nonpayable",
      "type": "function"
    },
    {
      "inputs": [],
      "name": "getAllCategories",
      "outputs": [
        {
          "internalType": "bytes32[]",
          "name": "",
          "type": "bytes32[]"
        }
      ],
      "stateMutability": "view",
      "type": "function"
    },
    {
      "inputs": [],
      "name": "getAllUsers",
      "outputs": [
        {
          "components": [
            {
              "internalType": "address",
              "name": "userAddress",
              "type": "address"
            },
            {
              "internalType": "uint256",
              "name": "userType",
              "type": "uint256"
            },
            {
              "internalType": "bool",
              "name": "approved",
              "type": "bool"
            }
          ],
          "internalType": "struct Users.UsersMinimal[]",
          "name": "",
          "type": "tuple[]"
        }
      ],
      "stateMutability": "view",
      "type": "function"
    },
    {
      "inputs": [
        {
          "internalType": "address",
          "name": "ownerAddress",
          "type": "address"
        }
      ],
      "name": "getDataOwner",
      "outputs": [
        {
          "components": [
            {
              "internalType": "address",
              "name": "ownerAddress",
              "type": "address"
            },
            {
              "internalType": "bytes32",
              "name": "profession",
              "type": "bytes32"
            },
            {
              "internalType": "bytes32",
              "name": "location",
              "type": "bytes32"
            },
            {
              "internalType": "bool",
              "name": "approved",
              "type": "bool"
            }
          ],
          "internalType": "struct Users.Owner",
          "name": "",
          "type": "tuple"
        }
      ],
      "stateMutability": "view",
      "type": "function"
    },
    {
      "inputs": [
        {
          "internalType": "address",
          "name": "requesterAddress",
          "type": "address"
        }
      ],
      "name": "getDataRequester",
      "outputs": [
        {
          "components": [
            {
              "internalType": "address",
              "name": "requesterAddress",
              "type": "address"
            },
            {
              "internalType": "bytes32",
              "name": "organisation",
              "type": "bytes32"
            },
            {
              "internalType": "bytes32",
              "name": "department",
              "type": "bytes32"
            },
            {
              "internalType": "bytes32",
              "name": "designation",
              "type": "bytes32"
            },
            {
              "internalType": "bool",
              "name": "approved",
              "type": "bool"
            }
          ],
          "internalType": "struct Users.Requester",
          "name": "",
          "type": "tuple"
        }
      ],
      "stateMutability": "view",
      "type": "function"
    },
    {
      "inputs": [
        {
          "internalType": "address",
          "name": "requesterAddress",
          "type": "address"
        }
      ],
      "name": "getPublicKey",
      "outputs": [
        {
          "internalType": "bytes",
          "name": "",
          "type": "bytes"
        }
      ],
      "stateMutability": "view",
      "type": "function"
    },
    {
      "inputs": [],
      "name": "getSuperAdmin",
      "outputs": [
        {
          "internalType": "address",
          "name": "",
          "type": "address"
        }
      ],
      "stateMutability": "view",
      "type": "function"
    },
    {
      "inputs": [
        {
          "internalType": "address",
          "name": "userAddress",
          "type": "address"
        }
      ],
      "name": "getUserRole",
      "outputs": [
        {
          "internalType": "uint256",
          "name": "",
          "type": "uint256"
        }
      ],
      "stateMutability": "view",
      "type": "function"
    },
    {
      "inputs": [
        {
          "internalType": "address",
          "name": "",
          "type": "address"
        }
      ],
      "name": "owners",
      "outputs": [
        {
          "internalType": "address",
          "name": "ownerAddress",
          "type": "address"
        },
        {
          "internalType": "bytes32",
          "name": "profession",
          "type": "bytes32"
        },
        {
          "internalType": "bytes32",
          "name": "location",
          "type": "bytes32"
        },
        {
          "internalType": "bool",
          "name": "approved",
          "type": "bool"
        }
      ],
      "stateMutability": "view",
      "type": "function"
    },
    {
      "inputs": [
        {
          "internalType": "address",
          "name": "",
          "type": "address"
        }
      ],
      "name": "requesterToPublicKey",
      "outputs": [
        {
          "internalType": "bytes",
          "name": "",
          "type": "bytes"
        }
      ],
      "stateMutability": "view",
      "type": "function"
    },
    {
      "inputs": [
        {
          "internalType": "address",
          "name": "",
          "type": "address"
        }
      ],
      "name": "requesters",
      "outputs": [
        {
          "internalType": "address",
          "name": "requesterAddress",
          "type": "address"
        },
        {
          "internalType": "bytes32",
          "name": "organisation",
          "type": "bytes32"
        },
        {
          "internalType": "bytes32",
          "name": "department",
          "type": "bytes32"
        },
        {
          "internalType": "bytes32",
          "name": "designation",
          "type": "bytes32"
        },
        {
          "internalType": "bool",
          "name": "approved",
          "type": "bool"
        }
      ],
      "stateMutability": "view",
      "type": "function"
    },
    {
      "inputs": [],
      "name": "superadmin",
      "outputs": [
        {
          "internalType": "address",
          "name": "",
          "type": "address"
        }
      ],
      "stateMutability": "view",
      "type": "function"
    },
    {
      "inputs": [
        {
          "internalType": "address",
          "name": "ownerAddress",
          "type": "address"
        },
        {
          "internalType": "bytes32",
          "name": "profession",
          "type": "bytes32"
        },
        {
          "internalType": "bytes32",
          "name": "location",
          "type": "bytes32"
        }
      ],
      "name": "updateDataOwner",
      "outputs": [],
      "stateMutability": "nonpayable",
      "type": "function"
    },
    {
      "inputs": [
        {
          "internalType": "address",
          "name": "requesterAddress",
          "type": "address"
        },
        {
          "internalType": "bytes32",
          "name": "organisation",
          "type": "bytes32"
        },
        {
          "internalType": "bytes32",
          "name": "department",
          "type": "bytes32"
        },
        {
          "internalType": "bytes32",
          "name": "designation",
          "type": "bytes32"
        }
      ],
      "name": "updateDataRequester",
      "outputs": [],
      "stateMutability": "nonpayable",
      "type": "function"
    },
    {
      "inputs": [
        {
          "internalType": "address",
          "name": "",
          "type": "address"
        }
      ],
      "name": "userIndexToUpdate",
      "outputs": [
        {
          "internalType": "uint256",
          "name": "",
          "type": "uint256"
        }
      ],
      "stateMutability": "view",
      "type": "function"
    },
    {
      "inputs": [
        {
          "internalType": "address",
          "name": "",
          "type": "address"
        }
      ],
      "name": "userToRole",
      "outputs": [
        {
          "internalType": "uint256",
          "name": "",
          "type": "uint256"
        }
      ],
      "stateMutability": "view",
      "type": "function"
    }
  ],
  "bytecode": "0x608060405234801561001057600080fd5b50336000806101000a81548173ffffffffffffffffffffffffffffffffffffffff021916908373ffffffffffffffffffffffffffffffffffffffff1602179055506003600560003373ffffffffffffffffffffffffffffffffffffffff1673ffffffffffffffffffffffffffffffffffffffff16815260200190815260200160002081905550612d0c806100a56000396000f3fe608060405234801561001057600080fd5b506004361061012c5760003560e01c806363d48aba116100ad578063b648ee2d11610071578063b648ee2d14610368578063d6f8307f14610384578063dadd0a57146103b8578063e2842d79146103d6578063f565d7b0146103f45761012c565b806363d48aba146102c45780638204c326146102e257806385099f6e14610300578063857cdbb81461031c57806394231a011461034c5761012c565b806327820851116100f457806327820851146102105780633185d5af146102405780633cabc73e1461025c5780633cbca9d4146102785780635669c058146102945761012c565b8063022914a7146101315780630cd12a2f146101645780631a70b681146101945780631d4ff14e146101b05780631e2b7e26146101e0575b600080fd5b61014b60048036038101906101469190612170565b610424565b60405161015b949392919061267c565b60405180910390f35b61017e60048036038101906101799190612170565b610481565b60405161018b919061289e565b60405180910390f35b6101ae60048036038101906101a991906122ee565b610499565b005b6101ca60048036038101906101c59190612170565b610555565b6040516101d7919061289e565b60405180910390f35b6101fa60048036038101906101f59190612170565b61056d565b60405161020791906127c6565b60405180910390f35b61022a60048036038101906102259190612170565b61060d565b604051610237919061289e565b60405180910390f35b61025a6004803603810190610255919061219d565b610656565b005b61027660048036038101906102719190612257565b610b2e565b005b610292600480360381019061028d91906121f0565b61106c565b005b6102ae60048036038101906102a99190612170565b611396565b6040516102bb9190612883565b60405180910390f35b6102cc61147e565b6040516102d99190612661565b60405180910390f35b6102ea6114a2565b6040516102f79190612661565b60405180910390f35b61031a60048036038101906103159190612170565b6114cb565b005b61033660048036038101906103319190612170565b611706565b60405161034391906127c6565b60405180910390f35b6103666004803603810190610361919061219d565b6117d7565b005b610382600480360381019061037d9190612170565b611af0565b005b61039e60048036038101906103999190612170565b611d2a565b6040516103af9594939291906126c1565b60405180910390f35b6103c0611d8d565b6040516103cd9190612782565b60405180910390f35b6103de611de5565b6040516103eb91906127a4565b60405180910390f35b61040e60048036038101906104099190612170565b611ebf565b60405161041b9190612868565b60405180910390f35b60036020528060005260406000206000915090508060000160009054906101000a900473ffffffffffffffffffffffffffffffffffffffff16908060010154908060020154908060030160009054906101000a900460ff16905084565b60056020528060005260406000206000915090505481565b3360008054906101000a900473ffffffffffffffffffffffffffffffffffffffff1673ffffffffffffffffffffffffffffffffffffffff168173ffffffffffffffffffffffffffffffffffffffff1614610528576040517f08c379a000000000000000000000000000000000000000000000000000000000815260040161051f90612808565b60405180910390fd5b60028290806001815401808255809150506001900390600052602060002001600090919091909150555050565b60076020528060005260406000206000915090505481565b6006602052806000526040600020600091509050805461058c90612a9a565b80601f01602080910402602001604051908101604052809291908181526020018280546105b890612a9a565b80156106055780601f106105da57610100808354040283529160200191610605565b820191906000526020600020905b8154815290600101906020018083116105e857829003601f168201915b505050505081565b6000600560008373ffffffffffffffffffffffffffffffffffffffff1673ffffffffffffffffffffffffffffffffffffffff168152602001908152602001600020549050919050565b82600073ffffffffffffffffffffffffffffffffffffffff16600360008373ffffffffffffffffffffffffffffffffffffffff1673ffffffffffffffffffffffffffffffffffffffff16815260200190815260200160002060000160009054906101000a900473ffffffffffffffffffffffffffffffffffffffff1673ffffffffffffffffffffffffffffffffffffffff1614610728576040517f08c379a000000000000000000000000000000000000000000000000000000000815260040161071f906127e8565b60405180910390fd5b600073ffffffffffffffffffffffffffffffffffffffff16600460008373ffffffffffffffffffffffffffffffffffffffff1673ffffffffffffffffffffffffffffffffffffffff16815260200190815260200160002060000160009054906101000a900473ffffffffffffffffffffffffffffffffffffffff1673ffffffffffffffffffffffffffffffffffffffff16146107f9576040517f08c379a00000000000000000000000000000000000000000000000000000000081526004016107f0906127e8565b60405180910390fd5b60008054906101000a900473ffffffffffffffffffffffffffffffffffffffff1673ffffffffffffffffffffffffffffffffffffffff168173ffffffffffffffffffffffffffffffffffffffff161415610888576040517f08c379a000000000000000000000000000000000000000000000000000000000815260040161087f90612828565b60405180910390fd5b60405180608001604052808573ffffffffffffffffffffffffffffffffffffffff16815260200184815260200183815260200160001515815250600360008673ffffffffffffffffffffffffffffffffffffffff1673ffffffffffffffffffffffffffffffffffffffff16815260200190815260200160002060008201518160000160006101000a81548173ffffffffffffffffffffffffffffffffffffffff021916908373ffffffffffffffffffffffffffffffffffffffff160217905550602082015181600101556040820151816002015560608201518160030160006101000a81548160ff0219169083151502179055509050506001600560008673ffffffffffffffffffffffffffffffffffffffff1673ffffffffffffffffffffffffffffffffffffffff16815260200190815260200160002081905550600160405180606001604052808673ffffffffffffffffffffffffffffffffffffffff1681526020016001815260200160001515815250908060018154018082558091505060019003906000526020600020906003020160009091909190915060008201518160000160006101000a81548173ffffffffffffffffffffffffffffffffffffffff021916908373ffffffffffffffffffffffffffffffffffffffff1602179055506020820151816001015560408201518160020160006101000a81548160ff021916908315150217905550505060018080549050610aa891906129ae565b600760008673ffffffffffffffffffffffffffffffffffffffff1673ffffffffffffffffffffffffffffffffffffffff168152602001908152602001600020819055507fe1391f1b21fd22d5c006ee81fe95aa900304333bd7a829642d9042a2395c27f88460016000604051610b2093929190612714565b60405180910390a150505050565b84600073ffffffffffffffffffffffffffffffffffffffff16600360008373ffffffffffffffffffffffffffffffffffffffff1673ffffffffffffffffffffffffffffffffffffffff16815260200190815260200160002060000160009054906101000a900473ffffffffffffffffffffffffffffffffffffffff1673ffffffffffffffffffffffffffffffffffffffff1614610c00576040517f08c379a0000000000000000000000000000000000000000000000000000000008152600401610bf7906127e8565b60405180910390fd5b600073ffffffffffffffffffffffffffffffffffffffff16600460008373ffffffffffffffffffffffffffffffffffffffff1673ffffffffffffffffffffffffffffffffffffffff16815260200190815260200160002060000160009054906101000a900473ffffffffffffffffffffffffffffffffffffffff1673ffffffffffffffffffffffffffffffffffffffff1614610cd1576040517f08c379a0000000000000000000000000000000000000000000000000000000008152600401610cc8906127e8565b60405180910390fd5b60008054906101000a900473ffffffffffffffffffffffffffffffffffffffff1673ffffffffffffffffffffffffffffffffffffffff168173ffffffffffffffffffffffffffffffffffffffff161415610d60576040517f08c379a0000000000000000000000000000000000000000000000000000000008152600401610d5790612828565b60405180910390fd5b6040518060a001604052808773ffffffffffffffffffffffffffffffffffffffff16815260200186815260200185815260200184815260200160001515815250600460008873ffffffffffffffffffffffffffffffffffffffff1673ffffffffffffffffffffffffffffffffffffffff16815260200190815260200160002060008201518160000160006101000a81548173ffffffffffffffffffffffffffffffffffffffff021916908373ffffffffffffffffffffffffffffffffffffffff16021790555060208201518160010155604082015181600201556060820151816003015560808201518160040160006101000a81548160ff0219169083151502179055509050506002600560008873ffffffffffffffffffffffffffffffffffffffff1673ffffffffffffffffffffffffffffffffffffffff1681526020019081526020016000208190555081600660008873ffffffffffffffffffffffffffffffffffffffff1673ffffffffffffffffffffffffffffffffffffffff1681526020019081526020016000209080519060200190610eff929190611f9d565b50600160405180606001604052808873ffffffffffffffffffffffffffffffffffffffff1681526020016002815260200160001515815250908060018154018082558091505060019003906000526020600020906003020160009091909190915060008201518160000160006101000a81548173ffffffffffffffffffffffffffffffffffffffff021916908373ffffffffffffffffffffffffffffffffffffffff1602179055506020820151816001015560408201518160020160006101000a81548160ff021916908315150217905550505060018080549050610fe491906129ae565b600760008873ffffffffffffffffffffffffffffffffffffffff1673ffffffffffffffffffffffffffffffffffffffff168152602001908152602001600020819055507fe1391f1b21fd22d5c006ee81fe95aa900304333bd7a829642d9042a2395c27f8866002600060405161105c9392919061274b565b60405180910390a1505050505050565b3373ffffffffffffffffffffffffffffffffffffffff16600460008673ffffffffffffffffffffffffffffffffffffffff1673ffffffffffffffffffffffffffffffffffffffff16815260200190815260200160002060000160009054906101000a900473ffffffffffffffffffffffffffffffffffffffff1673ffffffffffffffffffffffffffffffffffffffff161461113c576040517f08c379a000000000000000000000000000000000000000000000000000000000815260040161113390612848565b60405180910390fd5b6040518060a001604052808573ffffffffffffffffffffffffffffffffffffffff16815260200184815260200183815260200182815260200160001515815250600460008673ffffffffffffffffffffffffffffffffffffffff1673ffffffffffffffffffffffffffffffffffffffff16815260200190815260200160002060008201518160000160006101000a81548173ffffffffffffffffffffffffffffffffffffffff021916908373ffffffffffffffffffffffffffffffffffffffff16021790555060208201518160010155604082015181600201556060820151816003015560808201518160040160006101000a81548160ff0219169083151502179055509050506000600760008673ffffffffffffffffffffffffffffffffffffffff1673ffffffffffffffffffffffffffffffffffffffff16815260200190815260200160002054905060405180606001604052808673ffffffffffffffffffffffffffffffffffffffff1681526020016002815260200160001515815250600182815481106112d0576112cf612b5b565b5b906000526020600020906003020160008201518160000160006101000a81548173ffffffffffffffffffffffffffffffffffffffff021916908373ffffffffffffffffffffffffffffffffffffffff1602179055506020820151816001015560408201518160020160006101000a81548160ff0219169083151502179055509050507fe1391f1b21fd22d5c006ee81fe95aa900304333bd7a829642d9042a2395c27f885600260006040516113879392919061274b565b60405180910390a15050505050565b61139e612023565b600460008373ffffffffffffffffffffffffffffffffffffffff1673ffffffffffffffffffffffffffffffffffffffff1681526020019081526020016000206040518060a00160405290816000820160009054906101000a900473ffffffffffffffffffffffffffffffffffffffff1673ffffffffffffffffffffffffffffffffffffffff1673ffffffffffffffffffffffffffffffffffffffff1681526020016001820154815260200160028201548152602001600382015481526020016004820160009054906101000a900460ff1615151515815250509050919050565b60008054906101000a900473ffffffffffffffffffffffffffffffffffffffff1681565b60008060009054906101000a900473ffffffffffffffffffffffffffffffffffffffff16905090565b3360008054906101000a900473ffffffffffffffffffffffffffffffffffffffff1673ffffffffffffffffffffffffffffffffffffffff168173ffffffffffffffffffffffffffffffffffffffff161461155a576040517f08c379a000000000000000000000000000000000000000000000000000000000815260040161155190612808565b60405180910390fd5b6001600460008473ffffffffffffffffffffffffffffffffffffffff1673ffffffffffffffffffffffffffffffffffffffff16815260200190815260200160002060040160006101000a81548160ff0219169083151502179055506000600760008473ffffffffffffffffffffffffffffffffffffffff1673ffffffffffffffffffffffffffffffffffffffff16815260200190815260200160002054905060405180606001604052808473ffffffffffffffffffffffffffffffffffffffff16815260200160028152602001600115158152506001828154811061164257611641612b5b565b5b906000526020600020906003020160008201518160000160006101000a81548173ffffffffffffffffffffffffffffffffffffffff021916908373ffffffffffffffffffffffffffffffffffffffff1602179055506020820151816001015560408201518160020160006101000a81548160ff0219169083151502179055509050507fe1391f1b21fd22d5c006ee81fe95aa900304333bd7a829642d9042a2395c27f883600260016040516116f99392919061274b565b60405180910390a1505050565b6060600660008373ffffffffffffffffffffffffffffffffffffffff1673ffffffffffffffffffffffffffffffffffffffff168152602001908152602001600020805461175290612a9a565b80601f016020809104026020016040519081016040528092919081815260200182805461177e90612a9a565b80156117cb5780601f106117a0576101008083540402835291602001916117cb565b820191906000526020600020905b8154815290600101906020018083116117ae57829003601f168201915b50505050509050919050565b3373ffffffffffffffffffffffffffffffffffffffff16600360008573ffffffffffffffffffffffffffffffffffffffff1673ffffffffffffffffffffffffffffffffffffffff16815260200190815260200160002060000160009054906101000a900473ffffffffffffffffffffffffffffffffffffffff1673ffffffffffffffffffffffffffffffffffffffff16146118a7576040517f08c379a000000000000000000000000000000000000000000000000000000000815260040161189e90612848565b60405180910390fd5b60405180608001604052808473ffffffffffffffffffffffffffffffffffffffff16815260200183815260200182815260200160001515815250600360008573ffffffffffffffffffffffffffffffffffffffff1673ffffffffffffffffffffffffffffffffffffffff16815260200190815260200160002060008201518160000160006101000a81548173ffffffffffffffffffffffffffffffffffffffff021916908373ffffffffffffffffffffffffffffffffffffffff160217905550602082015181600101556040820151816002015560608201518160030160006101000a81548160ff0219169083151502179055509050506000600760008573ffffffffffffffffffffffffffffffffffffffff1673ffffffffffffffffffffffffffffffffffffffff16815260200190815260200160002054905060405180606001604052808573ffffffffffffffffffffffffffffffffffffffff168152602001600181526020016000151581525060018281548110611a2b57611a2a612b5b565b5b906000526020600020906003020160008201518160000160006101000a81548173ffffffffffffffffffffffffffffffffffffffff021916908373ffffffffffffffffffffffffffffffffffffffff1602179055506020820151816001015560408201518160020160006101000a81548160ff0219169083151502179055509050507fe1391f1b21fd22d5c006ee81fe95aa900304333bd7a829642d9042a2395c27f88460016000604051611ae293929190612714565b60405180910390a150505050565b3360008054906101000a900473ffffffffffffffffffffffffffffffffffffffff1673ffffffffffffffffffffffffffffffffffffffff168173ffffffffffffffffffffffffffffffffffffffff1614611b7f576040517f08c379a0000000000000000000000000000000000000000000000000000000008152600401611b7690612808565b60405180910390fd5b6001600360008473ffffffffffffffffffffffffffffffffffffffff1673ffffffffffffffffffffffffffffffffffffffff16815260200190815260200160002060030160006101000a81548160ff0219169083151502179055506000600760008473ffffffffffffffffffffffffffffffffffffffff1673ffffffffffffffffffffffffffffffffffffffff16815260200190815260200160002054905060405180606001604052808473ffffffffffffffffffffffffffffffffffffffff168152602001600181526020016001151581525060018281548110611c6757611c66612b5b565b5b906000526020600020906003020160008201518160000160006101000a81548173ffffffffffffffffffffffffffffffffffffffff021916908373ffffffffffffffffffffffffffffffffffffffff1602179055506020820151816001015560408201518160020160006101000a81548160ff0219169083151502179055509050507fe1391f1b21fd22d5c006ee81fe95aa900304333bd7a829642d9042a2395c27f883600180604051611d1d93929190612714565b60405180910390a1505050565b60046020528060005260406000206000915090508060000160009054906101000a900473ffffffffffffffffffffffffffffffffffffffff16908060010154908060020154908060030154908060040160009054906101000a900460ff16905085565b60606002805480602002602001604051908101604052809291908181526020018280548015611ddb57602002820191906000526020600020905b815481526020019060010190808311611dc7575b5050505050905090565b60606001805480602002602001604051908101604052809291908181526020016000905b82821015611eb657838290600052602060002090600302016040518060600160405290816000820160009054906101000a900473ffffffffffffffffffffffffffffffffffffffff1673ffffffffffffffffffffffffffffffffffffffff1673ffffffffffffffffffffffffffffffffffffffff168152602001600182015481526020016002820160009054906101000a900460ff16151515158152505081526020019060010190611e09565b50505050905090565b611ec7612073565b600360008373ffffffffffffffffffffffffffffffffffffffff1673ffffffffffffffffffffffffffffffffffffffff1681526020019081526020016000206040518060800160405290816000820160009054906101000a900473ffffffffffffffffffffffffffffffffffffffff1673ffffffffffffffffffffffffffffffffffffffff1673ffffffffffffffffffffffffffffffffffffffff16815260200160018201548152602001600282015481526020016003820160009054906101000a900460ff1615151515815250509050919050565b828054611fa990612a9a565b90600052602060002090601f016020900481019282611fcb5760008555612012565b82601f10611fe457805160ff1916838001178555612012565b82800160010185558215612012579182015b82811115612011578251825591602001919060010190611ff6565b5b50905061201f91906120b9565b5090565b6040518060a00160405280600073ffffffffffffffffffffffffffffffffffffffff1681526020016000801916815260200160008019168152602001600080191681526020016000151581525090565b6040518060800160405280600073ffffffffffffffffffffffffffffffffffffffff16815260200160008019168152602001600080191681526020016000151581525090565b5b808211156120d25760008160009055506001016120ba565b5090565b60006120e96120e4846128de565b6128b9565b90508281526020810184848401111561210557612104612bbe565b5b612110848285612a58565b509392505050565b60008135905061212781612ca8565b92915050565b60008135905061213c81612cbf565b92915050565b600082601f83011261215757612156612bb9565b5b81356121678482602086016120d6565b91505092915050565b60006020828403121561218657612185612bc8565b5b600061219484828501612118565b91505092915050565b6000806000606084860312156121b6576121b5612bc8565b5b60006121c486828701612118565b93505060206121d58682870161212d565b92505060406121e68682870161212d565b9150509250925092565b6000806000806080858703121561220a57612209612bc8565b5b600061221887828801612118565b94505060206122298782880161212d565b935050604061223a8782880161212d565b925050606061224b8782880161212d565b91505092959194509250565b600080600080600060a0868803121561227357612272612bc8565b5b600061228188828901612118565b95505060206122928882890161212d565b94505060406122a38882890161212d565b93505060606122b48882890161212d565b925050608086013567ffffffffffffffff8111156122d5576122d4612bc3565b5b6122e188828901612142565b9150509295509295909350565b60006020828403121561230457612303612bc8565b5b60006123128482850161212d565b91505092915050565b60006123278383612443565b60208301905092915050565b600061233f8383612601565b60608301905092915050565b612354816129e2565b82525050565b612363816129e2565b82525050565b60006123748261292f565b61237e818561296a565b93506123898361290f565b8060005b838110156123ba5781516123a1888261231b565b97506123ac83612950565b92505060018101905061238d565b5085935050505092915050565b60006123d28261293a565b6123dc818561297b565b93506123e78361291f565b8060005b838110156124185781516123ff8882612333565b975061240a8361295d565b9250506001810190506123eb565b5085935050505092915050565b61242e816129f4565b82525050565b61243d816129f4565b82525050565b61244c81612a00565b82525050565b61245b81612a00565b82525050565b600061246c82612945565b612476818561298c565b9350612486818560208601612a67565b61248f81612bcd565b840191505092915050565b6124a381612a34565b82525050565b6124b281612a46565b82525050565b60006124c560138361299d565b91506124d082612bde565b602082019050919050565b60006124e860228361299d565b91506124f382612c07565b604082019050919050565b600061250b600c8361299d565b915061251682612c56565b602082019050919050565b600061252e60168361299d565b915061253982612c7f565b602082019050919050565b60808201600082015161255a600085018261234b565b50602082015161256d6020850182612443565b5060408201516125806040850182612443565b5060608201516125936060850182612425565b50505050565b60a0820160008201516125af600085018261234b565b5060208201516125c26020850182612443565b5060408201516125d56040850182612443565b5060608201516125e86060850182612443565b5060808201516125fb6080850182612425565b50505050565b606082016000820151612617600085018261234b565b50602082015161262a6020850182612643565b50604082015161263d6040850182612425565b50505050565b61264c81612a2a565b82525050565b61265b81612a2a565b82525050565b6000602082019050612676600083018461235a565b92915050565b6000608082019050612691600083018761235a565b61269e6020830186612452565b6126ab6040830185612452565b6126b86060830184612434565b95945050505050565b600060a0820190506126d6600083018861235a565b6126e36020830187612452565b6126f06040830186612452565b6126fd6060830185612452565b61270a6080830184612434565b9695505050505050565b6000606082019050612729600083018661235a565b612736602083018561249a565b6127436040830184612434565b949350505050565b6000606082019050612760600083018661235a565b61276d60208301856124a9565b61277a6040830184612434565b949350505050565b6000602082019050818103600083015261279c8184612369565b905092915050565b600060208201905081810360008301526127be81846123c7565b905092915050565b600060208201905081810360008301526127e08184612461565b905092915050565b60006020820190508181036000830152612801816124b8565b9050919050565b60006020820190508181036000830152612821816124db565b9050919050565b60006020820190508181036000830152612841816124fe565b9050919050565b6000602082019050818103600083015261286181612521565b9050919050565b600060808201905061287d6000830184612544565b92915050565b600060a0820190506128986000830184612599565b92915050565b60006020820190506128b36000830184612652565b92915050565b60006128c36128d4565b90506128cf8282612acc565b919050565b6000604051905090565b600067ffffffffffffffff8211156128f9576128f8612b8a565b5b61290282612bcd565b9050602081019050919050565b6000819050602082019050919050565b6000819050602082019050919050565b600081519050919050565b600081519050919050565b600081519050919050565b6000602082019050919050565b6000602082019050919050565b600082825260208201905092915050565b600082825260208201905092915050565b600082825260208201905092915050565b600082825260208201905092915050565b60006129b982612a2a565b91506129c483612a2a565b9250828210156129d7576129d6612afd565b5b828203905092915050565b60006129ed82612a0a565b9050919050565b60008115159050919050565b6000819050919050565b600073ffffffffffffffffffffffffffffffffffffffff82169050919050565b6000819050919050565b6000612a3f82612a2a565b9050919050565b6000612a5182612a2a565b9050919050565b82818337600083830152505050565b60005b83811015612a85578082015181840152602081019050612a6a565b83811115612a94576000848401525b50505050565b60006002820490506001821680612ab257607f821691505b60208210811415612ac657612ac5612b2c565b5b50919050565b612ad582612bcd565b810181811067ffffffffffffffff82111715612af457612af3612b8a565b5b80604052505050565b7f4e487b7100000000000000000000000000000000000000000000000000000000600052601160045260246000fd5b7f4e487b7100000000000000000000000000000000000000000000000000000000600052602260045260246000fd5b7f4e487b7100000000000000000000000000000000000000000000000000000000600052603260045260246000fd5b7f4e487b7100000000000000000000000000000000000000000000000000000000600052604160045260246000fd5b600080fd5b600080fd5b600080fd5b600080fd5b6000601f19601f8301169050919050565b7f5573657220616c72656164792065786973747300000000000000000000000000600082015250565b7f4f6e6c792073757065722061646d696e2063616e20617070726f76652075736560008201527f7273000000000000000000000000000000000000000000000000000000000000602082015250565b7f496e76616c696420757365720000000000000000000000000000000000000000600082015250565b7f496e76616c69642075736572206f7065726174696f6e00000000000000000000600082015250565b612cb1816129e2565b8114612cbc57600080fd5b50565b612cc881612a00565b8114612cd357600080fd5b5056fea264697066735822122050043418f0c293cafde5410e4774d9223bb9ae3f8fa464de338e7d67db39121264736f6c63430008070033",
  "linkReferences": {},
  "deployedLinkReferences": {}
}