{
  "_format": "hh-sol-artifact-1",
  "contractName": "Users",
  "sourceName": "contracts/Users.sol",
  "abi": [
    {
      "inputs": [],
      "stateMutability": "nonpayable",
      "type": "constructor"
    },
    {
      "inputs": [
        {
          "internalType": "address",
          "name": "ownerAddress",
          "type": "address"
        },
        {
          "internalType": "bytes32",
          "name": "profession",
          "type": "bytes32"
        },
        {
          "internalType": "bytes32",
          "name": "location",
          "type": "bytes32"
        }
      ],
      "name": "addDataOwner",
      "outputs": [],
      "stateMutability": "nonpayable",
      "type": "function"
    },
    {
      "inputs": [
        {
          "internalType": "address",
          "name": "requesterAddress",
          "type": "address"
        },
        {
          "internalType": "bytes32",
          "name": "organisation",
          "type": "bytes32"
        },
        {
          "internalType": "bytes32",
          "name": "department",
          "type": "bytes32"
        },
        {
          "internalType": "bytes32",
          "name": "designation",
          "type": "bytes32"
        }
      ],
      "name": "addDataRequester",
      "outputs": [],
      "stateMutability": "nonpayable",
      "type": "function"
    },
    {
      "inputs": [],
      "name": "approveUser",
      "outputs": [],
      "stateMutability": "nonpayable",
      "type": "function"
    },
    {
      "inputs": [],
      "name": "getAllUsers",
      "outputs": [
        {
          "components": [
            {
              "internalType": "address",
              "name": "userAddress",
              "type": "address"
            },
            {
              "internalType": "uint256",
              "name": "role",
              "type": "uint256"
            },
            {
              "internalType": "bool",
              "name": "approved",
              "type": "bool"
            }
          ],
          "internalType": "struct Users.User[]",
          "name": "",
          "type": "tuple[]"
        }
      ],
      "stateMutability": "view",
      "type": "function"
    },
    {
      "inputs": [
        {
          "internalType": "address",
          "name": "ownerAddress",
          "type": "address"
        }
      ],
      "name": "getDataOwner",
      "outputs": [
        {
          "components": [
            {
              "internalType": "address",
              "name": "ownerAddress",
              "type": "address"
            },
            {
              "internalType": "bytes32",
              "name": "profession",
              "type": "bytes32"
            },
            {
              "internalType": "bytes32",
              "name": "location",
              "type": "bytes32"
            },
            {
              "internalType": "bool",
              "name": "approved",
              "type": "bool"
            }
          ],
          "internalType": "struct Users.Owner",
          "name": "",
          "type": "tuple"
        }
      ],
      "stateMutability": "view",
      "type": "function"
    },
    {
      "inputs": [
        {
          "internalType": "bytes32",
          "name": "organisation",
          "type": "bytes32"
        },
        {
          "internalType": "bytes32",
          "name": "department",
          "type": "bytes32"
        },
        {
          "internalType": "bytes32",
          "name": "designation",
          "type": "bytes32"
        }
      ],
      "name": "updateRequester",
      "outputs": [],
      "stateMutability": "nonpayable",
      "type": "function"
    }
  ],
  "bytecode": "0x608060405234801561001057600080fd5b50336000806101000a81548173ffffffffffffffffffffffffffffffffffffffff021916908373ffffffffffffffffffffffffffffffffffffffff160217905550611244806100606000396000f3fe608060405234801561001057600080fd5b50600436106100625760003560e01c80633185d5af146100675780635dc9ceaf1461008357806369146dea1461009f578063e2842d79146100bb578063f04693d4146100d9578063f565d7b0146100e3575b600080fd5b610081600480360381019061007c9190610d42565b610113565b005b61009d60048036038101906100989190610dfc565b610514565b005b6100b960048036038101906100b49190610d95565b610649565b005b6100c3610a5b565b6040516100d09190611001565b60405180910390f35b6100e1610b35565b005b6100fd60048036038101906100f89190610d15565b610bc7565b60405161010a9190611083565b60405180910390f35b82600073ffffffffffffffffffffffffffffffffffffffff16600260008373ffffffffffffffffffffffffffffffffffffffff1673ffffffffffffffffffffffffffffffffffffffff16815260200190815260200160002060000160009054906101000a900473ffffffffffffffffffffffffffffffffffffffff1673ffffffffffffffffffffffffffffffffffffffff16146101e5576040517f08c379a00000000000000000000000000000000000000000000000000000000081526004016101dc90611023565b60405180910390fd5b600073ffffffffffffffffffffffffffffffffffffffff16600360008373ffffffffffffffffffffffffffffffffffffffff1673ffffffffffffffffffffffffffffffffffffffff16815260200190815260200160002060000160009054906101000a900473ffffffffffffffffffffffffffffffffffffffff1673ffffffffffffffffffffffffffffffffffffffff16146102b6576040517f08c379a00000000000000000000000000000000000000000000000000000000081526004016102ad90611023565b60405180910390fd5b60008054906101000a900473ffffffffffffffffffffffffffffffffffffffff1673ffffffffffffffffffffffffffffffffffffffff168173ffffffffffffffffffffffffffffffffffffffff1614610344576040517f08c379a000000000000000000000000000000000000000000000000000000000815260040161033b90611063565b60405180910390fd5b60405180608001604052808573ffffffffffffffffffffffffffffffffffffffff16815260200184815260200183815260200160001515815250600260008673ffffffffffffffffffffffffffffffffffffffff1673ffffffffffffffffffffffffffffffffffffffff16815260200190815260200160002060008201518160000160006101000a81548173ffffffffffffffffffffffffffffffffffffffff021916908373ffffffffffffffffffffffffffffffffffffffff160217905550602082015181600101556040820151816002015560608201518160030160006101000a81548160ff021916908315150217905550905050600160405180606001604052808673ffffffffffffffffffffffffffffffffffffffff1681526020016001815260200160001515815250908060018154018082558091505060019003906000526020600020906003020160009091909190915060008201518160000160006101000a81548173ffffffffffffffffffffffffffffffffffffffff021916908373ffffffffffffffffffffffffffffffffffffffff1602179055506020820151816001015560408201518160020160006101000a81548160ff021916908315150217905550505050505050565b82600360003373ffffffffffffffffffffffffffffffffffffffff1673ffffffffffffffffffffffffffffffffffffffff1681526020019081526020016000206001018190555081600360003373ffffffffffffffffffffffffffffffffffffffff1673ffffffffffffffffffffffffffffffffffffffff1681526020019081526020016000206002018190555080600360003373ffffffffffffffffffffffffffffffffffffffff1673ffffffffffffffffffffffffffffffffffffffff168152602001908152602001600020600301819055506000600360003373ffffffffffffffffffffffffffffffffffffffff1673ffffffffffffffffffffffffffffffffffffffff16815260200190815260200160002060040160006101000a81548160ff021916908315150217905550505050565b83600073ffffffffffffffffffffffffffffffffffffffff16600260008373ffffffffffffffffffffffffffffffffffffffff1673ffffffffffffffffffffffffffffffffffffffff16815260200190815260200160002060000160009054906101000a900473ffffffffffffffffffffffffffffffffffffffff1673ffffffffffffffffffffffffffffffffffffffff161461071b576040517f08c379a000000000000000000000000000000000000000000000000000000000815260040161071290611023565b60405180910390fd5b600073ffffffffffffffffffffffffffffffffffffffff16600360008373ffffffffffffffffffffffffffffffffffffffff1673ffffffffffffffffffffffffffffffffffffffff16815260200190815260200160002060000160009054906101000a900473ffffffffffffffffffffffffffffffffffffffff1673ffffffffffffffffffffffffffffffffffffffff16146107ec576040517f08c379a00000000000000000000000000000000000000000000000000000000081526004016107e390611023565b60405180910390fd5b60008054906101000a900473ffffffffffffffffffffffffffffffffffffffff1673ffffffffffffffffffffffffffffffffffffffff168173ffffffffffffffffffffffffffffffffffffffff161461087a576040517f08c379a000000000000000000000000000000000000000000000000000000000815260040161087190611063565b60405180910390fd5b6040518060a001604052808673ffffffffffffffffffffffffffffffffffffffff16815260200185815260200184815260200183815260200160001515815250600360008773ffffffffffffffffffffffffffffffffffffffff1673ffffffffffffffffffffffffffffffffffffffff16815260200190815260200160002060008201518160000160006101000a81548173ffffffffffffffffffffffffffffffffffffffff021916908373ffffffffffffffffffffffffffffffffffffffff16021790555060208201518160010155604082015181600201556060820151816003015560808201518160040160006101000a81548160ff021916908315150217905550905050600160405180606001604052808773ffffffffffffffffffffffffffffffffffffffff1681526020016002815260200160001515815250908060018154018082558091505060019003906000526020600020906003020160009091909190915060008201518160000160006101000a81548173ffffffffffffffffffffffffffffffffffffffff021916908373ffffffffffffffffffffffffffffffffffffffff1602179055506020820151816001015560408201518160020160006101000a81548160ff02191690831515021790555050505050505050565b60606001805480602002602001604051908101604052809291908181526020016000905b82821015610b2c57838290600052602060002090600302016040518060600160405290816000820160009054906101000a900473ffffffffffffffffffffffffffffffffffffffff1673ffffffffffffffffffffffffffffffffffffffff1673ffffffffffffffffffffffffffffffffffffffff168152602001600182015481526020016002820160009054906101000a900460ff16151515158152505081526020019060010190610a7f565b50505050905090565b3360008054906101000a900473ffffffffffffffffffffffffffffffffffffffff1673ffffffffffffffffffffffffffffffffffffffff168173ffffffffffffffffffffffffffffffffffffffff1614610bc4576040517f08c379a0000000000000000000000000000000000000000000000000000000008152600401610bbb90611043565b60405180910390fd5b50565b610bcf610ca5565b600260008373ffffffffffffffffffffffffffffffffffffffff1673ffffffffffffffffffffffffffffffffffffffff1681526020019081526020016000206040518060800160405290816000820160009054906101000a900473ffffffffffffffffffffffffffffffffffffffff1673ffffffffffffffffffffffffffffffffffffffff1673ffffffffffffffffffffffffffffffffffffffff16815260200160018201548152602001600282015481526020016003820160009054906101000a900460ff1615151515815250509050919050565b6040518060800160405280600073ffffffffffffffffffffffffffffffffffffffff16815260200160008019168152602001600080191681526020016000151581525090565b600081359050610cfa816111e0565b92915050565b600081359050610d0f816111f7565b92915050565b600060208284031215610d2b57610d2a61113a565b5b6000610d3984828501610ceb565b91505092915050565b600080600060608486031215610d5b57610d5a61113a565b5b6000610d6986828701610ceb565b9350506020610d7a86828701610d00565b9250506040610d8b86828701610d00565b9150509250925092565b60008060008060808587031215610daf57610dae61113a565b5b6000610dbd87828801610ceb565b9450506020610dce87828801610d00565b9350506040610ddf87828801610d00565b9250506060610df087828801610d00565b91505092959194509250565b600080600060608486031215610e1557610e1461113a565b5b6000610e2386828701610d00565b9350506020610e3486828701610d00565b9250506040610e4586828701610d00565b9150509250925092565b6000610e5b8383610fb0565b60608301905092915050565b610e70816110e8565b82525050565b6000610e81826110ae565b610e8b81856110c6565b9350610e968361109e565b8060005b83811015610ec7578151610eae8882610e4f565b9750610eb9836110b9565b925050600181019050610e9a565b5085935050505092915050565b610edd816110fa565b82525050565b610eec81611106565b82525050565b6000610eff6013836110d7565b9150610f0a8261113f565b602082019050919050565b6000610f226022836110d7565b9150610f2d82611168565b604082019050919050565b6000610f45600c836110d7565b9150610f50826111b7565b602082019050919050565b608082016000820151610f716000850182610e67565b506020820151610f846020850182610ee3565b506040820151610f976040850182610ee3565b506060820151610faa6060850182610ed4565b50505050565b606082016000820151610fc66000850182610e67565b506020820151610fd96020850182610ff2565b506040820151610fec6040850182610ed4565b50505050565b610ffb81611130565b82525050565b6000602082019050818103600083015261101b8184610e76565b905092915050565b6000602082019050818103600083015261103c81610ef2565b9050919050565b6000602082019050818103600083015261105c81610f15565b9050919050565b6000602082019050818103600083015261107c81610f38565b9050919050565b60006080820190506110986000830184610f5b565b92915050565b6000819050602082019050919050565b600081519050919050565b6000602082019050919050565b600082825260208201905092915050565b600082825260208201905092915050565b60006110f382611110565b9050919050565b60008115159050919050565b6000819050919050565b600073ffffffffffffffffffffffffffffffffffffffff82169050919050565b6000819050919050565b600080fd5b7f5573657220616c72656164792065786973747300000000000000000000000000600082015250565b7f4f6e6c792073757065722061646d696e2063616e20617070726f76652075736560008201527f7273000000000000000000000000000000000000000000000000000000000000602082015250565b7f496e76616c696420757365720000000000000000000000000000000000000000600082015250565b6111e9816110e8565b81146111f457600080fd5b50565b61120081611106565b811461120b57600080fd5b5056fea26469706673582212204bf16bd689284599f7fce83ad551500624a4b9f05dbac034207f2bac0b3f68b964736f6c63430008060033",
  "linkReferences": {},
  "deployedLinkReferences": {}
}