{
  "_format": "hh-sol-artifact-1",
  "contractName": "Users",
  "sourceName": "contracts/Users.sol",
  "abi": [
    {
      "inputs": [
        {
          "internalType": "address",
          "name": "orgcontractAddress",
          "type": "address"
        }
      ],
      "stateMutability": "nonpayable",
      "type": "constructor"
    },
    {
      "anonymous": false,
      "inputs": [
        {
          "indexed": false,
          "internalType": "address",
          "name": "ownerAddress",
          "type": "address"
        },
        {
          "indexed": false,
          "internalType": "bytes32",
          "name": "profession",
          "type": "bytes32"
        },
        {
          "indexed": false,
          "internalType": "bytes32",
          "name": "location",
          "type": "bytes32"
        },
        {
          "indexed": false,
          "internalType": "bool",
          "name": "approved",
          "type": "bool"
        }
      ],
      "name": "NewOwnerCreated",
      "type": "event"
    },
    {
      "anonymous": false,
      "inputs": [
        {
          "indexed": false,
          "internalType": "address",
          "name": "requesterAddress",
          "type": "address"
        },
        {
          "indexed": false,
          "internalType": "bytes32",
          "name": "organisation",
          "type": "bytes32"
        },
        {
          "indexed": false,
          "internalType": "bytes32",
          "name": "department",
          "type": "bytes32"
        },
        {
          "indexed": false,
          "internalType": "bytes32",
          "name": "designation",
          "type": "bytes32"
        },
        {
          "indexed": false,
          "internalType": "bool",
          "name": "approved",
          "type": "bool"
        }
      ],
      "name": "NewRequesterCreated",
      "type": "event"
    },
    {
      "anonymous": false,
      "inputs": [
        {
          "indexed": false,
          "internalType": "address",
          "name": "ownerAddress",
          "type": "address"
        },
        {
          "indexed": false,
          "internalType": "bytes32",
          "name": "profession",
          "type": "bytes32"
        },
        {
          "indexed": false,
          "internalType": "bytes32",
          "name": "location",
          "type": "bytes32"
        },
        {
          "indexed": false,
          "internalType": "bool",
          "name": "approved",
          "type": "bool"
        }
      ],
      "name": "UpdateDataOwner",
      "type": "event"
    },
    {
      "anonymous": false,
      "inputs": [
        {
          "indexed": false,
          "internalType": "address",
          "name": "requesterAddress",
          "type": "address"
        },
        {
          "indexed": false,
          "internalType": "bytes32",
          "name": "organisation",
          "type": "bytes32"
        },
        {
          "indexed": false,
          "internalType": "bytes32",
          "name": "department",
          "type": "bytes32"
        },
        {
          "indexed": false,
          "internalType": "bytes32",
          "name": "designation",
          "type": "bytes32"
        },
        {
          "indexed": false,
          "internalType": "bool",
          "name": "approved",
          "type": "bool"
        }
      ],
      "name": "UpdateDataRequester",
      "type": "event"
    },
    {
      "inputs": [
        {
          "internalType": "address",
          "name": "ownerAddress",
          "type": "address"
        },
        {
          "internalType": "bytes32",
          "name": "profession",
          "type": "bytes32"
        },
        {
          "internalType": "bytes32",
          "name": "location",
          "type": "bytes32"
        }
      ],
      "name": "addDataOwner",
      "outputs": [],
      "stateMutability": "nonpayable",
      "type": "function"
    },
    {
      "inputs": [
        {
          "internalType": "address",
          "name": "requesterAddress",
          "type": "address"
        },
        {
          "internalType": "bytes32",
          "name": "organisation",
          "type": "bytes32"
        },
        {
          "internalType": "bytes32",
          "name": "department",
          "type": "bytes32"
        },
        {
          "internalType": "bytes32",
          "name": "designation",
          "type": "bytes32"
        }
      ],
      "name": "addDataRequester",
      "outputs": [],
      "stateMutability": "nonpayable",
      "type": "function"
    },
    {
      "inputs": [
        {
          "internalType": "bytes32",
          "name": "name",
          "type": "bytes32"
        },
        {
          "internalType": "bytes32",
          "name": "department",
          "type": "bytes32"
        },
        {
          "internalType": "bytes32",
          "name": "designation",
          "type": "bytes32"
        }
      ],
      "name": "addOrganisation",
      "outputs": [],
      "stateMutability": "nonpayable",
      "type": "function"
    },
    {
      "inputs": [
        {
          "internalType": "address",
          "name": "ownerAddress",
          "type": "address"
        }
      ],
      "name": "approveOwner",
      "outputs": [],
      "stateMutability": "nonpayable",
      "type": "function"
    },
    {
      "inputs": [
        {
          "internalType": "address",
          "name": "requesterAddress",
          "type": "address"
        }
      ],
      "name": "approveRequester",
      "outputs": [],
      "stateMutability": "nonpayable",
      "type": "function"
    },
    {
      "inputs": [],
      "name": "getAllDepartments",
      "outputs": [
        {
          "components": [
            {
              "internalType": "bytes32",
              "name": "depid",
              "type": "bytes32"
            },
            {
              "internalType": "bytes32",
              "name": "depname",
              "type": "bytes32"
            }
          ],
          "internalType": "struct Organisations.DepartmentMinimal[]",
          "name": "",
          "type": "tuple[]"
        }
      ],
      "stateMutability": "view",
      "type": "function"
    },
    {
      "inputs": [],
      "name": "getAllDesignations",
      "outputs": [
        {
          "internalType": "bytes32[]",
          "name": "",
          "type": "bytes32[]"
        }
      ],
      "stateMutability": "view",
      "type": "function"
    },
    {
      "inputs": [],
      "name": "getAllOrganisation",
      "outputs": [
        {
          "components": [
            {
              "internalType": "bytes32",
              "name": "orgid",
              "type": "bytes32"
            },
            {
              "internalType": "bytes32",
              "name": "orgname",
              "type": "bytes32"
            }
          ],
          "internalType": "struct Organisations.OrganisationMinimal[]",
          "name": "",
          "type": "tuple[]"
        }
      ],
      "stateMutability": "view",
      "type": "function"
    },
    {
      "inputs": [],
      "name": "getAllUsers",
      "outputs": [
        {
          "components": [
            {
              "internalType": "address",
              "name": "userAddress",
              "type": "address"
            },
            {
              "internalType": "uint256",
              "name": "role",
              "type": "uint256"
            }
          ],
          "internalType": "struct Users.User[]",
          "name": "",
          "type": "tuple[]"
        }
      ],
      "stateMutability": "view",
      "type": "function"
    },
    {
      "inputs": [
        {
          "internalType": "address",
          "name": "ownerAddress",
          "type": "address"
        }
      ],
      "name": "getDataOwner",
      "outputs": [
        {
          "components": [
            {
              "internalType": "address",
              "name": "ownerAddress",
              "type": "address"
            },
            {
              "internalType": "bytes32",
              "name": "profession",
              "type": "bytes32"
            },
            {
              "internalType": "bytes32",
              "name": "location",
              "type": "bytes32"
            },
            {
              "internalType": "bool",
              "name": "approved",
              "type": "bool"
            }
          ],
          "internalType": "struct Users.Owner",
          "name": "",
          "type": "tuple"
        }
      ],
      "stateMutability": "view",
      "type": "function"
    },
    {
      "inputs": [
        {
          "internalType": "address",
          "name": "requesterAddress",
          "type": "address"
        }
      ],
      "name": "getDataRequester",
      "outputs": [
        {
          "components": [
            {
              "internalType": "address",
              "name": "requesterAddress",
              "type": "address"
            },
            {
              "internalType": "bytes32",
              "name": "organisation",
              "type": "bytes32"
            },
            {
              "internalType": "bytes32",
              "name": "department",
              "type": "bytes32"
            },
            {
              "internalType": "bytes32",
              "name": "designation",
              "type": "bytes32"
            },
            {
              "internalType": "bool",
              "name": "approved",
              "type": "bool"
            }
          ],
          "internalType": "struct Users.Requester",
          "name": "",
          "type": "tuple"
        }
      ],
      "stateMutability": "view",
      "type": "function"
    },
    {
      "inputs": [
        {
          "internalType": "bytes32",
          "name": "depid",
          "type": "bytes32"
        }
      ],
      "name": "getDepartment",
      "outputs": [
        {
          "components": [
            {
              "internalType": "bytes32",
              "name": "depid",
              "type": "bytes32"
            },
            {
              "internalType": "bytes32",
              "name": "depname",
              "type": "bytes32"
            },
            {
              "internalType": "bytes32[]",
              "name": "designations",
              "type": "bytes32[]"
            }
          ],
          "internalType": "struct Organisations.Department",
          "name": "",
          "type": "tuple"
        }
      ],
      "stateMutability": "view",
      "type": "function"
    },
    {
      "inputs": [
        {
          "internalType": "bytes32",
          "name": "orgid",
          "type": "bytes32"
        }
      ],
      "name": "getOrganisation",
      "outputs": [
        {
          "components": [
            {
              "internalType": "bytes32",
              "name": "orgid",
              "type": "bytes32"
            },
            {
              "internalType": "bytes32",
              "name": "orgname",
              "type": "bytes32"
            },
            {
              "components": [
                {
                  "internalType": "bytes32",
                  "name": "depid",
                  "type": "bytes32"
                },
                {
                  "internalType": "bytes32",
                  "name": "depname",
                  "type": "bytes32"
                },
                {
                  "internalType": "bytes32[]",
                  "name": "designations",
                  "type": "bytes32[]"
                }
              ],
              "internalType": "struct Organisations.Department[]",
              "name": "departments",
              "type": "tuple[]"
            }
          ],
          "internalType": "struct Organisations.Organisation",
          "name": "",
          "type": "tuple"
        }
      ],
      "stateMutability": "view",
      "type": "function"
    },
    {
      "inputs": [],
      "name": "isOrgAdmin",
      "outputs": [
        {
          "internalType": "bool",
          "name": "",
          "type": "bool"
        }
      ],
      "stateMutability": "pure",
      "type": "function"
    },
    {
      "inputs": [
        {
          "internalType": "uint256",
          "name": "id",
          "type": "uint256"
        },
        {
          "internalType": "string",
          "name": "val",
          "type": "string"
        }
      ],
      "name": "makeId",
      "outputs": [
        {
          "internalType": "string",
          "name": "",
          "type": "string"
        }
      ],
      "stateMutability": "pure",
      "type": "function"
    },
    {
      "inputs": [
        {
          "internalType": "string",
          "name": "source",
          "type": "string"
        }
      ],
      "name": "stringToBytes32",
      "outputs": [
        {
          "internalType": "bytes32",
          "name": "result",
          "type": "bytes32"
        }
      ],
      "stateMutability": "pure",
      "type": "function"
    },
    {
      "inputs": [
        {
          "internalType": "address",
          "name": "ownerAddress",
          "type": "address"
        },
        {
          "internalType": "bytes32",
          "name": "profession",
          "type": "bytes32"
        },
        {
          "internalType": "bytes32",
          "name": "location",
          "type": "bytes32"
        }
      ],
      "name": "updateDataOwner",
      "outputs": [],
      "stateMutability": "nonpayable",
      "type": "function"
    },
    {
      "inputs": [
        {
          "internalType": "address",
          "name": "requesterAddress",
          "type": "address"
        },
        {
          "internalType": "bytes32",
          "name": "organisation",
          "type": "bytes32"
        },
        {
          "internalType": "bytes32",
          "name": "department",
          "type": "bytes32"
        },
        {
          "internalType": "bytes32",
          "name": "designation",
          "type": "bytes32"
        }
      ],
      "name": "updateDataRequester",
      "outputs": [],
      "stateMutability": "nonpayable",
      "type": "function"
    }
  ],
  "bytecode": "0x608060405260006005553480156200001657600080fd5b506040516200309c3803806200309c83398181016040528101906200003c9190620000dc565b33600660006101000a81548173ffffffffffffffffffffffffffffffffffffffff021916908373ffffffffffffffffffffffffffffffffffffffff16021790555080600760006101000a81548173ffffffffffffffffffffffffffffffffffffffff021916908373ffffffffffffffffffffffffffffffffffffffff1602179055505062000161565b600081519050620000d68162000147565b92915050565b600060208284031215620000f557620000f462000142565b5b60006200010584828501620000c5565b91505092915050565b60006200011b8262000122565b9050919050565b600073ffffffffffffffffffffffffffffffffffffffff82169050919050565b600080fd5b62000152816200010e565b81146200015e57600080fd5b50565b612f2b80620001716000396000f3fe608060405234801561001057600080fd5b50600436106101165760003560e01c806385099f6e116100a2578063b48f3cab11610071578063b48f3cab146102dd578063b648ee2d146102fb578063cfb5192814610317578063e2842d7914610347578063f565d7b01461036557610116565b806385099f6e1461026b578063867b1d2c1461028757806386c3a49c146102a357806394231a01146102c157610116565b806344713f79116100e957806344713f79146101a15780635669c058146101d1578063680ad2d31461020157806369146dea14610231578063782c8b871461024d57610116565b806304291e721461011b5780631113d5711461014b5780633185d5af146101695780633cbca9d414610185575b600080fd5b61013560048036038101906101309190611ea8565b610395565b60405161014291906128df565b60405180910390f35b6101536104a0565b6040516101609190612726565b60405180910390f35b610183600480360381019061017e9190611dee565b6104f8565b005b61019f600480360381019061019a9190611e41565b610911565b005b6101bb60048036038101906101b69190611f71565b610b57565b6040516101c8919061281b565b60405180910390f35b6101eb60048036038101906101e69190611dc1565b610b91565b6040516101f8919061291c565b60405180910390f35b61021b60048036038101906102169190611ea8565b610c79565b60405161022891906128bd565b60405180910390f35b61024b60048036038101906102469190611e41565b610d12565b005b6102556111cf565b60405161026291906127ae565b60405180910390f35b61028560048036038101906102809190611dc1565b6111d4565b005b6102a1600480360381019061029c9190611ed5565b6112c4565b005b6102ab6114b7565b6040516102b89190612748565b60405180910390f35b6102db60048036038101906102d69190611dee565b61152a565b005b6102e5611734565b6040516102f2919061276a565b60405180910390f35b61031560048036038101906103109190611dc1565b6117a7565b005b610331600480360381019061032c9190611f28565b611897565b60405161033e91906127c9565b60405180910390f35b61034f6118c1565b60405161035c919061278c565b60405180910390f35b61037f600480360381019061037a9190611dc1565b611980565b60405161038c9190612901565b60405180910390f35b61039d611bbf565b600080838152602001908152602001600020604051806060016040529081600082015481526020016001820154815260200160028201805480602002602001604051908101604052809291908181526020016000905b82821015610491578382906000526020600020906003020160405180606001604052908160008201548152602001600182015481526020016002820180548060200260200160405190810160405280929190818152602001828054801561047957602002820191906000526020600020905b815481526020019060010190808311610465575b505050505081525050815260200190600101906103f3565b50505050815250509050919050565b606060028054806020026020016040519081016040528092919081815260200182805480156104ee57602002820191906000526020600020905b8154815260200190600101908083116104da575b5050505050905090565b82600073ffffffffffffffffffffffffffffffffffffffff16600960008373ffffffffffffffffffffffffffffffffffffffff1673ffffffffffffffffffffffffffffffffffffffff16815260200190815260200160002060000160009054906101000a900473ffffffffffffffffffffffffffffffffffffffff1673ffffffffffffffffffffffffffffffffffffffff16146105ca576040517f08c379a00000000000000000000000000000000000000000000000000000000081526004016105c19061283d565b60405180910390fd5b600073ffffffffffffffffffffffffffffffffffffffff16600a60008373ffffffffffffffffffffffffffffffffffffffff1673ffffffffffffffffffffffffffffffffffffffff16815260200190815260200160002060000160009054906101000a900473ffffffffffffffffffffffffffffffffffffffff1673ffffffffffffffffffffffffffffffffffffffff161461069b576040517f08c379a00000000000000000000000000000000000000000000000000000000081526004016106929061283d565b60405180910390fd5b600660009054906101000a900473ffffffffffffffffffffffffffffffffffffffff1673ffffffffffffffffffffffffffffffffffffffff168173ffffffffffffffffffffffffffffffffffffffff16141561072c576040517f08c379a00000000000000000000000000000000000000000000000000000000081526004016107239061287d565b60405180910390fd5b60405180608001604052808573ffffffffffffffffffffffffffffffffffffffff16815260200184815260200183815260200160001515815250600960008673ffffffffffffffffffffffffffffffffffffffff1673ffffffffffffffffffffffffffffffffffffffff16815260200190815260200160002060008201518160000160006101000a81548173ffffffffffffffffffffffffffffffffffffffff021916908373ffffffffffffffffffffffffffffffffffffffff160217905550602082015181600101556040820151816002015560608201518160030160006101000a81548160ff021916908315150217905550905050600860405180604001604052808673ffffffffffffffffffffffffffffffffffffffff1681526020016001815250908060018154018082558091505060019003906000526020600020906002020160009091909190915060008201518160000160006101000a81548173ffffffffffffffffffffffffffffffffffffffff021916908373ffffffffffffffffffffffffffffffffffffffff1602179055506020820151816001015550507f9a5c03ed86a31061c8fb061b17872c118b5d9a2bc06ae9c21010519f2b4627168484846000604051610903949392919061268e565b60405180910390a150505050565b3373ffffffffffffffffffffffffffffffffffffffff16600a60008673ffffffffffffffffffffffffffffffffffffffff1673ffffffffffffffffffffffffffffffffffffffff16815260200190815260200160002060000160009054906101000a900473ffffffffffffffffffffffffffffffffffffffff1673ffffffffffffffffffffffffffffffffffffffff16146109e1576040517f08c379a00000000000000000000000000000000000000000000000000000000081526004016109d89061289d565b60405180910390fd5b82600a60008673ffffffffffffffffffffffffffffffffffffffff1673ffffffffffffffffffffffffffffffffffffffff1681526020019081526020016000206001018190555081600a60008673ffffffffffffffffffffffffffffffffffffffff1673ffffffffffffffffffffffffffffffffffffffff1681526020019081526020016000206002018190555080600a60008673ffffffffffffffffffffffffffffffffffffffff1673ffffffffffffffffffffffffffffffffffffffff168152602001908152602001600020600301819055506000600a60008673ffffffffffffffffffffffffffffffffffffffff1673ffffffffffffffffffffffffffffffffffffffff16815260200190815260200160002060040160006101000a81548160ff0219169083151502179055507f01a7125faedbb1c78d014d708a9503a9c7c19c7ea7dfc67d7edaa9bdd15f897c848484846000604051610b499594939291906126d3565b60405180910390a150505050565b60606000610b6484611a5e565b90508281604051602001610b79929190612648565b60405160208183030381529060405291505092915050565b610b99611be6565b600a60008373ffffffffffffffffffffffffffffffffffffffff1673ffffffffffffffffffffffffffffffffffffffff1681526020019081526020016000206040518060a00160405290816000820160009054906101000a900473ffffffffffffffffffffffffffffffffffffffff1673ffffffffffffffffffffffffffffffffffffffff1673ffffffffffffffffffffffffffffffffffffffff1681526020016001820154815260200160028201548152602001600382015481526020016004820160009054906101000a900460ff1615151515815250509050919050565b610c81611c36565b60016000838152602001908152602001600020604051806060016040529081600082015481526020016001820154815260200160028201805480602002602001604051908101604052809291908181526020018280548015610d0257602002820191906000526020600020905b815481526020019060010190808311610cee575b5050505050815250509050919050565b83600073ffffffffffffffffffffffffffffffffffffffff16600960008373ffffffffffffffffffffffffffffffffffffffff1673ffffffffffffffffffffffffffffffffffffffff16815260200190815260200160002060000160009054906101000a900473ffffffffffffffffffffffffffffffffffffffff1673ffffffffffffffffffffffffffffffffffffffff1614610de4576040517f08c379a0000000000000000000000000000000000000000000000000000000008152600401610ddb9061283d565b60405180910390fd5b600073ffffffffffffffffffffffffffffffffffffffff16600a60008373ffffffffffffffffffffffffffffffffffffffff1673ffffffffffffffffffffffffffffffffffffffff16815260200190815260200160002060000160009054906101000a900473ffffffffffffffffffffffffffffffffffffffff1673ffffffffffffffffffffffffffffffffffffffff1614610eb5576040517f08c379a0000000000000000000000000000000000000000000000000000000008152600401610eac9061283d565b60405180910390fd5b600660009054906101000a900473ffffffffffffffffffffffffffffffffffffffff1673ffffffffffffffffffffffffffffffffffffffff168173ffffffffffffffffffffffffffffffffffffffff161415610f46576040517f08c379a0000000000000000000000000000000000000000000000000000000008152600401610f3d9061287d565b60405180910390fd5b6040518060a001604052808673ffffffffffffffffffffffffffffffffffffffff16815260200185815260200184815260200183815260200160001515815250600a60008773ffffffffffffffffffffffffffffffffffffffff1673ffffffffffffffffffffffffffffffffffffffff16815260200190815260200160002060008201518160000160006101000a81548173ffffffffffffffffffffffffffffffffffffffff021916908373ffffffffffffffffffffffffffffffffffffffff16021790555060208201518160010155604082015181600201556060820151816003015560808201518160040160006101000a81548160ff021916908315150217905550905050600860405180604001604052808773ffffffffffffffffffffffffffffffffffffffff1681526020016002815250908060018154018082558091505060019003906000526020600020906002020160009091909190915060008201518160000160006101000a81548173ffffffffffffffffffffffffffffffffffffffff021916908373ffffffffffffffffffffffffffffffffffffffff160217905550602082015181600101555050600760009054906101000a900473ffffffffffffffffffffffffffffffffffffffff1673ffffffffffffffffffffffffffffffffffffffff1663867b1d2c8585856040518463ffffffff1660e01b8152600401611156939291906127e4565b600060405180830381600087803b15801561117057600080fd5b505af1158015611184573d6000803e3d6000fd5b505050507f64a3b601a8956496945ec082053c49dacb526b26466a0848e0db79d3760b4fa38585858560006040516111c09594939291906126d3565b60405180910390a15050505050565b600090565b33600660009054906101000a900473ffffffffffffffffffffffffffffffffffffffff1673ffffffffffffffffffffffffffffffffffffffff168173ffffffffffffffffffffffffffffffffffffffff1614611265576040517f08c379a000000000000000000000000000000000000000000000000000000000815260040161125c9061285d565b60405180910390fd5b6001600a60008473ffffffffffffffffffffffffffffffffffffffff1673ffffffffffffffffffffffffffffffffffffffff16815260200190815260200160002060040160006101000a81548160ff0219169083151502179055505050565b60016005546112d39190612ae2565b600581905550600061131c6005546040518060400160405280600381526020017f6f72670000000000000000000000000000000000000000000000000000000000815250610b57565b9050600061132982611897565b9050600080600083815260200190815260200160002060020180549050905060008360405160200161135b919061266c565b604051602081830303815290604052905060006113788383610b57565b9050600061138582611897565b90508460008087815260200190815260200160002060000181905550886000808781526020019081526020016000206001018190555080600160008381526020019081526020016000206000018190555087600160008381526020019081526020016000206001018190555060016000828152602001908152602001600020600201879080600181540180825580915050600190039060005260206000200160009091909190915055600080868152602001908152602001600020600201600160008381526020019081526020016000209080600181540180825580915050600190039060005260206000209060030201600090919091909150600082015481600001556001820154816001015560028201816002019080546114a9929190611c5d565b505050505050505050505050565b60606004805480602002602001604051908101604052809291908181526020016000905b82821015611521578382906000526020600020906002020160405180604001604052908160008201548152602001600182015481525050815260200190600101906114db565b50505050905090565b3373ffffffffffffffffffffffffffffffffffffffff16600960008573ffffffffffffffffffffffffffffffffffffffff1673ffffffffffffffffffffffffffffffffffffffff16815260200190815260200160002060000160009054906101000a900473ffffffffffffffffffffffffffffffffffffffff1673ffffffffffffffffffffffffffffffffffffffff16146115fa576040517f08c379a00000000000000000000000000000000000000000000000000000000081526004016115f19061289d565b60405180910390fd5b60405180608001604052808473ffffffffffffffffffffffffffffffffffffffff16815260200183815260200182815260200160001515815250600960008573ffffffffffffffffffffffffffffffffffffffff1673ffffffffffffffffffffffffffffffffffffffff16815260200190815260200160002060008201518160000160006101000a81548173ffffffffffffffffffffffffffffffffffffffff021916908373ffffffffffffffffffffffffffffffffffffffff160217905550602082015181600101556040820151816002015560608201518160030160006101000a81548160ff0219169083151502179055509050507fabc0938dcc8823bebe7fccc24a381077379cad909e1f06bf32a384a8d7c8d2d08383836000604051611727949392919061268e565b60405180910390a1505050565b60606003805480602002602001604051908101604052809291908181526020016000905b8282101561179e57838290600052602060002090600202016040518060400160405290816000820154815260200160018201548152505081526020019060010190611758565b50505050905090565b33600660009054906101000a900473ffffffffffffffffffffffffffffffffffffffff1673ffffffffffffffffffffffffffffffffffffffff168173ffffffffffffffffffffffffffffffffffffffff1614611838576040517f08c379a000000000000000000000000000000000000000000000000000000000815260040161182f9061285d565b60405180910390fd5b6001600960008473ffffffffffffffffffffffffffffffffffffffff1673ffffffffffffffffffffffffffffffffffffffff16815260200190815260200160002060030160006101000a81548160ff0219169083151502179055505050565b6000808290506000815114156118b3576000801b9150506118bc565b60208301519150505b919050565b60606008805480602002602001604051908101604052809291908181526020016000905b8282101561197757838290600052602060002090600202016040518060400160405290816000820160009054906101000a900473ffffffffffffffffffffffffffffffffffffffff1673ffffffffffffffffffffffffffffffffffffffff1673ffffffffffffffffffffffffffffffffffffffff168152602001600182015481525050815260200190600101906118e5565b50505050905090565b611988611caf565b600960008373ffffffffffffffffffffffffffffffffffffffff1673ffffffffffffffffffffffffffffffffffffffff1681526020019081526020016000206040518060800160405290816000820160009054906101000a900473ffffffffffffffffffffffffffffffffffffffff1673ffffffffffffffffffffffffffffffffffffffff1673ffffffffffffffffffffffffffffffffffffffff16815260200160018201548152602001600282015481526020016003820160009054906101000a900460ff1615151515815250509050919050565b60606000821415611aa6576040518060400160405280600181526020017f30000000000000000000000000000000000000000000000000000000000000008152509050611bba565b600082905060005b60008214611ad8578080611ac190612c62565b915050600a82611ad19190612b38565b9150611aae565b60008167ffffffffffffffff811115611af457611af3612d69565b5b6040519080825280601f01601f191660200182016040528015611b265781602001600182028036833780820191505090505b5090505b60008514611bb357600182611b3f9190612b69565b9150600a85611b4e9190612cab565b6030611b5a9190612ae2565b60f81b818381518110611b7057611b6f612d3a565b5b60200101907effffffffffffffffffffffffffffffffffffffffffffffffffffffffffffff1916908160001a905350600a85611bac9190612b38565b9450611b2a565b8093505050505b919050565b60405180606001604052806000801916815260200160008019168152602001606081525090565b6040518060a00160405280600073ffffffffffffffffffffffffffffffffffffffff1681526020016000801916815260200160008019168152602001600080191681526020016000151581525090565b60405180606001604052806000801916815260200160008019168152602001606081525090565b828054828255906000526020600020908101928215611c9e5760005260206000209182015b82811115611c9d578254825591600101919060010190611c82565b5b509050611cab9190611cf5565b5090565b6040518060800160405280600073ffffffffffffffffffffffffffffffffffffffff16815260200160008019168152602001600080191681526020016000151581525090565b5b80821115611d0e576000816000905550600101611cf6565b5090565b6000611d25611d208461295c565b612937565b905082815260208101848484011115611d4157611d40612d9d565b5b611d4c848285612bef565b509392505050565b600081359050611d6381612eb0565b92915050565b600081359050611d7881612ec7565b92915050565b600082601f830112611d9357611d92612d98565b5b8135611da3848260208601611d12565b91505092915050565b600081359050611dbb81612ede565b92915050565b600060208284031215611dd757611dd6612da7565b5b6000611de584828501611d54565b91505092915050565b600080600060608486031215611e0757611e06612da7565b5b6000611e1586828701611d54565b9350506020611e2686828701611d69565b9250506040611e3786828701611d69565b9150509250925092565b60008060008060808587031215611e5b57611e5a612da7565b5b6000611e6987828801611d54565b9450506020611e7a87828801611d69565b9350506040611e8b87828801611d69565b9250506060611e9c87828801611d69565b91505092959194509250565b600060208284031215611ebe57611ebd612da7565b5b6000611ecc84828501611d69565b91505092915050565b600080600060608486031215611eee57611eed612da7565b5b6000611efc86828701611d69565b9350506020611f0d86828701611d69565b9250506040611f1e86828701611d69565b9150509250925092565b600060208284031215611f3e57611f3d612da7565b5b600082013567ffffffffffffffff811115611f5c57611f5b612da2565b5b611f6884828501611d7e565b91505092915050565b60008060408385031215611f8857611f87612da7565b5b6000611f9685828601611dac565b925050602083013567ffffffffffffffff811115611fb757611fb6612da2565b5b611fc385828601611d7e565b9150509250929050565b6000611fd983836122c8565b60208301905092915050565b6000611ff183836123ff565b60408301905092915050565b6000612009838361242e565b905092915050565b600061201d83836124ce565b60408301905092915050565b6000612035838361260a565b60408301905092915050565b61204a81612b9d565b82525050565b61205981612b9d565b82525050565b600061206a826129dd565b6120748185612a60565b935061207f8361298d565b8060005b838110156120b05781516120978882611fcd565b97506120a283612a1f565b925050600181019050612083565b5085935050505092915050565b60006120c8826129dd565b6120d28185612a71565b93506120dd8361298d565b8060005b8381101561210e5781516120f58882611fcd565b975061210083612a1f565b9250506001810190506120e1565b5085935050505092915050565b6000612126826129e8565b6121308185612a82565b935061213b8361299d565b8060005b8381101561216c5781516121538882611fe5565b975061215e83612a2c565b92505060018101905061213f565b5085935050505092915050565b6000612184826129f3565b61218e8185612a93565b9350836020820285016121a0856129ad565b8060005b858110156121dc57848403895281516121bd8582611ffd565b94506121c883612a39565b925060208a019950506001810190506121a4565b50829750879550505050505092915050565b60006121f9826129fe565b6122038185612aa4565b935061220e836129bd565b8060005b8381101561223f5781516122268882612011565b975061223183612a46565b925050600181019050612212565b5085935050505092915050565b600061225782612a09565b6122618185612ab5565b935061226c836129cd565b8060005b8381101561229d5781516122848882612029565b975061228f83612a53565b925050600181019050612270565b5085935050505092915050565b6122b381612baf565b82525050565b6122c281612baf565b82525050565b6122d181612bbb565b82525050565b6122e081612bbb565b82525050565b60006122f182612a14565b6122fb8185612ac6565b935061230b818560208601612bfe565b61231481612dac565b840191505092915050565b600061232a82612a14565b6123348185612ad7565b9350612344818560208601612bfe565b80840191505092915050565b600061235d600383612ad7565b915061236882612dbd565b600382019050919050565b6000612380601383612ac6565b915061238b82612de6565b602082019050919050565b60006123a3602283612ac6565b91506123ae82612e0f565b604082019050919050565b60006123c6600c83612ac6565b91506123d182612e5e565b602082019050919050565b60006123e9601683612ac6565b91506123f482612e87565b602082019050919050565b60408201600082015161241560008501826122c8565b50602082015161242860208501826122c8565b50505050565b600060608301600083015161244660008601826122c8565b50602083015161245960208601826122c8565b5060408301518482036040860152612471828261205f565b9150508091505092915050565b600060608301600083015161249660008601826122c8565b5060208301516124a960208601826122c8565b50604083015184820360408601526124c1828261205f565b9150508091505092915050565b6040820160008201516124e460008501826122c8565b5060208201516124f760208501826122c8565b50505050565b600060608301600083015161251560008601826122c8565b50602083015161252860208601826122c8565b50604083015184820360408601526125408282612179565b9150508091505092915050565b6080820160008201516125636000850182612041565b50602082015161257660208501826122c8565b50604082015161258960408501826122c8565b50606082015161259c60608501826122aa565b50505050565b60a0820160008201516125b86000850182612041565b5060208201516125cb60208501826122c8565b5060408201516125de60408501826122c8565b5060608201516125f160608501826122c8565b50608082015161260460808501826122aa565b50505050565b6040820160008201516126206000850182612041565b5060208201516126336020850182612639565b50505050565b61264281612be5565b82525050565b6000612654828561231f565b9150612660828461231f565b91508190509392505050565b6000612678828461231f565b915061268382612350565b915081905092915050565b60006080820190506126a36000830187612050565b6126b060208301866122d7565b6126bd60408301856122d7565b6126ca60608301846122b9565b95945050505050565b600060a0820190506126e86000830188612050565b6126f560208301876122d7565b61270260408301866122d7565b61270f60608301856122d7565b61271c60808301846122b9565b9695505050505050565b6000602082019050818103600083015261274081846120bd565b905092915050565b60006020820190508181036000830152612762818461211b565b905092915050565b6000602082019050818103600083015261278481846121ee565b905092915050565b600060208201905081810360008301526127a6818461224c565b905092915050565b60006020820190506127c360008301846122b9565b92915050565b60006020820190506127de60008301846122d7565b92915050565b60006060820190506127f960008301866122d7565b61280660208301856122d7565b61281360408301846122d7565b949350505050565b6000602082019050818103600083015261283581846122e6565b905092915050565b6000602082019050818103600083015261285681612373565b9050919050565b6000602082019050818103600083015261287681612396565b9050919050565b60006020820190508181036000830152612896816123b9565b9050919050565b600060208201905081810360008301526128b6816123dc565b9050919050565b600060208201905081810360008301526128d7818461247e565b905092915050565b600060208201905081810360008301526128f981846124fd565b905092915050565b6000608082019050612916600083018461254d565b92915050565b600060a08201905061293160008301846125a2565b92915050565b6000612941612952565b905061294d8282612c31565b919050565b6000604051905090565b600067ffffffffffffffff82111561297757612976612d69565b5b61298082612dac565b9050602081019050919050565b6000819050602082019050919050565b6000819050602082019050919050565b6000819050602082019050919050565b6000819050602082019050919050565b6000819050602082019050919050565b600081519050919050565b600081519050919050565b600081519050919050565b600081519050919050565b600081519050919050565b600081519050919050565b6000602082019050919050565b6000602082019050919050565b6000602082019050919050565b6000602082019050919050565b6000602082019050919050565b600082825260208201905092915050565b600082825260208201905092915050565b600082825260208201905092915050565b600082825260208201905092915050565b600082825260208201905092915050565b600082825260208201905092915050565b600082825260208201905092915050565b600081905092915050565b6000612aed82612be5565b9150612af883612be5565b9250827fffffffffffffffffffffffffffffffffffffffffffffffffffffffffffffffff03821115612b2d57612b2c612cdc565b5b828201905092915050565b6000612b4382612be5565b9150612b4e83612be5565b925082612b5e57612b5d612d0b565b5b828204905092915050565b6000612b7482612be5565b9150612b7f83612be5565b925082821015612b9257612b91612cdc565b5b828203905092915050565b6000612ba882612bc5565b9050919050565b60008115159050919050565b6000819050919050565b600073ffffffffffffffffffffffffffffffffffffffff82169050919050565b6000819050919050565b82818337600083830152505050565b60005b83811015612c1c578082015181840152602081019050612c01565b83811115612c2b576000848401525b50505050565b612c3a82612dac565b810181811067ffffffffffffffff82111715612c5957612c58612d69565b5b80604052505050565b6000612c6d82612be5565b91507fffffffffffffffffffffffffffffffffffffffffffffffffffffffffffffffff821415612ca057612c9f612cdc565b5b600182019050919050565b6000612cb682612be5565b9150612cc183612be5565b925082612cd157612cd0612d0b565b5b828206905092915050565b7f4e487b7100000000000000000000000000000000000000000000000000000000600052601160045260246000fd5b7f4e487b7100000000000000000000000000000000000000000000000000000000600052601260045260246000fd5b7f4e487b7100000000000000000000000000000000000000000000000000000000600052603260045260246000fd5b7f4e487b7100000000000000000000000000000000000000000000000000000000600052604160045260246000fd5b600080fd5b600080fd5b600080fd5b600080fd5b6000601f19601f8301169050919050565b7f6465700000000000000000000000000000000000000000000000000000000000600082015250565b7f5573657220616c72656164792065786973747300000000000000000000000000600082015250565b7f4f6e6c792073757065722061646d696e2063616e20617070726f76652075736560008201527f7273000000000000000000000000000000000000000000000000000000000000602082015250565b7f496e76616c696420757365720000000000000000000000000000000000000000600082015250565b7f496e76616c69642075736572206f7065726174696f6e00000000000000000000600082015250565b612eb981612b9d565b8114612ec457600080fd5b50565b612ed081612bbb565b8114612edb57600080fd5b50565b612ee781612be5565b8114612ef257600080fd5b5056fea2646970667358221220d51b9d87e0601e1819bd46418a5409592c7a77a196842fec780cdc90862b58ef64736f6c63430008060033",
  "linkReferences": {},
  "deployedLinkReferences": {}
}